:10000000E2C0000009C1000007C1000005C10000F6
:1000100003C1000001C10000FFC00000FDC00000DE
:10002000FBC00000F9C0000008C6000083C6000045
:10003000F3C00000F1C00000EFC00000EDC0000000
:10004000EBC00000E9C00000E7C00000E5C0000010
:10005000E3C00000E1C00000DFC000004DC50000AB
:10006000DBC00000B4C20000DDC200000CC3000011
:10007000D3C00000D1C00000CFC00000CDC0000040
:10008000CBC00000C9C00000C7C00000C5C0000050
:10009000C3C00000C1C000000129022904290829A9
:1000A0001029202940298029012C022C0126022612
:1000B000042608261026202640268026402C802C48
:1000C0000123022304230823102320234023802319
:1000D0000120022004200820102020204020802021
:1000E000102C202C012F022F042F082F102F202F2F
:1000F000402F802F00010000A501120002000062C5
:100100000143000300005E010401030904440118D7
:10011000020309042C0116030309041E010C0C033D
:100120003100320033003400350000001603550062
:100130005300420020005300650072006900610016
:100140006C00000018035400650065006E00730029
:1001500079006400750069006E006F000000040300
:10016000090409024300020100C032090400000131
:1001700002020100052400100105240100010424ED
:100180000206052406000107058203080040090451
:100190000100020A000000070503024000000705F5
:1001A00084024000001201000202000020C01683F9
:1001B000047202010203010001C1020180360181C3
:1001C00036006103A10A11241FBECFEFD0E2DEBFCB
:1001D000CDBF11E0A0E0B1E0E2ECF5E100E00BBF43
:1001E00002C007900D92A033B107D9F722E0A0E337
:1001F000B1E001C01D92A031B207E1F710E0C3EEFB
:10020000D0E004C02197FE010E94D60AC13ED1076A
:10021000C9F7F7D20C94DF0AF3CE569A5E985C9A2F
:10022000549A409100015091010160910201709136
:10023000030186E092E00E949A092091000130912A
:1002400001014091020150910301CA01B901969543
:1002500087957795679560587B47814E9F4F0E94A1
:10026000B40AB9014FEF85E891E078C10F931F936D
:10027000CF93DF9386E092E0E2D6EC0118161906E0
:1002800084F585E891E0E4D01816190654F5AE011E
:10029000C135D10514F040E550E0841795070CF402
:1002A000AC0161E371E086E092E00E94EB09AC01F1
:1002B00061E371E085E891E015D25E9A0FB6F8949B
:1002C0008091FB019091FC01A091FD01B091FE0194
:1002D0000FBE8093810190938201A0938301B0931C
:1002E000840185E891E0A4D0EC01181619067CF58C
:1002F00086E092E00CD7181619064CF5AE01C13510
:10030000D10514F040E550E0841795070CF4AC01DA
:1003100061E371E085E891E049D2AC0161E371E00D
:1003200086E092E007D75E9A0FB6F8948091FB01C1
:100330009091FC01A091FD01B091FE010FBE809350
:10034000810190938201A0938301B093840186E0A0
:1003500092E00E949D0A882351F090913001911102
:1003600006C05C98E8EEF3E03197F1F75C9A809371
:1003700030010FB6F8948091FB019091FC01A0919F
:10038000FD01B091FE010FBE4091810150918201AB
:100390006091830170918401841B950BA60BB70BB0
:1003A0000497A105B10508F05E9886E092E00E94EE
:1003B0008D0A0091000110910101209102013091FC
:1003C0000301601771078207930769F186E092E0E5
:1003D0000E948D0A9B01AC01209300013093010122
:1003E0004093020150930301211581EE3807410526
:1003F000510551F44FEF62E270E085E891E0DF9142
:10040000CF911F910F91AAC0CA01B9019695879506
:100410007795679560587B47814E9F4F0E94B40A3D
:10042000B9014FEFEACFDF91CF911F910F9108955E
:100430005091B9014091B801852F90E0242F30E010
:10044000541718F0821B930B0895805C9F4FFACFCE
:1004500050918F0140918E01252F30E0842F90E044
:10046000821B930B541710F08796089501970895F7
:100470008091B901E091B8018E1751F0EF5FE0343F
:1004800008F0E0E0F0E0E654FE4F808190E008954F
:100490008FEF9FEF08959091B9018091B80198175F
:1004A00079F09091B8019F5F903408F090E0E92FC7
:1004B000F0E0E654FE4F80819093B80190E00895FB
:1004C0008FEF9FEF089580918D018111FCCF0895EA
:1004D0002091C90023FD06C021E0FC01228390E0A9
:1004E00080E00895809104018F3F41F080918D015B
:1004F000811104C0E0910401F0E0DFD190918F01FF
:1005000080918E01981304C08091C80085FD19C0A8
:1005100080918F018F5F8832F8F490918E01981747
:10052000E1F3E82FF0E0E057FE4F608391E0909315
:100530008D0180938F018091C90080628093C900F2
:1005400008C08FB7F8946093CE0091E090938D012E
:100550008FBF81E090E0089580E0DFCF1F93CF93BD
:10056000DF93EB01142F409304014F3F29F0842FB8
:1005700093D1E12FF0E0A7D1C0FF24C0C13080E1CA
:10058000D80700F582E08093C8002197D093CD0072
:10059000C093CC008091C90083FD10C01092B901B6
:1005A0001092B80110928F0110928E0110928D015D
:1005B00086E08093CA0088ED8093C900DF91CF91D7
:1005C0001F9108951092C800D695C795DECF1F924F
:1005D0000F920FB60F9211240BB60F922F938F9399
:1005E0009F93EF93FF939091CE008091B9018F5F1D
:1005F000803408F080E02091B801281739F0E82F06
:10060000F0E0E654FE4F90838093B901FF91EF91A3
:100610009F918F912F910F900BBE0F900FBE0F9057
:100620001F9018951F920F920FB60F9211240BB6C0
:100630000F928F939F93EF93FF9390918F018091EF
:100640008E01981310C08091C9008F7D8093C900DE
:10065000FF91EF919F918F910F900BBE0F900FBE66
:100660000F901F90189580918E018F5F883208F04F
:1006700080E0E82FF0E0E057FE4F90819093CE00AD
:1006800080938E01E5CF1F920F920FB60F92112427
:100690000BB60F928F93EF93FF9310928D01809181
:1006A00004018F3F21F0E0910401F0E00CD1FF91B3
:1006B000EF918F910F900BBE0F900FBE0F901F9078
:1006C0001895E5E8F1E0128288EE93E0A0E0B0E052
:1006D00083839483A583B683178280E191E091831D
:1006E00080830895CF92DF92EF92FF920F931F9332
:1006F000CF93DF936C01EB017B01E40EF51E10E05C
:1007000000E0CE15DF0561F06991D601ED91FC9115
:100710000190F081E02DC6010995080F191FF1CF56
:10072000C801DF91CF911F910F91FF90EF90DF9063
:10073000CF900895CF92DF92EF92FF92CF93DF9305
:10074000EC010FB6F894C090FB01D090FC01E09052
:10075000FD01F090FE010FBEE881F9810284F3856E
:10076000E02DCE01099597FF1AC00FB6F89480913D
:10077000FB019091FC01A091FD01B091FE010FBE23
:100780008C199D09AE09BF094B815C816D817E8109
:1007900084179507A607B707F8F28FEF9FEFDF9151
:1007A000CF91FF90EF90DF90CF900895AF92BF92DE
:1007B000CF92DF92EF92FF920F931F93CF93DF932D
:1007C0005C017B018B01040F151FEB016E01CE183C
:1007D000DF08C017D10739F0C501ACDF97FF0FC0A4
:1007E00081E0F5018783C601DF91CF911F910F91C1
:1007F000FF90EF90DF90CF90BF90AF9008958993D6
:10080000E5CF24D00ADD32DDFECF1DBA109268009C
:100810001CBC10BE1FBA10927A0010926E0010928B
:100820006F0010927000109271001092C900109227
:10083000BC0011B814B817B81AB81DB810BA12B85D
:1008400015B818B81BB81EB811BA0895F894E1E6A7
:10085000F0E020E82083108283E084BD85BDEEE6D1
:10086000F0E080818160808391E09093800082E05D
:10087000809381009093B0008093B100909390009A
:100880008093910086E880937A0020937B001092F9
:100890007E00B1D1789408958E3270F4E8E9F0E0EA
:1008A000880FE80FF11D2591E491F0E09FB7F894CF
:1008B0008181822B81839FBF0895EE3250F4EE0F29
:1008C000E659FB4F0994EE3220F4EE0FEA53FB4F4A
:1008D00009940895589AB6C0599AD0C05A9A089562
:1008E0005B9A08955C9A08955D9A08955E9A0895BA
:1008F0005F9A0895709A0895719A0895409A08959C
:10090000419A0895429A0895439A0895449AC8C016
:10091000459AC0C0469AB8C0479A0895769A0895F5
:10092000779A0895289A0895299A08952A9A0895F9
:100930002B9A08952C9A9CC02D9A88C02E9A8CC010
:100940002F9A90C0109A0895119A0895129A0895B6
:10095000139A0895149A0895159A0895169A089569
:10096000179A0895749A0895759A0895889A089523
:10097000899A08958A9A08958B9A08958C9A089571
:100980008D9A08958E9A08958F9A089558985AC00E
:10099000599874C05A9808955B9808955C98089582
:1009A0005D9808955E9808955F98089570980895E9
:1009B000719808954098089541980895429808952F
:1009C0004398089544986CC0459864C046985CC0AC
:1009D00047980895769808957798089528980895E7
:1009E000299808952A9808952B9808952C9840C026
:1009F0002D982CC02E9830C02F9834C01098089590
:100A000011980895129808951398089514980895C8
:100A1000159808951698089517980895749808954C
:100A20007598089588980895899808958A980895E2
:100A30008B9808958C9808958D9808958E980895B0
:100A40008F980895E4B5EF7DE4BD0895E0918000AE
:100A5000EF77E09380000895E0918000EF7DE093D0
:100A600080000895E0918000E77FE0938000089582
:100A7000E091B000EF77E093B0000895E091B0000E
:100A8000EF7DE093B0000895E0919000EF77E09360
:100A900090000895E0919000EF7DE093900008951C
:100AA000E0919000E77FE09390000895F89484B778
:100AB000877F84BF80916000806180936000109286
:100AC000600080E29EE40197F1F781E08093E0000E
:100AD00080E28093D80080E69AEE0197F1F795DEE8
:100AE0000C9400FEFFCFF89490DE80E69AEE01971A
:100AF000F1F70C940000FFCF8F938FB78F93809105
:100B0000FA018D5F8D37D0F48093FA018091FB015B
:100B10008F5F8093FB01D8F08091FC018F4F809311
:100B2000FC01A8F08091FD018F4F8093FD0178F0CA
:100B30008091FE018F4F8093FE0109C08D578093F5
:100B4000FA018091FB018E5F8093FB0128F7809171
:100B5000FF018C5F8093FF0158F0809100028F4F5E
:100B60008093000228F0809101028F4F8093010250
:100B70008F918FBF8F911895CF92DF92EF92FF9256
:100B80006B017C0119D09B01C114D104E104F10473
:100B900029F4FF90EF90DF90CF9008950DD0621B65
:100BA000730B683E734080F381E0C81AD108E108F6
:100BB000F10828513C4FE8CF0FB6F89466B515B24E
:100BC0007091FF0180910002909101020FBE10FE12
:100BD00005C06F3F19F07C5F8F4F9F4F1124002499
:100BE000660F001C660F001C702908958091E800B4
:100BF00080FFFCCF08958091D80087FF02C085FF59
:100C00001BC081E88093D70080EA8093D80086E1FA
:100C100089BD09B400FEFDCF80E98093D800109211
:100C2000E000109212021092110210921002109223
:100C3000E1008DE08093E20008951F920F920FB6BD
:100C40000F9211240BB60F922F933F934F935F9304
:100C50006F937F938F939F93AF93BF93EF93FF9384
:100C60009091E1001092E10093FF11C01092E90011
:100C700081E08093EB001092EC0082E28093ED0023
:100C800088E08093F000109212021092100292FFFE
:100C90001DC0809112028823C9F08091050288232B
:100CA00059F0815080930502811106C084E0809341
:100CB000E9008AE38093E80080910402882331F000
:100CC000815080930402811101C0F0DE90FF0CC0BE
:100CD00080E18093E2001092120281E08093110281
:100CE00080EA8093D80019BC80911102882379F0A2
:100CF00094FF0DC086E189BD09B400FEFDCF80E9F7
:100D00008093D8008DE08093E20010921102FF9151
:100D1000EF91BF91AF919F918F917F916F915F9173
:100D20004F913F912F910F900BBE0F900FBE0F90E0
:100D30001F9018951F920F920FB60F9211240BB6A9
:100D40000F92EF92FF920F931F932F933F934F9326
:100D50005F936F937F938F939F93AF93BF93CF9343
:100D6000DF93EF93FF931092E9008091E80083FFF7
:100D700020C0D091F100C091F100E090F100F0901E
:100D8000F1000091F1001091F1002091F1003091FB
:100D9000F10082EF8093E800C63009F05BC0E4EF19
:100DA000F0E085919591E816F90639F03596C15035
:100DB000C1F781E28093EB002BC0859195910817D4
:100DC000190711F03396F3CF4591559184912F3F38
:100DD000310519F010F02FEF30E0821708F4282FBA
:100DE0003EEF8091E800982F9570D9F382FD10C0F6
:100DF000822F213208F080E2982F911124C0922F87
:100E0000981B892F3093E80091111BC02032C8F441
:100E1000FF91EF91DF91CF91BF91AF919F918F9112
:100E20007F916F915F914F913F912F911F910F9102
:100E3000FF90EF900F900BBE0F900FBE0F901F9082
:100E40001895282FCECFFA0145914093F100AF01BC
:100E50009150D3CFC53049F48EEF8093E800C6DEC1
:100E60008E2D80688093E300D3CFC93021F5D11156
:100E7000A0CFE092120210921002109205028EEFA3
:100E80008093E80081E0E7EBF1E08093E900959141
:100E90009093EB00992331F095919093EC0095910C
:100EA0009093ED008F5F853081F78EE18093EA00AB
:100EB0001092EA00ADCFC83061F4D03809F079CF94
:100EC00095DE809112028093F1008EEF8093E8000E
:100ED0009FCFC13279F4D13A09F06BCF87DEE5E0DC
:100EE000F1E080818093F100319681E0EC30F807E9
:100EF000C1F7EBCFC03209F047C0D13209F059CF6A
:100F00008091E80082FFFCCFE5E0F1E08091F10004
:100F10008083319691E0EC30F907C1F78BEF809335
:100F2000E8008EEF8093E8003091050140910601C2
:100F3000809107012091080190E0B0E0A0E0DC0181
:100F400099278827942B832BB22B86389105A105EE
:100F5000B10521F48FE0809304025ACF86399105C0
:100F6000A105B10509F054CF84E08093E9009FEF1B
:100F70008091EE00837009F4B6DD9093E8008091D3
:100F8000E80082FDFCCFF4CFC23239F4D13209F04F
:100F900010CFE09210022ADE98CFC33221F4D13272
:100FA00009F007CFF8CFC11111C020DED23849F4C3
:100FB0000093E900C091EB00C5FBCC27C0F910926B
:100FC000E900C093F1001092F1007FCF8C2F8D7F4C
:100FD000813009F0EECED23009F0EBCEEF2809F0E7
:100FE000E8CE0F778FEF800F863008F0E2CE8EEFDD
:100FF0008093E8000093E900C33009F4DACE89E178
:101000008093EB0081E090E001C0880F0A95EAF739
:101010004DCFCF93DF931F92CDB7DEB76983DC014D
:10102000ED91FC910280F381E02D41E050E0BE01A2
:101030006F5F7F4F09950F90DF91CF910895FC016D
:101040008FB7F8949091120291110CC090E08FBF6D
:101050002085318537FD03C09F3F09F09F5F892FB1
:1010600090E0089593E09093E9009091F20091113F
:10107000EECF2091E80022FFE9CF25FDE7CF2BE658
:101080002093E800E4CFCF93DF93EC018885998526
:1010900097FF09C0E881F9810284F385E02DCE0134
:1010A00009959987888788859985DF91CF910895DB
:1010B000FC012085318537FD07C04FEF5FEF518779
:1010C0004087C901992708959FB7F894809112022B
:1010D000811104C09FBF8FEF9FEF089583E080933D
:1010E000E9002BE68091E80085FD05C082FFF2CF84
:1010F0002093E800F7CF8091F1002091E80025FDD2
:1011000003C02BE62093E8009FBF90E008958091F4
:101110001202882361F08FB7F89494E09093E9006D
:101120009091F2008FBF80E4891B90E0089590E0D9
:1011300080E00895BF92CF92DF92EF92FF920F93DB
:101140001F93CF93DF937C0180911202811110C015
:1011500081E0F701828310E000E0C801DF91CF91C8
:101160001F910F91FF90EF90DF90CF90BF90089567
:101170002FB7F89484E08093E900809103028823DC
:1011800041F08091E80085FD02C02FBFE1CF1092B1
:10119000030210E000E084E0D82E90E4C92EA1EF15
:1011A000B0E03AE3B32E33E04115510509F4C0C075
:1011B0008091E400815F9091E80095FD16C02FBFFB
:1011C0009091E400891306C081E080930302F70147
:1011D0008283C3CF90911202911102C081E0F7CFB8
:1011E0002FB7F894D092E900E6CF8091F2009C2DC1
:1011F000981B9417150611F008F0942FE92FF0E0D2
:101200004E1B5F0B0E0F1F1FEB01E0E4E91BE034E8
:1012100028F4EE0FFF27E15FF64F099480C0999103
:101220009C9399919C9399919C9399919C9399915A
:101230009C9399919C9399919C9399919C9399914A
:101240009C9399919C9399919C9399919C9399913A
:101250009C9399919C9399919C9399919C9399912A
:101260009C9399919C9399919C9399919C9399911A
:101270009C9399919C9399919C9399919C9399910A
:101280009C9399919C9399919C9399919C939991FA
:101290009C9399919C9399919C9399919C939991EA
:1012A0009C9399919C9399919C9399919C939991DA
:1012B0009C9399919C9399919C9399919C939991CA
:1012C0009C9399919C9399919C9399919C939991BA
:1012D0009C9399919C9399919C9399919C939991AA
:1012E0009C9399919C9399919C9399919C9399919A
:1012F0009C9399919C9399919C9399919C9399918A
:101300009C9399919C9399919C9399919C93999179
:101310009C9399919C9399919C9399919C93BE01D4
:101320008091E80085FFB092E800309305023CCF41
:101330002FBF13CF2FEF3FEFFC01318720875BDCFE
:101340000FB6F8948091FB019091FC01A091FD01F2
:10135000B091FE010FBE9C0180911202882329F0FA
:1013600068EC70E080E090E007CC80911102882367
:1013700001F10FB6F8944091FB015091FC0160918E
:10138000FD017091FE010FBE80911102882389F04A
:101390000FB6F8948091FB019091FC01A091FD01A2
:1013A000B091FE010FBE841B950B8B3F910560F33E
:1013B00008950FB6F8948091FB019091FC01A091E3
:1013C000FD01B091FE010FBE821B930B853C99403D
:1013D00008F4C2CF08958F929F92AF92BF92CF929E
:1013E000DF92EF92FF920F931F93CF93DF93EC0165
:1013F0000FB6F894C090FB01D090FC01E090FD0185
:10140000F090FE010FBE4115510529F1888599859F
:1014100097FD11C0FB0180838FEF9FEF998788872D
:10142000415051096F5F7F4F91E04115510521F403
:1014300041E050E010C090E080E0FA01492F582FC1
:1014400013E00BE68FB7F89490911202911111C03E
:101450008FBF81E08F83CA01DF91CF911F910F91E0
:10146000FF90EF90DF90CF90BF90AF909F908F90C4
:1014700008951093E9009091E80092FFE9CF209140
:10148000F2002E171F0611F008F02E2F362FDB0169
:101490009A2F931B921720F49091F1009D93F8CF0F
:1014A00030E0620F731F9091E80095FF0093E80011
:1014B0008FBF420F531FE21BF30B69F20FB6F89474
:1014C0008091FB019091FC01A091FD01B091FE0182
:1014D0000FBE8C199D09AE09BF098B809C80AD8021
:1014E000BE8088159905AA05BB0508F4ABCFB1CF1E
:1014F0008FB7F89490911202992361F090910502B0
:10150000992341F094E09093E9009AE39093E800E6
:10151000109205028FBF0895EBCFE5E0F1E0308136
:1015200041816281238170E090E080E0CB017727E8
:101530006627742B632B922B089580911002817083
:101540000895E6E0F2E011861086128288EE93E0BC
:10155000A0E0B0E083839483A583B683178282E200
:1015600091E0918380830895A1E21A2EAA1BBB1BF0
:10157000FD010DC0AA1FBB1FEE1FFF1FA217B3075F
:10158000E407F50720F0A21BB30BE40BF50B661F75
:10159000771F881F991F1A9469F760957095809539
:1015A00090959B01AC01BD01CF010895EE0FFF1F87
:1015B0000024001C0BBE0790F691E02D0994F894CE
:0215C000FFCF5B
:1015C20000C20100FF00E10000000008000000006E
:1015D200680272032802630218024B0238020000FA
:1015E200000009089A0887088C0A1F08580843084F
:00000001FF
