:1000000098C00000B3C00000B1C00000AFC0000045
:10001000ADC00000ABC00000A9C00000A7C0000038
:10002000A5C00000A3C00000CEC2000006C30000AF
:100030009DC000009BC0000099C0000097C0000058
:1000400095C0000093C0000091C000008FC0000068
:100050008DC000008BC0000089C0000087C0000078
:1000600085C0000083C0000081C000007FC0000088
:100070007DC000007BC0000079C0000077C0000098
:1000800075C0000073C0000071C000006FC00000A8
:100090006DC000006BC000000001000015011200DF
:1000A000020000D2004300030000CE000401030957
:1000B00004CA002002030904C6004A03030904C25B
:1000C000000C0C030D014A03190120036301040312
:1000D000090409024300020100C0FA0904000001FA
:1000E000020201000524001001052401010104247D
:1000F00002060524060001070582031000400904DA
:100100000100020A00000007050302400000070585
:1001100084024000001201000202000010C0167AA2
:10012000040001010203010001C1120180360181B6
:10013000360011241FBECFEFD0E2DEBFCDBF11E0ED
:10014000A0E0B1E0EAEAFFE000E00BBF02C00790E8
:100150000D92A438B107D9F721E1A4E8B1E001C0BC
:100160001D92A239B207E1F79CD61DC749CF8091F5
:10017000E80080FFFCCF089581E88093D70080EAF3
:100180008093D80086E189BD09B400FEFDCF80E9E7
:100190008093D8001092E00010928F1110928C1171
:1001A0008CE08093E200789408959FB7F894809152
:1001B0008F11811104C09FBF8FEF9FEF089583E0DF
:1001C0008093E9002BE68091E80085FD05C082FF61
:1001D000F2CF2093E800F7CF8091F1002091E80062
:1001E00025FD03C02BE62093E8009FBF90E0089513
:1001F00080918F11882371F08FB7F89493E09093DA
:10020000E9009BE62091E80025FF03C09093E800F9
:10021000F9CF8FBF089590918F11911102C08FEF88
:1002200008959FB7F89424E02093E90020918D1160
:10023000222341F02091E80025FD02C09FBFEFCFAF
:1002400010928D112091E400205F34E04091E8008D
:1002500045FD12C09FBF9091E400921304C081E05D
:1002600080938D11DCCF90918F119923C1F29FB7AC
:10027000F8943093E900EACF8093F1008091E80090
:1002800085FD03C08AE38093E80085E080938E11AA
:100290009FBF80E00895DC0180918F11882371F069
:1002A0008FB7F89494E09093E90090918D11992381
:1002B00049F09091E80095FD03C08FBF8FEF08953E
:1002C00010928D1134E040E45AE325E06115710588
:1002D00009F477C19091E400905FE091E800E5FDBA
:1002E00012C08FBF8091E400891304C081E0809325
:1002F0008D11E4CF80918F11882301F38FB7F8948B
:100300003093E900EACF9091F200E42FE91B9E2F91
:10031000E617170611F008F0962FE92FF0E06E1B94
:100320007F0B913408F040C1E956FE4F33C6D80226
:10033000D402D002CC02C802C402C002BC02B8027D
:10034000B402B002AC02A802A402A0029C0298026D
:10035000940290028C028802840280027C0278025D
:10036000740270026C026802640260025C0258024D
:10037000540250024C024802440240023C0238023D
:10038000340230022C022802240220021C0218022D
:10039000140210020C02080204020002FC01F8011F
:1003A000F401F001EC01E801E401E001DC01D80115
:1003B0009C919093F10011969C919093F10011966D
:1003C0009C919093F10011969C919093F10011965D
:1003D0009C919093F10011969C919093F10011964D
:1003E0009C919093F10011969C919093F10011963D
:1003F0009C919093F10011969C919093F10011962D
:100400009C919093F10011969C919093F10011961C
:100410009C919093F10011969C919093F10011960C
:100420009C919093F10011969C919093F1001196FC
:100430009C919093F10011969C919093F1001196EC
:100440009C919093F10011969C919093F1001196DC
:100450009C919093F10011969C919093F1001196CC
:100460009C919093F10011969C919093F1001196BC
:100470009C919093F10011969C919093F1001196AC
:100480009C919093F10011969C919093F10011969C
:100490009C919093F10011969C919093F10011968C
:1004A0009C919093F10011969C919093F10011967C
:1004B0009C919093F10011969C919093F10011966C
:1004C0009C919093F10011969C919093F10011965C
:1004D0009C919093F10011969C919093F10011964C
:1004E0009C919093F10011969C919093F10011963C
:1004F0009C919093F10011969C919093F10011962C
:100500009C919093F10011969C919093F10011961B
:100510009C919093F10011969C919093F10011960B
:100520009C919093F10011969C919093F1001196FB
:100530009C919093F10011969C919093F1001196EB
:100540009C919093F10011969C919093F1001196DB
:100550009C919093F10011969C919093F1001196CB
:100560009C919093F10011969C919093F1001196BB
:100570009C919093F10011969C919093F1001196AB
:100580009C919093F10011969C919093F10011969B
:100590009C919093F10011969C919093F10011968B
:1005A0009C919093F10011969C919093F10011967B
:1005B0009091E80095FF5093E80020938E118FBF33
:1005C00085CE80E008951F920F920FB60F921124EE
:1005D0008F939F938091E1001092E10083FF11C0FF
:1005E0001092E90091E09093EB001092EC0092E100
:1005F0009093ED0098E09093F00010928F1110927C
:100600008C1182FF13C080918F11882379F0809123
:100610008E11882359F0815080938E11811106C06C
:1006200084E08093E9008AE38093E8009F918F91B2
:100630000F900FBE0F901F9018951F920F920FB63C
:100640000F9211240BB60F92EF92FF920F931F930C
:100650002F933F934F935F936F937F938F939F93CA
:10066000AF93BF93CF93DF93EF93FF931092E90083
:100670008091E80083FF56C0D091F100C091F10055
:100680008091F100E090F100FE2CE82E8091F100C5
:100690000091F100102F082F8091F1009091F1004E
:1006A00022EF2093E800C63009F066C028E930E068
:1006B000F90145915491E416F50669F5F901329670
:1006C000459154910417150731F5F9013496459178
:1006D0005491F9013696E4918F3F910519F010F08D
:1006E0008FEF90E0E81708F48E2F3EEF9091E8002E
:1006F000292F2570D9F392FD26C0982F813108F05B
:1007000090E1FA01292F222399F064916093F1007E
:1007100021503196F8CF295F3F4F40E0223C34070B
:1007200009F0C6CF81E28093EB000DC0892FDECFA8
:10073000490F511DE82FE91B9E2F3093E800E1116E
:10074000F5CF803198F7FF91EF91DF91CF91BF9175
:10075000AF919F918F917F916F915F914F913F9159
:100760002F911F910F91FF90EF900F900BBE0F9064
:100770000FBE0F901F901895C53049F48EEF8093EF
:10078000E800F5DC8E2D80688093E300DCCFC93073
:1007900069F5D111C7CFE0928F1110928C11109290
:1007A0008E118EEF8093E80021E087E291E02093A4
:1007B000E900AC014F5F5F4FFC0134913093EB00D7
:1007C000332391F0FA0144914093EC003196E49187
:1007D0000396E093ED002F5F253049F78EE180937B
:1007E000EA001092EA00AFCFCA01F5CFC83061F439
:1007F000D03809F097CFBBDC80918F118093F10046
:100800008EEF8093E8009FCFC13279F4D13A09F09E
:1008100089CFADDCE6E0F1E08DE091E0219120931D
:10082000F1008E179F07D1F7EBCFC032A9F4D13278
:1008300009F078CF8091E80082FFFCCFE6E0F1E09C
:100840008DE091E02091F10021938E179F07D1F761
:100850008BEF8093E800D4CFC23239F4D13209F063
:1008600061CFE0928C1183DCCBCFC11111C07FDC52
:10087000D23849F40093E900C091EB00C5FBCC27C6
:10088000C0F91092E900C093F1001092F100B8CFC6
:100890008C2F8D7F813009F045CFD23009F042CFC7
:1008A000EF2809F03FCF0F778FEF800F843008F0EB
:1008B00039CF8EEF8093E8000093E900C33009F44C
:1008C00031CF89E18093EB0081E090E001C0880F97
:1008D0000A95EAF784CF84B1806784B92E9A2C9860
:1008E0002D9A089511B814B817B81AB81DB810BACF
:1008F00012B815B818B81BB81EB811BA08952898C0
:100900008FE98EBD0DB407FEFDCF1EBC0DB407FEF2
:10091000FDCF8EB5809386011EBC0DB407FEFDCFC2
:100920008EB5809385011EBC0DB407FEFDCF8EB53C
:1009300080938401289A81E008950F931F93CF93A9
:10094000DF9380918B11882359F0809101018430CD
:1009500039F4289887EB8EBD0DB407FEFDCF289A99
:10096000DFB7F894289880918B11811105C0809190
:100970000101833009F04FC083E08EBD0DB407FE46
:10098000FDCF80910101843031F4809187018EBDCB
:100990000DB407FEFDCF809188018EBD0DB407FE1A
:1009A000FDCF809189018EBD0DB407FEFDCF8091F2
:1009B0008A018EBD0DB407FEFDCFC0E0809102011B
:1009C00090910301A0910401B09105014C2F50E0DA
:1009D00070E060E08C019D01ECE03695279517955D
:1009E0000795EA95D1F74017510762077307C8F4D6
:1009F000EBE8F1E01EBC0DB407FEFDCF8EB5819390
:100A000081E1EB38F807B1F760E070E18BE891E045
:100A100042DCCF5FD3CF83E18EBD0DB407FEFDCFA7
:100A2000B0CFBC017F70EBE8F1E09F012B58314063
:100A30002617370738F41EBC0DB407FEFDCF2EB5C0
:100A40002193F3CF289A8BE891E025DCDFBF81E08A
:100A5000DF91CF911F910F910895289885E08EBD69
:100A60000DB407FEFDCF1EBC0DB407FEFDCF8EB545
:100A7000289A089528988BE28EBD0DB407FEFDCF0D
:100A80001EBC0DB407FEFDCF8EB5289A0895CF92F7
:100A9000DF92EF92FF920F931F93CF93DF9380919A
:100AA0008B11882359F080910101843039F4289802
:100AB00087EB8EBD0DB407FEFDCF289A2C9AC1E0BE
:100AC000D0E086E0F82E92E0E92E22E1D22E35E049
:100AD000C32E2898FEBC0DB407FEFDCF289ABDDFBB
:100AE00081FFF7CF289880918B11811105C08091EB
:100AF0000101833009F058C0EEBC0DB407FEFDCFF4
:100B000080910101843031F4809187018EBD0DB454
:100B100007FEFDCF809188018EBD0DB407FEFDCF8D
:100B2000809189018D2B8EBD0DB407FEFDCF809184
:100B30008A018EBD0DB407FEFDCF00E011E035DB6C
:100B40008F3F9807B1F18EBD0DB407FEFDCF015068
:100B50001109A9F7289A2898CEBC0DB407FEFDCF3D
:100B60001EBC0DB407FEFDCF0EB400FCF9CF289AD1
:100B7000CF3F79F080918601823C39F480918501E4
:100B8000883119F477DF85FDC0E0DF5FD03109F0EF
:100B9000A0CF2C988C2FDF91CF911F910F91FF90B8
:100BA000EF90DF90CF900895DEBC0DB407FEFDCF2F
:100BB000A7CFCFEFCFCFCF932C9AC6E02898CEBD4A
:100BC0000DB407FEFDCF289A48DF81FFF7CF2898A4
:100BD00080E68EBD0DB407FEFDCF289A289885E0EB
:100BE0008EBD0DB407FEFDCF1EBC0DB407FEFDCFBC
:100BF0000EB400FCF9CF289A2C982FDF8C7B81F45F
:100C000080918601823C71F480918501883151F494
:100C100031DF982F907C81E009F080E0CF9108953A
:100C20008FEFFCCF81E0FACFCF9380918B11882397
:100C300059F080910101843039F4289887EB8EBDFA
:100C40000DB407FEFDCF289A2C9AC6E02898CEBD99
:100C50000DB407FEFDCF289A00DF81FFF7CF28985B
:100C600080918B11811105C080910101833009F0C1
:100C700044C088ED8EBD0DB407FEFDCF809101010B
:100C8000843031F4809187018EBD0DB407FEFDCF15
:100C9000809188018EBD0DB407FEFDCF8091890142
:100CA0008EBD0DB407FEFDCF80918A018EBD0DB4BF
:100CB00007FEFDCF289A289885E08EBD0DB407FE6B
:100CC000FDCF1EBC0DB407FEFDCF0EB400FCF9CF66
:100CD000289A2C98C2DE8C7BB1F480918601823CEC
:100CE000A1F480918501883181F4C4DE982F907C35
:100CF00081E009F080E0CF9108958CED8EBD0DB4B8
:100D000007FEFDCFBBCF8FEFF6CF81E0F4CF0F937F
:100D10001F93CF93DF93C7E8D1E00BE811E045DAEA
:100D20008F3F980759F089930C171D07C1F78BE483
:100D300072DADF91CF911F910F91FFCD82E5DF91A4
:100D4000CF911F910F9167CA0F931F93CF93DF939A
:100D5000C7E8D1E00BE811E028DA8F3F980779F077
:100D600089930C171D07C1F792DE181634F48BE433
:100D7000DF91CF911F910F914ECA882311F082E528
:100D8000F7CF86E5F5CF17DF181614F48BE443CAC6
:100D9000882311F080E5FBCF86E5F9CF0F931F93F1
:100DA000CF93DF93C7E8D1E00BE811E0FED98F3F86
:100DB000980799F089930C171D07C1F735DF1816AE
:100DC00034F48BE4DF91CF911F910F9124CA8823D3
:100DD00011F080E5F7CF86E5F5CF82E5F3CF8FDD23
:100DE000882349F08091860116DA8091850113DA13
:100DF0008091840110CA80E00EDA80E00CDA80E095
:100E0000F9CFF89481E08093E00080E28093D800ED
:100E100029EC30E0F90110828FE996E8A1E0B0E01A
:100E20000197A109B109000001F0D1F7C8950000B0
:100E30001DBA109268001CBC10BE1FBA10927A0036
:100E400010926E0010926F0010927000109271005C
:100E500010821092BC0011B814B817B81AB81DB897
:100E600010BA12B815B818B81BB81EB811BA0C943D
:100E700000FE0895CF93DF9300D0CDB7DEB7209169
:100E80009011309191112115310511F422E931E1D0
:100E9000CE010196821B930B0F900F90DF91CF91A3
:100EA000089580E88093610091E09093610091E85B
:100EB00095BF85BF17DD1CBC209A289A80E18CBDA8
:100EC00084B1866084B923982B9A8DB581608DBDDD
:100ED00080E58CBD00DD50D980918F118823E1F32E
:100EE0008FE794E8AEE1B0E00197A109B1090000F5
:100EF00001F0D1F7C8950000C1E0D4E013E00FEF96
:100F000077D980918F118823D9F34FD98F3F9807D4
:100F1000C1F380319105A8F78057984FFC013AC082
:100F2000A007A307AC0781078107AE07B107B40785
:100F3000B607B807BA07BC07BE07C107C407C7078B
:100F400080E069D9DECF96DFF82EE92E8CE363D9F5
:100F50008E2D61D98F2DF5CF54DFD3CF10920001A4
:100F6000D0CF00930001CDCF3ADFCBCFD0DEC9CFB9
:100F7000EBDEC7CF13DFC5CF06DFC3CF1093010170
:100F8000C0CFD0930101BDCFC0938B11BACF1092C7
:100F90008B11B7CFEE0FFF1F0024001C0BBE079074
:0A0FA000F691E02D0994F894FFCFBC
:100FAA00FF040000010000E10000000008310032E7
:100FBA000033003400350000005300500049005748
:100FCA0000610079002000500053003400200053D3
:100FDA000046006C00610073006800200046006C47
:100FEA00006100730068006500720020005500531C
:100FFA000042002000530065007200690061006C25
:10100A000000006A00750064006700650073002F25
:10101A0000410062006B006100720069006E006F9F
:04102A0000000000C2
:00000001FF
