:10000000E2C000000AC1000008C1000006C10000F3
:1000100004C1000002C1000000C10000FEC00000D9
:10002000FCC00000FAC000000C9426120C94A3122D
:10003000F4C00000F2C00000F0C00000EEC00000FC
:10004000ECC00000EAC00000E8C00000E6C000000C
:10005000E4C00000E2C00000E0C000000C94851184
:10006000DCC000000C94890D0C94B40D0C94E50DCB
:10007000D4C00000D2C00000D0C00000CEC000003C
:10008000CCC00000CAC00000C8C00000C6C000004C
:10009000C4C00000C2C000000129022904290829A7
:1000A0001029202940298029012C022C0126022612
:1000B000042608261026202640268026402C802C48
:1000C0000123022304230823102320234023802319
:1000D0000120022004200820102020204020802021
:1000E000102C202C012F022F042F082F102F202F2F
:1000F000402F802F00010000A501120002000062C5
:100100000143000300005E010401030904440118D7
:10011000020309042C0116030309041E010C0C033D
:100120003100320033003400350000001603550062
:100130005300420020005300650072006900610016
:100140006C00000018035400650065006E00730029
:1001500079006400750069006E006F000000040300
:10016000090409024300020100C032090400000131
:1001700002020100052400100105240100010424ED
:100180000206052406000107058203080040090451
:100190000100020A000000070503024000000705F5
:1001A00084024000001201000202000020C01683F9
:1001B000047202010203010001C1020180360181C3
:1001C0003600030E8B1611241FBECFEFD0E2DEBF28
:1001D000CDBF12E0A0E0B1E0E8E4FFE200E00BBF39
:1001E00002C007900D92AC38B107D9F723E0ACE814
:1001F000B2E001C01D92A332B207E1F710E0C3EEF6
:10020000D0E004C02197FE010E94DC16C13ED10758
:10021000C9F70E94E00E0C94A217F2CECF93DF93A1
:100220001F92CDB7DEB76983DC01ED91FC910280AE
:10023000F381E02D41E050E0BE016F5F7F4F0995F3
:100240000F90DF91CF910895813029F4109293029D
:1002500080919302089590919302823021F49195B8
:1002600090939302F5CF833099F79150F9CF0F9384
:100270001F93CF93DF9300D000D0CDB7DEB781E0DE
:1002800090E00E94E50E8C010E94850FCE01019640
:10029000801B910B0F900F900F900F90DF91CF91DB
:1002A0001F910F9108954FEF61E170E084E992E0B2
:1002B0000E94450D44E650E060E070E084E992E081
:1002C0000E94780E40E052EC61E070E087E193E03C
:1002D0000E948D15569A559A549A539A52985A9844
:1002E0005D985B985A985C9A87E193E00E9480162B
:1002F0008823D1F35E9A089590919302980F90937A
:100300009302682F84E992E00E94FF0C80E991E05B
:100310000197F1F70895682F87E193E07FDF80E987
:1003200091E00197F1F787E193E00E94121418160B
:1003300019062CF487E193E00E944B14F4CF5E98E9
:1003400008958F929F92AF92BF92CF92DF92EF92D9
:10035000FF920F931F93CF93DF934A015B015E9A45
:10036000EC01C12CD12C760100E911E0C814D904AC
:10037000EA04FB0491F0699184E992E00E94FF0C89
:10038000C8010197F1F784E992E00E94E20C8FEF37
:10039000C81AD80AE80AF80AE9CF80E991E001977B
:1003A000F1F75E98DF91CF911F910F91FF90EF9041
:1003B000DF90CF90BF90AF909F908F9008955E9AFE
:1003C00045E050E060E070E08CED91E0BADF84E958
:1003D00092E00E94E20C811180EE0895CF92DF92AC
:1003E000EF92FF9245E050E060E070E082EE91E035
:1003F000A8DF0FB6F894C0900C03D0900D03E090E6
:100400000E03F0900F030FBE84E992E00E94AF0C40
:1004100018161906B4F00FB6F89480910C03909159
:100420000D03A0910E03B0910F030FBE8C199D090F
:10043000AE09BF0981319742A105B10528F38FEEBE
:1004400004C084E992E00E94E20CFF90EF90DF90FC
:10045000CF9008955E9A45E050E060E070E088EE4D
:1004600091E06FDF84E992E00E94E20C811142C0CA
:1004700046E050E060E070E08EEE91E062DF84E9FB
:1004800092E00E94E20C811135C046E050E060E04D
:1004900070E085EF91E055DF84E992E00E94E20C84
:1004A000811128C046E050E060E070E08CEF91E000
:1004B00048DF84E992E00E94E20C81111BC047E012
:1004C00050E060E070E083E092E03BDF84E992E09E
:1004D0000E94E20C81110EC046E050E060E070E046
:1004E00085E492E02EDF84E992E00E94E20C811123
:1004F00001C074CF80EE08952F923F924F925F9289
:100500006F927F928F929F92AF92BF92CF92DF9223
:10051000EF92FF920F931F93CF93DF93CDB7DEB788
:1005200062970FB6F894DEBF0FBECDBF0FB6F8943A
:10053000C0900C03D0900D03E0900E03F0900F03D9
:100540000FBE87E193E00E9412140497B4F40FB633
:10055000F89480910C0390910D03A0910E03B0913B
:100560000F030FBE8C199D09AE09BF098131974257
:10057000A105B10530F38BEE59C08E010F5F1F4FFF
:100580008EE0D8011D928A95E9F744E050E0B80169
:1005900087E193E00E94DE15C9808C2D90E0982FB2
:1005A0008827CA80C80ED92ED11CF12CE12C3AE044
:1005B000CC0CDD1CEE1CFF1C3A95D1F78B81282F4B
:1005C00030E0322F22278C81820F932F911D0196CC
:1005D000B0E0A0E04C015D015AE0880C991CAA1C17
:1005E000BB1C5A95D1F71E01B5E02B0E311CC81467
:1005F000D904EA04FB0408F060C04D2C5E2C6F2C7B
:100600007724C701AA27BB278F87988BA98BBA8B22
:1006100046E050E060E070E08CE492E092DE84E935
:1006200092E00E94E20C8823D1F084EE62960FB62D
:10063000F894DEBF0FBECDBFDF91CF911F910F9118
:10064000FF90EF90DF90CF90BF90AF909F908F90F2
:100650007F906F905F904F903F902F900895D101C1
:10066000EAE01D92EA95E9F785E0EBE0F2E0D801D7
:1006700001900D928A95E1F74F82FF85F88785E01A
:10068000E1E1F2E0DE01199601900D928A95E1F721
:100690004DE050E060E070E0C80153DE84E992E094
:1006A0000E94E20C8111C1CF99DE8111BFCF33DEF0
:1006B00024E0D20EE11CF11C9ACF80E0B7CF2F923C
:1006C0003F924F925F926F927F928F929F92AF92E2
:1006D000BF92CF92DF92EF92FF920F931F93CF932F
:1006E000DF93CDB7DEB762970FB6F894DEBF0FBECB
:1006F000CDBF0FB6F894C0900C03D0900D03E090DE
:100700000E03F0900F030FBE87E193E00E941214D6
:100710000497B4F40FB6F89480910C0390910D03F4
:10072000A0910E03B0910F030FBE8C199D09AE0965
:10073000BF0981319742A105B10530F38BEE89C025
:100740008E010F5F1F4F8EE0D8011D928A95E9F749
:1007500044E050E0B80187E193E00E94DE15C980D3
:100760008C2D90E0982F8827CA80C80ED92ED11CD6
:10077000F12CE12C3AE0CC0CDD1CEE1CFF1C3A9570
:10078000D1F78B81282F30E0322F22278C81820FE6
:10079000932F911D0196B0E0A0E04C015D015AE05D
:1007A000880C991CAA1CBB1C5A95D1F71E01B5E0F8
:1007B0002B0E311CC814D904EA04FB0408F048C00D
:1007C0004D2C5E2C6F2C7724C701AA27BB278F875F
:1007D000988BA98BBA8B46E050E060E070E083E52F
:1007E00092E0AFDD84E992E00E94E20C81114AC000
:1007F000D101EAE01D92EA95E9F785E0EBE0F2E04D
:10080000D80101900D928A95E1F74F82FF85F88714
:1008100085E0E1E1F2E0DE01199601900D928A9502
:10082000E1F74DE050E060E070E0C8018ADD84E966
:1008300092E00E94E20C811127C0D0DD882311F0E4
:100840008B3139F468DD24E0D20EE11CF11CB2CF0B
:1008500080E062960FB6F894DEBF0FBECDBFDF9189
:10086000CF911F910F91FF90EF90DF90CF90BF90AD
:10087000AF909F908F907F906F905F904F903F9040
:100880002F90089588EEE5CF84EEE3CF1F93CF93AA
:10089000DF9300D01F92CDB7DEB746E050E060E0B6
:1008A00070E08AE592E04DDD84E992E00E94E20C7E
:1008B00081115BC083E0FE013196DF011D928A95B4
:1008C000E9F74DE050E060E070E087E192E039DD6B
:1008D00084E992E00E94E20C882349F014EE812F13
:1008E0000F900F900F90DF91CF911F91089576DDBB
:1008F000182F8111F4CF84E992E00E94E20C8983E1
:1009000084E992E00E94E20C8A8346E050E060E0D5
:1009100070E08AE592E015DD84E992E00E94E20C45
:10092000811123C04DE050E060E070E085E292E08C
:1009300008DD84E992E00E94E20C8111CFCF4EDD08
:10094000182F8111CCCF84E992E00E94E20C8B83B6
:10095000698187E193E062DC6A8187E193E05EDC94
:100960006B8187E193E05ADCBACF18EEB8CF5F9283
:100970006F927F928F929F92AF92BF92CF92DF92AF
:10098000EF92FF920F931F93CF93DF9300D000D08D
:100990001F92CDB7DEB725E0722E8E010F5F1F4F7D
:1009A00030EA632E44E1542EF801872D11928A9586
:1009B000E9F75E9A20E43FE140E050E060ED77E047
:1009C00080E090E00E94C30E4B0128E030E040E060
:1009D00050E061E070E080E090E00E94C30E6B01A7
:1009E0005D98862D81500000E9F784E992E00E942D
:1009F0007E0D65E070E080E090E00E94C5115D9A98
:100A000065E070E080E090E00E94C5114FEF61E189
:100A100070E084E992E00E94450D44E650E060E019
:100A200070E084E992E00E94780E61E070E080E07E
:100A300090E00E94C51185EC5FDC81E05DDC1092E6
:100A4000930283E059DC8AE957DC80E055DC84E1DD
:100A500053DC82E0F9DB50DC84E992E080D71816A1
:100A6000190624F484E992E0ADD7F6CF83E044DCA4
:100A700084E992E0A7D745E050E0B80184E992E02C
:100A80000E947E0E8B81863009F453C08031C1F004
:100A90008EEE32DC80E00F900F900F900F900F9051
:100AA000DF91CF911F910F91FF90EF90DF90CF904A
:100AB000BF90AF909F908F907F906F905F900895C0
:100AC000C401029738F031F0880F991F880F991FE1
:100AD0000197F1F75C98C601029738F031F0880F62
:100AE000991F880F991F0197F1F75C9A84E992E0AA
:100AF00036D71816190624F484E992E063D7F6CFA6
:100B000098EEE92E93E0F92EE1E0EE1AF10809F4EF
:100B10004BCF84E992E023D7181619062CF0852DC7
:100B200081500000E9F7F0CF84E992E04BD78230A2
:100B3000B1F765E070E080E090E00E94C51181E9C6
:100B4000DBDB61E070E080E090E00E94C511109274
:100B500093028AE3D1DB8EE4CFDB8FE6CDDB84E743
:100B6000CBDB8AE3C9DB85E5C7DB83E7C5DB85E64D
:100B7000C3DB84E6C1DB8AE3BFDB83E065DBBCDB90
:100B800061E070E080E090E00E94C51183E9B4DB91
:100B900061E070E080E090E00E94C51104E011E0A7
:100BA00087ECE82E81E0F82EF80181918F01A4DB1B
:100BB000E016F106C9F761E070E080E090E00E9485
:100BC000C51183E999DB61E070E080E090E00E946C
:100BD000C51107EC11E0F80181918F018DDBF1E087
:100BE0000E3C1F07C1F761E070E080E090E00E94DA
:100BF000C51164E984E992E002D765E070E080E025
:100C000090E00E94C51184E992E0A9D61816190651
:100C100024F484E992E0D6D6F6CF5E9881E03BCF0B
:100C20008F929F92AF92BF92CF92DF92EF92FF92FC
:100C30000F931F93CF93DF9300D000D01F92CDB7B7
:100C4000DEB7C12CD12C760182E7982E90E8892E50
:100C500020E9A22EBB24B3949982CA82DB82EC8263
:100C60008D8245E050E060E070E0CE01019669DBE6
:100C700000E810E084E992E072D6892B21F4C501E6
:100C80000197F1F7F7CF84E992E09CD6682F87E1CE
:100C900093E0C4DA0150110969F780E8C80ED11C4D
:100CA000E11CF11CC114D10488E0E806F104A1F6AE
:100CB00080E00F900F900F900F900F90DF91CF91E9
:100CC0001F910F91FF90EF90DF90CF90BF90AF906A
:100CD0009F908F9008952F923F924F925F926F92C4
:100CE0007F928F929F92AF92BF92CF92DF92EF92BC
:100CF000FF920F931F93CF93DF93CDB7DEB72E975D
:100D00000FB6F894DEBF0FBECDBF0FB6F894C090FB
:100D10000C03D0900D03E0900E03F0900F030FBE74
:100D200087E193E00E9412140497B4F40FB6F8948C
:100D300080910C0390910D03A0910E03B0910F03CD
:100D40000FBE8C199D09AE09BF0981319742A105DB
:100D5000B10530F38BEE80C08E010F5F1F4F8EE028
:100D6000F80111928A95E9F744E050E0B80187E173
:100D700093E00E94DE158980882D90E0982F8827C7
:100D80008A80880E992E911CB12CA12C3AE0880CF7
:100D9000991CAA1CBB1C3A95D1F74B80842D90E07E
:100DA000982F88274C80480E592E511CFFEF4F1A60
:100DB0005F0A712C612C5AE0440C551C661C771C90
:100DC0005A95D1F71E0125E0220E311C60E9C62E8E
:100DD000DD24D39484149504A604B70478F5F101B6
:100DE0002AE011922A95E9F782E789838A829B8219
:100DF000AC82E0E8ED8345E050E060E070E0C801DF
:100E0000A0DA80E8E82EF12C84E992E0A8D5892BBD
:100E100021F4C6010197F1F7F7CF84E992E0D2D52A
:100E2000682F87E193E0FAD9F1E0EF1AF10861F752
:100E300020E8820E911CA11CB11CCCCF87E193E06D
:100E40000E941214181619062CF487E193E00E94F0
:100E50004B14F4CF5E9880E02E960FB6F894DEBF68
:100E60000FBECDBFDF91CF911F910F91FF90EF90FB
:100E7000DF90CF90BF90AF909F908F907F906F90BA
:100E80005F904F903F902F9008952F923F924F92F6
:100E90005F926F927F928F929F92AF92BF92CF920A
:100EA000DF92EF92FF920F931F93CF93DF93CDB713
:100EB000DEB7CD50D4400FB6F894DEBF0FBECDBF25
:100EC0008E010F5F1B4F8DE0D8011D928A95E9F7C7
:100ED000FE0131967F0180E094E0DF01FC011D926C
:100EE0003197E9F70FB6F89480900C0390900D03BA
:100EF000A0900E03B0900F030FBE87E193E00E9415
:100F000012140297B4F40FB6F89480910C039091E8
:100F10000D03A0910E03B0910F030FBE881999091C
:100F2000AA09BB0981319742A105B10530F38BEEC7
:100F30007EC08DE0D8011D928A95E9F742E050E02D
:100F4000B80187E193E00E94DE15F801308021802E
:100F50005E9A0FB6F89440900C0350900D03609089
:100F60000E0370900F030FBED12CC12C812C64E0B6
:100F7000962EC114F4E0DF0678F50FB6F894809150
:100F80000C0390910D03A0910E03B0910F030FBEBF
:100F900084199509A609B70981329E44A105B105B6
:100FA00008F064C187E193E00E9412145C0100978D
:100FB00001F38C0D9D1D8130944018F05401AC1844
:100FC000BD08B7016C0D7D1DA50187E193E00E946E
:100FD000DE15CA0CDB1CCDCF45E050E060E070E0D0
:100FE00083E392E0AED94E0181E0880E981E67013E
:100FF00050E9A52EBB24B394D6016D916D0184E90F
:1010000092E0FDD4C5010197F1F784E992E0DAD4CA
:10101000C814D90489F784E992E0ECD4C50101979A
:10102000F1F784E992E0CED48823D9F081EEC35F52
:10103000DB4F0FB6F894DEBF0FBECDBFDF91CF916F
:101040001F910F91FF90EF90DF90CF90BF90AF90E6
:101050009F908F907F906F905F904F903F902F90D8
:10106000089545E050E060E070E089E392E069D9DE
:101070004701BEEF9B1A40E9A42EBB24B394F601AE
:1010800061916F0184E992E0BAD4C5010197F1F74B
:1010900084E992E097D4C814D90489F784E992E0EE
:1010A000A9D4C5010197F1F784E992E08BD4882394
:1010B00011F082EEBCCF46E050E060E070E081E6E7
:1010C00092E03FD984E992E07DD4882311F086EE46
:1010D000AECF432C512C542C4424420C511C712C67
:1010E000612C3AE0440C551C661C771C3A95D1F7EC
:1010F00083E0F8013496DF011D928A95E9F785E0D7
:10110000EBE0F2E0D80101900D928A95E1F7F80149
:101110005682678285E0EFE3F2E0D80118960190ED
:101120000D928A95E1F74DE050E060E070E0C80173
:1011300008D984E992E046D48111C9CF4FD98111F1
:1011400076CF45E050E060E070E083E392E0F9D8CC
:101150005E01FFEFAF1AFDEFBF0A47012DEF921AB4
:1011600090E9C92EDD24D394D5016D915D0184E908
:1011700092E045D4C6010197F1F784E992E022D4C8
:101180008A149B0489F784E992E034D4C60101975C
:10119000F1F784E992E016D4811148CF45E050E0A0
:1011A00060E070E089E392E0CCD86E01BFEFCB1A2B
:1011B000BCEFDB0A5701ECEFBE1A80E9E82EFF24F2
:1011C000F394D6016D916D0184E992E018D4C701C2
:1011D0000197F1F784E992E0F5D3AC14BD0489F7E7
:1011E00084E992E007D4C7010197F1F784E992E01E
:1011F000E9D381115ECF46E050E060E070E081E627
:1012000092E09FD884E992E0DDD3811160CFB2E013
:101210005B0E611C711CF801349683E0DF011D92A6
:101220008A95E9F785E0EBE0F2E0D80101900D92B4
:101230008A95E1F7F80156826782D801189685E011
:10124000EFE3F2E001900D928A95E1F74DE050E076
:1012500060E070E0C80175D884E992E0B3D38111F1
:1012600036CFBCD88111E3CE5E98E1CE8CEEDFCED6
:101270002F923F924F925F926F927F928F929F92A6
:10128000AF92BF92CF92DF92EF92FF920F931F9394
:10129000CF93DF93CDB7DEB7C551D4400FB6F894E6
:1012A000DEBF0FBECDBF8E010F5F1B4F8DE0D8019B
:1012B0001D928A95E9F7FE0131967F0180E094E066
:1012C000DF01FC011D923197E9F70FB6F894809089
:1012D0000C0390900D03A0900E03B0900F030FBE6F
:1012E00087E193E00E9412140297B4F40FB6F894C9
:1012F00080910C0390910D03A0910E03B0910F0308
:101300000FBE88199909AA09BB0981319742A10525
:10131000B10530F38BEEB4C08DE0D8011D928A95F3
:10132000E9F742E050E0B80187E193E00E94DE1562
:10133000F801908081805E9A0FB6F89420900C039B
:1013400030900D0340900E0350900F030FBED12C30
:10135000C12C612C64E0762EC114F4E0DF0678F530
:101360000FB6F89480910C0390910D03A0910E0399
:10137000B0910F030FBE82199309A409B5098132F8
:101380009E44A105B10508F02FC287E193E00E94B9
:1013900012145C01009701F38C0D9D1D8130944067
:1013A00018F05301AC18BD08B7016C0D7D1DA501E7
:1013B00087E193E00E94DE15CA0CDB1CCDCF46E02E
:1013C00050E060E070E083E592E00E94A10184E9D2
:1013D00092E0F8D281110AC2892D90E0982F8827D7
:1013E000880E992E911CB12CA12C3AE0880C991CE6
:1013F000AA1CBB1C3A95D1F7492C5A2C6B2C77248C
:10140000C501AA27BB27C05FDB4F88839983AA83C6
:10141000BB83C051D440180194E0290E311CD10186
:10142000E3E01D92EA95E9F785E0EBE0F2E0D80110
:1014300001900D928A95E1F7D80116964C92169775
:10144000C05FDB4FE881C051D4401796EC93680130
:10145000F8E0CF0ED11C85E0E1E1F2E0D601019089
:101460000D928A95E1F74DE050E060E070E0C80130
:101470000E94A10184E992E0A5D28823D9F084EEEC
:10148000CB5EDB4F0FB6F894DEBF0FBECDBFDF9152
:10149000CF911F910F91FF90EF90DF90CF90BF9071
:1014A000AF909F908F907F906F905F904F903F9004
:1014B0002F9008950E94EE01811139C045E050E05F
:1014C00060E070E083E392E00E94A1019E012F5F43
:1014D0003E4FC25FDB4F39832883CE50D440670133
:1014E00090E9292E33243394D6016D916D0184E95E
:1014F00092E085D2C1010197F1F784E992E062D2CE
:10150000C25FDB4FE881F981CE50D440CE16DF06B2
:1015100059F784E992E06ED2C1010197F1F784E9AD
:1015200092E050D2882309F444C081EEA9CF8B31D8
:1015300009F0A6CF46E050E060E070E08CE492E075
:101540000E94A10184E992E03DD2811198CFD1019E
:10155000E3E01D92EA95E9F785E0EBE0F2E0D801DF
:1015600001900D928A95E1F7D80116964C92169744
:10157000C05FDB4FE881C051D4401796EC9385E003
:10158000E1E1F2E0D60101900D928A95E1F74DE09C
:1015900050E060E070E0C8010E94A10184E992E09F
:1015A00011D281116CCF0E94EE01882309F486CFFD
:1015B00067CF45E050E060E070E089E392E00E9490
:1015C000A10197013E5FCC5EDB4F39832883C45174
:1015D000D44080E9282E33243394D6016D916D01D7
:1015E00084E992E00CD2C1010197F1F784E992E01D
:1015F000E9D1CC5EDB4FE881F981C451D440EC15D0
:10160000FD0559F784E992E0F5D1C1010197F1F7A1
:1016100084E992E0D7D1882311F082EE31CF46E001
:1016200050E060E070E081E692E00E94A10184E970
:1016300092E0C8D1882311F086EE22CFF8013496CB
:1016400083E0DF011D928A95E9F785E0EBE0F2E0A7
:10165000D80101900D928A95E1F7F8014682C05FAA
:10166000DB4F2881C051D4402783D801189685E0EC
:10167000EFE3F2E001900D928A95E1F74DE050E042
:1016800060E070E0C8010E94A10184E992E09AD173
:101690008111D2CF0E94EE018111F2CE45E050E0DF
:1016A00060E070E083E392E00E94A1016E013FEFF1
:1016B000C31A3DEFD30A37018DEF781A00E911E024
:1016C000D6016D916D0184E992E099D1C80101972D
:1016D000F1F784E992E076D16C147D0489F784E90E
:1016E00092E088D1C8010197F1F784E992E06AD1CC
:1016F00081111BCF45E050E060E070E089E392E0AB
:101700000E94A1016E01BFEFCB1ABCEFDB0AECEF28
:10171000FE1A00E911E0D6016D916D0184E992E0B5
:101720006ED1C8010197F1F784E992E04BD1EC1436
:10173000FD0489F784E992E05DD1C8010197F1F7D2
:1017400084E992E03FD1811168CF46E050E060E04B
:1017500070E081E692E00E94A10184E992E032D13A
:1017600081116ACFB2E09B0EA11CB11CE1E0F4E054
:10177000EC0FFD1F349683E0DF011D928A95E9F797
:1017800085E0EBE0F2E0DE01AF5FBB4F01900D9230
:101790008A95E1F7C95FDB4F9882C750D440C85F94
:1017A000DB4FA882C850D440A1E0B4E0AC0FBD1F0D
:1017B000189685E0EFE3F2E001900D928A95E1F74B
:1017C0004DE050E060E070E0CE018F5F9B4F0E94E3
:1017D000A10184E992E0F6D081112ECF0E94EE01A2
:1017E00081114ECE5E984CCE8CEE4ACE88EE48CE1D
:1017F000CF93DF935E9AC1EED1E087E193E00E9440
:101800001214892B09F4A8C087E193E00E944B14BD
:10181000809390028230A0F0803109F475C080324C
:1018200009F449C0803809F48BC0803F09F44CC0EA
:1018300090919102911104C080EE0E948B01DDCF46
:10184000873009F45CC020F5823009F44FC0C0F441
:101850008823A1F1813089F60E94370190938F028D
:1018600080938E0265E087E193E00E940E01609113
:101870008F0287E193E00E940E0160918E021FC0EB
:101880008430C1F1A8F1863009F0B7CFFEDA34C058
:101890008031D1F140F48830A1F18A3009F0ADCF28
:1018A0000E94460429C0803809F44AC0803F61F094
:1018B000803209F0A2CF0E94DF011EC062E087E102
:1018C00093E00E940E0199CF0E94370190938F02FE
:1018D00080938E0262E087E193E00E940E0165E052
:1018E00087E193E00E940E0161E2BDCFF4D985CF7C
:1018F00097D983CF0E947C02809392029ECFB8DC5E
:10190000FBCF0E945F03F8CF109292028091910268
:1019100081110DC02CD880939202882371F00E940F
:101920002A0280939202811105C0D0939102809186
:10193000920283CF10929102FACFC0939202F7CF16
:101940005E9864EF71E080E090E01FD5E0918C023A
:10195000F0918D02099551CFDF91CF91089550916B
:10196000C8024091C702852F90E0242F30E0541721
:1019700018F0821B930B0895805C9F4FFACF509113
:101980009E0240919D02252F30E0842F90E0821B23
:10199000930B541710F0879608950197089580913E
:1019A000C802E091C7028E1751F0EF5FE03408F0F3
:1019B000E0E0F0E0E753FD4F808190E008958FEF85
:1019C0009FEF08959091C8028091C702981779F00F
:1019D0009091C7029F5F903408F090E0E92FF0E00B
:1019E000E753FD4F80819093C70290E008958FEFF9
:1019F0009FEF089580919C028111FCCF0895209162
:101A0000C90023FD06C021E0FC01228390E080E0B4
:101A100008958091CE018F3F41F080919C02811109
:101A200004C0E091CE01F0E051D390919E028091EC
:101A30009D02981304C08091C80085FD19C0809153
:101A40009E028F5F8832F8F490919D029817E1F31F
:101A5000E82FF0E0E156FD4F608391E090939C0207
:101A600080939E028091C90080628093C90008C063
:101A70008FB7F8946093CE0091E090939C028FBF53
:101A800081E090E0089580E0DFCF1F93CF93DF9354
:101A9000EB01142F4093CE014F3F29F0842F05D343
:101AA000E12FF0E019D3C0FF24C0C13080E1D80796
:101AB00000F582E08093C8002197D093CD00C093B9
:101AC000CC008091C90083FD10C01092C802109212
:101AD000C70210929E0210929D0210929C0286E014
:101AE0008093CA0088ED8093C900DF91CF911F9148
:101AF00008951092C800D695C795DECF80919C02BC
:101B00008111FCCF1092C9001092C8021092C70236
:101B100008951F920F920FB60F9211240BB60F92D9
:101B20002F938F939F93EF93FF939091CE0080918B
:101B3000C8028F5F803408F080E02091C702281728
:101B400039F0E82FF0E0E753FD4F90838093C8020F
:101B5000FF91EF919F918F912F910F900BBE0F905E
:101B60000FBE0F901F9018951F920F920FB60F92F5
:101B700011240BB60F928F939F93EF93FF93909145
:101B80009E0280919D02981310C08091C9008F7DA4
:101B90008093C900FF91EF919F918F910F900BBEA1
:101BA0000F900FBE0F901F90189580919D028F5F30
:101BB000883208F080E0E82FF0E0E156FD4F908198
:101BC0009093CE0080939D02E5CF1F920F920FB6A7
:101BD0000F9211240BB60F928F93EF93FF931092F5
:101BE0009C028091CE018F3F21F0E091CE01F0E088
:101BF00073D2FF91EF918F910F900BBE0F900FBE9C
:101C00000F901F901895E4E9F2E0128288EE93E0BD
:101C1000A0E0B0E083839483A583B68317828CE62B
:101C200092E0918380830895CF92DF92EF92FF92AA
:101C30000F931F93CF93DF936C01EB017B01E40EB5
:101C4000F51E10E000E0CE15DF0561F06991D601C8
:101C5000ED91FC910190F081E02DC6010995080FEE
:101C6000191FF1CFC801DF91CF911F910F91FF9004
:101C7000EF90DF90CF900895CF92DF92EF92FF9296
:101C8000CF93DF93EC010FB6F894C0900C03D09083
:101C90000D03E0900E03F0900F030FBEE881F98171
:101CA0000284F385E02DCE01099597FF1AC00FB687
:101CB000F89480910C0390910D03A0910E03B091C4
:101CC0000F030FBE8C199D09AE09BF094B815C81C2
:101CD0006D817E8184179507A607B707F8F28FEF0D
:101CE0009FEFDF91CF91FF90EF90DF90CF9008951D
:101CF000FC0143835483658376830895AF92BF923A
:101D0000CF92DF92EF92FF920F931F93CF93DF93C7
:101D10005C017B018B01040F151FEB016E01CE18D6
:101D2000DF08C017D10739F0C501A6DF97FF0FC044
:101D300081E0F5018783C601DF91CF911F910F915B
:101D4000FF90EF90DF90CF90BF90AF900895899370
:101D5000E5CFCF92DF92EF92FF926B017C01C1142D
:101D6000D104E104F10441F00E944717A701960154
:101D70000E94C0166B017C01C701B601FF90EF9075
:101D8000DF90CF900895CF92DF92EF92FF926B0198
:101D90007C01C216D306E406F5065CF4CA01B9015B
:101DA0006C197D098E099F09D4DFC60ED71EE81E67
:101DB000F91EC701B601FF90EF90DF90CF90089514
:101DC0004ED10E94530114DDFECF0F931F93CF938A
:101DD000DF938230910510F482E090E0E0912103DE
:101DE000F091220330E020E070E060E0D0E0C0E05D
:101DF000B0E0A0E0309799F42115310509F44AC00C
:101E0000281B390B24303105D8F58A819B81611557
:101E1000710589F1FB0193838283FE0111C040812A
:101E200051810281138148175907E0F0481759077B
:101E300099F4109761F012960C93129713961C93D5
:101E40003296CF01DF91CF911F910F9108950093AA
:101E5000210310932203F4CF2115310551F04217CD
:101E6000530738F0A901DB019A01BD01DF01F80138
:101E7000C1CFEF01F9CF9093220380932103CDCFFF
:101E8000FE01E20FF31F81939193225031093983B0
:101E90002883D7CF2091090330910A03232B41F4E3
:101EA0002091D1013091D20130930A03209309038C
:101EB0002091CF013091D0012115310541F42DB78A
:101EC0003EB74091D3015091D401241B350BE091D2
:101ED0000903F0910A03E217F307A0F42E1B3F0B4E
:101EE0002817390778F0AC014E5F5F4F241735078C
:101EF00048F04E0F5F1F50930A03409309038193EC
:101F000091939FCFF0E0E0E09CCFCF93DF930097D9
:101F1000E9F0FC01329713821282A0912103B09163
:101F20002203ED0130E020E01097A1F420813181FF
:101F3000820F931F2091090330910A032817390754
:101F400009F061C0F0930A03E0930903DF91CF9198
:101F50000895EA01CE17DF07E8F54A815B819E010B
:101F600041155105B1F7E901FB83EA834991599184
:101F7000C40FD51FEC17FD0761F480819181029693
:101F8000840F951FE90199838883828193819B83C4
:101F90008A83F0E0E0E012968D919C911397009770
:101FA000B9F52D913C911197CD010296820F931FA7
:101FB0002091090330910A032817390739F6309721
:101FC00051F51092220310922103B0930A03A093BB
:101FD0000903BCCFD383C28340815181840F951FF5
:101FE000C817D90761F44E5F5F4F88819981480F08
:101FF000591F518340838A819B819383828321155A
:10200000310509F0B0CFF0932203E09321039ECF76
:10201000FD01DC01C0CF13821282D7CF1DBA10920E
:1020200068001CBC10BE1FBA10927A0010926E009D
:1020300010926F0010927000109271001092C900FF
:102040001092BC0011B814B817B81AB81DB810BA5D
:1020500012B815B818B81BB81EB811BA0895F8947C
:10206000E1E6F0E020E82083108283E084BD85BDB6
:10207000EEE6F0E080818160808391E090938000C3
:1020800082E0809381009093B0008093B1009093A0
:1020900090008093910086E880937A0020937B00E3
:1020A00010927E00B1D1789408958E3270F4E8E9F0
:1020B000F0E0880FE80FF11D2591E491F0E09FB763
:1020C000F8948181822B81839FBF0895EE3250F472
:1020D000EE0FED58FF4E0994EE3220F4EE0FE1536F
:1020E000FF4E09940895589AB6C0599AD0C05A9A8A
:1020F00008955B9A08955C9A08955D9A08955E9A92
:1021000008955F9A0895709A0895719A0895409A73
:102110000895419A0895429A0895439A0895449AD9
:10212000C8C0459AC0C0469AB8C0479A0895769AE2
:102130000895779A0895289A0895299A08952A9AD1
:1021400008952B9A08952C9A9CC02D9A88C02E9A97
:102150008CC02F9A90C0109A0895119A0895129ADF
:102160000895139A0895149A0895159A0895169A41
:102170000895179A0895749A0895759A0895889AFB
:102180000895899A08958A9A08958B9A08958C9A49
:1021900008958D9A08958E9A08958F9A0895589863
:1021A0005AC0599874C05A9808955B9808955C98DD
:1021B00008955D9808955E9808955F9808957098C1
:1021C0000895719808954098089541980895429807
:1021D00008954398089544986CC0459864C0469803
:1021E0005CC0479808957698089577980895289840
:1021F0000895299808952A9808952B9808952C9861
:1022000040C02D982CC02E9830C02F9834C0109804
:1022100008951198089512980895139808951498A0
:102220000895159808951698089517980895749824
:1022300008957598089588980895899808958A98BA
:1022400008958B9808958C9808958D9808958E9888
:1022500008958F980895E4B5EF7DE4BD0895E09169
:102260008000EF77E09380000895E0918000EF7D9B
:10227000E09380000895E0918000E77FE093800084
:102280000895E091B000EF77E093B0000895E091F9
:10229000B000EF7DE093B0000895E0919000EF77FB
:1022A000E09390000895E0919000EF7DE09390001E
:1022B0000895E0919000E77FE09390000895F894EE
:1022C00084B7877F84BF80916000806180936000C5
:1022D0001092600080E29EE40197F1F781E0809324
:1022E000E00080E28093D80080E69AEE0197F1F753
:1022F00095DE0C9400FEFFCFF89490DE80E69AEE17
:102300000197F1F70C940000FFCF8F938FB78F9355
:1023100080910B038D5F8D37D0F480930B038091F8
:102320000C038F5F80930C03D8F080910D038F4FC7
:1023300080930D03A8F080910E038F4F80930E03BE
:1023400078F080910F038F4F80930F0309C08D5752
:1023500080930B0380910C038E5F80930C0328F70E
:10236000809110038C5F8093100358F080911103CB
:102370008F4F8093110328F0809112038F4F809329
:1023800012038F918FBF8F911895CF92DF92EF92AA
:10239000FF926B017C0119D09B01C114D104E104AF
:1023A000F10429F4FF90EF90DF90CF9008950DD0C5
:1023B000621B730B683E734080F381E0C81AD1083A
:1023C000E108F10828513C4FE8CF0FB6F89466B504
:1023D00015B27091100380911103909112030FBEFA
:1023E00010FE05C06F3F19F07C5F8F4F9F4F112487
:1023F0000024660F001C660F001C70290895809150
:10240000E80080FFFCCF08958091D80087FF02C0CC
:1024100085FF1BC081E88093D70080EA8093D800B5
:1024200086E189BD09B400FEFDCF80E98093D80024
:102430001092E000109225031092240310922303BF
:102440001092E1008DE08093E20008951F920F92B8
:102450000FB60F9211240BB60F922F933F934F9309
:102460005F936F937F938F939F93AF93BF93EF93FC
:10247000FF939091E1001092E10093FF11C0109240
:10248000E90081E08093EB001092EC0082E28093FF
:10249000ED0088E08093F000109225031092230352
:1024A00092FF1DC0809125038823C9F080911603F7
:1024B000882359F0815080931603811106C084E06F
:1024C0008093E9008AE38093E800809115038823D4
:1024D00031F0815080931503811101C0F0DE90FF2F
:1024E0000CC080E18093E2001092250381E080938C
:1024F000240380EA8093D80019BC809124038823A8
:1025000079F094FF0DC086E189BD09B400FEFDCFCE
:1025100080E98093D8008DE08093E200109224033C
:10252000FF91EF91BF91AF919F918F917F916F91AB
:102530005F914F913F912F910F900BBE0F900FBE67
:102540000F901F9018951F920F920FB60F921124A3
:102550000BB60F92EF92FF920F931F932F933F931F
:102560004F935F936F937F938F939F93AF93BF939B
:10257000CF93DF93EF93FF931092E9008091E800EF
:1025800083FF20C0D091F100C091F100E090F100F4
:10259000F090F1000091F1001091F1002091F10014
:1025A0003091F10082EF8093E800C63009F05BC003
:1025B000E4EFF0E085919591E816F90639F035964B
:1025C000C150C1F781E28093EB002BC085919591BA
:1025D0000817190711F03396F3CF4591559184915F
:1025E0002F3F310519F010F02FEF30E0821708F47B
:1025F000282F3EEF8091E800982F9570D9F382FD47
:1026000010C0822F213208F080E2982F911124C04F
:10261000922F981B892F3093E80091111BC0203214
:10262000C8F4FF91EF91DF91CF91BF91AF919F914E
:102630008F917F916F915F914F913F912F911F915A
:102640000F91FF90EF900F900BBE0F900FBE0F9069
:102650001F901895282FCECFFA0145914093F10095
:10266000AF019150D3CFC53049F48EEF8093E8008D
:10267000C6DE8E2D80688093E300D3CFC93021F56C
:10268000D111A0CFE09225031092230310921603DC
:102690008EEF8093E80081E0E7EBF1E08093E900C2
:1026A00095919093EB00992331F095919093EC00E4
:1026B00095919093ED008F5F853081F78EE1809347
:1026C000EA001092EA00ADCFC83061F4D03809F0CA
:1026D00079CF95DE809125038093F1008EEF809372
:1026E000E8009FCFC13279F4D13A09F06BCF87DE91
:1026F000E5EDF1E080818093F100319681E0EC3DE1
:10270000F807C1F7EBCFC03209F047C0D13209F06A
:1027100059CF8091E80082FFFCCFE5EDF1E0809198
:10272000F1008083319691E0EC3DF907C1F78BEF22
:102730008093E8008EEF8093E8003091D5014091BE
:10274000D6018091D7012091D80190E0B0E0A0E0BF
:10275000DC0199278827942B832BB22B863891058F
:10276000A105B10521F48FE0809315035ACF863976
:102770009105A105B10509F054CF84E08093E900EB
:102780009FEF8091EE00837009F4B6DD9093E8002E
:102790008091E80082FDFCCFF4CFC23239F4D1320F
:1027A00009F010CFE09223032ADE98CFC33221F440
:1027B000D13209F007CFF8CFC11111C020DED238D5
:1027C00049F40093E900C091EB00C5FBCC27C0F9A8
:1027D0001092E900C093F1001092F1007FCF8C2F8E
:1027E0008D7F813009F0EECED23009F0EBCEEF28AC
:1027F00009F0E8CE0F778FEF800F863008F0E2CE39
:102800008EEF8093E8000093E900C33009F4DACE3C
:1028100089E18093EB0081E090E001C0880F0A9588
:10282000EAF74DCFFC018FB7F894909125039111F1
:102830000CC090E08FBF2085318537FD03C09F3FDE
:1028400009F09F5F892F90E0089593E09093E9004D
:102850009091F2009111EECF2091E80022FFE9CF94
:1028600025FDE7CF2BE62093E800E4CFCF93DF935D
:10287000EC018885998597FF09C0E881F981028478
:10288000F385E02DCE0109959987888788859985FC
:10289000DF91CF910895FC012085318537FD07C078
:1028A0004FEF5FEF51874087C901992708959FB780
:1028B000F89480912503811104C09FBF8FEF9FEF93
:1028C000089583E08093E9002BE68091E80085FD80
:1028D00005C082FFF2CF2093E800F7CF8091F1008E
:1028E0002091E80025FD03C02BE62093E8009FBF60
:1028F00090E0089580912503882361F08FB7F894C4
:1029000094E09093E9009091F2008FBF80E4891BDE
:1029100090E0089590E080E00895BF92CF92DF921A
:10292000EF92FF920F931F93CF93DF937C018091DF
:102930002503811110C081E0F701828310E000E0DF
:10294000C801DF91CF911F910F91FF90EF90DF9021
:10295000CF90BF9008952FB7F89484E08093E9005A
:1029600080911403882341F08091E80085FD02C026
:102970002FBFE1CF1092140310E000E084E0D82EC6
:1029800090E4C92EA1EFB0E03AE3B32E33E0411555
:10299000510509F4C0C08091E400815F9091E80086
:1029A00095FD16C02FBF9091E400891306C081E009
:1029B00080931403F7018283C3CF90912503911173
:1029C00002C081E0F7CF2FB7F894D092E900E6CFAC
:1029D0008091F2009C2D981B9417150611F008F0B9
:1029E000942FE92FF0E04E1B5F0B0E0F1F1FEB0122
:1029F000E0E4E91BE03428F4EE0FFF27EE5FFA4E27
:102A0000099480C099919C9399919C9399919C93DE
:102A100099919C9399919C9399919C9399919C9352
:102A200099919C9399919C9399919C9399919C9342
:102A300099919C9399919C9399919C9399919C9332
:102A400099919C9399919C9399919C9399919C9322
:102A500099919C9399919C9399919C9399919C9312
:102A600099919C9399919C9399919C9399919C9302
:102A700099919C9399919C9399919C9399919C93F2
:102A800099919C9399919C9399919C9399919C93E2
:102A900099919C9399919C9399919C9399919C93D2
:102AA00099919C9399919C9399919C9399919C93C2
:102AB00099919C9399919C9399919C9399919C93B2
:102AC00099919C9399919C9399919C9399919C93A2
:102AD00099919C9399919C9399919C9399919C9392
:102AE00099919C9399919C9399919C9399919C9382
:102AF00099919C9399919C9399919C9399919C9372
:102B000099919C93BE018091E80085FFB092E80006
:102B1000309316033CCF2FBF13CF2FEF3FEFFC01B5
:102B20003187208771DC0FB6F89480910C03909167
:102B30000D03A0910E03B0910F030FBE9C01809175
:102B40002503882329F068EC70E080E090E01DCC3C
:102B500080912403882301F10FB6F89440910C036F
:102B600050910D0360910E0370910F030FBE809181
:102B70002403882389F00FB6F89480910C03909178
:102B80000D03A0910E03B0910F030FBE841B950B94
:102B90008B3F910560F308950FB6F89480910C0374
:102BA00090910D03A0910E03B0910F030FBE821BF5
:102BB000930B853C994008F4C2CF08958F929F9261
:102BC000AF92BF92CF92DF92EF92FF920F931F933B
:102BD000CF93DF93EC010FB6F894C0900C03D09024
:102BE0000D03E0900E03F0900F030FBE4115510549
:102BF00029F18885998597FD11C0FB0180838FEFAE
:102C00009FEF99878887415051096F5F7F4F91E00F
:102C10004115510521F441E050E010C090E080E002
:102C2000FA01492F582F13E00BE68FB7F8949091D3
:102C30002503911111C08FBF81E08F83CA01DF91FD
:102C4000CF911F910F91FF90EF90DF90CF90BF90A9
:102C5000AF909F908F9008951093E9009091E800B5
:102C600092FFE9CF2091F2002E171F0611F008F015
:102C70002E2F362FDB019A2F931B921720F4909161
:102C8000F1009D93F8CF30E0620F731F9091E80040
:102C900095FF0093E8008FBF420F531FE21BF30B19
:102CA00069F20FB6F89480910C0390910D03A091F6
:102CB0000E03B0910F030FBE8C199D09AE09BF0919
:102CC0008B809C80AD80BE8088159905AA05BB05C8
:102CD00008F4ABCFB1CF8FB7F89490912503992327
:102CE00061F090911603992341F094E09093E900EC
:102CF0009AE39093E800109216038FBF0895EBCFEC
:102D000080912503882329F090912303937081E01B
:102D100009F480E00895E7E1F3E01186108612825D
:102D200088EE93E0A0E0B0E083839483A583B6832C
:102D300017828EE792E0918380830895A1E21A2E94
:102D4000AA1BBB1BFD010DC0AA1FBB1FEE1FFF1F4F
:102D5000A217B307E407F50720F0A21BB30BE40B9F
:102D6000F50B661F771F881F991F1A9469F76095E6
:102D70007095809590959B01AC01BD01CF010895A0
:102D8000052E97FB16F400940FD057FD05D0D6DF23
:102D900007FC02D046F408C0509540953095219527
:102DA0003F4F4F4F5F4F0895909580957095619577
:102DB0007F4F8F4F9F4F0895EE0FFF1F0024001C81
:102DC0000BBE0790F691E02D099409D0A59F900DB8
:102DD000B49F900DA49F800D911D11240895A29F72
:102DE000B001B39FC001A39F700D811D1124911DDF
:102DF000B29F700D811D1124911D08958F929F9295
:102E0000AF92BF92CF92DF92EF92FF92CF93DF9378
:102E1000EC01688179818A819B8161157105810549
:102E2000910521F464E279ED8BE597E02DE133EF34
:102E300041E050E0A5DF49015A019B01AC01A7EA3E
:102E4000B1E4C3DF6B017C01ACEEB4EFA5019401EA
:102E500075D0C60ED71EE81EF91EF7FE06C081E02B
:102E6000C81AD108E10880E8F80AC882D982EA8243
:102E7000FB82C701B6019F77DF91CF91FF90EF9062
:102E8000DF90CF90BF90AF909F908F9008958F92DA
:102E90009F92AF92BF92CF92DF92EF92FF9260919A
:102EA000000170910101809102019091030161156F
:102EB00071058105910521F464E279ED8BE597E0D8
:102EC0002DE133EF41E050E05BDF49015A019B0106
:102ED000AC01A7EAB1E479DF6B017C01ACEEB4EFA1
:102EE000A50194012BD0C60ED71EE81EF91EF7FED1
:102EF00006C081E0C81AD108E10880E8F80AC0924B
:102F00000001D0920101E0920201F0920301C70199
:102F1000B6019F77FF90EF90DF90CF90BF90AF907A
:102F20009F908F90089560930001709301018093AA
:102F30000201909303010895B7FF47CF46DF821B3C
:082F4000930B0895F894FFCFF4
:102F48000100000000FBC013BFE607C0BFEC07C0CC
:102F5800BFEE07CFEB07ECF5EA07FCB2FF0E72FCF9
:102F6800B2FF0E76FCB2FF0E77FCB2FF0E9EFDFCA0
:102F7800B2FF0E73624C69DD6D4C77DD1D4C72DD5E
:102F8800294C65DD324C75DD62FCA1FF0ED5EA07E0
:102F9800DFC8AFE60712ECEB070FFCB2FF0E119B80
:102FA800A793DFF6FE4C00EEE3FF118BFCA1FF0EAA
:102FB800A793DFF6EED6FF61FFFCF8FF0E8F02083D
:102FC8004C0FDD0B624CFFDF11FCC4080FEFF562FC
:102FD8004CFFDF06FC04F00EEFF5C361CFC262FCC4
:102FE800A1FF0EEEA7FFE5EA07EF03E5EA07FE02F9
:102FF80000EF9A5100FCA1FF0ED7FFFFFFFFFFFF74
:10300800FFFFFFFFFFFFFFE00704EC00FB0FFF00DF
:10301800002603800000E1000000000875000000A1
:103028000000650000000000690000000000770053
:10303800FC0F01010077E2FE0F0100007703080F83
:103048000100007704080F0200FC007700080F0851
:10305800000000000004007700080F0803000000CB
:1030680000FC0200007700080F08040000000000C0
:103078000100007700FC0F00007700FD0F00000042
:1030880000FC0002007701080F01010077E2FE0F43
:1030980001030077E2FE0F01080077E2FE0F010945
:1030A8000077E2FE0F01040000000000FF0C140E80
:1030B800BF0CFA0CAF0CE20CCF0C000000000E01A4
:0C30C8008D147A147F1612144B14361469
:00000001FF
