:1000000000000320D1010000512300000D23000057
:100010000D2300000D2300000D2300000D23000020
:100020000D2300000D2300000D23000051230000CC
:10003000512300000D230000194000001D40000066
:1000400051230000512300005123000051230000E0
:1000500051230000512300005123000051230000D0
:1000600051230000512300005123000051230000C0
:1000700051230000512300005123000051230000B0
:1000800051230000512300005123000051230000A0
:100090005123000051230000512300005123000090
:1000A0005123000051230000512300005123000080
:1000B000512300005123000051230000352F000080
:1000C0005123000051230000512300005123000060
:1000D0005123000051230000512300005123000050
:1000E0005123000051230000512300005123000040
:1000F0005123000051230000512300005123000030
:10010000512300005123000051230000512300001F
:10011000512300008D3200005123000051230000C4
:1001200051230000512300005123000051230000FF
:1001300051230000512300005123000051230000EF
:1001400051230000512300005123000051230000DF
:1001500051230000512300005123000051230000CF
:1001600051230000512300005123000051230000BF
:1001700051230000512300005123000051230000AF
:10018000512300005123000051230000512300009F
:10019000512300005123000051230000512300008F
:1001A000512300005123000051230000512300007F
:1001B000512300005123000051230000512300006F
:1001C000512300005123000051230000512300005F
:1001D0005F4B4CF2205210B5DA814DF62812DA81CD
:1001E00000BF00BF02F0B8F85A4B4FF030621A63FC
:1001F000594A9A63594ADA634FF0E0234FF4700288
:10020000C3F8882D03F5E823554A1A60554B9A78B0
:10021000110703D59A7842F008029A70524B53485E
:10022000AA221A70524BDA1C121AC11E22F00302C3
:10023000994288BF00224F4901F094FF4E4B4F482E
:10024000DA1C121AC11E22F00302994288BF002252
:10025000002104F081FA4A494A484FF4E87201F05B
:1002600081FF494B494A802103F8011B9342FBD18E
:100270004FF0E023434AC3F8082D454B8A221A70F9
:10028000A3F5805324225A70A0221A709A799207FB
:10029000FCD59A79D406FCD43E4A937903F00C033A
:1002A000082BFAD1304B60225A70DA78802AFCD1C0
:1002B000384B01221A715D225A719A799006FCD549
:1002C0009A795106FCD5234A33495164002191643F
:1002D000202119702F498B7903F00C030C2BFAD1D4
:1002E0002E4B53602E4A136913F4807303D153616C
:1002F0004FF4A85313614FF0E0232A4A5A610022B9
:100300009A6107221A61284AC3F8202D62B602F0CA
:10031000CDF8234B5B69DA0705D5244802F0BAF81B
:10032000234B244ADA61244B1B785B0609D5204C09
:10033000204BE2699A4204D11C4802F0ABF800233A
:10034000E36102F00FF804F071FA01F003FFFEE739
:100350000020054000800440823F04000100002B83
:100360000300008500D0074000E007403007FF1F72
:10037000200EFF1F845000003C13FF1F200EFF1FA4
:10038000000000000002FF1F00E400E064E400E061
:10039000005006400040064000000602C010070062
:1003A00000D003401FBF0200000020200210896817
:1003B00000E00340A5C3945A00F00740FFFFFFFF91
:1003C000FFFFFFFFFFFFFFFFFFFFFFFFFFFFFFFF3D
:1003D000FFFFFFFFFFFFFFFFFFFFFFFFFFFFFFFF2D
:1003E000FFFFFFFFFFFFFFFFFFFFFFFFFFFFFFFF1D
:1003F000FFFFFFFFFFFFFFFFFFFFFFFFFFFFFFFF0D
:10040000FFFFFFFFFFFFFFFFFFFFFFFFDEF9FFFF23
:100410000548064B1B1AD90F01EBA301491002D066
:10042000034B03B118477047200EFF1F200EFF1F1C
:100430000000000008B5054B1BB105490548AFF3A6
:100440000080BDE80840FFF7E3BF00BF00000000E8
:10045000200EFF1F8450000070B51A4C0D2082B092
:10046000012102F09FF8261D652041F2707501E020
:1004700014F8010F02F004FC2B46013BFDD102F001
:10048000C9FCB442F4D1013DFDD10F4C00210D2037
:1004900002F088F823680093009E42F2107505E090
:1004A00023680193019B9B1BAB4208D802F09EFC82
:1004B0000028F5DD02F0AEFCC0B202B070BDEF2046
:1004C00002B070BD004D00004C0EFF1F70B5012141
:1004D0000D20644C02F066F80D20012102F062F854
:1004E000261D692041F2707501E014F8010F02F039
:1004F000C7FB2B46013BFDD102F08CFCB442F4D18A
:10050000013DFDD100210D2002F04CF802F082FCEB
:10051000C0B2002840F0A380534C0D20012102F00E
:1005200041F8661D772041F2707501E014F8010F63
:1005300002F0A6FB2B46013BFDD102F06BFCB4425E
:10054000F4D1013DFDD100210D2002F02BF802F085
:1005500061FCC0B2002840F08280444C0D20012193
:1005600002F020F8661D772041F2707501E014F862
:10057000010F02F085FB2B46013BFDD102F04AFC46
:10058000B442F4D1013DFDD100210D2002F00AF862
:1005900002F040FCC0B2002861D1354C0D20012191
:1005A00002F000F8661D772041F2707501E014F842
:1005B000010F02F065FB2B46013BFDD102F02AFC46
:1005C000B442F4D1013DFDD100210D2001F0EAFF3C
:1005D00002F020FCC0B2002841D1264C0D200121A0
:1005E00001F0E0FFA61D772041F2707501E014F8DC
:1005F000010F02F045FB2B46013BFDD102F00AFC46
:10060000B442F4D1013DFDD100210D2001F0CAFF1B
:1006100002F000FCC0B210BB174C0D20012101F00C
:10062000C1FF661D772041F2707501E014F8010FDB
:1006300002F026FB2B46013BFDD102F0EBFBA6426C
:10064000F4D1013DFDD100210D2001F0ABFF02F0FE
:10065000E1FBC0B218B9BDE87040FFF7FDBEE02075
:1006600070BD00BF084D0000104D0000184D000087
:10067000204D0000284D0000D84C00002DE9F0412D
:1006800082B0002701AE41F270744FF072083A0A4E
:100690003B0C80250D2001218DF804508DF8008041
:1006A0008DF801708DF802208DF803306D4601F051
:1006B00079FF404601E015F8010F02F0E1FA234608
:1006C000013BFDD102F0A6FBB542F4D12346013B2C
:1006D000FDD100210D2001F065FF802502E02346B9
:1006E000013BFDD102F082FB0028F8D002F092FB22
:1006F000C0B203F075FB013DF4D18037B7F5002F90
:10070000C3D1284602B0BDE8F08100BF2DE9F04317
:100710004F4D89B02B680093009C42F2107605E0A3
:100720000193019B1B1BB34200F28D8003F056FA2C
:1007300003282B68F4DD00240393CDE90444039FD0
:10074000444E0694ADF81C4006E02B680293029BD1
:10075000B268DB1B934273D204ABC4F104011819D5
:1007600003F052FA0444032CEFD99DF812009DF8CF
:1007700013309DF810109DF8112003EB002302EBBD
:1007800001229BB292B201339A424FEA82274FEA8A
:10079000832949D20DF115064FF0000841F270741B
:1007A00072213A0A3B0C80258DF810100D20012192
:1007B000CDF81480CDF818808DF81450ADF81C8059
:1007C0008DF811708DF812208DF8133001F0EAFECB
:1007D00004AD15F8010B02F053FA2346013BFDD19D
:1007E00002F018FBB542F4D12346013BFDD10021B4
:1007F0000D2001F0D7FE802502E02346013BFDD10C
:1008000002F0F4FA0028F8D002F004FBC0B203F0C2
:10081000E7FA013DF4D18037B945C1D803F0DEF9DC
:10082000002805DD03F09EF903F0D8F90028F9DC73
:1008300000210D2001F0B6FE002009B0BDE8F083D4
:100840000123337391E7EB2009B0BDE8F08300BFCB
:100850004C0EFF1F2808FF1F2DE9F04F624D89B095
:100860002B680093009C42F2107605E00193019BF7
:100870001B1BB34200F2AA8003F0B0F903282B68D7
:10088000F4DD00240393CDE90444039E574F0694FE
:10089000ADF81C4007E02B680293029BBA689B1BD3
:1008A000934280F09D8004ABC4F10401181903F059
:1008B000ABF90444032CEED99DF812009DF81330D7
:1008C0009DF810109DF8112003EB002302EB01228C
:1008D0009BB292B201339A424FEA82264FEA832AB0
:1008E0006FD2434B434D03F108080D20012101F065
:1008F00059FE414FC6F3072BC6F30749772041F253
:10090000707401E017F8010F02F0BAF92346013BB9
:10091000FDD102F07FFAAF42F4D1013CFDD10021BC
:100920000D2001F03FFE02F075FA10F0FF0352D1E6
:100930002F4A059392E8030004908DF8141098E86C
:100940000300ADF81C3006908DF81C100D2001211D
:100950008DF816B08DF8179001F024FE04AC0DF15F
:100960001D0B41F2707914F8010B02F089F94B4626
:10097000013BFDD102F04EFA5C45F4D14B46013B00
:10098000FDD100210D2001F00DFE02F043FAC0B2AE
:1009900008BBFFF761FD0346A0B903F021FAB9F1E6
:1009A0000109FCD101E003F0DDF803F017F900289C
:1009B000F9DC00210D2006F5806601F0F3FDB2455B
:1009C00093D80023184609B0BDE8F08FEB231846F2
:1009D00009B0BDE8F08FE423184609B0BDE8F08FF8
:1009E00001233B7368E700BF4C0EFF1F2808FF1F61
:1009F000304D0000E54C0000E04C00002DE9F04FC8
:100A0000634D89B02B680093009C42F2107605E09C
:100A10000193019B1B1BB34200F2AB8003F0DEF895
:100A200003282B68F4DD00240393CDE90444039EDE
:100A3000584F0694ADF81C4007E02B680293029BC8
:100A4000BA689B1B934280F0988004ABC4F1040108
:100A5000181903F0D9F80444032CEED99DF81200BC
:100A60009DF813309DF810109DF8112003EB002322
:100A700002EB01229BB292B201339A424FEA8226E4
:100A80004FEA832A71D2444B444D03F108080D20EC
:100A9000012101F087FD424FC6F3072BC6F307493A
:100AA000772041F2707401E017F8010F02F0E8F8C6
:100AB0002346013BFDD102F0ADF9AF42F4D1013C38
:100AC000FDD100210D2001F06DFD02F0A3F910F021
:100AD000FF0355D1304A059392E8030004908DF846
:100AE000141098E80300ADF81C3006908DF81C1027
:100AF0000D2001218DF816B08DF8179001F052FDF0
:100B000004AC0DF11D0B41F2707914F8010B02F0E9
:100B1000B7F84B46013BFDD102F07CF9A345F4D177
:100B2000B9F10109FCD100210D2001F03BFD02F0DB
:100B300071F9C0B240BBFFF78FFC08B11B2815D17B
:100B400003F04EF941F27073013BFDD101E003F077
:100B500009F803F043F80028F9DC00210D2006F520
:100B6000806601F01FFDB24591D8002009B0BDE8B4
:100B7000F08FEB2009B0BDE8F08F01233B736DE7E8
:100B8000E82009B0BDE8F08FE42009B0BDE8F08F9F
:100B90004C0EFF1F2808FF1F304D0000ED4C0000D9
:100BA000E84C00002DE9F041584F0D2082B00121A2
:100BB00001F0F8FC7E1D3C46772041F2707501E0A3
:100BC00014F8010F02F05CF82B46013BFDD102F056
:100BD00021F9B442F4D1013DFDD100210D2001F0F5
:100BE000E1FC02F017F910F0FF0340F08980484C57
:100BF000ADF804300D2001218DF8063004F10C0809
:100C000001F0D0FC41F27075772001E014F8010F7B
:100C100002F036F82B46013BFDD102F0FBF84445CB
:100C2000F4D1013DFDD100210D2001F0BBFC02F00B
:100C3000F1F8C0B200285ED1FFF70EFC0446002890
:100C40005AD102F0E7F85FFA80F88DF8048002F0DC
:100C5000E1F80121C5B20D208DF8055041F2707404
:100C600001F0A0FC772001E017F8010F02F008F86E
:100C70002346013BFDD102F0CDF8B742F4D1013C4F
:100C8000FDD100210D2001F08DFC02F0C3F8C0B2AF
:100C9000002835D11F4C0D20012101F083FC04F107
:100CA0000C07772041F2707601E014F8010F01F093
:100CB000E7FF3346013BFDD102F0ACF8A742F4D187
:100CC000013EFDD100210D2001F06CFC02F0A2F8E4
:100CD000C0B280B9FFF7C0FB044668B902F09AF8C9
:100CE0000646404603F07CF8284603F079F8F0B257
:100CF00003F076F800E0E424204602B0BDE8F0817D
:100D0000E824204602B0BDE8F08100BFF04C0000AE
:100D1000404D0000504D00002DE9F04FA04CADF2C9
:100D2000444D00214FF47F7211A8CDE90C110E91B2
:100D30008DF83C10109103F00FFD23680493049E7E
:100D400042F2107506E023680593059B9B1BAB429E
:100D500000F2EE8102F042FF0128F4DD23680993DE
:100D60000025CDE90C55099E8E4F0E958DF83C500F
:100D700007E023680893089BBA689B1B934280F0A6
:100D8000E3810CABC5F10201581902F03DFF0544A7
:100D9000012DEED99DF83030019301219DF83130BD
:100DA00002930D2001F0FEFB23680693069FDFF8F7
:100DB000F481002544F620660EE023680793079B24
:100DC000DB1BB34200F2BA8102F008FF1FFA80F980
:100DD000B9F1000F40F0BB81B5F5806FEDD3724FD4
:100DE0000D20012101F0DEFB3C1D3D46772041F244
:100DF000707601E015F8010F01F042FF3346013B28
:100E0000FDD102F007F8A542F4D1013EFDD1002149
:100E10000D2001F0C7FB0DF13F050DF23F1941F226
:100E2000707815F8010F01F02BFF4346013BFDD10F
:100E300001F0F0FF4D45F4D101F0B4FFB8F1010825
:100E4000FCD101F0E7FFC0B2002840F0A981DFF833
:100E500064A10D20012101F0A5FB0AF1040556460D
:100E6000772041F2707801E016F8010F01F008FFD9
:100E70004346013BFDD101F0CDFFAE42F4D1B8F1C4
:100E80000108FCD100210D2001F08CFB0DF23F2662
:100E900041F2707819F8010F01F0F2FE4346013B70
:100EA000FDD101F0B7FFB145F4D101F07BFFB8F1FE
:100EB0000108FCD101F0AEFFC0B2002840F07D81F6
:100EC0003A4B03931E460D20012101F06BFB06F106
:100ED0000508B146772041F2707601E019F8010F5C
:100EE00001F0CEFE3346013BFDD101F093FFC14539
:100EF000F4D1013EFDD100210D2001F053FB01F0A2
:100F000089FF10F0FF0040F05181019A029B8DF89B
:100F1000350003EB02239BB29A008DF836209A0924
:100F20009B0201930CAB02939B46214B8DF837201B
:100F300093E8030040330C908DF8341093E80300DD
:100F40000E908DF83C100D2001210DF13D0941F26C
:100F5000707601F027FB1BF8010B01F091FE334680
:100F6000013BFDD101F056FFCB45F4D1013EFDD14F
:100F700000210D2001F016FB01F04CFFC0B200284B
:100F800040F01481FFF768FA0646002840F0D1804F
:100F90000D20012101F006FB41F2707677200DE073
:100FA0004C0EFF1F2808FF1F604D0000F84C00008A
:100FB000304D0000684D000017F8010F01F060FE91
:100FC0003346013BFDD101F025FFA742F4D1013E9C
:100FD000FDD100210D2001F0E5FA0DF23F270DF2C1
:100FE0003F3641F2707417F8010F01F049FE2346B5
:100FF000013BFDD101F00EFFB742F4D101F0D2FE6A
:10100000013CFDD101F006FFC0B2002840F0C880CD
:101010000D20012101F0C6FA41F27074772001E041
:101020001AF8010F01F02CFE2346013BFDD101F01F
:10103000F1FEAA45F4D1013CFDD100210D2001F0C3
:10104000B1FA0DF23F440DF23F3641F2707516F8D9
:10105000010F01F015FE2B46013BFDD101F0DAFE38
:10106000A642F4D101F09EFE013DFDD101F0D2FE79
:10107000C0B2002840F0A1800D20012101F092FAB9
:1010800041F27074039D772001E015F8010F01F023
:10109000F7FD2346013BFDD101F0BCFE4545F4D1EF
:1010A000013CFDD100210D2001F07CFA01F0B2FEDF
:1010B00010F0FF007AD1424A8DF8350092E8030023
:1010C0004032019B8DF834100C9092E8030003F538
:1010D00000731A0A0E908DF83C101B0C01210D2094
:1010E0008DF836208DF8373001F05CFA029D41F220
:1010F000707415F8010B01F0C3FD2346013BFDD1CF
:1011000001F088FE4D45F4D1013CFDD100210D20B8
:1011100001F048FA01F07EFEC0B2002846D1FFF788
:101120009BF9064628B901460D2001F03BFA00E084
:10113000EB2630460DF2444DBDE8F08FEC263046EC
:101140000DF2444DBDE8F08F01233B7322E615FA02
:1011500080F0B0F5806F1CDC1FFA80FB23680B93D6
:10116000DDF82CA0002608E023680A930A9BD8F833
:101170000820A3EB0A0393421AD2A81910ABA9EBDB
:101180000601184402F040FD0644B145ECD85D4626
:1011900010E6C5F580691FFA89F94FF4806BDDE729
:1011A000E12630460DF2444DBDE8F08FE626C0E75B
:1011B000012388F80C305D46FCE5E226B9E700BF64
:1011C000304D00002DE9F04F994DADF24C4D00210E
:1011D0004FF47F7213A8CDE90E1110918DF84410D1
:1011E000129103F0B9FA2B680693069E42F210742E
:1011F00006E02B680793079B9B1BA34200F2B68275
:1012000002F0ECFC0128F4DD2B680B930024CDE9FF
:101210000E440B9E874F10948DF8444007E02B68D6
:101220000A930A9BBA689B1B934280F0AD820EAB77
:10123000C4F10201181902F0E7FC0444012CEED9B4
:101240009DF83830009301210D209DF83990DFF88A
:10125000E48101F0A7F92B680893089F002444F665
:1012600020660EE02B680993099BDB1BB34200F25A
:10127000848202F0B3FC1FFA80FABAF1000F40F04A
:101280008682B4F5806FEDD36B4C0D20012101F007
:1012900089F9661D772041F2707501E014F8010F9D
:1012A00001F0EEFC2B46013BFDD101F0B3FDB44251
:1012B000F4D1013DFDD100210D2001F073F901F0C1
:1012C000A9FD10F0FF0040F08C825C4D8DF83D00D0
:1012D00095E80300009B0E9005F1080709EB032930
:1012E0008DF83C1097E803001FFA89F3C3F38712C7
:1012F0009E009B02F6B2019310900EAB8DF8441045
:101300000D2001218DF83E6000928DF83F20029360
:101310000DF145049A4641F2707801F043F91AF84C
:10132000010B01F0ADFC4346013BFDD101F072FD24
:10133000A245F4D1B8F10108FCD100210D2001F043
:1013400031F901F067FDC0B2002840F05282FFF78A
:1013500083F8824600285DD01B2840F00982DFF820
:10136000E4B00D20012101F01DF90BF1050A7720F1
:1013700041F2707801E01BF8010F01F081FC434657
:10138000013BFDD101F046FDD345F4D1B8F1010890
:10139000FCD100210D2001F005F901F03BFD10F01A
:1013A000FF0040F026828DF83D0095E803000E9086
:1013B0008DF83C1097E80300009B10908DF84410C6
:1013C0000D2001218DF83E608DF83F300DF1380A77
:1013D00041F2707801F0E6F81AF8010B01F050FCC8
:1013E0004346013BFDD101F015FDA245F4D1B8F112
:1013F0000108FCD100210D2001F0D4F801F00AFD14
:10140000C0B2002840F0F581FFF726F88246002898
:1014100040F0AE810A4B03931F460D20012101F0DD
:10142000C1F83B469A460437772041F270780DE0C8
:101430004C0EFF1F2808FF1FE84C0000304D000035
:10144000604D0000E04C00001AF8010F01F018FC9C
:101450004346013BFDD101F0DDFCBA45F4D1B8F1C2
:101460000108FCD100210D2001F09CF80DF1470B83
:101470000DF2471841F2707A1BF8010F01F000FCE1
:101480005346013BFDD101F0C5FCC345F4D101F049
:1014900089FCBAF1010AFCD101F0BCFCC0B2002801
:1014A00040F0AA81854B04930D20012101F07AF8C8
:1014B000824B772003F104099B4641F2707A01E0E8
:1014C0001BF8010F01F0DCFB5346013BFDD101F09D
:1014D000A1FCCB45F4D1BAF1010AFCD100210D20C9
:1014E00001F060F80DF2472B41F2707A18F8010F05
:1014F00001F0C6FB5346013BFDD101F08BFCD84502
:10150000F4D101F04FFCBAF1010AFCD101F082FCE8
:10151000C0B2002840F07681694B05930D2001216F
:1015200001F040F8664B772003F1050B984641F235
:10153000707A01E018F8010F01F0A2FB5346013B5D
:10154000FDD101F067FCC345F4D1BAF1010AFCD129
:1015500000210D2001F026F801F05CFC10F0FF00E6
:1015600040F04D818DF83D0095E80300DFF854B15F
:101570000E908DF83C109BE80300009B10908DF8B6
:1015800044100D2001218DF83E608DF83F300DF1A3
:10159000380A41F2707601F005F81AF8010B01F0F3
:1015A0006FFB3346013BFDD101F034FCA245F4D181
:1015B000013EFDD100210D2000F0F4FF01F02AFCD6
:1015C000C0B2002840F01B81FEF746FF824600288B
:1015D00040F0CE800D20012100F0E4FF41F2707652
:1015E000DDF80CA0772001E01AF8010F01F048FBAC
:1015F0003346013BFDD101F00DFCBA45F4D1013E6B
:10160000FDD100210D2000F0CDFF0DF2472A0DF293
:10161000473741F270761AF8010F01F031FB33467B
:10162000013BFDD101F0F6FBBA45F4D101F0BAFB64
:10163000013EFDD101F0EEFBC0B2002840F0DC809D
:101640000D20012100F0AEFF41F27076049F77205B
:1016500001E017F8010F01F013FB3346013BFDD108
:1016600001F0D8FB4F45F4D1013EFDD100210D2002
:1016700000F098FF0DF247460DF2473A41F27077BD
:101680001AF8010F01F0FCFA3B46013BFDD101F0D5
:10169000C1FBB245F4D101F085FB013FFDD101F062
:1016A000B9FBC0B2002840F0AD800D20012100F050
:1016B00079FF41F27076059F772007E0684D0000C2
:1016C000F84C0000704D000017F8010F01F0D8FA37
:1016D0003346013BFDD101F09DFB4745F4D1013E6E
:1016E000FDD100210D2000F05DFF01F093FB10F013
:1016F000FF0040F084808DF83D0095E80300019BD9
:101700008DF83C100E909BE8030003F500731A0A55
:1017100010908DF844101B0C01210D208DF83E20F7
:101720008DF83F3000F03EFF029E41F2707516F8D2
:10173000010B01F0A5FA2B46013BFDD101F06AFB3C
:10174000A642F4D1013DFDD100210D2000F02AFF79
:1017500001F060FBC0B2002851D1FEF77DFE824649
:1017600030B901460D2000F01DFF01E04FF0EB0AFB
:1017700050460DF24C4DBDE8F08F4FF0EC0A50464C
:101780000DF24C4DBDE8F08F01233B7358E514FA80
:1017900080F0B0F5806F1CDC83B201932B680D9351
:1017A0000D9E4FF0000B07E02A680C920C9AD8F8B7
:1017B0000810921B8A4217D204EB0B0012ABAAEB63
:1017C0000B01184402F020FA8344DA45ECD8019C5E
:1017D00045E5C4F5806A4FF480631FFA8AFA0193E5
:1017E000DCE74FF0E80AC3E70123019C88F80C30DE
:1017F00035E54FF0E40ABBE74FF0E10AB8E74FF0F8
:10180000E60AB5E74FF0E20AB2E700BF2DE9F04380
:10181000594F5A4D83B04FF0000901210D20CDF8EA
:1018200000908DF8049000F0BDFE4FF4FA514FF493
:10183000FA6000F05DFC08210646012000F058FC2B
:1018400049460446052000F0ADFE4FF41663013B07
:10185000FDD101F0AFF8052000F00AFF01210520BD
:1018600000F0A0FE052000F003FF4FF4E131384600
:1018700000F08AFB6423BB60012000F0F9FE2B78A6
:10188000C5203B3B41F270782B7001F0F9F94346DB
:10189000013BFDD12B78012001332B7001F0F0F9D1
:1018A0004346013BFDD10320287001F0E9F943468E
:1018B000013BFDD12B789A20663B2B7001F0E0F9BB
:1018C0004346013BFDD1484601F0DAF94346013B6E
:1018D000FDD12B78142014332B7001F0D1F943463D
:1018E000013BFDD12B785842C0B2C31A2B7001F0D6
:1018F000C7F9B8F10108FCD101E001F08BFA01F061
:1019000075FA0028F9DC2B780320034441F2707843
:101910002B7001F0B5F94346013BFDD101F07AFA95
:1019200005226946384600F0C7FB9DF80230062BB9
:1019300035D0102B40F0FB80C6EB0616B60001D068
:10194000013EFDD100210420C4EB041400F02AFE66
:10195000A40001D0013CFDD10121042000F022FEB1
:1019600001E001F057FA01F041FA0028F9DC40F2F9
:10197000E7344FF4967609E0FC07FF1F390EFF1F8E
:101980003346013BFDD1013C3FF445AF01F02EFA57
:101990000028F5DD01F03EFAC0B20228F0D10520A2
:1019A00000F066FE2B7891206F3B41F270762B7031
:1019B00001F066F93346013BFDD13A24012000F0E5
:1019C00057FE20462C7001F05BF93346013BFDD1F8
:1019D0002B784E2003442B7001F052F93346013B23
:1019E000FDD12B786F2003442B7001F049F9334669
:1019F000013BFDD12B78742003442B7001F040F99A
:101A00003346013BFDD12B78204623442B7001F057
:101A100037F93346013BFDD12B78552003442B7019
:101A200001F02EF93346013BFDD12B78732003449E
:101A30002B7001F025F93346013BFDD12B78652051
:101A400003442B7001F01CF93346013BFDD12B7888
:101A5000642003442B7001F013F93346013BFDD1A0
:101A60002B78204623442B7001F00AF93346013BC2
:101A7000FDD128780138C0B243002B7001F000F985
:101A80003346013BFDD1012000F0F2FD2B7893207D
:101A90006D3B2B7001F0F4F83346013BFDD1012082
:101AA000284C00F0E5FD04F1C3072B7814F8010F72
:101AB00003442B7001F0E4F83346013BFDD1BC42F6
:101AC000F3D1012000F0D4FD2B7893206D3B2B70D7
:101AD00001F0D6F8013EFDD101201B4C00F0C8FDFD
:101AE000E71D41F270762B7814F8010F03442B7038
:101AF00001F0C6F83346013BFDD1A742F3D10120E6
:101B000000F0B6FD942001F0BBF8052000F0B0FD18
:101B100001E001F07FF901F069F90028F9DC0D20FE
:101B2000002100F03FFD012003B0BDE8F0832B78D9
:101B3000EE20123B2B7001F0A3F8B8F10108FCD1A4
:101B40000020F1E73707FF1F2F07FF1F2DE9F043A4
:101B5000012183B00D2000F025FDB74DB74EB84FE1
:101B600002F03CF8002800F09D8001F0FBFFC0B2BD
:101B70000128287010D9102800F09780202853D011
:101B8000802800F04681F02800F030813B78002B5F
:101B900000F05E812028E3D82028E1D801A353F883
:101BA00020F000BFE51D0000B91D0000B31D0000BE
:101BB000AD1D0000831D0000611B0000591D0000C9
:101BC0002F1D0000051D0000611B0000DB1C000034
:101BD000611B0000611B0000611B0000611B000015
:101BE000611B0000AB1C0000611B0000611B0000BA
:101BF000611B0000611B0000611B0000611B0000F5
:101C0000611B0000611B0000611B0000611B0000E4
:101C1000611B0000611B0000611B0000611B0000D4
:101C2000611B0000291C000001210D20854C00F0E3
:101C3000B9FC0D20012100F0B5FC04F10409752068
:101C400041F2707801E014F8010F01F019F84346F1
:101C5000013BFDD101F0DEF84C45F4D1B8F10108AB
:101C6000FCD100210D2000F09DFC01F0D3F810F014
:101C7000FF0018BFE020307002F0B2F841F270733C
:101C8000013BFDD101E001F06DFF01F0A7FF00284D
:101C9000F9DC00210D2000F085FC01F09FFF0028F9
:101CA0007FF463AF03B0BDE8F0833C780020307070
:101CB000002C00F0BA8002F093F841F27073013BFF
:101CC000FDD101E001F04EFF01F088FF0028F9DCB2
:101CD00000210D2000F066FCDFE7FEF763FF3070A7
:101CE00002F07EF841F27073013BFDD101E001F09A
:101CF00039FF01F073FF0028F9DC00210D2000F00E
:101D000051FCCAE7FEF77AFE307002F069F841F242
:101D10007073013BFDD101E001F024FF01F05EFF93
:101D20000028F9DC00210D2000F03CFCB5E7FFF7AE
:101D300049FA307002F054F841F27073013BFDD162
:101D400001E001F00FFF01F049FF0028F9DC00215C
:101D50000D2000F027FCA0E7FEF7DEFF307002F058
:101D60003FF841F27073013BFDD101E001F0FAFE52
:101D700001F034FF0028F9DC00210D2000F012FCF6
:101D80008BE7FEF769FD307002F02AF841F27073BC
:101D9000013BFDD101E001F0E5FE01F01FFF00284D
:101DA000F9DC00210D2000F0FDFB76E7FEF766FC74
:101DB000D6E6FEF7ABFCD3E6012002F001FA224C96
:101DC000804602F005FA01ABA3EB0803238005204F
:101DD00002F006F82088000A02F002F8207801F0EC
:101DE000FFFFBDE6022001F0FBFFB9E6012002F093
:101DF000E7F9154C804602F0EBF901ABA3EB0803C1
:101E00000220238001F0ECFF052001F0E9FF3620DD
:101E1000DEE700210D2000F0C5FB4FF4FA7000F062
:101E200027FC0A4B1B6898479AE6FFF7EFFC3070D7
:101E300008BBE12030703EE7380EFF1F440EFF1F45
:101E40003C0EFF1F784D00003A0EFF1F400EFF1F93
:101E5000E02001F0C5FF41F27073013BFDD101E0CC
:101E600001F080FE01F0BAFE0028F9DC00210D200F
:101E700000F098FB11E7FEF729FB307010B9012341
:101E80003B7018E73C7016E72DE9F843314F324DAF
:101E9000324CDFF8D09038464FF4E13100F074F85E
:101EA0006423BB602E682E4F40F2EE2802F01AF831
:101EB0002378002B40D03B78DA073DD52B68D9F842
:101EC00000209B1A0E2B37D901210D2000F094FB26
:101ED0000121052000F090FB0121042000F08CFB83
:101EE0000121084600F088FB0021084600F084FB31
:101EF0000021052000F056FB0021012000F052FBDC
:101F00000021084600F04EFB0121042000F04AFBAE
:101F100001F0E8FF2378002BFAD03B78DB07F7D5F8
:101F20002B68D9F800209B1A0E2BF1D9BDE8F84395
:101F300001210D2000F036BB2B6822789B1B2AB1B3
:101F4000B3F5FA6FC0D801F0CDFFAFE74345FAD93A
:101F5000BAE700BFFC07FF1F4C0EFF1FD00FFF1F8B
:101F6000F40FFF1FF80FFF1F0368C9B21B68184763
:101F70000368C9B21B6818470368C9B21B681847D1
:101F80000368C9B21B681847084B10B503EB51032F
:101F90000446B3FBF1F000F02FFC054B1B7803B1B6
:101FA00010BD2046BDE8104002F040B8002A75156B
:101FB0002508FF1F08B5084600F062FE012008BD95
:101FC00008B5084600F05CFE012008BD38B508469B
:101FD0000D4602F055FC04460146284600F05AFE24
:101FE000204638BD10B508461446114600F052FE92
:101FF000204610BD0846114601F07AB80846114641
:1020000001F05AB800F072BF08B5084600F00EFEA5
:10201000003818BF012008BD08B5084600F0E4FDEF
:10202000003818BF012008BD0846114600F05ABD0F
:10203000084600F0A1BD00BF084600F037BD00BF54
:1020400000F0B8BC10B50648144600EB5100B0FBD8
:10205000F1F000F0D1FB2046BDE8104000F04CBC90
:10206000002A751500F01CBF00F0D4BE00F0BEBE03
:1020700000F098BE00F0A2BE70B50E4D82B02B6885
:102080000093009E044608E001F02CFF2B680193AA
:10209000019BA2689B1B934207D2236820465B6981
:1020A00098470028F0DB02B070BD4FF0FF3002B05F
:1020B00070BD00BF4C0EFF1FF8B50D4691B116461E
:1020C0009AB10746002404E00134A64205F8013B1A
:1020D00006D03846FFF7D0FF031EF5DA01233B7325
:1020E0002046F8BD0C462046F8BD1446F8E700BF70
:1020F000884200DB704770B4114C2268091AEAB1BB
:10210000104B114E114D83FB023C9444D317C3EB8B
:102110002C4306FB132244F2A71C05FB03F30CFB24
:102120000233002B02DA03F10043013BB3FBF1F26F
:1021300001FB12322360104470BC7047044BF5E77A
:10214000480EFF1F5F0B4E831DF30100ECF4FFFFF1
:1021500042CE0C1F08B5FFF797FEFFF7F7FC01F022
:10216000C1FEFAE701B441EA000313F003036FD1A3
:10217000403A41D351F8043B40F8043B51F8043B4A
:1021800040F8043B51F8043B40F8043B51F8043B51
:1021900040F8043B51F8043B40F8043B51F8043B41
:1021A00040F8043B51F8043B40F8043B51F8043B31
:1021B00040F8043B51F8043B40F8043B51F8043B21
:1021C00040F8043B51F8043B40F8043B51F8043B11
:1021D00040F8043B51F8043B40F8043B51F8043B01
:1021E00040F8043B51F8043B40F8043B51F8043BF1
:1021F00040F8043B403ABDD2303211D351F8043B91
:1022000040F8043B51F8043B40F8043B51F8043BD0
:1022100040F8043B51F8043B40F8043B103AEDD23F
:102220000C3205D351F8043B40F8043B043AF9D290
:1022300004320AD0D2071CBF11F8013B00F8013B61
:1022400003D30B7803704B78437001BC704700BF19
:102250000C2A4AD310F0030311D0C3F10403D21A9D
:10226000DB071CBF11F8013B00F8013B07D311F855
:10227000013B00F8013B11F8013B00F8013B11F074
:1022800003033FF475AF30B4043AC91AC3F1040C28
:1022900051F8044B022B19D0032B0BD0240A51F810
:1022A000043B1D0644EA050440F8044B1C46043A6E
:1022B000F4D216E0240E51F8043B1D0244EA050452
:1022C00040F8044B1C46043AF4D20AE0240C51F8BE
:1022D000043B1D0444EA050440F8044B1C46043A40
:1022E000F4D20432B1EB0C0130BC043AA0D3013A71
:1022F00011F8013B00F8013BF9D20B7803704B78E1
:1023000043708B78837001BC704700BF08B50F4CD9
:10231000636B58030DD4636B59050FD4636B1A05B7
:1023200011D4636BDB04F3D500F012F8636B580330
:10233000F1D500F0ABFF636B5905EFD500F0FAFD66
:10234000636B1A05EDD500F003F8EAE7008004405E
:1023500008B5FFF7DBFF00BF014B10221A80704762
:1023600000200540704700BF0B490A6848B108B516
:10237000EC461318ACF50050834204D20B601046B3
:1023800008BD1046704702F04BFA0C234FF0FF32A5
:102390000360104608BD00BF1008FF1FEFF3138352
:1023A000CBB9EFF31080A0B9EFF3058343B94FF435
:1023B0008070EFF311835BB1984228BF18467047D5
:1023C0000F2BF6D9054AD05CEFF31183002BF3D124
:1023D0007047184670474FF0FF307047F0E300E059
:1023E000074BDA78802A01D000207047054906485B
:1023F000486400225A70DA78802AFCD001207047A5
:1024000000E007400080044000002822074BDA78F3
:10241000012A01D00020704760225A70DA78802AA1
:10242000FCD1034B034A5A640120704700E0074087
:10243000008004400000060201F1FF3C70B56546D3
:10244000002401E070460134B0FBF2FE02FB1E03E3
:10245000092B03F130068ABF3733F3B2DBB2904267
:1024600005F8013FEED2631C0022CA54C8187CB1A3
:1024700062461CF8015F10F801ED8CF800E0A1EB5A
:102480000C030232013B521A23449A420570EFDBDF
:10249000084670BD034B002210215A615A60186033
:1024A0005961704700D00340704700BF4FF0E02CE7
:1024B0002DE9F0414FF00068CCF804814FF08058CE
:1024C000CCF804814FF00058CCF804812F4A3049F1
:1024D000304C314D314E4FF08048CCF804812823E8
:1024E00000204EF6FF7E09274FF00048CCF804810B
:1024F0004860C1F808E0CB604B61CB614B62CB62B6
:102500004B63CB634B64D3605361D3615362D3623B
:102510005363D36353640F606860C5F808E0EB60F1
:102520006B612F606060C4F808E0E360636127605E
:102530005060C2F808E0D36053611760F16A41F45B
:102540000071F162716802F5803241F000717160D2
:1025500047F6FF740821506082B09460D3605361E5
:10256000116001F08BFDFFF79FFF0D4C2368009376
:10257000009B132BFAD901F043FA23680193019BC6
:10258000B3F5967FF9D302B0BDE8F08100900B401F
:102590000080034000800B40009003400080044016
:1025A0004C0EFF1F3F2818D810B4124B53F83020A0
:1025B00092F8804234B1012381B982F800315DF88C
:1025C000044B704703EBC0035B681A6859B142F0D3
:1025D00003025DF8044B1A607047704782F8803040
:1025E0005DF8044B704722F002025DF8044B1A605C
:1025F000704700BFE84D00003F2820D81B4A02EB7F
:10260000C00301295B680FD004291DD052F83000A7
:10261000002280F8802299B1022922D003290DD10D
:102620004FF481721A60704752F830004FF4A27272
:1026300080F880121A601A6822F020021A6070472F
:102640004FF480721A60704752F830104FF4A27243
:10265000012081F880021A601A6842F020021A6094
:10266000704740F203121A60704700BFE84D000047
:102670002DE9F843044672B6214F4FF0E0229369EA
:102680003D68D2F8042D62B6520102D5322B88BFC4
:1026900001350CB9BDE8F883DFF86890DFF8688091
:1026A000A9EB03039B08A8FB03234FF47A7202FBF8
:1026B00005F505EB93054FF0E02672B6B1693A686F
:1026C000D6F804CD62B6A9EB01039B08A8FB03036F
:1026D0001CF0806FC5EB93034FF47A7002D032295F
:1026E00088BF013200FB0233B3F57A7F04D3013C8B
:1026F000D0D005F57A75E0E701F0F4FBDDE700BF27
:102700004C0EFF1F1FBF0200176CC1162DE9F84FBA
:10271000314B1B6807460BB101221A70DFF8D090CD
:10272000DFF8D08099F80040D8F800302B4D013404
:102730009C422B782AD303F0FF0A002B3ED154464B
:10274000274EDFF8A8B005E033791B0623D42B7899
:10275000A3420AD1FFF722FE4028F5DDFF28F6DD6F
:1027600001F0C0FB2B78A342F4D03F2C29D91D4B9C
:10277000403C1B68FFB21F551B4A194B01211170C9
:10278000BC2289F800A0DA70BDE8F88F9C425FFA9D
:1027900084FAD5D0E9E72B78D8F800105A1C8A4281
:1027A000DBB203D23F2A10D8D1B201E000210A46A1
:1027B0001BF80230DBB2F3712970C8E74FF0000A52
:1027C00054460A4BFFB21F55D6E7D1B2054A3F3BEC
:1027D0001268D35CDBB2EEE7A00EFF1FF00EFF1F06
:1027E00000A00640EC0EFF1FA40EFF1FA80EFF1F47
:1027F000E80EFF1F2008FF1F324A3349536B70B4A5
:1028000043F48063314D5363314E324C32780023B0
:102810002B700B70304923700B703049152A0B70E8
:102820002ED01B2A48D0002A41D02D4B1B78052BD7
:102830002ED01A2B36D0012B2FD02028294B2A4CF2
:1028400038BF2020C0F3443C83F800C0C0F3471CCD
:1028500000F01F0083F801C00422987202209A70D1
:10286000D87488205A754FF0E021187440223C201B
:10287000D870E2774FF0004370BCC1F80031704768
:102880001A4B40F213329A61154B1B78052BD0D1AD
:10289000164B4FF45172DA61CFE7154B4FF451727A
:1028A0005A64CAE7134B4FF451729A63C5E7104B51
:1028B00040F213321A64B8E70E4B40F21332DA6377
:1028C000B3E700BF008004409C0EFF1F940EFF1F63
:1028D0009D0EFF1FE80EFF1FF00EFF1FA40EFF1F2F
:1028E0002408FF1F00A0064000E400E000C00440F0
:1028F00000A0044000900440294B9B7800F00302A4
:1029000003F0EC031343410700F00F02244948BFD2
:1029100043F01003042A8B7003D18B7943F04003FA
:102920008B711F4B5B79C20603F0EF031C4A48BF53
:1029300043F0100353719379194A03F0EF0310F039
:10294000200C18BF43F010039371C30506D55378CC
:102950001178DBB241F020011170537010F4007057
:1029600017D00F490F488B780F4A43F0A0038B70A4
:1029700003780E4902EBC30240F24633506840F23E
:102980004732BCF1000F08BF1346094A03600A60D2
:102990007047064B064A1968914208BF1860704795
:1029A00000A006402408FF1FE84D0000A00EFF1FF6
:1029B000D400D442324B5B6B5B0531D510B5314C42
:1029C000237823B101F08EFA2378002BFAD12E4A16
:1029D0002E4B4FF0E0204FF000440021C0F8804122
:1029E000D1701B78152B3CD01B2B1FD04BB3284B21
:1029F0001B7803F07F03052B3DD01A2B2CD0012B25
:102A00000FD0244B204A244C2448196892F804C063
:102A1000D27900232370037009B101230B7010BD1C
:102A200070471F4B40F203125A64EAE71D4B40F215
:102A30000312DA63164B1B7803F07F03052BDCD1FE
:102A400019E0174B40F203121A64114B1B7803F084
:102A50007F03052BD1D10EE0124B40F203129A6393
:102A6000CFE7114B40F203129A61094B1B7803F038
:102A70007F03052BC1D10C4B40F20312DA61C0E792
:102A800000800440A40EFF1F00A006409D0EFF1F03
:102A90002408FF1F500EFF1F940EFF1F9C0EFF1FE8
:102AA00000A004400090044000C004400A4A38B529
:102AB0000546137803F0FF04002BFAD101212846C4
:102AC000FFF79AFD21462846FFF76CFD034A044BA9
:102AD00052F835201A6038BDA40EFF1FE84D0000E3
:102AE000A00EFF1F09B140F080001E4A13788342F8
:102AF0001CD010B41C4C646B640513D503F07F0329
:102B0000052B2BD01A2B25D0012B1FD0002900F02C
:102B10007F0314BF60214421052B12D01A2B0BD048
:102B2000012B04D010705DF8044B704770470F4BB9
:102B300041F440715964F5E70D4B41F440719963DC
:102B4000F0E70C4B41F44071D961EBE7074B0024EF
:102B50005C64DBE7064B00249C63D7E7054B00244D
:102B6000DC61D3E72408FF1F0080044000A004407C
:102B70000090044000C00440164A137883420ED0EF
:102B80001549496B490509D5152B1FD01B2B19D0A9
:102B9000ABB115280ED01B2807D008B110707047B4
:102BA0000E4B40F213311964F8E70D4B40F213312C
:102BB000D963F3E70B4B40F213319961EEE7074914
:102BC0000B64E6E7064B0021D963E2E7054B0021E1
:102BD0009961DEE79D0EFF1F0080044000A00440C5
:102BE0000090044000C004400D4B5B6B13F4806305
:102BF00013D03F2803D90B4B0020186070470A4BB5
:102C000010B5084C53F8303023600121FFF7F4FC75
:102C1000236800221A70012010BD1846704700BFBB
:102C200000800440500EFF1FE84D0000104B5B6B0E
:102C300013F4806312D012280BD0142810D10D4B3E
:102C400040F202325A610C4A537B01200343537312
:102C500070470A4B40F20232DA60F4E718467047D8
:102C6000054A537B03F0FE0300205373704700BFF7
:102C70000080044000C0044000A0064000A00440C2
:102C8000034B5B6B5B0501D5FFF740BD704700BF91
:102C9000008004402DE9F84F394B5B6B5A053CD559
:102CA000384B1B680BB101221A704718B84231D259
:102CB000354EDFF8EC80354CDFF8E09000F1010A8A
:102CC00013E003F0FF0B53B34FF0000B5D46304AA7
:102CD0001AF8013C535552462E490123BA420B7053
:102CE0000AF1010A86F800B014D23578D8F800301D
:102CF0000135AB422378E4D9AB425FFA85FB0FD0B4
:102D00003F2DE4D9244B1AF8012C1B68403D5A553D
:102D10005246E1E7214BBC22DA70BDE8F88F5D46F0
:102D20006FF0430389F8033006E099F804301B067E
:102D30000BD42378AB42E3D1FFF730FB4028F4DD1E
:102D4000FF28F6DD01F0CEF8F3E72378D8F800107D
:102D50005A1C9142DBB203D93F2A0AD8D1B201E012
:102D600000210A460A4B9B5CDBB289F807302170D0
:102D7000DFE7D1B2084A3F3B1268D35CDBB2F4E72D
:102D800000800440A00EFF1FE80EFF1FF00EFF1F83
:102D9000A80EFF1FA40EFF1FEC0EFF1F00A0064091
:102DA0002008FF1F10B5044C237823B101F09AF8D6
:102DB0002378002BFAD110BDA40EFF1F084A094B3F
:102DC00011781A789142C8B2D3B202D2013B181AD4
:102DD0007047054A1268013A1344181A704700BF39
:102DE000E80EFF1FF00EFF1F2008FF1F064A074BCB
:102DF00011781A789142D0B23CBF054A1268CBB222
:102E000038BF9B18181A7047940EFF1F9C0EFF1FA7
:102E10001C08FF1F1B4B1C491A780B789A422ED0B6
:102E200010B55FFA82FE194AD8B21268431C9A4262
:102E300019D93F2B1BD85FFA83FC1548C05CC0B280
:102E400081F800C01349096861B19E453CBF7244D6
:102E5000D31A114A126828BFAEEB03039A4201D37A
:102E600000230B7010BD4FF0000C6346E5E70B4CE0
:102E70003F382468205C5FFA83FCC0B2E0E74FF083
:102E8000FF307047940EFF1F9C0EFF1F1C08FF1F92
:102E9000540EFF1F500EFF1F1808FF1F980EFF1F34
:102EA0000D4A0E4B11781B789942DAB211D00C49B9
:102EB0000968531C994207D93F2B06D9094B3F3A61
:102EC0001B68985CC0B270470023074AD05CC0B250
:102ED00070474FF0FF307047940EFF1F9C0EFF1F8E
:102EE0001C08FF1F980EFF1F540EFF1F0C4B5B6B3F
:102EF0005B0514D50B4B0C48DA78402102F0CB026D
:102F0000DA705974DA78094942F03402DA70084A02
:102F100003781268DBB20B700AB10023137070479C
:102F20000080044000A006409C0EFF1F940EFF1F6F
:102F3000500EFF1F2DE9F041504C237913F0300F54
:102F400047D072B6A37D03F0FF01002B58D062B6C4
:102F5000DFF85C814A4898F800304A4A05781668DC
:102F6000494F5FFA83FC494BEDB2D3F800E008E02B
:102F70001DB14FF0000C07F80C304A1E12F0FF0193
:102F800012D0E3790CF101029642DBB2F0D99542FE
:102F9000ACF13F00F1D03F2A6DD994464A1E12F0A1
:102FA000FF010EF80030ECD15FFA8CF388F80030A6
:102FB000374B196869B1AC453CBF721B02EB0C037F
:102FC000344A126828BFACEB05039A429CBF012328
:102FD0000B702A48C3781E06DDB216D46A060DD5DA
:102FE000264B1B795B0609D52B4B2C491B6800220D
:102FF0000A7003B11A70214B3C22DA70BDE8F081EF
:103000004023E279637462B6E3E703791C06E5D5F1
:10301000234B244ADFF89CE01C7816689EF80030A9
:10302000214A224FD2F800C0E4B2DBB207E00379B4
:103030000023FA5CD2B2C271027D072A11D8A342E2
:1030400003F101010ED08E42F1D93F290279A3F19B
:103050003F0301D80B46ECE71CF803200B46D2B225
:10306000E9E7DCB2054B8EF800401A79110644BF3F
:103070007C22DA70B2E794467DE700BF00A00640EC
:103080009C0EFF1F1C08FF1F540EFF1F980EFF1FF2
:10309000500EFF1F1408FF1FA00EFF1FA40EFF1FDE
:1030A000E80EFF1F2008FF1FEC0EFF1FA80EFF1FDA
:1030B000940EFF1FF00EFF1F094B10B4186068B18B
:1030C00001F14004074B084801F11A021A60074B4E
:1030D000046028315DF8044B196070474024F1E723
:1030E000980EFF1F1808FF1F1C08FF1F1408FF1F62
:1030F000054B186018B1054B403119607047034B00
:1031000040211960704700BFEC0EFF1F2008FF1F11
:10311000704700BF431E032B16D872B60B4951F8F7
:10312000230078B130B40A4CB0F800C034F8132052
:10313000456841F82350A2EB0C0224F8132062B634
:1031400030BC704762B6704700207047840FFF1F85
:10315000D40FFF1F013803280BD872B6074B53F862
:10316000203043B100205B680130002BFBD162B6F8
:103170007047002070471846F9E700BFAC0FFF1FEB
:1031800010B472B61A4A1B4C042312F8011B09072B
:1031900043F0010C05D554F8331069B154F83C10D4
:1031A000C9B10433142BF0D162B6134B00221A704C
:1031B0005DF8044B00F0AEBC0F4904EBC3020830CD
:1031C00050600A780D4844F83300013A0A7062B63C
:1031D0005DF8044B7047084A094904EBCC030830FA
:1031E0005860137844F83C10013B137062B6EFE767
:1031F000685000000000FF1FDC0FFF1F8800400028
:10320000C8004000421E032A0ED81C4B400140F06B
:10321000100010B4034472B6194CA05C03281DD8EA
:10322000DFE800F01416031970470520A05413F0CE
:10323000080F088814BFC8228822083142EA0042D9
:1032400059601A6062B65DF8044B70470320EDE7E1
:1032500008330220EAE708330420E7E7094B53F874
:10326000220038B1084B53F82200416043F8221085
:1032700062B6E8E743F82210034BF7E70000FF1FB0
:10328000CC0FFF1FAC0FFF1FBC0FFF1F2DE9F04F2E
:10329000DFF80CA3DFF80CB385B03DE0B04D9E081D
:1032A00005EBC607013A796813F00803D4B2A1F11F
:1032B000080040F0B88055F836204FEA124C120C46
:1032C00021F808CC00F0A78021F8063C41F8043C26
:1032D000A44B53F82420002A00F00182A24B53F89B
:1032E0002420506043F82400A04B33F81420944469
:1032F00023F814C000F0EEFB002800F0E98117F07D
:10330000080F9B4B00F1080018BF5B46786045F83A
:10331000363008238AF880309AF880305907DCB2BA
:103320001BD5944B1B78ABB193490A7802F0FF038D
:103330002AB1013BDBB20B70002B00F046838F49B2
:103340000A7802F0FF032AB1013BDBB20B70002BBD
:1033500000F0EB8104238AF8803014F0080200F0BA
:10336000CC819AF89020D3B2120997D1DFF8F0916E
:103370009B0809EBC30459F833006468C0F3830069
:1033800009287CD00FD80138012808D87C4A158834
:1033900042F22100854200F0FB8149F833B001235D
:1033A0008AF89430B5E70D28F9D1D4E90007754DB6
:1033B00049F833B0724E744CC9F8102083B240F211
:1033C000816CC9F818202A6063454FF00102C6E9F4
:1033D0000007227000F2FF80B3F5D06F80F0CB823F
:1033E000B3F5817F00F0268240F2DE8040F20232A7
:1033F00093427BD107F07F07042F00F20881020C73
:1034000040F00581614911F8273043F0020301F8CB
:103410002730134670E017F0080F554B18BF5B4676
:1034200045F8363075E700F075FB5949594A51F8AF
:103430002430002B00F05781586841F82400115DBA
:1034400003F108007860032905D8DFE801F0120FC6
:103450001502042111551A8817F0080F14BFC8234C
:10346000882343EA024345F8363052E702211155DA
:10347000F1E703211155EEE705211155EBE7414D29
:103480002A683AB34449404C0F88444894F800E015
:103490000678402F3B4628BF4023BEF1000F8EF038
:1034A000010E84F800E046F0020486F00106067082
:1034B00009EBC400426014BFC820882040EA0340E2
:1034C0001A44FB1A9BB249F834000B80002B00F021
:1034D00036812A602A4B1A88B2F5A06F7FF45FAF5D
:1034E0009A788AF8982000225A7058E7B3F5A06FAE
:1034F00040F08D8000221346B6F806C02748944558
:1035000028BF944667460278402F28BF402742F0E4
:10351000020E3E0409EBCE0846F0C806C8F8043097
:1035200049F83E6000263B442670BCEB070782F05A
:103530000106067040F01181BCF13F0F4FF001050C
:1035400009D946F00206027009EBC60225705360E5
:10355000882349F8363001238AF894301FE700BFEA
:103560000000FF1F840FFF1F940FFF1FD40FFF1FCA
:1035700088004000D00FFF1FD10FFF1FFC0FFF1F5F
:10358000A40FFF1F780FFF1F750FFF1FC0200740FC
:10359000AC0FFF1FCC0FFF1F760FFF1F740FFF1F15
:1035A00000200740C8004000802B00F08B81822B58
:1035B0002DD107F07F07042F29D8A74A00231380B5
:1035C000A64B13F827309F0740F1FC8101231370AD
:1035D000A14B022290E742F2210C6345BBD01DD9DA
:1035E00042F2212293420DD1BFB2002F82D19C4BD7
:1035F0001A689C4B1A609C4BC0F30740002218705D
:10360000134679E742F2213293423FF473AF0F231E
:103610008AF8C03001238AF89430C0E6B3F5086F09
:1036200000F04A81B3F5106FF1D1904BC0F3074021
:103630000425187059F835301A0606D40135142DB2
:103640000CD059F835301A06F8D509EBC503013509
:103650005868083800F05EFA142DF2D1844A854B80
:103660000292854A0192854E854ADFF8488203948A
:10367000009200251C4656F8047B2FB138467F681F
:1036800000F048FA002FF9D1009BD8F8007043F8F9
:10369000045B46F8045C00932FB138467F6800F065
:1036A00039FA002FF9D1029B48F8045B43F8045B18
:1036B0000293019B23F8025B01932378023B032BC7
:1036C00000F20981DFE813F03F0104013F0104012A
:1036D0006C4A45F8360013780133137019E643F845
:1036E0002400674BFEE5115D022926D07FF611AE5E
:1036F00003291DD1012313550BE6E0076ED42106E3
:1037000021D4A20708D5604B93F888200221D2B2B9
:1037100083F8882083F88010E30603D55A4B1022E3
:1037200083F8802005B0BDE8F08F00F0B7FB11E60C
:1037300017F0080F14BF032302231355E9E53F2FA9
:1037400098BF0022C5E6504B80220D2183F8C0109F
:1037500083F88020A207DFD5D5E746F00206027085
:10376000402F09EBC6003A4628BF402243601004B0
:10377000134440F088000121BA1A49F8360021703C
:1037800055D02B60414B1A8001238AF8943006E60D
:1037900092885AB93E4AE51D14F8011B02F8011F30
:1037A000AC42F9D13B4A1268862A3CD03A4C3B489D
:1037B00025780278002D85F00105257042F002047D
:1037C00082F00102027009EBC4024FF00000506069
:1037D00014BFC822882249F83420DEE52A4B2F483E
:1037E0002F49304C022583F8945002702E480C600B
:1037F0002E4D48608C600D24CD60FF200A618A61E7
:1038000083F8C04001219F2483F8880083F880005A
:1038100083F8982083F88C0083F8844083F8941010
:1038200005B0BDE8F08F224A0F201070BEE73F2F91
:10383000A7D890E607F07F07042F3FF6E8AE000C0C
:103840007FF4E5AE054A12F8273023F0020302F8B0
:103850002730002213464FE67C0FFF1FC020074091
:103860004C0EFF1FF80FFF1FF40FFF1FD00FFF1F9D
:10387000BC0FFF1FCC0FFF1FD40FFF1F840FFF1FB4
:10388000940FFF1FDC0FFF1F00200740760FFF1F64
:10389000EB0FFF1FEC0FFF1F750FFF1F740FFF1FB4
:1038A0000000FF1F88004000F40EFF1F340FFF1FB1
:1038B000D10FFF1FAC0FFF1F484B49491B780B70FE
:1038C0000B4619E6464A00231380454B022213E6B5
:1038D0004FF001032370434BB34204F101047FF422
:1038E000CAAE414E039CDFF81481404F0023337071
:1038F000042518F8013B3E4AAB541B0725D445F07C
:10390000020145F0030204350023142D49F831303B
:1039100049F83230EDD1374F25783A7842F002003D
:1039200009EBC00C85F00106CCF80430002D4DD118
:10393000882382F0010226703A7049F83030012362
:103940008AF894302BE52570C5E700F0C3F800280D
:1039500032D009EBC5030830586049F8357000F0E3
:10396000B9F808B345F0010309EBC3020830506011
:1039700049F833B0C3E7204A5368002B3FF447AE01
:10398000000CBFB204E013690C32002B3FF43FAED1
:1039900011888142F7D15188B942F4D1000A032835
:1039A0000CBF1A781289A7E533780133337045F0DC
:1039B000010349F83300A2E7337849F835000133B1
:1039C0003370CCE7064B022296E500BE2670C82372
:1039D00082F001063E7049F83030BCE5D00FFF1F81
:1039E0007C0FFF1F940FFF1FDC0FFF1F880040009C
:1039F000C0200740740FFF1F1450000068500000E3
:103A000010B500F0A1FB0023234A194642F83310F9
:103A100002EBC3000133142B4160F7D11F48204C47
:103A2000436B43F480234363D4F8003800F5283017
:103A300000F5807043F04073C4F80038032480F828
:103A40004440184BA02480F84040C2F3072483F878
:103A50009C40C2F30744120E83F8B0404FF0FF0CB5
:103A600083F8B420012283F880C00F4C83F888C00B
:103A700083F810C083F8942001704FF0E02183F8A0
:103A800084204FF0700C4FF40012102384F835C0DE
:103A9000C1F80421037210BD0000FF1F0080044024
:103AA00000D000400020074000E400E000F0F6B83D
:103AB00000F07CB800F056B800F090B800F0C2B941
:103AC00000F09CB90846114600F004B9084600F021
:103AD00087B900BF72B60D490B68B3FA83F00B28A3
:103AE00010DC4FF00042C24023EA02030B6062B6D2
:103AF000074A00EBC000C10002EBC0000023535096
:103B00004360704762B60020704700BF3808FF1F4F
:103B1000D003FF1F0E4BC31AB3F5587F10D20D4AC6
:103B2000127872B972B60C4A0C49A2FB03230868DA
:103B30004FF000421B0922FA03F303430B6062B605
:103B40007047074A1278002AECD0FFF719BB00BF74
:103B5000D003FF1FDC0FFF1F398EE3383808FF1F2B
:103B6000D00FFF1F38B50F4C206878B1438802880A
:103B7000C11801339A420D7A02D94380284638BDD4
:103B8000FFF7C8FF00232360284638BD064B1B788B
:103B90002BB10320FFF7BEFA20600028E6D14FF0DA
:103BA000FF35EBE7E00FFF1FD00FFF1F10B5094CEB
:103BB000206818B143881844007A10BD064B1B7862
:103BC0002BB10320FFF7A6FA20600028F2D14FF0B6
:103BD000FF3010BDE00FFF1FD00FFF1F084B094A39
:103BE0001B6810B594881BB11A885B88D31A1C44D3
:103BF0000CB1204610BD00F075F9204610BD00BF85
:103C0000E00FFF1FD40FFF1F2DE9F84F0D460029CD
:103C10003ED04FF00008DFF880901E4E0746C246A7
:103C200099F80030E3B1346814B322886388A2EBBA
:103C3000030BAB4528BFAB4604F1080138465A4692
:103C40001944FEF78FFA638822885B449BB29A423C
:103C500063805F44D844A5EB0B0511D9002DDFD15B
:103C60004046BDE8F88F0288002ADFD1FFF752FFF7
:103C70000320FFF74FFA044630600028F3D1EFE746
:103C80002046FFF747FFC6F800A0002DC8D1E7E7A0
:103C90000846E6E7E00FFF1FD00FFF1F0B4B1B7816
:103CA0009BB110B50A4C206848B1FFF733FF0023E1
:103CB00003202360FFF72EFA30B1FFF72BFF03201C
:103CC000FFF728FA0028F8D110BD7047D00FFF1F6A
:103CD000E00FFF1F2DE9F04FDFF8F89083B00122CD
:103CE00089F80020019179B3374FDFF8EC80019D0E
:103CF000364EDFF8E8A083463868A8B3B0F802E093
:103D0000CEF1400CAC4528BFAC460EEB0C040022B3
:103D1000A4B23270A5EB0C05448000F10802BCF19E
:103D2000000F0AD00EF1FF3E7244DC441BF8014B39
:103D300002F8014FDC45F9D144883F2C0BD805220D
:103D40008AF80020002DD7D10198002389F800308F
:103D500003B0BDE8F08F4022028001460420FFF747
:103D600051FA00223A60EAE798F800201AB3184C9A
:103D700008E0013C18D03278B2B900F0B3F898F8F6
:103D80000020C2B10420FFF7E5F90728F1D84FF071
:103D9000010389F80030FFF79DFE38600028ADD19F
:103DA000013C89F80000E6D101234FF0FF30337069
:103DB00003B0BDE8F08F00234FF0FF3089F80030EA
:103DC00003B0BDE8F08F00BFE80FFF1FE40FFF1F37
:103DD00021480100E50FFF1FD00FFF1FFC0FFF1F41
:103DE00000B583B0034601210DF107008DF80730BF
:103DF000FFF770FF03B05DF804FB00BF38B50E4D50
:103E00000E4C28680123237028B140880023C0F19C
:103E10004000237038BD0A4B1B7813B90020207076
:103E200038BD0420FFF796F90728F7D8FFF752FEB0
:103E300028600028E9D1F1E7E80FFF1FE50FFF1F19
:103E4000D00FFF1FF8B5114B1B788BB1104E114DE1
:103E5000346801272F7064B10F4B00271F706388EF
:103E6000238021460420FFF7CDF9376000232B7013
:103E7000F8BDFFF72FFE084B014620B104201C704F
:103E8000FFF7C0F9F2E71F70F0E700BFD00FFF1F88
:103E9000E80FFF1FE50FFF1FFC0FFF1F38B50E4B8C
:103EA0001B7853B90D4C216841B103F0FF054B88D5
:103EB0000B800420FFF7A6F9256038BDFFF70AFE46
:103EC000014620B1BDE838400420FFF79BB9044B00
:103ED00001221A7038BD00BFE50FFF1FE80FFF1F5A
:103EE000FC0FFF1F2DE9F843324E337863B1324F98
:103EF0003A784AB90122D9073A7043D49A0726D4AE
:103F000000225B073A7001D4BDE8F8832B4B1A6896
:103F1000002AF9D0EFF30582002AF5D1EFF31085DE
:103F200072B6186800283AD0254C2178002936D17D
:103F300042691A6001232370002A37D0916105B9C4
:103F400062B600258368457798472570DCE7DFF87F
:103F50007C8098F80020002AD2D00025DFF87090ED
:103F60002B4659F82340236820461B6901359847A2
:103F700008B12369984798F80020EBB29A42F0D82C
:103F80003378BDE7FFF72AFE68B90E4B1B780BB9F3
:103F90003378B3E7337803F0FE033370AEE7002DD8
:103FA000B2D162B6B0E700F0CDF8EEE7064B1A608A
:103FB000C5E700BF3C08FF1FFD0FFF1F0010FF1FDC
:103FC0000C10FF1F105000001010FF1F2C10FF1FBF
:103FD0001410FF1F70B5EFF3108272B60C4C2068FE
:103FE00080B10C4E00254369236073B19D6102B915
:103FF00062B6836845779847EFF3108272B62068FF
:104000000028F0D102B962B670BD3360EFE700BF9F
:104010000810FF1F0410FF1FFFF7DCBF024A1368E0
:1040200001331360704700BF4C0EFF1F70B4104E79
:10403000104D3478D4B1621ED2B2291D2B4601EB4B
:10404000820101E08B4205D053F8042B8242F9D162
:1040500070BC7047631CDBB2074A3370137845F8B5
:10406000240043F00203137070BC70470123F3E790
:104070002C10FF1F1410FF1F3C08FF1F2A4B2B4A58
:104080006020E1211870597013782948082B34D02A
:104090000A2B20D00C2B274B0CBF35215D2112227F
:1040A0008160C2609960DA60234B21491B78214A04
:1040B000CBB101230B621362204B1D491B781D4AB3
:1040C000012B13D9042B1BD884234B6253621C4B46
:1040D00001221A707047174B392113228160C26088
:1040E0009960DA60E0E70B621362E5E780234B62D8
:1040F0005362134B01221A7070470E4B2121ECE7DB
:10410000082B06D885234B6253620D4B01221A708F
:104110007047102B94BF862387234B625362084B52
:1041200001221A70704700BF004007403D08FF1F82
:1041300000B0034000B00B402D10FF1F3E08FF1FD2
:104140002E10FF1F704700BF10B584B072B6FEF787
:1041500047F9174A17495160702080231070137077
:1041600013781B06FCD5D468FEF750F962B6124BE3
:104170009C423CBF04EB8404640020460F4C01A920
:104180000A22FEF759F901A92046002311F8012B54
:1041900001333AB10A2B20F8022FF7D116232370EE
:1041A00004B010BD5B00DBB2237004B010BD00BFD3
:1041B000000002400000074180969800CC08FF1FD5
:1041C000024B0146186800F00BB800BF180EFF1F25
:1041D000024B0146186800F021BC00BF180EFF1FFB
:1041E0002DE9F04F01F10B06162E83B0044624D8BA
:1041F000102900F2BA8000F0A3FA1026182202203B
:10420000B54F3A44A2F1080153688B4200F0BA80DE
:104210005A68D96822F003021A449D68E9608D60EB
:10422000516841F001012046516003F1080500F09A
:104230008DFA284603B0BDE8F08F36F0070600F18E
:104240009480B14200F2918000F07AFAB6F5FC7FDA
:10425000C0F09A81730A00F08F80042B00F26F8106
:10426000B30903F1390003F1380CC3009A4F3B4402
:10427000A3F108055B689D4206D10CE0002980F29D
:104280002781DB689D4206D05A6822F00302911B09
:104290000F29F3DD60463D69DFF850C265457CD0EB
:1042A0006A6822F00302931B0F2B00F37B81002B23
:1042B000C7E904CC80F26C81B2F5007F80F01A81EE
:1042C000D308796801334FEA521E012202FA0EF236
:1042D0000A4357F833E0C5F808E007EBC301083993
:1042E000E9607A6047F83350CEF80C508310012112
:1042F0009940914257D8114206D120F0030049005D
:10430000114200F10400FAD007EBC0094D46864681
:10431000D5F80C80454508D11DE1002B80F22481A1
:10432000D8F80C80454500F01681D8F8042022F01A
:104330000302931B0F2BF0DD2046D8E9025408EB53
:10434000060146F00106C8F80460EC60A56043F081
:104350000104C7E90411C1E902CC4C6048F80230FD
:1043600000F0F4F908F1080502E00C2323600025B1
:10437000284603B0BDE8F08F4FF4007340204FF0A3
:104380003F0C73E7D3689A4208BF02307FF440AF16
:104390003D69DFF858C1654582D17A6883100121F3
:1043A00099409142A7D9BD686B6823F003094E4537
:1043B00003D8A9EB06030F2B7ADCDFF834B1474BA7
:1043C000DBF800201B680132334405EB090A00F0DA
:1043D000338103F580530F3323F47F6828F00F08EF
:1043E0004146204600F00AFA411C024600F0F380E4
:1043F000824500F2EE803A4B196841441960084644
:1044000000F04E81DBF80010019301311BBFA2EBDD
:104410000A010918CBF80020196012F0070B00F010
:104420001781CBF108010A44CBF580519044083143
:10443000A1EB0801C1F30B0A51462046009200F09F
:10444000DDF9421CDDE9002300F04F81801A00EB0A
:104450000A081968BA6048F001005144BD42506032
:10446000196000F02981B9F10F0F40F227816868C7
:10447000A9F10C0C2CF0070C00F0010040EA0C0034
:1044800068604FF0050E05EB0C00BCF10F0FC0E9A2
:1044900001EE00F2328150681546124B1A688A42CA
:1044A00038BF1960104B1A688A4238BF196094E00F
:1044B000AA1943F0010346F001066E602046BA6077
:1044C000536000F043F90835284603B0BDE8F08F8B
:1044D000D9681A44A1E600BFE408FF1F6010FF1F5F
:1044E0003010FF1F5810FF1F5C10FF1FEC08FF1F4C
:1044F000EC0CFF1FB2F5206F4FEA522363D3142B4D
:1045000000F2B78003F15C01C9005B3307EB010ED9
:104510007958AEF1080E8E4500F091804B6823F07B
:104520000303934202D989688E45F7D1D1F80CE094
:104530007A68C5E9021ECEF80850CD60D6E6142B85
:1045400059D9542B00F29D80330B03F16F0003F116
:104550006E0CC3008AE60EF1010E1EF0030F05F18A
:1045600008057FF4D5AE51E0424445465368D8F87B
:104570000C1043F00103536055F8083F2046D96002
:104580008B6000F0E3F8F3E6F00806F1080237E686
:104590002A442046536843F001035360083500F075
:1045A000D5F8E5E6A919204646F0010643F00104D6
:1045B0006E60C7E90411C1E902CC4C60AB5000F059
:1045C000C5F80835D4E6930903F13901C900383339
:1045D0009CE7BD425FD0BD68686820F0030846458F
:1045E000A8EB060302D80F2B3FF762AF204600F07E
:1045F000ADF80025BCE603F15C0003F15B0CC300E1
:1046000034E659F808394B4540F0968010F0030F16
:1046100000F1FF30F5D17B6823EA01037B6049009C
:1046200099423FF6C0AE19B9BDE649000EF1040E3D
:104630001942FAD0704667E603F11008D0E69A10E6
:104640004FF001087B6808FA02F21A437A6070E7BB
:1046500002EB08014942C1F30B0A51462046009281
:1046600000F0CCF8431CDDE900237FF4EFAEDA461E
:10467000EFE6542B25D8130B03F16F01C9006E33FD
:1046800044E7B3F5AA7F25D8F30B03F1780003F1D3
:10469000770CC300EAE5294B186840441860B1E67E
:1046A000CAF30B0CBCF1000F7FF4ACAEBD68C8447C
:1046B00048F001006860F0E61546EEE6012353601D
:1046C00094E7B3F5AA7F23D8D30B03F17801C9008F
:1046D00077331BE740F25452934223D8B30C03F1D3
:1046E0007D0003F17C0CC300C0E5ABF1080BD8449E
:1046F000A8EB02084FF0000AABE605F108012046DE
:10470000009300F08BF9BD68009B68681968C4E6E7
:1047100040F254518B420BD8930C03F17D01C90038
:104720007C33F3E64FF47E737F204FF07E0C9DE5E3
:104730004FF47E717E23E9E67B6870E73010FF1F3F
:10474000014800F097B800BFA411FF1F014800F016
:1047500093B800BFA411FF1F830730B548D0541E83
:10476000002A3FD0CAB2034601E0013C3AD303F825
:10477000012B9D07F9D1032C2DD9CDB245EA052592
:104780000F2C45EA054536D9A4F1100222F00F0C92
:1047900003F1200EE6444FEA121C03F1100242E935
:1047A000045542E9025510327245F8D10CF101026C
:1047B00014F00C0F03EB021204F00F0C13D0ACF149
:1047C000040323F003030433134442F8045B9342CD
:1047D000FBD10CF003042CB1C9B21C4403F8011B3B
:1047E0009C42FBD130BD64461346002CF4D1F9E75E
:1047F00003461446BFE71A46A446E0E738B5074D1E
:104800000022044608462A60FDF7AEFD431C00D096
:1048100038BD2B68002BFBD0236038BD9C11FF1FD7
:10482000014B1868704700BF180EFF1F70B50D4E82
:104830000D4D761BB61006D0002455F8043B01340C
:104840009847A642F9D1094E094D761B00F00EFC9F
:10485000B61006D0002455F8043B01349847A64210
:10486000F9D170BD785000007850000080500000F1
:1048700078500000704700BF704700BFFFFFFFFF88
:1048800090F800F06DE9024520F007016FF0000C90
:1048900010F0070491F820F040F049804FF0000438
:1048A0006FF00700D1E9002391F840F000F1080013
:1048B00082FA4CF2A4FA8CF283FA4CF3A2FA8CF34B
:1048C0004BBBD1E9022382FA4CF200F10800A4FAB2
:1048D0008CF283FA4CF3A2FA8CF3E3B9D1E9042306
:1048E00082FA4CF200F10800A4FA8CF283FA4CF33D
:1048F000A2FA8CF37BB9D1E9062301F1200182FAF7
:104900004CF200F10800A4FA8CF283FA4CF3A2FAFC
:104910008CF3002BC6D0002A04BF04301A4612BA0A
:10492000B2FA82F2FDE8024500EBD2007047D1E90D
:10493000002304F00305C4F100004FEAC50514F09C
:10494000040F91F840F00CFA05F562EA05021CBF6D
:1049500063EA050362464FF00004A9E7024B13B176
:10496000024800F005B8704700000000294C000024
:10497000002301461A46184600F06AB9F8B5244FDC
:104980000C460646FFF7DCFEBB685D68C4F57E6139
:104990000F3125F003054B1923F47F6323F00F0338
:1049A000A3F58054B4F5805F07DB00213046FFF7A4
:1049B00025FFBB682B44984204D03046FFF7C6FE63
:1049C0000020F8BD61423046FFF718FF01300DD0DE
:1049D000104ABB682D1B45F001055D601368304629
:1049E0001B1B1360FFF7B2FE0120F8BD002130460B
:1049F000FFF704FFBA68831A0F2BDEDD43F00103D3
:104A00005360054B03491B68C01A0860D5E700BF17
:104A1000E408FF1F3010FF1FEC0CFF1F002961D0BE
:104A2000F8B50C460646FFF78BFE54F8042C7B4F76
:104A3000A4F1080522F0010105EB010CB868DCF8CF
:104A40000430604523F0030300F08B80D207CCF8DC
:104A5000043032D454F8082CAD1A1144AA6807F176
:104A6000080082426AD00CEB0304D4F804E0EC683E
:104A7000D4601EF0010FA26000F0978041F00103A6
:104A80006B60CCF80010B1F5007F35D27868CB08A8
:104A90000122490901338A40024357F833107A60F2
:104AA00007EBC302083AC5E9021247F83350CD605C
:104AB0003046BDE8F840FFF749BE0CEB03025268F0
:104AC000D00710D4194407F10800DCF808308342FD
:104AD00073D0DCF80C20DA60936041F001036B6066
:104AE0006950D0E7704741F00103B1F5007F44F809
:104AF000043CCCF80010C9D3B1F5206F4FEA512324
:104B000048D28B0903F1390003F13802C300F818C9
:104B1000FB580838984259D05A6822F003028A425A
:104B200002D99B689842F7D1D868C5E90230856000
:104B3000DD603046BDE8F840FFF708BE0CEB03022D
:104B40005268D20763D40B44DCE90212CA60916058
:104B500043F001026A603046EB50BDE8F840FFF7D1
:104B6000F5BD0B44D10707D454F8082CAD1A1344F3
:104B7000D5E90212CA60916043F001026A60284AD6
:104B8000BD6012689A4293D8264B30461968FFF7E9
:104B9000F5FE8DE7142B0AD9542B1FD80B0B03F10C
:104BA0006F0003F16E02C300B1E719448DE703F112
:104BB0005C0003F15B02C300A9E741F00103C7E910
:104BC0000455C5E902006B60695071E7796892107D
:104BD000012404FA02F20A437A60A6E7B3F5AA7F39
:104BE00006D8CB0B03F1780003F17702C3008EE700
:104BF00040F25452934206D88B0C03F17D0003F12E
:104C00007C02C30083E74FF47E737E227FE741F08E
:104C100001036B60CCF800104AE700BFE408FF1FF7
:104C2000F00CFF1F6010FF1F38B5074D074C2C1B01
:104C3000A41005D0013C55F8043D9847002CF9D14B
:104C4000BDE8384000F01CBA000000000000000081
:104C50002DE9F047DFF87CA00646DAF80000984618
:104C60000F469146FFF706FE184B1C6824B3656893
:104C70001F2D24DC5EB96B1C0235DAF8000063607E
:104C800044F82570FFF7F8FD0020BDE8F08704EB3D
:104C900085010123C1F88890D4F88821AB401A43DC
:104CA000022EC4F88821C1F80881E4D1D4F88C21FF
:104CB0001A43C4F88C21DEE7054C1C60D7E7DAF80C
:104CC0000000FFF7D9FD4FF0FF30DEE7A811FF1F0E
:104CD000AC11FF1F1C0EFF1F7701080F010100FF21
:104CE00077E2FE0F010300FF77E2FE0F010800FFED
:104CF00077E2FE0F010900FF77E2FE0F010400FFDB
:104D000065000000000000006900000000000000D5
:104D10007700FC0F0101000077E2FE0F01000000A8
:104D20007703080F010000007704080F0200FC0061
:104D30007700080F080000000000000004000000D9
:104D40007700080F080300000000FC0200000000CC
:104D50007700080F080400000000000100000000B8
:104D60007700FC0F000000007700FD0F000000003E
:104D70000000FC0002000000750000000000FFFFC2
:104D80000000000000000000C11F0000E51F00003F
:104D900075200000712000006D20000069200000D7
:104DA00065200000891F0000452000004120000010
:104DB00039200000312000002920000019200000C7
:104DC0000920000005200000FD1F0000F51F000065
:104DD000691F0000711F0000791F0000811F000083
:104DE000CD1F0000B51F00004008FE4340A0044056
:104DF0004408FE4344A004400018FE4300C00440A1
:104E00003000FE43309004403400FE4334900440B0
:104E10001C18FE431CC004401018FE4310C0044080
:104E20000818FE4308C004400C18FE430CC00440A0
:104E30000C10FE430CB004401010FE4310B00440B0
:104E40001810FE4318B004401C10FE431CB0044070
:104E50001410FE4314B004400418FE4304C0044080
:104E60000010FE4300B004400008FE4300A00440D0
:104E70000408FE4304A004400C08FE430CA00440B8
:104E80000808FE4308A004401418FE4314C0044060
:104E90001818FE4318C004400410FE4304B0044038
:104EA0000810FE4308B004406820FE4368D0044068
:104EB0001400FE43149004403800FE433890044030
:104EC0003C00FE433C9004404000FE4340900440C0
:104ED0004808FE4348A004404C08FE434CA0044050
:104EE0002808FE4328A004402C08FE432CA00440C0
:104EF0006020FE4360D004406420FE4364D0044040
:104F00002010FE4320B004402410FE4324B004408F
:104F10002810FE4328B004402C10FE432CB004405F
:104F20004400FE43449004407000FE4370900440EF
:104F30007400FE43749004406800FE43689004408F
:104F40005008FE4350A004405808FE4358A00440B7
:104F50005C08FE435CA004405408FE4354A0044097
:104F60002018FE4320C004402418FE4324C00440FF
:104F70001008FE4310A004401408FE4314A004408F
:104F80003818FE4338C004403418FE4334C004408F
:104F90003018FE4330C004403C18FE433CC004407F
:104FA0002C18FE432CC004402820FE4328D0044087
:104FB0002C20FE432CD004400020FE4300D00440AF
:104FC0000420FE4304D004400820FE4308D00440DF
:104FD0000C20FE430CD004401020FE4310D00440AF
:104FE0001420FE4314D00440000000000000000024
:104FF000CD3A0000C53A0000C13A0000BD3A0000B9
:10500000B93A0000B53A0000B13A0000AD3A0000EC
:1050100000FFFFFF000100008408FF1F12000000D6
:10502000000200004008FF1F4300000000030000D2
:105030009808FF1F00000000010309049C08FF1FDF
:105040000000000002030904B408FF1F0000000074
:1050500003030904CC08FF1F00000000000000004B
:10506000000000000000000000151915F8B500BF91
:10507000F8BC08BC9E4670475D490000350400003E
:04508000F8B500BFC0
:10508400E00704EC00FB0F0000FBC013BFE607C001
:10509400BFEC07C0BFEE07CFEB07ECF5EA07FCB2A5
:1050A400FF0E72FCB2FF0E76FCB2FF0E77FCB2FF6D
:1050B4000E9EFDFCB2FF0E73624C69DD6D4C77DD14
:1050C4001D4C72DD294C65DD324C75DD62FCA1FF9F
:1050D4000ED5EA07DFC8AFE60712ECEB070FFCB208
:1050E400FF0E119BA793DFF6FE4C00EEE3FF118B3E
:1050F400FCA1FF0EA793DFF6EED6FF61FFFCF8FFDD
:105104000E8F02084C0FDD0B624CFFDF11FCC4084C
:105114000FEFF5624CFFDF06FC04F00EEFF5C36100
:10512400CFC262FCA1FF0EEEA7FFE5EA07EF03E59D
:10513400EA07FE0200EF9A5100FCA1FF0ED7FFFF21
:10514400FFFFFFFFFFFFFFFFFFFFFF00884D000091
:1051540000000000E803000000000000113100001E
:105164003C13FF1F280000001A000000400000004C
:105174004000000001010000F04F000000000000AA
:10518400E803000000000000FFFFFFFF010A040025
:1051940009024300020100C03209040000010202B6
:1051A4000100052400100105240101010424020664
:1051B40005240600010705820310004009040100CC
:1051C400020A0000000705030240000007058402EC
:1051D400400000001201100102000040C0168304C8
:1051E40077020102030100000403090418035400B8
:1051F400650065006E007300790064007500690045
:105204006E006F0016035500530042002000530047
:1052140065007200690061006C0000000C0300006E
:10522400000000000000000000000000000000007A
:10523400000000000000000000000000E408FF1F60
:10524400E408FF1FEC08FF1FEC08FF1FF408FF1F12
:10525400F408FF1FFC08FF1FFC08FF1F0409FF1FC1
:105264000409FF1F0C09FF1F0C09FF1F1409FF1F6E
:105274001409FF1F1C09FF1F1C09FF1F2409FF1F1E
:105284002409FF1F2C09FF1F2C09FF1F3409FF1FCE
:105294003409FF1F3C09FF1F3C09FF1F4409FF1F7E
:1052A4004409FF1F4C09FF1F4C09FF1F5409FF1F2E
:1052B4005409FF1F5C09FF1F5C09FF1F6409FF1FDE
:1052C4006409FF1F6C09FF1F6C09FF1F7409FF1F8E
:1052D4007409FF1F7C09FF1F7C09FF1F8409FF1F3E
:1052E4008409FF1F8C09FF1F8C09FF1F9409FF1FEE
:1052F4009409FF1F9C09FF1F9C09FF1FA409FF1F9E
:10530400A409FF1FAC09FF1FAC09FF1FB409FF1F4D
:10531400B409FF1FBC09FF1FBC09FF1FC409FF1FFD
:10532400C409FF1FCC09FF1FCC09FF1FD409FF1FAD
:10533400D409FF1FDC09FF1FDC09FF1FE409FF1F5D
:10534400E409FF1FEC09FF1FEC09FF1FF409FF1F0D
:10535400F409FF1FFC09FF1FFC09FF1F040AFF1FBC
:10536400040AFF1F0C0AFF1F0C0AFF1F140AFF1F69
:10537400140AFF1F1C0AFF1F1C0AFF1F240AFF1F19
:10538400240AFF1F2C0AFF1F2C0AFF1F340AFF1FC9
:10539400340AFF1F3C0AFF1F3C0AFF1F440AFF1F79
:1053A400440AFF1F4C0AFF1F4C0AFF1F540AFF1F29
:1053B400540AFF1F5C0AFF1F5C0AFF1F640AFF1FD9
:1053C400640AFF1F6C0AFF1F6C0AFF1F740AFF1F89
:1053D400740AFF1F7C0AFF1F7C0AFF1F840AFF1F39
:1053E400840AFF1F8C0AFF1F8C0AFF1F940AFF1FE9
:1053F400940AFF1F9C0AFF1F9C0AFF1FA40AFF1F99
:10540400A40AFF1FAC0AFF1FAC0AFF1FB40AFF1F48
:10541400B40AFF1FBC0AFF1FBC0AFF1FC40AFF1FF8
:10542400C40AFF1FCC0AFF1FCC0AFF1FD40AFF1FA8
:10543400D40AFF1FDC0AFF1FDC0AFF1FE40AFF1F58
:10544400E40AFF1FEC0AFF1FEC0AFF1FF40AFF1F08
:10545400F40AFF1FFC0AFF1FFC0AFF1F040BFF1FB7
:10546400040BFF1F0C0BFF1F0C0BFF1F140BFF1F64
:10547400140BFF1F1C0BFF1F1C0BFF1F240BFF1F14
:10548400240BFF1F2C0BFF1F2C0BFF1F340BFF1FC4
:10549400340BFF1F3C0BFF1F3C0BFF1F440BFF1F74
:1054A400440BFF1F4C0BFF1F4C0BFF1F540BFF1F24
:1054B400540BFF1F5C0BFF1F5C0BFF1F640BFF1FD4
:1054C400640BFF1F6C0BFF1F6C0BFF1F740BFF1F84
:1054D400740BFF1F7C0BFF1F7C0BFF1F840BFF1F34
:1054E400840BFF1F8C0BFF1F8C0BFF1F940BFF1FE4
:1054F400940BFF1F9C0BFF1F9C0BFF1FA40BFF1F94
:10550400A40BFF1FAC0BFF1FAC0BFF1FB40BFF1F43
:10551400B40BFF1FBC0BFF1FBC0BFF1FC40BFF1FF3
:10552400C40BFF1FCC0BFF1FCC0BFF1FD40BFF1FA3
:10553400D40BFF1FDC0BFF1FDC0BFF1FE40BFF1F53
:10554400E40BFF1FEC0BFF1FEC0BFF1FF40BFF1F03
:10555400F40BFF1FFC0BFF1FFC0BFF1F040CFF1FB2
:10556400040CFF1F0C0CFF1F0C0CFF1F140CFF1F5F
:10557400140CFF1F1C0CFF1F1C0CFF1F240CFF1F0F
:10558400240CFF1F2C0CFF1F2C0CFF1F340CFF1FBF
:10559400340CFF1F3C0CFF1F3C0CFF1F440CFF1F6F
:1055A400440CFF1F4C0CFF1F4C0CFF1F540CFF1F1F
:1055B400540CFF1F5C0CFF1F5C0CFF1F640CFF1FCF
:1055C400640CFF1F6C0CFF1F6C0CFF1F740CFF1F7F
:1055D400740CFF1F7C0CFF1F7C0CFF1F840CFF1F2F
:1055E400840CFF1F8C0CFF1F8C0CFF1F940CFF1FDF
:1055F400940CFF1F9C0CFF1F9C0CFF1FA40CFF1F8F
:10560400A40CFF1FAC0CFF1FAC0CFF1FB40CFF1F3E
:10561400B40CFF1FBC0CFF1FBC0CFF1FC40CFF1FEE
:10562400C40CFF1FCC0CFF1FCC0CFF1FD40CFF1F9E
:10563400D40CFF1FDC0CFF1FDC0CFF1FFFFFFFFF60
:105644000000020000000000000000006410FF1FC2
:10565400CC10FF1F3411FF1F0000000000000000E9
:105664000000000000000000000000000000000036
:105674000000000000000000000000000000000026
:105684000000000000000000000000000000000016
:105694000000000000000000000000000000000006
:1056A40000000000000000000000000000000000F6
:1056B40000000000000000000000000000000000E6
:1056C40000000000000000000000000000000000D6
:1056D40000000000000000000000000000000000C6
:1056E40001000000000000000E33CDAB34126DE663
:1056F400ECDE05000B0000000000000000000000CC
:105704000000000000000000000000000000000095
:105714000000000000000000000000000000000085
:105724000000000000000000000000000000000075
:105734000000000000000000000000000000000065
:105744000000000000000000000000000000000055
:105754000000000000000000000000000000000045
:105764000000000000000000F80CFF1FA011FF1F44
:00000001FF
