:10000000E2C000000AC1000008C1000006C10000F3
:1000100004C1000002C1000000C10000FEC00000D9
:10002000FCC00000FAC000000C94DE100C945B11C0
:10003000F4C00000F2C00000F0C00000EEC00000FC
:10004000ECC00000EAC00000E8C00000E6C000000C
:10005000E4C00000E2C00000E0C000000C943D10CD
:10006000DCC000000C946C0D0C94970D0C94C80D22
:10007000D4C00000D2C00000D0C00000CEC000003C
:10008000CCC00000CAC00000C8C00000C6C000004C
:10009000C4C00000C2C000000129022904290829A7
:1000A0001029202940298029012C022C0126022612
:1000B000042608261026202640268026402C802C48
:1000C0000123022304230823102320234023802319
:1000D0000120022004200820102020204020802021
:1000E000102C202C012F022F042F082F102F202F2F
:1000F000402F802F00010000A501120002000062C5
:100100000143000300005E010401030904440118D7
:10011000020309042C0116030309041E010C0C033D
:100120003100320033003400350000001603550062
:100130005300420020005300650072006900610016
:100140006C00000018035400650065006E00730029
:1001500079006400750069006E006F000000040300
:10016000090409024300020100C032090400000131
:1001700002020100052400100105240100010424ED
:100180000206052406000107058203080040090451
:100190000100020A000000070503024000000705F5
:1001A00084024000001201000202000020C01683F9
:1001B000047202010203010001C1020180360181C3
:1001C0003600E60D431511241FBECFEFD0E2DEBF8F
:1001D000CDBF12E0A0E0B1E0E8EBFCE200E00BBF35
:1001E00002C007900D92A638B107D9F723E0A6E820
:1001F000B2E001C01D92AB31B207E1F710E0C3EEEF
:10020000D0E004C02197FE010E949415C13ED107A1
:10021000C9F70E94C10E0C945A16F2CECF93DF9309
:100220001F92CDB7DEB76983DC01ED91FC910280AE
:10023000F381E02D41E050E0BE016F5F7F4F0995F3
:100240000F90DF91CF910895813029F410928D02A3
:1002500080918D02089590918D02823021F49195C4
:1002600090938D02F5CF833099F79150F9CFCF93CA
:10027000DF9300D0CDB7DEB72091030330910403A4
:100280002115310511F42EE133E0CE010196821BD8
:10029000930B0F900F90DF91CF9108954FEF61E195
:1002A00070E08EE892E00E94280D44E650E060E0A5
:1002B00070E08EE892E00E945B0E40E052EC61E05C
:1002C00070E081E193E00E944514569A559A549A41
:1002D000539A52985A985D985B985A985C9A81E123
:1002E00093E00E9438158823D1F35E9A0895909187
:1002F0008D02980F90938D02682F8EE892E00E94F5
:10030000E20C80E991E00197F1F70895682F81E10F
:1003100093E084DF80E991E00197F1F781E193E0D8
:100320000E94CA12181619062CF481E193E00E946B
:100330000313F4CF5E9808958F929F92AF92BF926D
:10034000CF92DF92EF92FF920F931F93CF93DF93A1
:100350004A015B015E9AEC01C12CD12C760100E9C7
:1003600011E0C814D904EA04FB0491F069918EE805
:1003700092E00E94E20CC8010197F1F78EE892E04A
:100380000E94C50C8FEFC81AD80AE80AF80AE9CF0C
:1003900080E991E00197F1F75E98DF91CF911F918D
:1003A0000F91FF90EF90DF90CF90BF90AF909F9014
:1003B0008F9008955E9A45E050E060E070E086ED31
:1003C00091E0BADF8EE892E00E94C50C811180EEC8
:1003D0000895CF92DF92EF92FF9245E050E060E007
:1003E00070E08CED91E0A8DF0FB6F894C0900603A2
:1003F000D0900703E0900803F09009030FBE8EE849
:1004000092E00E94920C18161906B4F00FB6F894F8
:100410008091060390910703A0910803B09109030E
:100420000FBE8C199D09AE09BF0981319742A10504
:10043000B10528F38FEE04C08EE892E00E94C50C4F
:10044000FF90EF90DF90CF9008955E9A45E050E0E6
:1004500060E070E082EE91E06FDF8EE892E00E9453
:10046000C50C811142C046E050E060E070E088EECB
:1004700091E062DF8EE892E00E94C50C811135C0E8
:1004800046E050E060E070E08FEE91E055DF8EE8EE
:1004900092E00E94C50C811128C046E050E060E067
:1004A00070E086EF91E048DF8EE892E00E94C50C94
:1004B00081111BC047E050E060E070E08DEF91E0FB
:1004C0003BDF8EE892E00E94C50C81110EC046E031
:1004D00050E060E070E08FE392E02EDF8EE892E083
:1004E0000E94C50C811101C074CF80EE08952F9237
:1004F0003F924F925F926F927F928F929F92AF92B4
:10050000BF92CF92DF92EF92FF920F931F93CF9300
:10051000DF93CDB7DEB762970FB6F894DEBF0FBE9C
:10052000CDBF0FB6F894C0900603D0900703E090BB
:100530000803F09009030FBE81E193E00E94CA1204
:100540000497B4F40FB6F8948091060390910703D2
:10055000A0910803B09109030FBE8C199D09AE0943
:10056000BF0981319742A105B10530F38BEE59C027
:100570008E010F5F1F4F8EE0D8011D928A95E9F71B
:1005800044E050E0B80181E193E00E949614C980F4
:100590008C2D90E0982F8827CA80C80ED92ED11CA8
:1005A000F12CE12C3AE0CC0CDD1CEE1CFF1C3A9542
:1005B000D1F78B81282F30E0322F22278C81820FB8
:1005C000932F911D0196B0E0A0E04C015D015AE02F
:1005D000880C991CAA1CBB1C5A95D1F71E01B5E0CA
:1005E0002B0E311CC814D904EA04FB0408F060C0C7
:1005F0004D2C5E2C6F2C7724C701AA27BB278F8731
:10060000988BA98BBA8B46E050E060E070E086E4FE
:1006100092E092DE8EE892E00E94C50C8823D1F031
:1006200084EE62960FB6F894DEBF0FBECDBFDF91A9
:10063000CF911F910F91FF90EF90DF90CF90BF90DF
:10064000AF909F908F907F906F905F904F903F9072
:100650002F900895D101EAE01D92EA95E9F785E02F
:10066000E5E0F2E0D80101900D928A95E1F74F8222
:10067000FF85F88785E0EBE0F2E0DE011996019056
:100680000D928A95E1F74DE050E060E070E0C8011E
:1006900053DE8EE892E00E94C50C8111C1CF99DE35
:1006A0008111BFCF33DE24E0D20EE11CF11C9ACFC2
:1006B00080E0B7CF2F923F924F925F926F927F92DE
:1006C0008F929F92AF92BF92CF92DF92EF92FF9262
:1006D0000F931F93CF93DF93CDB7DEB762970FB61B
:1006E000F894DEBF0FBECDBF0FB6F894C0900603DE
:1006F000D0900703E0900803F09009030FBE81E15A
:1007000093E00E94CA120497B4F40FB6F894809153
:10071000060390910703A0910803B09109030FBE4F
:100720008C199D09AE09BF0981319742A105B10518
:1007300030F38BEE89C08E010F5F1F4F8EE0D80122
:100740001D928A95E9F744E050E0B80181E193E019
:100750000E949614C9808C2D90E0982F8827CA801B
:10076000C80ED92ED11CF12CE12C3AE0CC0CDD1CAA
:10077000EE1CFF1C3A95D1F78B81282F30E0322FE9
:1007800022278C81820F932F911D0196B0E0A0E06B
:100790004C015D015AE0880C991CAA1CBB1C5A959F
:1007A000D1F71E01B5E02B0E311CC814D904EA04A0
:1007B000FB0408F048C04D2C5E2C6F2C7724C70139
:1007C000AA27BB278F87988BA98BBA8B46E050E06E
:1007D00060E070E08DE492E0AFDD8EE892E00E9490
:1007E000C50C81114AC0D101EAE01D92EA95E9F7F2
:1007F00085E0E5E0F2E0D80101900D928A95E1F7FD
:100800004F82FF85F88785E0EBE0F2E0DE01199684
:1008100001900D928A95E1F74DE050E060E070E0C4
:10082000C8018ADD8EE892E00E94C50C811127C0C4
:10083000D0DD882311F08B3139F468DD24E0D20E4D
:10084000E11CF11CB2CF80E062960FB6F894DEBFD7
:100850000FBECDBFDF91CF911F910F91FF90EF9011
:10086000DF90CF90BF90AF909F908F907F906F90D0
:100870005F904F903F902F90089588EEE5CF84EEE3
:10088000E3CF1F93CF93DF9300D01F92CDB7DEB796
:1008900046E050E060E070E084E592E04DDD8EE8F7
:1008A00092E00E94C50C81115BC083E0FE0131968D
:1008B000DF011D928A95E9F74DE050E060E070E0BD
:1008C00081E192E039DD8EE892E00E94C50C882338
:1008D00049F014EE812F0F900F900F90DF91CF9180
:1008E0001F91089576DD182F8111F4CF8EE892E0E4
:1008F0000E94C50C89838EE892E00E94C50C8A8311
:1009000046E050E060E070E084E592E015DD8EE8BE
:1009100092E00E94C50C811123C04DE050E060E0E0
:1009200070E08FE192E008DD8EE892E00E94C50C55
:100930008111CFCF4EDD182F8111CCCF8EE892E000
:100940000E94C50C8B83698181E193E067DC6A8139
:1009500081E193E063DC6B8181E193E05FDCBACFFE
:1009600018EEB8CF5F926F927F928F929F92AF9264
:10097000BF92CF92DF92EF92FF920F931F93CF938C
:10098000DF9300D000D01F92CDB7DEB725E0722EE6
:100990008E010F5F1F4F30EA632E44E1542EF801A1
:1009A000872D11928A95E9F75E9A20E43FE140E0B5
:1009B00050E060ED77E080E090E00E94A40E4B01F3
:1009C00028E030E040E050E061E070E080E090E05E
:1009D0000E94A40E6B015D98862D81500000E9F7FE
:1009E0008EE892E00E94610D65E070E080E090E0AA
:1009F0000E947D105D9A65E070E080E090E00E94CA
:100A00007D104FEF61E170E08EE892E00E94280DCA
:100A100044E650E060E070E08EE892E00E945B0EF9
:100A200061E070E080E090E00E947D1085EC5FDC8A
:100A300081E05DDC10928D0283E059DC8AE957DCAD
:100A400080E055DC84E153DC82E0FEDB50DC8EE8A4
:100A500092E068D71816190624F48EE892E095D72C
:100A6000F6CF83E044DC8EE892E08FD745E050E09B
:100A7000B8018EE892E00E94610E8B81863009F405
:100A800053C08031C1F08EEE32DC80E00F900F90C9
:100A90000F900F900F90DF91CF911F910F91FF90CA
:100AA000EF90DF90CF90BF90AF909F908F907F900E
:100AB0006F905F900895C401029738F031F0880F6D
:100AC000991F880F991F0197F1F75C98C60102974B
:100AD00038F031F0880F991F880F991F0197F1F7AF
:100AE0005C9A8EE892E01ED71816190624F48EE858
:100AF00092E04BD7F6CF98EEE92E93E0F92EE1E0A5
:100B0000EE1AF10809F44BCF8EE892E00BD71816D5
:100B100019062CF0852D81500000E9F7F0CF8EE802
:100B200092E033D78230B1F765E070E080E090E08A
:100B30000E947D1081E9DBDB61E070E080E090E005
:100B40000E947D1010928D028AE3D1DB8EE4CFDB10
:100B50008FE6CDDB84E7CBDB8AE3C9DB85E5C7DB4A
:100B600083E7C5DB85E6C3DB84E6C1DB8AE3BFDB65
:100B700083E06ADBBCDB61E070E080E090E00E9433
:100B80007D1083E9B4DB61E070E080E090E00E94DA
:100B90007D1004E011E087ECE82E81E0F82EF801EA
:100BA00081918F01A4DBE016F106C9F761E070E0E6
:100BB00080E090E00E947D1083E999DB61E070E0C5
:100BC00080E090E00E947D1007EC11E0F801819137
:100BD0008F018DDBF1E00E3C1F07C1F761E070E093
:100BE00080E090E00E947D1064E98EE892E0EAD611
:100BF00065E070E080E090E00E947D108EE892E079
:100C000091D61816190624F48EE892E0BED6F6CFD7
:100C10005E9881E03BCF8F929F92AF92BF92CF922E
:100C2000DF92EF92FF920F931F93CF93DF9300D049
:100C300000D01F92CDB7DEB7C12CD12C760182E750
:100C4000982E90E8892E20E9A22EBB24B394998295
:100C5000CA82DB82EC828D8245E050E060E070E089
:100C6000CE01019669DB00E810E08EE892E05AD6EA
:100C7000892B21F4C5010197F1F7F7CF8EE892E0B7
:100C800084D6682F81E193E0C9DA0150110969F730
:100C900080E8C80ED11CE11CF11CC114D10488E00D
:100CA000E806F104A1F680E00F900F900F900F90EE
:100CB0000F90DF91CF911F910F91FF90EF90DF90F8
:100CC000CF90BF90AF909F908F9008952F923F92BA
:100CD0004F925F926F927F928F929F92AF92BF924C
:100CE000CF92DF92EF92FF920F931F93CF93DF93F8
:100CF000CDB7DEB72E970FB6F894DEBF0FBECDBFCF
:100D00000FB6F894C0900603D0900703E090080354
:100D1000F09009030FBE81E193E00E94CA1204978C
:100D2000B4F40FB6F8948091060390910703A09154
:100D30000803B09109030FBE8C199D09AE09BF09C4
:100D400081319742A105B10530F38BEE80C08E0151
:100D50000F5F1F4F8EE0F80111928A95E9F744E08A
:100D600050E0B80181E193E00E9496148980882DBB
:100D700090E0982F88278A80880E992E911CB12C9C
:100D8000A12C3AE0880C991CAA1CBB1C3A95D1F7FF
:100D90004B80842D90E0982F88274C80480E592E48
:100DA000511CFFEF4F1A5F0A712C612C5AE0440C62
:100DB000551C661C771C5A95D1F71E0125E0220EA2
:100DC000311C60E9C62EDD24D39484149504A60456
:100DD000B70478F5F1012AE011922A95E9F782E744
:100DE00089838A829B82AC82E0E8ED8345E050E013
:100DF00060E070E0C801A0DA80E8E82EF12C8EE80F
:100E000092E090D5892B21F4C6010197F1F7F7CF35
:100E10008EE892E0BAD5682F81E193E0FFD9F1E046
:100E2000EF1AF10861F720E8820E911CA11CB11C99
:100E3000CCCF81E193E00E94CA12181619062CF457
:100E400081E193E00E940313F4CF5E9880E02E9638
:100E50000FB6F894DEBF0FBECDBFDF91CF911F91CB
:100E60000F91FF90EF90DF90CF90BF90AF909F9049
:100E70008F907F906F905F904F903F902F9008954C
:100E80002F923F924F925F926F927F928F929F929A
:100E9000AF92BF92CF92DF92EF92FF920F931F9388
:100EA000CF93DF93CDB7DEB7CD50D4400FB6F894D3
:100EB000DEBF0FBECDBF8E010F5F1B4F8DE0D8018F
:100EC0001D928A95E9F7FE0131967F0180E094E05A
:100ED000DF01FC011D923197E9F70FB6F89480907D
:100EE000060390900703A0900803B09009030FBE7B
:100EF00081E193E00E94CA120297B4F40FB6F8940D
:100F00008091060390910703A0910803B091090313
:100F10000FBE88199909AA09BB0981319742A10519
:100F2000B10530F38BEE7EC08DE0D8011D928A951D
:100F3000E9F742E050E0B80181E193E00E949614A5
:100F4000F801308021805E9A0FB6F8944090060335
:100F50005090070360900803709009030FBED12CD6
:100F6000C12C812C64E0962EC114F4E0DF0678F5E4
:100F70000FB6F8948091060390910703A09108039F
:100F8000B09109030FBE84199509A609B7098132EA
:100F90009E44A105B10508F064C181E193E00E947F
:100FA000CA125C01009701F38C0D9D1D81309440A5
:100FB00018F05401AC18BD08B7016C0D7D1DA501DA
:100FC00081E193E00E949614CA0CDB1CCDCF45E072
:100FD00050E060E070E08DE292E0AED94E0181E039
:100FE000880E981E670150E9A52EBB24B394D60144
:100FF0006D916D018EE892E0E5D4C5010197F1F79E
:101000008EE892E0C2D4C814D90489F78EE892E041
:10101000D4D4C5010197F1F78EE892E0B6D48823C5
:10102000D9F081EEC35FDB4F0FB6F894DEBF0FBE81
:10103000CDBFDF91CF911F910F91FF90EF90DF9087
:10104000CF90BF90AF909F908F907F906F905F9068
:101050004F903F902F90089545E050E060E070E0A1
:1010600083E392E069D94701BEEF9B1A40E9A42EC1
:10107000BB24B394F60161916F018EE892E0A2D493
:10108000C5010197F1F78EE892E07FD4C814D90426
:1010900089F78EE892E091D4C5010197F1F78EE8C7
:1010A00092E073D4882311F082EEBCCF46E050E08A
:1010B00060E070E08BE592E03FD98EE892E065D485
:1010C000882311F086EEAECF432C512C542C4424AF
:1010D000420C511C712C612C3AE0440C551C661CCE
:1010E000771C3A95D1F783E0F8013496DF011D9221
:1010F0008A95E9F785E0E5E0F2E0D80101900D92EC
:101100008A95E1F7F8015682678285E0E9E3F2E02B
:10111000D801189601900D928A95E1F74DE050E0C4
:1011200060E070E0C80108D98EE892E02ED4811109
:10113000C9CF4FD9811176CF45E050E060E070E033
:101140008DE292E0F9D85E01FFEFAF1AFDEFBF0A22
:1011500047012DEF921A90E9C92EDD24D394D501D1
:101160006D915D018EE892E02DD4C6010197F1F7F3
:101170008EE892E00AD48A149B0489F78EE892E004
:101180001CD4C6010197F1F78EE892E0FED38111DD
:1011900048CF45E050E060E070E083E392E0CCD8D7
:1011A0006E01BFEFCB1ABCEFDB0A5701ECEFBE1AA2
:1011B00080E9E82EFF24F394D6016D916D018EE84D
:1011C00092E000D4C7010197F1F78EE892E0DDD3F9
:1011D000AC14BD0489F78EE892E0EFD3C701019704
:1011E000F1F78EE892E0D1D381115ECF46E050E076
:1011F00060E070E08BE592E09FD88EE892E0C5D386
:10120000811160CFB2E05B0E611C711CF801349655
:1012100083E0DF011D928A95E9F785E0E5E0F2E0E1
:10122000D80101900D928A95E1F7F8015682678204
:10123000D801189685E0E9E3F2E001900D928A95D5
:10124000E1F74DE050E060E070E0C80175D88EE84D
:1012500092E09BD3811136CFBCD88111E3CE5E984A
:10126000E1CE8CEEDFCE2F923F924F925F926F9243
:101270007F928F929F92AF92BF92CF92DF92EF9226
:10128000FF920F931F93CF93DF93CDB7DEB7C55176
:10129000D4400FB6F894DEBF0FBECDBF8E010F5FF6
:1012A0001B4F8DE0D8011D928A95E9F7FE0131961A
:1012B0007F0180E094E0DF01FC011D923197E9F7A6
:1012C0000FB6F8948090060390900703A09008034F
:1012D000B09009030FBE81E193E00E94CA12029709
:1012E000B4F40FB6F8948091060390910703A0918F
:1012F0000803B09109030FBE88199909AA09BB090F
:1013000081319742A105B10530F38BEEB4C08DE079
:10131000D8011D928A95E9F742E050E0B80181E1D9
:1013200093E00E949614F801908081805E9A0FB637
:10133000F8942090060330900703409008035090E3
:1013400009030FBED12CC12C612C64E0762EC11490
:10135000F4E0DF0678F50FB6F894809106039091DB
:101360000703A0910803B09109030FBE82199309E6
:10137000A409B50981329E44A105B10508F02FC228
:1013800081E193E00E94CA125C01009701F38C0D89
:101390009D1D8130944018F05301AC18BD08B70171
:1013A0006C0D7D1DA50181E193E00E949614CA0C8D
:1013B000DB1CCDCF46E050E060E070E08DE492E0D1
:1013C0000E949C018EE892E0E0D281110AC2892D30
:1013D00090E0982F8827880E992E911CB12CA12C73
:1013E0003AE0880C991CAA1CBB1C3A95D1F7492CF1
:1013F0005A2C6B2C7724C501AA27BB27C05FDB4F73
:1014000088839983AA83BB83C051D440180194E098
:10141000290E311CD101E3E01D92EA95E9F785E040
:10142000E5E0F2E0D80101900D928A95E1F7D8014C
:1014300016964C921697C05FDB4FE881C051D4409E
:101440001796EC936801F8E0CF0ED11C85E0EBE035
:10145000F2E0D60101900D928A95E1F74DE050E05F
:1014600060E070E0C8010E949C018EE892E08DD29D
:101470008823D9F084EECB5EDB4F0FB6F894DEBF45
:101480000FBECDBFDF91CF911F910F91FF90EF90D5
:10149000DF90CF90BF90AF909F908F907F906F9094
:1014A0005F904F903F902F9008950E94E901811125
:1014B00039C045E050E060E070E08DE292E00E94CB
:1014C0009C019E012F5F3E4FC25FDB4F3983288313
:1014D000CE50D440670190E9292E33243394D601AD
:1014E0006D916D018EE892E06DD2C1010197F1F727
:1014F0008EE892E04AD2C25FDB4FE881F981CE509C
:10150000D440CE16DF0659F78EE892E056D2C101DC
:101510000197F1F78EE892E038D2882309F444C0AD
:1015200081EEA9CF8B3109F0A6CF46E050E060E014
:1015300070E086E492E00E949C018EE892E025D261
:10154000811198CFD101E3E01D92EA95E9F785E09A
:10155000E5E0F2E0D80101900D928A95E1F7D8011B
:1015600016964C921697C05FDB4FE881C051D4406D
:101570001796EC9385E0EBE0F2E0D60101900D9236
:101580008A95E1F74DE050E060E070E0C8010E940C
:101590009C018EE892E0F9D181116CCF0E94E901A3
:1015A000882309F486CF67CF45E050E060E070E023
:1015B00083E392E00E949C0197013E5FCC5EDB4F8B
:1015C00039832883C451D44080E9282E33243394AE
:1015D000D6016D916D018EE892E0F4D1C1010197C1
:1015E000F1F78EE892E0D1D1CC5EDB4FE881F98152
:1015F000C451D440EC15FD0559F78EE892E0DDD1D9
:10160000C1010197F1F78EE892E0BFD1882311F074
:1016100082EE31CF46E050E060E070E08BE592E092
:101620000E949C018EE892E0B0D1882311F086EEF2
:1016300022CFF801349683E0DF011D928A95E9F705
:1016400085E0E5E0F2E0D80101900D928A95E1F79E
:10165000F8014682C05FDB4F2881C051D440278308
:10166000D801189685E0E9E3F2E001900D928A95A1
:10167000E1F74DE050E060E070E0C8010E949C019D
:101680008EE892E082D18111D2CF0E94E9018111CE
:10169000F2CE45E050E060E070E08DE292E00E9422
:1016A0009C016E013FEFC31A3DEFD30A37018DEF66
:1016B000781A00E911E0D6016D916D018EE892E093
:1016C00081D1C8010197F1F78EE892E05ED16C14E8
:1016D0007D0489F78EE892E070D1C8010197F1F797
:1016E0008EE892E052D181111BCF45E050E060E0DE
:1016F00070E083E392E00E949C016E01BFEFCB1A81
:10170000BCEFDB0AECEFFE1A00E911E0D6016D91A7
:101710006D018EE892E056D1C8010197F1F78EE88D
:1017200092E033D1EC14FD0489F78EE892E045D1C4
:10173000C8010197F1F78EE892E027D1811168CFB7
:1017400046E050E060E070E08BE592E00E949C0192
:101750008EE892E01AD181116ACFB2E09B0EA11CF3
:10176000B11CE1E0F4E0EC0FFD1F349683E0DF01F3
:101770001D928A95E9F785E0E5E0F2E0DE01AF5FD2
:10178000BB4F01900D928A95E1F7C95FDB4F9882BC
:10179000C750D440C85FDB4FA882C850D440A1E0F6
:1017A000B4E0AC0FBD1F189685E0E9E3F2E00190CC
:1017B0000D928A95E1F74DE050E060E070E0CE01D7
:1017C0008F5F9B4F0E949C018EE892E0DED08111DA
:1017D0002ECF0E94E90181114ECE5E984CCE8CEE48
:1017E0004ACE88EE48CECF93DF935E9AC1EED1E029
:1017F00081E193E0CFD6892B09F491C081E193E098
:1018000002D780938A02823088F0803109F44BC07D
:10181000803209F475C0803809F475C090918B024C
:10182000911104C080EE0E948601E2CF863009F457
:101830005AC038F5823009F452C0C8F4882309F43C
:1018400048C08130A9F60E943701909389028093A5
:10185000880261E081E193E00E940E0160918902BB
:1018600081E193E00E940E016091880233C08330D1
:10187000C1F1843009F0BCCF0E94770280938C02C2
:10188000D2CF8A30A1F140F4873079F1883009F065
:10189000AFCF0E945A03F2CF803291F1803899F194
:1018A000803109F0A5CF10928C0280918B028111BA
:1018B0000DC058D880938C028823F9F00E9425022D
:1018C00080938C02811116C0D0938B0280918C0280
:1018D000AACF62E081E193E00E940E0189CFF6D9A0
:1018E00087CF99D985CFCCDAC9CFBDDCC7CF0E94CD
:1018F0004104C4CF10928B02E9CFC0938C02E6CF93
:101900000E94DA01BBCF5E9864EF71E080E090E066
:10191000F4D3E0918602F0918702099569CFDF91B7
:10192000CF9108955091C2024091C102852F90E05D
:10193000242F30E0541718F0821B930B0895805C1D
:101940009F4FFACF5091980240919702252F30E097
:10195000842F90E0821B930B541710F08796089504
:10196000019708958091C202E091C1028E1751F053
:10197000EF5FE03408F0E0E0F0E0ED53FD4F8081F0
:1019800090E008958FEF9FEF08959091C2028091AB
:10199000C102981779F09091C1029F5F903408F0CE
:1019A00090E0E92FF0E0ED53FD4F80819093C1026C
:1019B00090E008958FEF9FEF089580919602811136
:1019C000FCCF08952091C90023FD06C021E0FC0151
:1019D000228390E080E008958091CE018F3F41F016
:1019E00080919602811104C0E091CE01F0E026D2F0
:1019F0009091980280919702981304C08091C8003A
:101A000085FD19C0809198028F5F8832F8F490911B
:101A100097029817E1F3E82FF0E0E756FD4F608357
:101A200091E090939602809398028091C900806221
:101A30008093C90008C08FB7F8946093CE0091E0FE
:101A4000909396028FBF81E090E0089580E0DFCF11
:101A50001F93CF93DF93EB01142F4093CE014F3FA1
:101A600029F0842FDAD1E12FF0E0EED1C0FF24C0BD
:101A7000C13080E1D80700F582E08093C80021974B
:101A8000D093CD00C093CC008091C90083FD10C0DD
:101A90001092C2021092C102109298021092970204
:101AA0001092960286E08093CA0088ED8093C90068
:101AB000DF91CF911F9108951092C800D695C795D8
:101AC000DECF809196028111FCCF1092C900109256
:101AD000C2021092C10208951F920F920FB60F9288
:101AE00011240BB60F922F938F939F93EF93FF9335
:101AF0009091CE008091C2028F5F803408F080E028
:101B00002091C102281739F0E82FF0E0ED53FD4F86
:101B100090838093C202FF91EF919F918F912F91BB
:101B20000F900BBE0F900FBE0F901F9018951F9235
:101B30000F920FB60F9211240BB60F928F939F93B3
:101B4000EF93FF939091980280919702981310C0A1
:101B50008091C9008F7D8093C900FF91EF919F9183
:101B60008F910F900BBE0F900FBE0F901F90189586
:101B7000809197028F5F883208F080E0E82FF0E0D4
:101B8000E756FD4F90819093CE0080939702E5CF6A
:101B90001F920F920FB60F9211240BB60F928F93D4
:101BA000EF93FF93109296028091CE018F3F21F028
:101BB000E091CE01F0E048D1FF91EF918F910F902D
:101BC0000BBE0F900FBE0F901F901895EEE8F2E03D
:101BD000128288EE93E0A0E0B0E083839483A58333
:101BE000B683178286E692E0918380830895CF9230
:101BF000DF92EF92FF920F931F93CF93DF936C01CD
:101C0000EB017B01E40EF51E10E000E0CE15DF05D0
:101C100061F06991D601ED91FC910190F081E02D88
:101C2000C6010995080F191FF1CFC801DF91CF91A7
:101C30001F910F91FF90EF90DF90CF900895CF927A
:101C4000DF92EF92FF92CF93DF93EC010FB6F894FF
:101C5000C0900603D0900703E0900803F0900903BA
:101C60000FBEE881F9810284F385E02DCE0109954C
:101C700097FF1AC00FB6F89480910603909107035E
:101C8000A0910803B09109030FBE8C199D09AE09FC
:101C9000BF094B815C816D817E8184179507A60702
:101CA000B707F8F28FEF9FEFDF91CF91FF90EF90A2
:101CB000DF90CF900895FC0143835483658376833E
:101CC0000895AF92BF92CF92DF92EF92FF920F935F
:101CD0001F93CF93DF935C017B018B01040F151FD2
:101CE000EB016E01CE18DF08C017D10739F0C5012E
:101CF000A6DF97FF0FC081E0F5018783C601DF9162
:101D0000CF911F910F91FF90EF90DF90CF90BF90F8
:101D1000AF9008958993E5CFCF92DF92EF92FF9233
:101D20006B017C01C114D104E104F10431F067D7E7
:101D3000A7019601DDD66B017C01C701B601FF90BA
:101D4000EF90DF90CF900895CF92DF92EF92FF92C5
:101D50006B017C01C216D306E406F5065CF4CA01E9
:101D6000B9016C197D098E099F09D6DFC60ED71EF1
:101D7000E81EF91EC701B601FF90EF90DF90CF90EB
:101D8000089525D00E944E012EDDFECF1DBA10927F
:101D900068001CBC10BE1FBA10927A0010926E0030
:101DA00010926F0010927000109271001092C90092
:101DB0001092BC0011B814B817B81AB81DB810BAF0
:101DC00012B815B818B81BB81EB811BA0895F8940F
:101DD000E1E6F0E020E82083108283E084BD85BD49
:101DE000EEE6F0E080818160808391E09093800056
:101DF00082E0809381009093B0008093B100909333
:101E000090008093910086E880937A0020937B0075
:101E100010927E00B1D1789408958E3270F4E8E982
:101E2000F0E0880FE80FF11D2591E491F0E09FB7F5
:101E3000F8948181822B81839FBF0895EE3250F404
:101E4000EE0FE55DF04F0994EE3220F4EE0FE95706
:101E5000F04F09940895589AB6C0599AD0C05A9A2A
:101E600008955B9A08955C9A08955D9A08955E9A24
:101E700008955F9A0895709A0895719A0895409A06
:101E80000895419A0895429A0895439A0895449A6C
:101E9000C8C0459AC0C0469AB8C0479A0895769A75
:101EA0000895779A0895289A0895299A08952A9A64
:101EB00008952B9A08952C9A9CC02D9A88C02E9A2A
:101EC0008CC02F9A90C0109A0895119A0895129A72
:101ED0000895139A0895149A0895159A0895169AD4
:101EE0000895179A0895749A0895759A0895889A8E
:101EF0000895899A08958A9A08958B9A08958C9ADC
:101F000008958D9A08958E9A08958F9A08955898F5
:101F10005AC0599874C05A9808955B9808955C986F
:101F200008955D9808955E9808955F980895709853
:101F30000895719808954098089541980895429899
:101F400008954398089544986CC0459864C0469895
:101F50005CC04798089576980895779808952898D2
:101F60000895299808952A9808952B9808952C98F3
:101F700040C02D982CC02E9830C02F9834C0109897
:101F80000895119808951298089513980895149833
:101F900008951598089516980895179808957498B7
:101FA00008957598089588980895899808958A984D
:101FB00008958B9808958C9808958D9808958E981B
:101FC00008958F980895E4B5EF7DE4BD0895E091FC
:101FD0008000EF77E09380000895E0918000EF7D2E
:101FE000E09380000895E0918000E77FE093800017
:101FF0000895E091B000EF77E093B0000895E0918C
:10200000B000EF7DE093B0000895E0919000EF778D
:10201000E09390000895E0919000EF7DE0939000B0
:102020000895E0919000E77FE09390000895F89480
:1020300084B7877F84BF8091600080618093600057
:102040001092600080E29EE40197F1F781E08093B6
:10205000E00080E28093D80080E69AEE0197F1F7E5
:1020600095DE0C9400FEFFCFF89490DE80E69AEEA9
:102070000197F1F70C940000FFCF8F938FB78F93E8
:10208000809105038D5F8D37D0F480930503809197
:1020900006038F5F80930603D8F0809107038F4F6C
:1020A00080930703A8F0809108038F4F8093080363
:1020B00078F0809109038F4F8093090309C08D57F1
:1020C00080930503809106038E5F8093060328F7B3
:1020D00080910A038C5F80930A0358F080910B0370
:1020E0008F4F80930B0328F080910C038F4F8093C8
:1020F0000C038F918FBF8F911895CF92DF92EF9243
:10210000FF926B017C0119D09B01C114D104E10441
:10211000F10429F4FF90EF90DF90CF9008950DD057
:10212000621B730B683E734080F381E0C81AD108CC
:10213000E108F10828513C4FE8CF0FB6F89466B596
:1021400015B270910A0380910B0390910C030FBE9E
:1021500010FE05C06F3F19F07C5F8F4F9F4F112419
:102160000024660F001C660F001C702908958091E2
:10217000E80080FFFCCF08958091D80087FF02C05F
:1021800085FF1BC081E88093D70080EA8093D80048
:1021900086E189BD09B400FEFDCF80E98093D800B7
:1021A0001092E00010921D0310921C0310921B036A
:1021B0001092E1008DE08093E20008951F920F924B
:1021C0000FB60F9211240BB60F922F933F934F939C
:1021D0005F936F937F938F939F93AF93BF93EF938F
:1021E000FF939091E1001092E10093FF11C01092D3
:1021F000E90081E08093EB001092EC0082E2809392
:10220000ED0088E08093F00010921D0310921B03F4
:1022100092FF1DC080911D038823C9F08091100397
:10222000882359F0815080931003811106C084E007
:102230008093E9008AE38093E80080910F0388236C
:1022400031F0815080930F03811101C0F0DE90FFC7
:102250000CC080E18093E20010921D0381E0809326
:102260001C0380EA8093D80019BC80911C0388234A
:1022700079F094FF0DC086E189BD09B400FEFDCF61
:1022800080E98093D8008DE08093E20010921C03D7
:10229000FF91EF91BF91AF919F918F917F916F913E
:1022A0005F914F913F912F910F900BBE0F900FBEFA
:1022B0000F901F9018951F920F920FB60F92112436
:1022C0000BB60F92EF92FF920F931F932F933F93B2
:1022D0004F935F936F937F938F939F93AF93BF932E
:1022E000CF93DF93EF93FF931092E9008091E80082
:1022F00083FF20C0D091F100C091F100E090F10087
:10230000F090F1000091F1001091F1002091F100A6
:102310003091F10082EF8093E800C63009F05BC095
:10232000E4EFF0E085919591E816F90639F03596DD
:10233000C150C1F781E28093EB002BC0859195914C
:102340000817190711F03396F3CF459155918491F1
:102350002F3F310519F010F02FEF30E0821708F40D
:10236000282F3EEF8091E800982F9570D9F382FDD9
:1023700010C0822F213208F080E2982F911124C0E2
:10238000922F981B892F3093E80091111BC02032A7
:10239000C8F4FF91EF91DF91CF91BF91AF919F91E1
:1023A0008F917F916F915F914F913F912F911F91ED
:1023B0000F91FF90EF900F900BBE0F900FBE0F90FC
:1023C0001F901895282FCECFFA0145914093F10028
:1023D000AF019150D3CFC53049F48EEF8093E80020
:1023E000C6DE8E2D80688093E300D3CFC93021F5FF
:1023F000D111A0CFE0921D0310921B031092100385
:102400008EEF8093E80081E0E7EBF1E08093E90054
:1024100095919093EB00992331F095919093EC0076
:1024200095919093ED008F5F853081F78EE18093D9
:10243000EA001092EA00ADCFC83061F4D03809F05C
:1024400079CF95DE80911D038093F1008EEF80930C
:10245000E8009FCFC13279F4D13A09F06BCF87DE23
:10246000EFECF1E080818093F100319681E0E63D70
:10247000F807C1F7EBCFC03209F047C0D13209F0FD
:1024800059CF8091E80082FFFCCFEFECF1E0809122
:10249000F1008083319691E0E63DF907C1F78BEFBB
:1024A0008093E8008EEF8093E8003091CF01409157
:1024B000D0018091D1012091D20190E0B0E0A0E064
:1024C000DC0199278827942B832BB22B8638910522
:1024D000A105B10521F48FE080930F035ACF86390F
:1024E0009105A105B10509F054CF84E08093E9007E
:1024F0009FEF8091EE00837009F4B6DD9093E800C1
:102500008091E80082FDFCCFF4CFC23239F4D132A1
:1025100009F010CFE0921B032ADE98CFC33221F4DA
:10252000D13209F007CFF8CFC11111C020DED23867
:1025300049F40093E900C091EB00C5FBCC27C0F93A
:102540001092E900C093F1001092F1007FCF8C2F20
:102550008D7F813009F0EECED23009F0EBCEEF283E
:1025600009F0E8CE0F778FEF800F863008F0E2CECB
:102570008EEF8093E8000093E900C33009F4DACECF
:1025800089E18093EB0081E090E001C0880F0A951B
:10259000EAF74DCFFC018FB7F89490911D0391118C
:1025A0000CC090E08FBF2085318537FD03C09F3F71
:1025B00009F09F5F892F90E0089593E09093E900E0
:1025C0009091F2009111EECF2091E80022FFE9CF27
:1025D00025FDE7CF2BE62093E800E4CFCF93DF93F0
:1025E000EC018885998597FF09C0E881F98102840B
:1025F000F385E02DCE01099599878887888599858F
:10260000DF91CF910895FC012085318537FD07C00A
:102610004FEF5FEF51874087C901992708959FB712
:10262000F89480911D03811104C09FBF8FEF9FEF2D
:10263000089583E08093E9002BE68091E80085FD12
:1026400005C082FFF2CF2093E800F7CF8091F10020
:102650002091E80025FD03C02BE62093E8009FBFF2
:1026600090E0089580911D03882361F08FB7F8945E
:1026700094E09093E9009091F2008FBF80E4891B71
:1026800090E0089590E080E00895BF92CF92DF92AD
:10269000EF92FF920F931F93CF93DF937C01809172
:1026A0001D03811110C081E0F701828310E000E07A
:1026B000C801DF91CF911F910F91FF90EF90DF90B4
:1026C000CF90BF9008952FB7F89484E08093E900ED
:1026D00080910E03882341F08091E80085FD02C0BF
:1026E0002FBFE1CF10920E0310E000E084E0D82E5F
:1026F00090E4C92EA1EFB0E03AE3B32E33E04115E8
:10270000510509F4C0C08091E400815F9091E80018
:1027100095FD16C02FBF9091E400891306C081E09B
:1027200080930E03F7018283C3CF90911D03911113
:1027300002C081E0F7CF2FB7F894D092E900E6CF3E
:102740008091F2009C2D981B9417150611F008F04B
:10275000942FE92FF0E04E1B5F0B0E0F1F1FEB01B4
:10276000E0E4E91BE03428F4EE0FFF27E654FC4ECA
:10277000099480C099919C9399919C9399919C9371
:1027800099919C9399919C9399919C9399919C93E5
:1027900099919C9399919C9399919C9399919C93D5
:1027A00099919C9399919C9399919C9399919C93C5
:1027B00099919C9399919C9399919C9399919C93B5
:1027C00099919C9399919C9399919C9399919C93A5
:1027D00099919C9399919C9399919C9399919C9395
:1027E00099919C9399919C9399919C9399919C9385
:1027F00099919C9399919C9399919C9399919C9375
:1028000099919C9399919C9399919C9399919C9364
:1028100099919C9399919C9399919C9399919C9354
:1028200099919C9399919C9399919C9399919C9344
:1028300099919C9399919C9399919C9399919C9334
:1028400099919C9399919C9399919C9399919C9324
:1028500099919C9399919C9399919C9399919C9314
:1028600099919C9399919C9399919C9399919C9304
:1028700099919C93BE018091E80085FFB092E80099
:10288000309310033CCF2FBF13CF2FEF3FEFFC014E
:102890003187208771DC0FB6F89480910603909100
:1028A0000703A0910803B09109030FBE9C0180911A
:1028B0001D03882329F068EC70E080E090E01DCCD7
:1028C00080911C03882301F10FB6F8944091060310
:1028D0005091070360910803709109030FBE809126
:1028E0001C03882389F00FB6F89480910603909119
:1028F0000703A0910803B09109030FBE841B950B39
:102900008B3F910560F308950FB6F894809106030C
:1029100090910703A0910803B09109030FBE821B99
:10292000930B853C994008F4C2CF08958F929F92F3
:10293000AF92BF92CF92DF92EF92FF920F931F93CD
:10294000CF93DF93EC010FB6F894C0900603D090BC
:102950000703E0900803F09009030FBE41155105ED
:1029600029F18885998597FD11C0FB0180838FEF40
:102970009FEF99878887415051096F5F7F4F91E0A2
:102980004115510521F441E050E010C090E080E095
:10299000FA01492F582F13E00BE68FB7F894909166
:1029A0001D03911111C08FBF81E08F83CA01DF9198
:1029B000CF911F910F91FF90EF90DF90CF90BF903C
:1029C000AF909F908F9008951093E9009091E80048
:1029D00092FFE9CF2091F2002E171F0611F008F0A8
:1029E0002E2F362FDB019A2F931B921720F49091F4
:1029F000F1009D93F8CF30E0620F731F9091E800D3
:102A000095FF0093E8008FBF420F531FE21BF30BAB
:102A100069F20FB6F8948091060390910703A09194
:102A20000803B09109030FBE8C199D09AE09BF09B7
:102A30008B809C80AD80BE8088159905AA05BB055A
:102A400008F4ABCFB1CF8FB7F89490911D039923C1
:102A500061F090911003992341F094E09093E90084
:102A60009AE39093E800109210038FBF0895EBCF84
:102A700080911D03882329F090911B03937081E0BE
:102A800009F480E00895E1E1F3E0118610861282F6
:102A900088EE93E0A0E0B0E083839483A583B683BF
:102AA000178288E792E0918380830895A1E21A2E2D
:102AB000AA1BBB1BFD010DC0AA1FBB1FEE1FFF1FE2
:102AC000A217B307E407F50720F0A21BB30BE40B32
:102AD000F50B661F771F881F991F1A9469F7609579
:102AE0007095809590959B01AC01BD01CF01089533
:102AF000052E97FB16F400940FD057FD05D0D6DFB6
:102B000007FC02D046F408C05095409530952195B9
:102B10003F4F4F4F5F4F0895909580957095619509
:102B20007F4F8F4F9F4F0895EE0FFF1F0024001C13
:102B30000BBE0790F691E02D099409D0A59F900D4A
:102B4000B49F900DA49F800D911D11240895A29F04
:102B5000B001B39FC001A39F700D811D1124911D71
:102B6000B29F700D811D1124911D08958F929F9227
:102B7000AF92BF92CF92DF92EF92FF92CF93DF930B
:102B8000EC01688179818A819B81611571058105DC
:102B9000910521F464E279ED8BE597E02DE133EFC7
:102BA00041E050E0A5DF49015A019B01AC01A7EAD1
:102BB000B1E4C3DF6B017C01ACEEB4EFA50194017D
:102BC00075D0C60ED71EE81EF91EF7FE06C081E0BE
:102BD000C81AD108E10880E8F80AC882D982EA82D6
:102BE000FB82C701B6019F77DF91CF91FF90EF90F5
:102BF000DF90CF90BF90AF909F908F9008958F926D
:102C00009F92AF92BF92CF92DF92EF92FF9260912C
:102C10000001709101018091020190910301611501
:102C200071058105910521F464E279ED8BE597E06A
:102C30002DE133EF41E050E05BDF49015A019B0198
:102C4000AC01A7EAB1E479DF6B017C01ACEEB4EF33
:102C5000A50194012BD0C60ED71EE81EF91EF7FE63
:102C600006C081E0C81AD108E10880E8F80AC092DD
:102C70000001D0920101E0920201F0920301C7012C
:102C8000B6019F77FF90EF90DF90CF90BF90AF900D
:102C90009F908F900895609300017093010180933D
:102CA0000201909303010895B7FF47CF46DF821BCF
:082CB000930B0895F894FFCF87
:102CB8000100000000FBC013BFE607C0BFEC07C05F
:102CC800BFEE07CFEB07ECF5EA07FCB2FF0E72FC8C
:102CD800B2FF0E76FCB2FF0E77FCB2FF0E9EFDFC33
:102CE800B2FF0E73624C69DD6D4C77DD1D4C72DDF1
:102CF800294C65DD324C75DD62FCA1FF0ED5EA0773
:102D0800DFC8AFE60712ECEB070FFCB2FF0E119B12
:102D1800A793DFF6FE4C00EEE3FF118BFCA1FF0E3C
:102D2800A793DFF6EED6FF61FFFCF8FF0E8F0208CF
:102D38004C0FDD0B624CFFDF11FCC4080FEFF5628E
:102D48004CFFDF06FC04F00EEFF5C361CFC262FC56
:102D5800A1FF0EEEA7FFE5EA07EF03E5EA07FE028B
:102D680000EF9A5100FCA1FF0ED7FFFFFFFFFFFF06
:102D7800FFFFFFFFFFFFFFE00704EC00FB0FFF0072
:102D8800E100000000087500000000006500000078
:102D980000006900000000007700FC0F01010077C7
:102DA800E2FE0F0100007703080F01000077040816
:102DB8000F0200FC007700080F0800000000000464
:102DC800007700080F080300000000FC02000077ED
:102DD80000080F080400000000000100007700FC54
:102DE8000F00007700FD0F00000000FC00020077D4
:102DF80001080F01010077E2FE0F01030077E2FEF0
:102E08000F01080077E2FE0F01090077E2FE0F01CB
:102E1800040000000000E20CF70DA20CDD0C920C7F
:102E2800C50CB20C000000000E0145133213371513
:062E3800CA120313EE12A2
:00000001FF
