:1000000000800020BD0100004923000005230000FE
:100010000523000005230000052300000523000040
:1000200005230000052300000523000049230000EC
:100030004923000005230000A53E0000A93E000062
:100040004923000049230000492300004923000000
:1000500049230000492300004923000049230000F0
:1000600049230000492300004923000049230000E0
:1000700049230000492300004923000049230000D0
:1000800049230000492300004923000049230000C0
:1000900049230000492300004923000049230000B0
:1000A00049230000492300004923000049230000A0
:1000B0004923000049230000492300004923000090
:1000C0004923000049230000492300004923000080
:1000D0004923000049230000492300004923000070
:1000E0004923000049230000492300004923000060
:1000F00049230000E92D00004923000049230000A6
:10010000492300004923000049230000492300003F
:10011000492300004923000049230000492300002F
:10012000492300004923000049230000492300001F
:10013000492300004923000049230000492300000F
:1001400049230000492300004923000049230000FF
:1001500049230000492300004923000049230000EF
:1001600049230000413100004923000049230000D9
:1001700049230000492300004923000049230000CF
:1001800049230000492300004923000049230000BF
:1001900049230000492300004923000049230000AF
:1001A000492300004923000049230000492300009F
:1001B000492300004923000049230000574B4CF21B
:1001C000205210B5DA814DF62812DA8100BF00BF47
:1001D00002F0BEF8524B4FF010621A63514A9A6314
:1001E000514ADA63514A136913F4807303D153619E
:1001F0004FF4A85313614E4B9A78110703D59A78A0
:1002000042F008029A704B4B4B482A221A704B4B13
:10021000DA1C121AC11E22F00302994288BF002282
:10022000474901F09BFF474B4748DA1C121AC11E91
:1002300022F00302994288BF0022002104F0CEF987
:10024000424943484FF4DE7201F088FF414B424A75
:10025000802103F8011B9342FBD14FF0E0233C4A7D
:10026000C3F8082D3D4B8A221A70A3F5805324222F
:100270005A70A0221A709A799207FCD59A79D406FE
:10028000FCD4374B9A7902F00C02082AFAD10322E7
:100290001A7140225A719A799006FCD5304A9379A6
:1002A0005906FCD51E4B2F4959640221996420211F
:1002B0001170917901F00C010C29FAD12A4A5A6087
:1002C0004FF0E023294A5A6100229A6107221A61FD
:1002D000274AC3F8202D62B602F0B4F8134B5B69CD
:1002E000DA0705D5234802F0A1F8234B234ADA6147
:1002F000234B1B785B0609D51F4C204BE2699A42C1
:1003000004D11C4802F092F80023E36102F026F8C1
:1003100004F0CEF901F01AFFFEE700BF002005400F
:1003200000800440823F04000100002B00D0034005
:1003300000D0074000E007402087FF1F108EFF1FFE
:10034000144E00002093FF1F108EFF1F00000000BE
:100350000082FF1F00E400E05FE400E00050064080
:100360000040064000000301C0100500FF760100B8
:10037000000020209511896800E00340A5C3945A2D
:1003800000F00740FFFFFFFFFFFFFFFFFFFFFFFF42
:10039000FFFFFFFFFFFFFFFFFFFFFFFFFFFFFFFF6D
:1003A000FFFFFFFFFFFFFFFFFFFFFFFFFFFFFFFF5D
:1003B000FFFFFFFFFFFFFFFFFFFFFFFFFFFFFFFF4D
:1003C000FFFFFFFFFFFFFFFFFFFFFFFFFFFFFFFF3D
:1003D000FFFFFFFFFFFFFFFFFFFFFFFFFFFFFFFF2D
:1003E000FFFFFFFFFFFFFFFFFFFFFFFFFFFFFFFF1D
:1003F000FFFFFFFFFFFFFFFFFFFFFFFFFFFFFFFF0D
:10040000FFFFFFFFFFFFFFFFFFFFFFFFDEF9FFFF23
:100410000548064B1B1AD90F01EBA301491002D066
:10042000034B03B118477047108EFF1F108EFF1F3C
:100430000000000008B5054B1BB105490548AFF3A6
:100440000080BDE80840FFF7E3BF00BF00000000E8
:10045000108EFF1F144E000070B51A4C0D2082B094
:10046000012102F041F8261D65204FF4486501E0A6
:1004700014F8010F02F05EFB2B46013BFDD102F0A8
:1004800023FCB442F4D1013DFDD10F4C00210D20DD
:1004900002F02AF823680093009E42F2107505E0EE
:1004A00023680193019B9B1BAB4208D802F0F8FB29
:1004B0000028F5DD02F008FCC0B202B070BDEF20EC
:1004C00002B070BD804B00003C8EFF1F70B5012153
:1004D0000D20644C02F008F80D20012102F004F810
:1004E000261D69204FF4486501E014F8010F02F061
:1004F00021FB2B46013BFDD102F0E6FBB442F4D1D7
:10050000013DFDD100210D2001F0EEFF02F0DCFBEA
:10051000C0B2002840F0A380534C0D20012101F00F
:10052000E3FF661D77204FF4486501E014F8010FE2
:1005300002F000FB2B46013BFDD102F0C5FBB442AB
:10054000F4D1013DFDD100210D2001F0CDFF02F0DD
:10055000BBFBC0B2002840F08280444C0D2001213A
:1005600001F0C2FF661D77204FF4486501E014F8E2
:10057000010F02F0DFFA2B46013BFDD102F0A4FB94
:10058000B442F4D1013DFDD100210D2001F0ACFFBA
:1005900002F09AFBC0B2002861D1354C0D20012138
:1005A00001F0A2FF661D77204FF4486501E014F8C2
:1005B000010F02F0BFFA2B46013BFDD102F084FB94
:1005C000B442F4D1013DFDD100210D2001F08CFF9A
:1005D00002F07AFBC0B2002841D1264C0D20012147
:1005E00001F082FFA61D77204FF4486501E014F862
:1005F000010F02F09FFA2B46013BFDD102F064FB94
:10060000B442F4D1013DFDD100210D2001F06CFF79
:1006100002F05AFBC0B210BB174C0D20012101F0B3
:1006200063FF661D77204FF4486501E014F8010F61
:1006300002F080FA2B46013BFDD102F045FBA642B9
:10064000F4D1013DFDD100210D2001F04DFF02F05C
:100650003BFBC0B218B9BDE87040FFF7FDBEE0201B
:1006600070BD00BF884B0000904B0000984B00000D
:10067000A04B0000A84B0000584B00002DE9F041B2
:1006800082B0002701AE4FF448644FF072083A0A76
:100690003B0C80250D2001218DF804508DF8008041
:1006A0008DF801708DF802208DF803306D4601F051
:1006B0001BFF404601E015F8010F02F03BFA23460C
:1006C000013BFDD102F000FBB542F4D12346013BD2
:1006D000FDD100210D2001F007FF802502E0234617
:1006E000013BFDD102F0DCFA0028F8D002F0ECFA70
:1006F000C0B203F0BBFA013DF4D18037B7F5002F4B
:10070000C3D1284602B0BDE8F08100BF2DE9F04317
:100710004F4D89B02B680093009C42F2107605E0A3
:100720000193019B1B1BB34200F28D8003F09EF9E5
:1007300003282B68F4DD00240393CDE90444039FD0
:10074000444E0694ADF81C4006E02B680293029BD1
:10075000B268DB1B934273D204ABC4F104011819D5
:1007600003F09AF90444032CEFD99DF812009DF888
:1007700013309DF810109DF8112003EB002302EBBD
:1007800001229BB292B201339A424FEA82274FEA8A
:10079000832949D20DF115064FF000084FF4486443
:1007A00072213A0A3B0C80258DF810100D20012192
:1007B000CDF81480CDF818808DF81450ADF81C8059
:1007C0008DF811708DF812208DF8133001F08CFE29
:1007D00004AD15F8010B02F0ADF92346013BFDD144
:1007E00002F072FAB542F4D12346013BFDD100215B
:1007F0000D2001F079FE802502E02346013BFDD16A
:1008000002F04EFA0028F8D002F05EFAC0B203F00F
:100810002DFA013DF4D18037B945C1D803F026F94E
:10082000002805DD03F0E6F803F020F90028F9DCE4
:1008300000210D2001F058FE002009B0BDE8F08332
:100840000123337391E7EB2009B0BDE8F08300BFCB
:100850003C8EFF1F1888FF1F2DE9F04F624D89B0B5
:100860002B680093009C42F2107605E00193019BF7
:100870001B1BB34200F2AA8003F0F8F803282B6890
:10088000F4DD00240393CDE90444039E574F0694FE
:10089000ADF81C4007E02B680293029BBA689B1BD3
:1008A000934280F09D8004ABC4F10401181903F059
:1008B000F3F80444032CEED99DF812009DF8133090
:1008C0009DF810109DF8112003EB002302EB01228C
:1008D0009BB292B201339A424FEA82264FEA832AB0
:1008E0006FD2434B434D03F108080D20012101F065
:1008F000FBFD414FC6F3072BC6F3074977204FF4A2
:10090000486401E017F8010F02F014F92346013B97
:10091000FDD102F0D9F9AF42F4D1013CFDD1002163
:100920000D2001F0E1FD02F0CFF910F0FF0352D1EC
:100930002F4A059392E8030004908DF8141098E86C
:100940000300ADF81C3006908DF81C100D2001211D
:100950008DF816B08DF8179001F0C6FD04AC0DF1BE
:100960001D0B4FF4486914F8010B02F0E3F84B46F5
:10097000013BFDD102F0A8F95C45F4D14B46013BA7
:10098000FDD100210D2001F0AFFD02F09DF9C0B2B4
:1009900008BBFFF761FD0346A0B903F067F9B9F1A1
:1009A0000109FCD101E003F025F803F05FF800280D
:1009B000F9DC00210D2006F5806601F095FDB245B9
:1009C00093D80023184609B0BDE8F08FEB231846F2
:1009D00009B0BDE8F08FE423184609B0BDE8F08FF8
:1009E00001233B7368E700BF3C8EFF1F1888FF1F81
:1009F000B04B0000654B0000604B00002DE9F04F4C
:100A0000634D89B02B680093009C42F2107605E09C
:100A10000193019B1B1BB34200F2AB8003F026F84D
:100A200003282B68F4DD00240393CDE90444039EDE
:100A3000584F0694ADF81C4007E02B680293029BC8
:100A4000BA689B1B934280F0988004ABC4F1040108
:100A5000181903F021F80444032CEED99DF8120074
:100A60009DF813309DF810109DF8112003EB002322
:100A700002EB01229BB292B201339A424FEA8226E4
:100A80004FEA832A71D2444B444D03F108080D20EC
:100A9000012101F029FD424FC6F3072BC6F3074998
:100AA00077204FF4486401E017F8010F02F042F894
:100AB0002346013BFDD102F007F9AF42F4D1013CDE
:100AC000FDD100210D2001F00FFD02F0FDF810F026
:100AD000FF0355D1304A059392E8030004908DF846
:100AE000141098E80300ADF81C3006908DF81C1027
:100AF0000D2001218DF816B08DF8179001F0F4FC4F
:100B000004AC0DF11D0B4FF4486914F8010B02F011
:100B100011F84B46013BFDD102F0D6F8A345F4D1C4
:100B2000B9F10109FCD100210D2001F0DDFC02F03A
:100B3000CBF8C0B240BBFFF78FFC08B11B2815D122
:100B400003F094F84FF44863013BFDD101E002F05B
:100B500051FF02F08BFF0028F9DC00210D2006F583
:100B6000806601F0C1FCB24591D8002009B0BDE813
:100B7000F08FEB2009B0BDE8F08F01233B736DE7E8
:100B8000E82009B0BDE8F08FE42009B0BDE8F08F9F
:100B90003C8EFF1F1888FF1FB04B00006D4B0000FC
:100BA000684B00002DE9F041584F0D2082B0012123
:100BB00001F09AFC7E1D3C4677204FF4486501E029
:100BC00014F8010F01F0B6FF2B46013BFDD102F0F6
:100BD0007BF8B442F4D1013DFDD100210D2001F09C
:100BE00083FC02F071F810F0FF0340F08980484C5C
:100BF000ADF804300D2001218DF8063004F10C0809
:100C000001F072FC4FF44865772001E014F8010F01
:100C100001F090FF2B46013BFDD102F055F8444511
:100C2000F4D1013DFDD100210D2001F05DFC02F069
:100C30004BF8C0B200285ED1FFF70EFC0446002836
:100C40005AD102F041F85FFA80F88DF8048002F082
:100C50003BF80121C5B20D208DF805504FF44864D2
:100C600001F042FC772001E017F8010F01F062FF6C
:100C70002346013BFDD102F027F8B742F4D1013CF5
:100C8000FDD100210D2001F02FFC02F01DF8C0B2B3
:100C9000002835D11F4C0D20012101F025FC04F165
:100CA0000C0777204FF4486601E014F8010F01F0BB
:100CB00041FF3346013BFDD102F006F8A742F4D1D3
:100CC000013EFDD100210D2001F00EFC01F0FCFFE2
:100CD000C0B280B9FFF7C0FB044668B901F0F4FF69
:100CE0000646404602F0C2FF284602F0BFFFF0B2BF
:100CF00002F0BCFF00E0E424204602B0BDE8F08131
:100D0000E824204602B0BDE8F08100BF704B00002F
:100D1000C04B0000D04B00002DE9F04FA04CADF2CD
:100D2000444D00214FF47F7211A8CDE90C110E91B2
:100D30008DF83C10109103F051FC23680493049E3D
:100D400042F2107506E023680593059B9B1BAB429E
:100D500000F2EE8102F08AFE0128F4DD2368099397
:100D60000025CDE90C55099E8E4F0E958DF83C500F
:100D700007E023680893089BBA689B1B934280F0A6
:100D8000E3810CABC5F10201581902F085FE054460
:100D9000012DEED99DF83030019301219DF83130BD
:100DA00002930D2001F0A0FB23680693069FDFF855
:100DB000F481002544F620660EE023680793079B24
:100DC000DB1BB34200F2BA8102F050FE1FFA80F939
:100DD000B9F1000F40F0BB81B5F5806FEDD3724FD4
:100DE0000D20012101F080FB3C1D3D4677204FF492
:100DF000486601E015F8010F01F09CFE3346013B07
:100E0000FDD101F061FFA542F4D1013EFDD10021E9
:100E10000D2001F069FB0DF13F050DF23F194FF474
:100E2000486815F8010F01F085FE4346013BFDD1EE
:100E300001F04AFF4D45F4D101F00EFFB8F1010871
:100E4000FCD101F041FFC0B2002840F0A981DFF8D9
:100E50005CA10D20012101F047FB0AF10405564673
:100E600077204FF4486801E016F8010F01F062FEA8
:100E70004346013BFDD101F027FFAE42F4D1B8F16A
:100E80000108FCD100210D2001F02EFB0DF23F26C0
:100E90004FF4486819F8010F01F04CFE4346013B3E
:100EA000FDD101F011FFB145F4D101F0D5FEB8F14B
:100EB0000108FCD101F008FFC0B2002840F07D819C
:100EC000DFF8EC90CDF80C900D20012101F00CFB27
:100ED00009F1050877204FF4486601E019F8010F81
:100EE00001F028FE3346013BFDD101F0EDFEC14586
:100EF000F4D1013EFDD100210D2001F0F5FA01F001
:100F0000E3FE10F0FF0040F05181019A029B8DF842
:100F1000350003EB02239BB29A008DF836209A0924
:100F20009B0201930CAB02939B46224B8DF837201A
:100F300093E8030040330C908DF8341093E80300DD
:100F40000E908DF83C100D2001210DF13D094FF45C
:100F5000486601F0C9FA1BF8010B01F0EBFD3346BE
:100F6000013BFDD101F0B0FECB45F4D1013EFDD1F6
:100F700000210D2001F0B8FA01F0A6FEC0B2002851
:100F800040F01481FFF768FA0646002840F0D1804F
:100F90000D20012101F0A8FA4FF4486677200DE0FA
:100FA0003C8EFF1F1888FF1FE04B0000E84B00003D
:100FB000784B0000B04B000017F8010F01F0BAFDAC
:100FC0003346013BFDD101F07FFEA742F4D1013E43
:100FD000FDD100210D2001F087FA0DF23F270DF21F
:100FE0003F364FF4486417F8010F01F0A3FD234684
:100FF000013BFDD101F068FEB742F4D101F02CFEB7
:10100000013CFDD101F060FEC0B2002840F0C88074
:101010000D20012101F068FA4FF44864772001E0C7
:101020001AF8010F01F086FD2346013BFDD101F0C6
:101030004BFEAA45F4D1013CFDD100210D2001F069
:1010400053FA0DF23F440DF23F364FF4486516F85F
:10105000010F01F06FFD2B46013BFDD101F034FE85
:10106000A642F4D101F0F8FD013DFDD101F02CFEC6
:10107000C0B2002840F0A1800D20012101F034FA17
:101080004FF44864039D772001E015F8010F01F04B
:1010900051FD2346013BFDD101F016FE4545F4D13B
:1010A000013CFDD100210D2001F01EFA01F00CFEE3
:1010B00010F0FF007AD1424A8DF8350092E8030023
:1010C0004032019B8DF834100C9092E8030003F538
:1010D00000731A0A0E908DF83C101B0C01210D2094
:1010E0008DF836208DF8373001F0FEF9029D4FF46F
:1010F000486415F8010B01F01DFD2346013BFDD1AD
:1011000001F0E2FD4D45F4D1013CFDD100210D205F
:1011100001F0EAF901F0D8FDC0B2002846D1FFF78E
:101120009BF9064628B901460D2001F0DDF900E0E3
:10113000EB2630460DF2444DBDE8F08FEC263046EC
:101140000DF2444DBDE8F08F01233B7322E615FA02
:1011500080F0B0F5806F1CDC1FFA80FB23680B93D6
:10116000DDF82CA0002608E023680A930A9BD8F833
:101170000820A3EB0A0393421AD2A81910ABA9EBDB
:101180000601184402F088FC0644B145ECD85D46DF
:1011900010E6C5F580691FFA89F94FF4806BDDE729
:1011A000E12630460DF2444DBDE8F08FE626C0E75B
:1011B000012388F80C305D46FCE5E226B9E700BF64
:1011C000B04B00002DE9F04F994DADF24C4D002190
:1011D0004FF47F7213A8CDE90E1110918DF84410D1
:1011E000129103F0FBF92B680693069E42F21074ED
:1011F00006E02B680793079B9B1BA34200F2B68275
:1012000002F034FC0128F4DD2B680B930024CDE9B7
:101210000E440B9E874F10948DF8444007E02B68D6
:101220000A930A9BBA689B1B934280F0AD820EAB77
:10123000C4F10201181902F02FFC0444012CEED96C
:101240009DF83830009301210D209DF83990DFF88A
:10125000E48101F049F92B680893089F002444F6C3
:1012600020660EE02B680993099BDB1BB34200F25A
:10127000848202F0FBFB1FFA80FABAF1000F40F003
:101280008682B4F5806FEDD36B4C0D20012101F007
:101290002BF9661D77204FF4486501E014F8010F23
:1012A00001F048FC2B46013BFDD101F00DFDB4429D
:1012B000F4D1013DFDD100210D2001F015F901F01F
:1012C00003FD10F0FF0040F08C825C4D8DF83D0076
:1012D00095E80300009B0E9005F1080709EB032930
:1012E0008DF83C1097E803001FFA89F3C3F38712C7
:1012F0009E009B02F6B2019310900EAB8DF8441045
:101300000D2001218DF83E6000928DF83F20029360
:101310000DF145049A464FF4486801F0E5F81AF8D3
:10132000010B01F007FC4346013BFDD101F0CCFC71
:10133000A245F4D1B8F10108FCD100210D2001F043
:10134000D3F801F0C1FCC0B2002840F05282FFF790
:1013500083F8824600285DD01B2840F00982DFF820
:10136000E0B00D20012101F0BFF80BF1050A772054
:101370004FF4486801E01BF8010F01F0DBFB434626
:10138000013BFDD101F0A0FCD345F4D1B8F1010837
:10139000FCD100210D2001F0A7F801F095FC10F020
:1013A000FF0040F026828DF83D0095E803000E9086
:1013B0008DF83C1097E80300009B10908DF84410C6
:1013C0000D2001218DF83E608DF83F300DF1380A77
:1013D0004FF4486801F088F81AF8010B01F0AAFBF5
:1013E0004346013BFDD101F06FFCA245F4D1B8F1B9
:1013F0000108FCD100210D2001F076F801F064FC19
:10140000C0B2002840F0F581FFF726F88246002898
:1014100040F0AE810B4B03931F460D20012101F0DC
:1014200063F83B469A46043777204FF448680DE04E
:101430003C8EFF1F1888FF1F684B0000B04B000058
:10144000604B0000E04B00001AF8010F01F072FB46
:101450004346013BFDD101F037FCBA45F4D1B8F168
:101460000108FCD100210D2001F03EF80DF1470BE1
:101470000DF247184FF4486A1BF8010F01F05AFBB0
:101480005346013BFDD101F01FFCC345F4D101F0EF
:10149000E3FBBAF1010AFCD101F016FCC0B200284E
:1014A00040F0AA81DFF814B2CDF810B00D20012170
:1014B00001F01AF80BF1040977204FF4486A01E0B3
:1014C0001BF8010F01F036FB5346013BFDD101F043
:1014D000FBFBCB45F4D1BAF1010AFCD100210D2070
:1014E00001F002F80DF2472B4FF4486A18F8010F8B
:1014F00001F020FB5346013BFDD101F0E5FBD8454F
:10150000F4D101F0A9FBBAF1010AFCD101F0DCFB36
:10151000C0B2002840F07681DFF8A481CDF81480B5
:101520000D20012100F0E0FF08F1050B77204FF4BA
:10153000486A01E018F8010F01F0FCFA5346013B3C
:10154000FDD101F0C1FBC345F4D1BAF1010AFCD1D0
:1015500000210D2000F0C8FF01F0B6FB10F0FF00E5
:1015600040F04D818DF83D0095E80300DFF854B15F
:101570000E908DF83C109BE80300009B10908DF8B6
:1015800044100D2001218DF83E608DF83F300DF1A3
:10159000380A4FF4486600F0A7FF1AF8010B01F073
:1015A000C9FA3346013BFDD101F08EFBA245F4D1CF
:1015B000013EFDD100210D2000F096FF01F084FBDB
:1015C000C0B2002840F01B81FEF746FF824600288B
:1015D00040F0CE800D20012100F086FF4FF44866D8
:1015E000DDF80CA0772001E01AF8010F01F0A2FA53
:1015F0003346013BFDD101F067FBBA45F4D1013E12
:10160000FDD100210D2000F06FFF0DF2472A0DF2F1
:1016100047374FF448661AF8010F01F08BFA33464A
:10162000013BFDD101F050FBBA45F4D101F014FBB0
:10163000013EFDD101F048FBC0B2002840F0DC8043
:101640000D20012100F050FF4FF44866049F7720E1
:1016500001E017F8010F01F06DFA3346013BFDD1AF
:1016600001F032FB4F45F4D1013EFDD100210D20A8
:1016700000F03AFF0DF247460DF2473A4FF4486743
:101680001AF8010F01F056FA3B46013BFDD101F07B
:101690001BFBB245F4D101F0DFFA013FFDD101F0AF
:1016A00013FBC0B2002840F0AD800D20012100F0F6
:1016B0001BFF4FF44866059F772007E0E84B0000CA
:1016C000784B0000F04B000017F8010F01F032FAE0
:1016D0003346013BFDD101F0F7FA4745F4D1013E15
:1016E000FDD100210D2000F0FFFE01F0EDFA10F019
:1016F000FF0040F084808DF83D0095E80300019BD9
:101700008DF83C100E909BE8030003F500731A0A55
:1017100010908DF844101B0C01210D208DF83E20F7
:101720008DF83F3000F0E0FE029E4FF4486516F859
:10173000010B01F0FFF92B46013BFDD101F0C4FA8A
:10174000A642F4D1013DFDD100210D2000F0CCFED8
:1017500001F0BAFAC0B2002851D1FEF77DFE8246F0
:1017600030B901460D2000F0BFFE01E04FF0EB0A5A
:1017700050460DF24C4DBDE8F08F4FF0EC0A50464C
:101780000DF24C4DBDE8F08F01233B7358E514FA80
:1017900080F0B0F5806F1CDC83B201932B680D9351
:1017A0000D9E4FF0000B07E02A680C920C9AD8F8B7
:1017B0000810921B8A4217D204EB0B0012ABAAEB63
:1017C0000B01184402F068F98344DA45ECD8019C17
:1017D00045E5C4F5806A4FF480631FFA8AFA0193E5
:1017E000DCE74FF0E80AC3E70123019C88F80C30DE
:1017F00035E54FF0E40ABBE74FF0E10AB8E74FF0F8
:10180000E60AB5E74FF0E20AB2E700BF2DE9F04380
:10181000574F584D83B04FF0000901210D20CDF8EE
:1018200000908DF8049000F05FFE4FF4FA514FF4F1
:10183000FA6000F059FC08218046012000F054FCB9
:1018400049460646052000F04FFE4FF4A063013BD9
:10185000FDD101F039F8052000F0A8FE0121052096
:1018600000F042FE052000F0A1FE4FF4E1313846C1
:1018700000F086FB6423BB60012000F097FE2B780C
:10188000C5203B3B4FF448642B7001F053F92346CD
:10189000013BFDD12B78012001332B7001F04AF977
:1018A0002346013BFDD10320287001F043F9234674
:1018B000013BFDD12B789A20663B2B7001F03AF961
:1018C0002346013BFDD1484601F034F92346013B54
:1018D000FDD12B78142014332B7001F02BF9234603
:1018E000013BFDD12B785842C0B2C31A2B7001F0D6
:1018F00021F9013CFDD101E001F0E6F901F0D0F958
:101900000028F9DC2B78032003444FF448642B7043
:1019100001F010F92346013BFDD101F0D5F9052274
:101920006946384600F0C4FB9DF80230062B32D0E1
:10193000102B40F0F8805FEA481802D0B8F1010897
:10194000FCD10021042000F0CFFD760101D0013E42
:10195000FDD10121042000F0C7FD01E001F0B4F940
:1019600001F09EF90028F9DC40F2E734A02609E0F6
:10197000EC87FF1F298EFF1F3346013BFDD1013C41
:101980003FF449AF01F08CF90028F5DD01F09CF936
:10199000C0B20228F0D1052000F008FE2B7891207B
:1019A0006F3B4FF448662B7001F0C4F83346013B9F
:1019B000FDD13A24012000F0F9FD20462C7001F001
:1019C000B9F83346013BFDD12B784E2003442B70F0
:1019D00001F0B0F83346013BFDD12B786F20034472
:1019E0002B7001F0A7F83346013BFDD12B78742012
:1019F00003442B7001F09EF83346013BFDD12B7858
:101A0000204623442B7001F095F83346013BFDD16D
:101A10002B78552003442B7001F08CF83346013BA2
:101A2000FDD12B78732003442B7001F083F83346EB
:101A3000013BFDD12B78652003442B7001F07AF82F
:101A40003346013BFDD12B78642003442B7001F019
:101A500071F83346013BFDD12B78204623442B708F
:101A600001F068F83346013BFDD128780138C0B257
:101A700043002B7001F05EF83346013BFDD101209D
:101A800000F094FD2B7893206D3B2B7001F052F801
:101A90003346013BFDD10120284C00F087FD04F1C5
:101AA000C3072B7814F8010F03442B7001F042F8A0
:101AB0003346013BFDD1BC42F3D1012000F076FD5D
:101AC0002B7893206D3B2B7001F034F8013EFDD153
:101AD00001201B4C00F06AFDE71D4FF448662B788F
:101AE00014F8010F03442B7001F024F83346013B36
:101AF000FDD1A742F3D1012000F058FD942001F060
:101B000019F8052000F052FD01E001F0DDF801F0C8
:101B1000C7F80028F9DC0D20002100F0E5FC0120C9
:101B200003B0BDE8F0832B78EE20123B2B7001F060
:101B300001F8013CFDD10020F2E700BF2787FF1F1D
:101B40001F87FF1F2DE9F043012183B00D2000F016
:101B5000CBFCB74DB74EB84F01F088FF002800F01E
:101B60009D8001F047FFC0B20128287010D91028CD
:101B700000F09780202853D0802800F04681F0287C
:101B800000F030813B78002B00F05E812028E3D804
:101B90002028E1D801A353F820F000BFDD1D00008C
:101BA000B11D0000AB1D0000A51D00007B1D000045
:101BB000591B0000511D0000271D0000FD1C0000E6
:101BC000591B0000D31C0000591B0000591B0000CA
:101BD000591B0000591B0000591B0000A31C0000EA
:101BE000591B0000591B0000591B0000591B000025
:101BF000591B0000591B0000591B0000591B000015
:101C0000591B0000591B0000591B0000591B000004
:101C1000591B0000591B0000591B0000211C00002B
:101C200001210D20854C00F05FFC0D20012100F00A
:101C30005BFC04F1040975204FF4486801E014F8D6
:101C4000010F00F077FF4346013BFDD101F03CF866
:101C50004C45F4D1B8F10108FCD100210D2000F071
:101C600043FC01F031F810F0FF0018BFE0203070A5
:101C700001F0FCFF4FF44863013BFDD101E001F0AE
:101C8000B9FE01F0F3FE0028F9DC00210D2000F080
:101C90002BFC01F0EBFE00287FF463AF03B0BDE83E
:101CA000F0833C7800203070002C00F0BA8001F006
:101CB000DDFF4FF44863013BFDD101E001F09AFEE6
:101CC00001F0D4FE0028F9DC00210D2000F00CFC0E
:101CD000DFE7FEF767FF307001F0C8FF4FF448639D
:101CE000013BFDD101E001F085FE01F0BFFE0028BF
:101CF000F9DC00210D2000F0F7FBCAE7FEF77EFEBD
:101D0000307001F0B3FF4FF44863013BFDD101E0B7
:101D100001F070FE01F0AAFE0028F9DC00210D2080
:101D200000F0E2FBB5E7FFF74DFA307001F09EFFDF
:101D30004FF44863013BFDD101E001F05BFE01F08F
:101D400095FE0028F9DC00210D2000F0CDFBA0E776
:101D5000FEF7E2FF307001F089FF4FF44863013B6A
:101D6000FDD101E001F046FE01F080FE0028F9DC23
:101D700000210D2000F0B8FB8BE7FEF76DFD307001
:101D800001F074FF4FF44863013BFDD101E001F025
:101D900031FE01F06BFE0028F9DC00210D2000F07F
:101DA000A3FB76E7FEF76AFCD6E6FEF7AFFCD3E6C8
:101DB000012002F047F9224C804602F04BF901ABBA
:101DC000A3EB08032380052001F050FF2088000AC0
:101DD00001F04CFF207801F049FFBDE6022001F040
:101DE00045FFB9E6012002F02DF9154C804602F0BE
:101DF00031F901ABA3EB08030220238001F036FF89
:101E0000052001F033FF3220DEE700210D2000F035
:101E10006BFB4FF4FA7000F0C9FB0A4B1B68984744
:101E20009AE6FFF7F3FC307008BBE12030703EE724
:101E3000288EFF1F348EFF1F2C8EFF1FF84B0000D3
:101E40002A8EFF1F308EFF1FE02001F00FFF4FF49E
:101E50004863013BFDD101E001F0CCFD01F006FE3D
:101E60000028F9DC00210D2000F03EFB11E7FEF711
:101E70002DFB307010B901233B7018E73C7016E75A
:101E80002DE9F843314F324D324CDFF8CC903846D3
:101E90004FF4E13100F074F86423BB602E682F4FDB
:101EA00040F2EE2801F064FF2378002B40D03B780D
:101EB000DA073DD52B68D9F800209B1A0E2B37D9AD
:101EC00001210D2000F036FB0121052000F032FB3E
:101ED0000121042000F02EFB0121084600F02AFB1E
:101EE0000021084600F026FB0021052000F0FCFA46
:101EF0000021012000F0F8FA0021084600F0F4FA71
:101F00000121042000F0F0FA01F032FF2378002BC9
:101F1000FAD03B78DB07F7D52B68D9F800209B1A5D
:101F20000E2BF1D9BDE8F84301210D2000F0DCBAF9
:101F30002B6822789B1B2AB1B3F5FA6FC0D801F049
:101F400017FFAFE74345FAD9BAE700BFEC87FF1F99
:101F50003C8EFF1FC08FFF1FE88FFF1FE48FFF1F06
:101F60000368C9B21B6818470368C9B21B681847E1
:101F70000368C9B21B6818470368C9B21B681847D1
:101F80004B0803F1376303F5D83310B50446B3FBB0
:101F9000F1F000F0CDFB044B1B7803B110BD2046DF
:101FA000BDE8104001F088BF1588FF1F08B508463E
:101FB00000F0C0FD012008BD08B5084600F0BAFDDC
:101FC000012008BD38B508460D4602F099FB0446CD
:101FD0000146284600F0B8FD204638BD10B5084639
:101FE0001446114600F0B0FD204610BD08461146CB
:101FF00000F0D8BF0846114600F0B8BF00F0D0BED0
:1020000008B5084600F06CFD003818BF012008BD77
:1020100008B5084600F042FD003818BF012008BD91
:102020000846114600F0D2BC084600F00DBD00BFC6
:10203000084600F0AFBC00BF00F046BC10B54B082E
:1020400003F13763144603F5D833B3FBF1F000F026
:102050006FFB2046BDE8104000F0D8BB00F07ABE10
:1020600000F032BE00F01CBE00F0F6BD00F000BE75
:1020700070B50E4D82B02B680093009E044608E0B8
:1020800001F076FE2B680193019BA2689B1B934293
:1020900007D2236820465B6998470028F0DB02B02E
:1020A00070BD4FF0FF3002B070BD00BF3C8EFF1F0F
:1020B000F8B50D4691B116469AB10746002404E0E2
:1020C0000134A64205F8010B06D03846FFF7D0FFD1
:1020D0000028F5DA01233B732046F8BD0C46204664
:1020E000F8BD1446F8E700BF884200DB704770B4C3
:1020F000114C2268091AEAB1104B114E114D83FBA5
:10210000023C9444D317C3EB2C4306FB132244F246
:10211000A71C05FB03F30CFB0233002B02DA03F1CF
:102120000043013BB3FBF1F201FB12322360104488
:1021300070BC7047044BF5E7388EFF1F5F0B4E8372
:102140001DF30100ECF4FFFF42CE0C1F08B5FFF7B2
:1021500097FEFFF7F7FC01F00BFEFAE701B441EA46
:10216000000313F003036FD1403A41D351F8043B0D
:1021700040F8043B51F8043B40F8043B51F8043B61
:1021800040F8043B51F8043B40F8043B51F8043B51
:1021900040F8043B51F8043B40F8043B51F8043B41
:1021A00040F8043B51F8043B40F8043B51F8043B31
:1021B00040F8043B51F8043B40F8043B51F8043B21
:1021C00040F8043B51F8043B40F8043B51F8043B11
:1021D00040F8043B51F8043B40F8043B51F8043B01
:1021E00040F8043B51F8043B40F8043B403ABDD270
:1021F000303211D351F8043B40F8043B51F8043B12
:1022000040F8043B51F8043B40F8043B51F8043BD0
:1022100040F8043B103AEDD20C3205D351F8043BA0
:1022200040F8043B043AF9D204320AD0D2071CBF6A
:1022300011F8013B00F8013B03D30B7803704B7896
:10224000437001BC704700BF0C2A4AD310F003034F
:1022500011D0C3F10403D21ADB071CBF11F8013BF4
:1022600000F8013B07D311F8013B00F8013B11F8DE
:10227000013B00F8013B11F003033FF475AF30B4AC
:10228000043AC91AC3F1040C51F8044B022B19D0BB
:10229000032B0BD0240A51F8043B1D0644EA050425
:1022A00040F8044B1C46043AF4D216E0240E51F8D0
:1022B000043B1D0244EA050440F8044B1C46043A62
:1022C000F4D20AE0240C51F8043B1D0444EA05044E
:1022D00040F8044B1C46043AF4D20432B1EB0C0132
:1022E00030BC043AA0D3013A11F8013B00F8013B9D
:1022F000F9D20B7803704B7843708B78837001BCF4
:10230000704700BF08B50F4C636B58030DD4636B67
:1023100059050FD4636B1A0511D4636BDB04F3D535
:1023200000F012F8636B5803F1D500F009FF636BFE
:102330005905EFD500F058FD636B1A05EDD500F097
:1023400003F8EAE70080044008B5FFF7DBFF00BFB1
:10235000014B10221A80704700200540704700BFD3
:10236000094A08B50346106833B169460344A1F52C
:1023700080518B4201D2136008BD02F093F90C2307
:1023800003604FF0FF3008BD0088FF1FEFF3138399
:10239000CBB9EFF31080A0B9EFF3058343B94FF445
:1023A0008070EFF311835BB1984228BF18467047E5
:1023B0000F2BF6D9054AD05CEFF31183002BF3D134
:1023C0007047184670474FF0FF307047F0E300E069
:1023D00001F1FF3C70B56546002401E07046013410
:1023E000B0FBF2FE02FB1E03092B03F130068ABF8D
:1023F0003733F3B2DBB2904205F8013FEED2631CF3
:102400000022CA54C8187CB162461CF8015F10F85B
:1024100001ED8CF800E0A1EB0C030232013B521AF3
:1024200023449A420570EFDB084670BD034B00223F
:1024300010215A615A6018605961704700D00340FA
:10244000704700BFF0B54FF0E0244FF400054FF0A7
:10245000807CC4F80851C4F808C14FF0007CC4F86F
:1024600008C11D4A1D481E494FF0806CC4F808C1C0
:10247000282300274BF6FF7609254FF0006CC4F89F
:1024800008C183B057609660D3605361D3615362D3
:10249000D3625363D3635364156047608660C3603F
:1024A000436105604F608E60CB604B610D6001F051
:1024B0002BFDFFF7C5FF0B4C23680093009B132BEC
:1024C000FAD901F0F7F923680193019BB3F5967FE0
:1024D000F9D303B0F0BD00BF00800340009003407B
:1024E00000800B403C8EFF1F212816D810B4104BE3
:1024F00053F8302092F880422CB1012371B982F850
:10250000003110BC704703EBC0035B681A6849B127
:1025100042F0030210BC1A607047704782F88030A6
:1025200010BC704722F0020210BC1A60704700BF56
:10253000684C0000212820D81B4A02EBC003012967
:102540005B680FD004291DD052F83000002280F8BB
:10255000802299B1022922D003290DD14FF4817232
:102560001A60704752F830004FF4A27280F880125F
:102570001A601A6822F020021A6070474FF48072C5
:102580001A60704752F830104FF4A272012081F89F
:1025900080021A601A6842F020021A60704740F206
:1025A00003121A60704700BF684C00002DE9F84321
:1025B000044672B6204F4FF0E02293693D68D2F88E
:1025C000042D62B6520102D5322B88BF01350CB9F9
:1025D000BDE8F883DFF86490DFF86480A9EB0303BB
:1025E000A8FB03234FF47A7202FB05F505EB931564
:1025F0004FF0E02672B6B1693A68D6F804CD62B6FB
:10260000A9EB0103A8FB03031CF0806FC5EB931338
:102610004FF47A7002D0322988BF013200FB0233B6
:10262000B3F57A7F04D3013CD2D005F57A75E1E7A2
:1026300001F09EFBDEE700BF3C8EFF1FFF7601002E
:10264000ABAAAAAA2DE9F84F314B1B6807460BB17C
:1026500001221A70DFF8BC90DFF8BC8099F80040C6
:10266000D8F800302D4D01349C422B782AD303F04A
:10267000FF0A002B3ED15446294EDFF8A8B005E0F2
:1026800033791B0623D42B78A3420AD1FFF77EFEB1
:102690004028F5DDFF28F6DD01F06AFB2B78A34228
:1026A000F4D03F2C29D9204B403C1B68FFB21F556A
:1026B0001E4A1B4B01211170BC2289F800A0DA7060
:1026C000BDE8F88F9C425FFA84FAD5D0E9E72B7811
:1026D000D8F800105A1C8A42DBB203D23F2A10D825
:1026E000D1B201E000210A461BF80230DBB2F371DF
:1026F0002970C8E74FF0000A54460A4BFFB21F5535
:10270000D6E7D1B2084A3F3B1268D35CDBB2EEE7B2
:10271000908EFF1FD88EFF1F1088FF1FE08EFF1FB7
:1027200000A00640988EFF1FDC8EFF1F948EFF1FB7
:102730002A4A2B49536B70B443F48063294D536389
:1027400000232B70284E0B70284C294923703278B7
:102750000B7028490B709AB3152A03D1264B40F20F
:1027600013329A61254B1B78012B31D0052B03D1F5
:10277000214B4FF45172DA612028214B214C38BF94
:102780002020C0F3443C83F800C0C0F3471C00F095
:102790001F0083F801C00422987202209A70D87436
:1027A00088205A754FF0E021187440223C20D870E0
:1027B00084F82D204FF4005370BCC1F804317047E9
:1027C000114B40F213321A640C4B1B78012BCDD104
:1027D0000D4B4FF451725A64CEE700BF00800440A5
:1027E0008C8EFF1F848EFF1F8D8EFF1FD88EFF1FC4
:1027F000E08EFF1F948EFF1F00C004401488FF1F4F
:1028000000A0064000E400E000A00440294B294954
:102810009B7800F0030203F0EC031343420700F03F
:102820000F0248BF43F01003042A8B7003D18B7949
:1028300043F040038B711F4B5A79C30602F0EF023D
:102840001C4B48BF42F010025A719A79810602F07F
:10285000EF0211D542F0100281059A710FD59A78D6
:10286000154942F0A0029A700978144B03EBC1039A
:1028700040F246325B6814E09A71820505D4104B31
:10288000104A1968914211D070479A780A4942F06B
:10289000A0029A700978094B03EBC10340F247325A
:1028A0005B68074907481A600860704700221A6091
:1028B000704700BF00A006401488FF1F684C00004E
:1028C000908EFF1FD400D442284B5B6B5B054CD528
:1028D00010B5274C237823B101F04AFA2378002B56
:1028E000FAD1244A244B4FF0E0204FF40054002149
:1028F000C0F88441D1701B7863B3152B1BD01F4BDC
:102900001B7803F07F03012B1FD0052B0ED01C4B2F
:10291000184A1C4C1C48196892F804C0D27900234C
:102920002370037009B101230B7010BD174B40F2E7
:102930000312DA61EBE7154B40F203129A610F4B79
:102940001B7803F07F03012BDFD1114B40F2031200
:102950005A64DCE70E4B40F203121A64074B1B78F3
:1029600003F07F03012BD0D1EFE7704700800440D4
:10297000948EFF1F00A006408D8EFF1F1488FF1F3E
:10298000408EFF1F848EFF1F8C8EFF1F00C00440EF
:1029900000A004400A4A38B50546137803F0FF0446
:1029A000002BFAD101212846FFF7C4FD2146284615
:1029B000FFF79AFD034A044B52F835201A6038BDE0
:1029C000948EFF1F684C0000908EFF1F09B140F0ED
:1029D0008000194A1378834217D010B4174C646BE7
:1029E00064050FD503F07F03012B21D0052B14D0F4
:1029F000002900F07F0314BF60214421012B10D077
:102A0000052B03D0107010BC704770470C4B41F47D
:102A10004071D961107010BC7047094B0024DC6113
:102A2000E6E7084B41F440715964107010BC7047E0
:102A3000044B00245C64DBE71488FF1F0080044023
:102A400000C0044000A00440104A137883420AD01A
:102A50000F49496B490505D5ABB1152B09D068B1B4
:102A6000152801D0107070470A4B40F2133199615C
:102A7000F8E7084B002199610028F1D1064B40F29C
:102A800013311964EEE704490B64E8E78D8EFF1FEC
:102A90000080044000C0044000A004400D4B5B6B6C
:102AA00013F4806313D0212803D90B4B0020186046
:102AB00070470A4B10B5084C53F8303023600121A1
:102AC000FFF738FD236800221A70012010BD184658
:102AD000704700BF00800440408EFF1F684C00001C
:102AE000104B5B6B13F4806312D012280BD01428A8
:102AF00010D10D4B40F202325A610C4A537B012037
:102B00000343537370470A4B40F20232DA60F4E732
:102B100018467047054A537B03F0FE0300205373A9
:102B2000704700BF0080044000C0044000A0064081
:102B300000A00440034B5B6B5B0501D5FFF782BD32
:102B4000704700BF008004402DE9F84F394B5B6BA4
:102B50005A053CD5384B1B680BB101221A70471837
:102B6000B84231D2354EDFF8D880364CDFF8D890F5
:102B700000F1010A13E003F0FF0B53B34FF0000B19
:102B80005D46324A1AF8013C5355524630490123FA
:102B9000BA420B700AF1010A86F800B014D23578F7
:102BA000D8F800300135AB422378E4D9AB425FFA64
:102BB00085FB0FD03F2DE4D9264B1AF8012C1B685A
:102BC000403D5A555246E1E71F4BBC22DA70BDE842
:102BD000F88F5D466FF0430389F8033006E099F8FB
:102BE00004301B060BD42378AB42E3D1FFF7CEFBB6
:102BF0004028F4DDFF28F6DD01F0BAF8F3E723788A
:102C0000D8F800105A1C9142DBB203D93F2A0AD8E7
:102C1000D1B201E000210A460C4B9B5CDBB289F883
:102C200007302170DFE7D1B20A4A3F3B1268D35C1C
:102C3000DBB2F4E700800440908EFF1FD88EFF1FA8
:102C40001088FF1FE08EFF1F00A00640988EFF1F18
:102C5000948EFF1FDC8EFF1F10B5044C237823B128
:102C600001F086F82378002BFAD110BD948EFF1F57
:102C7000084A094B11781A789142C8B2D3B202D2ED
:102C8000013B181A7047054A1268013A1344181A92
:102C9000704700BFD88EFF1FE08EFF1F1088FF1FF8
:102CA000064A074B11781A789142D0B23CBF054AC8
:102CB0001268CBB238BF9B18181A7047848EFF1F5A
:102CC0008C8EFF1F0C88FF1F1B4B1C491A780B783A
:102CD0009A422ED010B55FFA82FE194AD8B2126815
:102CE000431C9A4219D93F2B1BD85FFA83FC154825
:102CF000C05CC0B281F800C01349096861B19E454B
:102D00003CBF7244D31A114A126828BFAEEB0303CA
:102D10009A4201D300230B7010BD4FF0000C6346A4
:102D2000E5E70B4C3F382468205C5FFA83FCC0B2B7
:102D3000E0E74FF0FF307047848EFF1F8C8EFF1F3F
:102D40000C88FF1F448EFF1F408EFF1F0888FF1F47
:102D5000888EFF1F0D4A0E4B11781B789942DAB20C
:102D600011D00C490968531C994207D93F2B06D949
:102D7000094B3F3A1B68985CC0B270470023074A72
:102D8000D05CC0B270474FF0FF307047848EFF1F99
:102D90008C8EFF1F0C88FF1F888EFF1F448EFF1F25
:102DA0000C4B5B6B5B0514D50B4B0C48DA78402160
:102DB00002F0CB02DA705974DA78094942F0340231
:102DC000DA70084A03781268DBB20B700AB100238C
:102DD000137070470080044000A006408C8EFF1FD7
:102DE000848EFF1F408EFF1F2DE9F041504C237948
:102DF00013F0300F47D072B6A37D03F0FF01002B14
:102E000058D062B6DFF82C814B4898F800304B4A16
:102E1000057816684A4F5FFA83FC4A4BEDB2D3F847
:102E200000E008E01DB14FF0000C07F80C304A1E1E
:102E300012F0FF0112D0E3790CF101029642DBB2ED
:102E4000F0D99542ACF13F00F1D03F2A6DD99446BC
:102E50004A1E12F0FF010EF80030ECD15FFA8CF33D
:102E600088F80030384B196869B1AC453CBF721B1B
:102E700002EB0C03354A126828BFACEB05039A42FB
:102E80009CBF01230B702A48C3781E06DDB216D4FE
:102E90006A060DD5264B1B795B0609D52C4B2D49AF
:102EA0001B6800220A7003B11A70214B3C22DA70B1
:102EB000BDE8F0814023E279637462B6E3E7037909
:102EC0001C06E5D5244B254ADFF894E01C781668EB
:102ED0009EF80030234A244FD2F800C0E4B2DBB29F
:102EE00007E003790023FA5CD2B2C271027D072A9F
:102EF00011D8A34203F101010ED08E42F1D93F292E
:102F00000279A3F13F0301D80B46ECE71CF803203C
:102F10000B46D2B2E9E7DCB2054B8EF800401A79D5
:102F2000110644BF7C22DA70B2E794467DE700BF09
:102F300000A00640848EFF1F8C8EFF1F0C88FF1F91
:102F4000448EFF1F888EFF1F408EFF1F0488FF1FC7
:102F5000908EFF1F948EFF1FD88EFF1F1088FF1FBB
:102F6000E08EFF1FDC8EFF1F988EFF1F094B10B4F1
:102F7000186060B101F14004074B084801F11A02E2
:102F80001A60074B0460283110BC19607047402458
:102F9000F2E700BF888EFF1F0888FF1F0C88FF1F05
:102FA0000488FF1F054B186018B1054B40311960AC
:102FB0007047034B40211960704700BFDC8EFF1F34
:102FC0001088FF1F704700BF431E032B17D872B62F
:102FD0000C4951F8230080B110B40B4CB0F800C07C
:102FE00034F81320A2EB0C02D0F804C041F823C03F
:102FF00024F8132062B610BC704762B670470020F8
:10300000704700BF748FFF1FC48FFF1F0138032854
:103010000BD872B6074B53F8203043B100205B68E1
:103020000130002BFBD162B6704700207047184674
:10303000F9E700BF9C8FFF1F10B472B6194A1A4CF3
:10304000042312F8011B090743F0010C05D554F8BD
:10305000331061B154F83C10B9B10433142BF0D1E2
:1030600062B6124B00221A7010BC00F09BBC0F49D4
:1030700004EBC302083050600A780D4844F833006E
:10308000013A0A7062B610BC7047084A094904EB5D
:10309000CC0308305860137844F83C10013B13709F
:1030A00062B6F0E7F84D00000080FF1FCC8FFF1FD5
:1030B00088004000C8004000421E032A0ED81C4B66
:1030C000400140F0100010B4034472B6194CA05CEB
:1030D00003281CD8DFE800F01315031870470520FB
:1030E000A05413F0080F088814BFC82288220831A2
:1030F00042EA004259601A6062B610BC7047032071
:10310000EEE708330220EBE708330420E8E70A4B38
:1031100053F8220038B1094B53F82200416043F8BC
:10312000221062B6E9E743F82210044BF7E700BF2C
:103130000080FF1FBC8FFF1F9C8FFF1FAC8FFF1FE6
:103140002DE9F04FDFF8CCA2DFF8CCB285B03DE03E
:10315000B24D9E0805EBC607013A796813F00803E3
:10316000D4B2A1F1080040F0B88055F836204FEAFB
:10317000124C120C21F808CC00F0A78021F8063C74
:1031800041F8043CA64B53F82420002A00F00182A9
:10319000A44B53F82420506043F82400A24B33F88A
:1031A0001420944423F814C000F0DCFB002800F045
:1031B000E98117F0080F9D4B00F1080018BF5B462E
:1031C000786045F8363008238AF880309AF88030E5
:1031D0005907DCB21BD5964B1B78ABB195490A78E1
:1031E00002F0FF032AB1013BDBB20B70002B00F0B1
:1031F000468391490A7802F0FF032AB1013BDBB212
:103200000B70002B00F0EB8104238AF8803014F05F
:10321000080200F0CC819AF89020D3B2120997D11D
:10322000DFF8F8919B0809EBC30459F83300646890
:10323000C0F3830009287CD00FD80138012808D8B2
:103240007E4A158842F22100854200F0FB8149F850
:1032500033B001238AF89430B5E70D28F9D1D4E9C9
:103260000007774D49F833B0744E764CC9F81020FA
:1032700083B240F2816CC9F818202A6063454FF090
:103280000102C6E90007227000F2FF80B3F5D06F9B
:1032900080F0CB82B3F5817F00F0268240F2DE80A1
:1032A00040F2023293427BD107F07F07042F00F2F5
:1032B0000881020C40F00581634911F8273043F082
:1032C000020301F82730134670E017F0080F574B40
:1032D00018BF5B4645F8363075E700F063FB5B4985
:1032E0005B4A51F82430002B00F05781586841F8B0
:1032F0002400115D03F108007860032905D8DFE898
:1033000001F0120F1502042111551A8817F0080F49
:1033100014BFC823882343EA024345F8363052E7F6
:1033200002211155F1E703211155EEE70521115551
:10333000EBE7434D2A683AB34649424C0F8846486A
:1033400094F800E00678402F3B4628BF4023BEF1AA
:10335000000F8EF0010E84F800E046F0020486F0C3
:103360000106067009EBC400426014BFC820882023
:1033700040EA03401A44FB1A9BB249F834000B8020
:10338000002B00F036812A602C4B1A88B2F5A06F12
:103390007FF45FAF9A788AF8982000225A7058E735
:1033A000B3F5A06F40F08D8000221346B6F806C03A
:1033B0002948944528BF944667460278402F28BF85
:1033C000402742F0020E3E0409EBCE0846F0C80644
:1033D000C8F8043049F83E6000263B442670BCEB38
:1033E000070782F00106067040F01181BCF13F0F23
:1033F0004FF0010509D946F00206027009EBC6023A
:1034000025705360882349F8363001238AF89430B8
:103410001FE700BF00200740C80040000080FF1FDA
:10342000748FFF1F848FFF1FC48FFF1F8800400011
:10343000C08FFF1FC18FFF1FEC8FFF1F948FFF1FD7
:10344000688FFF1F658FFF1FC02007409C8FFF1FE5
:10345000BC8FFF1F668FFF1F648FFF1F802B00F044
:103460008B81822B2DD107F07F07042F29D8A74A03
:1034700000231380A64B13F827309F0740F1FC81EF
:1034800001231370A14B022290E742F2210C634505
:10349000BBD01DD942F2212293420DD1BFB2002FE1
:1034A00082D19C4B1A689C4B1A609C4BC0F307401E
:1034B00000221870134679E742F2213293423FF41A
:1034C00073AF0F238AF8C03001238AF89430C0E626
:1034D000B3F5086F00F04A81B3F5106FF1D1904B4E
:1034E000C0F307400425187059F835301A0606D481
:1034F0000135142D0CD059F835301A06F8D509EBE2
:10350000C50301355868083800F04CFA142DF2D183
:10351000844A854B0292854A0192854E854ADFF89E
:1035200018820394009200251C4656F8047B2FB1A4
:1035300038467F6800F036FA002FF9D1009BD8F8A2
:10354000007043F8045B46F8045C00932FB13846E2
:103550007F6800F027FA002FF9D1029B48F8045B3E
:1035600043F8045B0293019B23F8025B01932378E9
:10357000023B032B00F20981DFE813F03F01040155
:103580003F0104016D4A45F836001378013313708A
:1035900019E643F82400674BFEE5115D022926D0A9
:1035A0007FF611AE03291DD1012313550BE6E00769
:1035B0006ED4210621D4A20708D5614B93F8882048
:1035C0000221D2B283F8882083F88010E30603D565
:1035D0005B4B102283F8802005B0BDE8F08F00F02F
:1035E000A3FB11E617F0080F14BF032302231355A2
:1035F000E9E53F2F98BF0022C5E6514B80220D21FF
:1036000083F8C01083F88020A207DFD5D5E746F005
:1036100002060270402F09EBC6003A4628BF40223E
:1036200043601004134440F088000121BA1A49F89D
:103630003600217055D02B60424B1A8001238AF846
:10364000943006E692885AB93F4AE51D14F8011BEA
:1036500002F8011FAC42F9D13C4A1268862A3CD0DC
:103660003B4C3C4825780278002D85F001052570FB
:1036700042F0020482F00102027009EBC4024FF032
:103680000000506014BFC822882249F83420DEE5CB
:103690002B4B30483049314C022583F8945002704E
:1036A0002F480C602F4D48608C600D24CD60FF20AA
:1036B0000A618A6183F8C04001219F2483F8880051
:1036C00083F8800083F8982083F88C0083F8844086
:1036D00083F8941005B0BDE8F08F234A0F201070D6
:1036E000BEE73F2FA7D890E607F07F07042F3FF6ED
:1036F000E8AE000C7FF4E5AE054A12F8273023F05F
:10370000020302F82730002213464FE66C8FFF1F9A
:10371000C02007403C8EFF1FE88FFF1FE48FFF1F74
:10372000C08FFF1FAC8FFF1FBC8FFF1FC48FFF1FF9
:10373000748FFF1F848FFF1F9C8FFF1FCC8FFF1F75
:1037400000200740668FFF1FDB8FFF1FDC8FFF1FEE
:10375000658FFF1F648FFF1F0080FF1F88004000E0
:10376000E48EFF1F248FFF1FC18FFF1F484B494965
:103770001B780B700B4619E6464A00231380454B15
:10378000022213E64FF001032370434BB34204F1CE
:1037900001047FF4CAAE414E039CDFF80481414F1F
:1037A00000233370042518F8013B3F4AAB541B0734
:1037B00025D445F0020145F0030204350023142D01
:1037C00049F8313049F83230EDD1384F25783A7820
:1037D00042F0020009EBC00C85F00106CCF8043081
:1037E000002D4DD1882382F0010226703A7049F8ED
:1037F000303001238AF894302BE52570C5E700F0BE
:10380000B1F8002832D009EBC5030830586049F8F8
:10381000357000F0A7F808B345F0010309EBC302C7
:103820000830506049F833B0C3E7214A5368002B91
:103830003FF447AE000CBFB204E013690C32002B1A
:103840003FF43FAE11888142F7D15188B942F4D19B
:10385000000A03280CBF1A781289A7E533780133D0
:10386000337045F0010349F83300A2E7337849F893
:10387000350001333370CCE7064B022296E500BEDB
:103880002670C82382F001063E7049F83030BCE54E
:10389000C08FFF1F6C8FFF1F848FFF1FCC8FFF1FF8
:1038A000F84D000088004000C0200740648FFF1FD3
:1038B000A44D000070B500F08DFB00231A4A194694
:1038C00042F8331002EBC3000133142B4160F7D1EF
:1038D000164C174B606B174D40F480206063C2F3A9
:1038E000072483F89C40144CFF204FF0010CC2F3D6
:1038F0000746120E83F8B0604FF0E02E83F8B42034
:1039000083F8800083F88800187483F894C02170CD
:1039100083F884C0702385F849304FF40072102377
:10392000CEF80821237270BD0080FF1F0080044084
:103930000020074000E400E00021074000F0F6B856
:1039400000F07CB800F056B800F090B800F0C0B9B4
:1039500000F09AB90846114600F004B9084600F094
:1039600085B900BF72B60D490B68B3FA83F00B2816
:1039700010DC4FF00042C24023EA02030B6062B643
:10398000074A00EBC000C10002EBC0000023535007
:103990004360704762B60020704700BF2888FF1F51
:1039A000BC83FF1F0E4BC31AB3F5587F10D20D4ACC
:1039B000127872B972B60C4A0C49A2FB032308684C
:1039C0004FF000421B0922FA03F303430B6062B677
:1039D0007047074A1278002AECD0FFF72DBB00BFD2
:1039E000BC83FF1FCC8FFF1F398EE3382888FF1F51
:1039F000C08FFF1F38B50F4C206878B1438802880C
:103A0000C11801339A420D7A02D94380284638BD45
:103A1000FFF7C8FF00232360284638BD064B1B78FC
:103A20002BB10320FFF7D0FA20600028E6D14FF039
:103A3000FF35EBE7D08FFF1FC08FFF1F10B5094C7C
:103A4000206818B143881844007A10BD064B1B78D3
:103A50002BB10320FFF7B8FA20600028F2D14FF015
:103A6000FF3010BDD08FFF1FC08FFF1F084B094ACA
:103A70001B6810B594881BB11A885B88D31A1C4444
:103A80000CB1204610BD00F073F9204610BD00BFF8
:103A9000D08FFF1FC48FFF1F2DE9F84F0D4600295F
:103AA0003ED04FF00008DFF87C901F4E0746C2461C
:103AB00099F80030E3B1346814B322886388A2EB2C
:103AC000030BAB4528BFAB4604F1080138465A4604
:103AD0001944FEF743FB638822885B449BB29A42F9
:103AE00063805F44D844A5EB0B0511D9002DDFD1CD
:103AF0004046BDE8F88F0288002ADFD1FFF752FF69
:103B00000320FFF761FA044630600028F3D1EFE7A5
:103B10002046FFF747FFC6F800A0002DC8D1E7E711
:103B20000846E6E7C08FFF1FD08FFF1F0B4B1B78A7
:103B30009BB110B50A4C206848B1FFF733FF002352
:103B400003202360FFF740FA30B1FFF72BFF03207B
:103B5000FFF73AFA0028F8D110BD7047C08FFF1F59
:103B6000D08FFF1F2DE9F04FDFF8EC9083B00122DA
:103B700089F80020019179B3384FDFF8E480019D86
:103B8000384EDFF8E4A083463968A1B3B1F802E00B
:103B9000CEF1400CAC4528BFAC460EEB0C04002225
:103BA000A4B23270A5EB0C054C8001F10802BCF107
:103BB000000F0AD00EF1FF3E7244DC441BF8014BAB
:103BC00002F8014FDC45F9D14C883F2C0BD8052277
:103BD0008AF80020002DD7D10198002389F8003001
:103BE00003B0BDE8F08F40220A800420FFF764FA9A
:103BF00000223A60EBE798F800202AB34AF2F92451
:103C000008E0013C19D03278BAB900F0B1F898F860
:103C10000020CAB10420FFF7F9F90728F1D84FF0C6
:103C2000010389F80030FFF79DFE01463860002847
:103C3000ACD1013C89F80000E5D101234FF0FF3001
:103C4000337003B0BDE8F08F00234FF0FF3089F8E8
:103C5000003003B0BDE8F08FD58FFF1FD88FFF1F56
:103C6000C08FFF1FD48FFF1FEC8FFF1F00B583B0E5
:103C7000034601210DF107008DF80730FFF772FFB1
:103C800003B05DF804FB00BF38B50E4D0E4C28683C
:103C90000123237028B140880023C0F14000237025
:103CA00038BD0A4B1B7813B90020207038BD0420A2
:103CB000FFF7ACF90728F7D8FFF754FE2860002873
:103CC000E9D1F1E7D88FFF1FD58FFF1FC08FFF1FEE
:103CD000F8B5114B1B788BB1104E114D346801278C
:103CE0002F7064B10F4B00271F706388238021461B
:103CF0000420FFF7E1F9376000232B70F8BDFFF7D0
:103D000031FE084B014620B104201C70FFF7D4F9A6
:103D1000F2E71F70F0E700BFC08FFF1FD88FFF1FB3
:103D2000D58FFF1FEC8FFF1F38B50E4B1B7853B993
:103D30000D4C216841B103F0FF054B880B80042036
:103D4000FFF7BAF9256038BDFFF70CFE014620B138
:103D5000BDE838400420FFF7AFB9044B01221A70C8
:103D600038BD00BFD58FFF1FD88FFF1FEC8FFF1FFF
:103D70002DE9F843324E337863B1324F3A784AB97D
:103D80000122D9073A7043D49A0726D400225B0750
:103D90003A7001D4BDE8F8832B4B1A68002AF9D099
:103DA000EFF30582002AF5D1EFF3108572B618689B
:103DB00000283AD0254C2178002936D142691A6072
:103DC00001232370002A37D0916105B962B600251E
:103DD0008368457798472570DCE7DFF8748098F8AA
:103DE0000020002AD2D00025DFF868902B4659F831
:103DF0002340236820461B690135984708B1236991
:103E0000984798F80020EBB29A42F0D83378BDE793
:103E1000FFF72CFE68B9104B1B780BB93378B3E76A
:103E2000337803F0FE033370AEE7002DB2D162B6F3
:103E3000B0E700F0CDF8EEE7084B1A60C5E700BF29
:103E40002C88FF1FED8FFF1FF08FFF1FFC8FFF1FC0
:103E50001090FF1F0490FF1FA04D00000090FF1F57
:103E600070B5EFF3108272B60C4C206880B10C4E26
:103E700000254369236073B19D6102B962B683680E
:103E800045779847EFF3108272B620680028F0D18A
:103E900002B962B670BD3360EFE700BFF88FFF1F55
:103EA000F48FFF1FFFF7DCBF024A13680133136072
:103EB000704700BF3C8EFF1F70B4104E104D347819
:103EC000D4B1621ED2B2291D2B4601EB820101E062
:103ED0008B4205D053F8042B8242F9D170BC704755
:103EE000631CDBB2074A3370137845F8240043F0B3
:103EF0000203137070BC70470123F3E71090FF1F9B
:103F00000490FF1F2C88FF1F2A4B2B4A6020E121C1
:103F10001870597013782948082B34D00A2B20D0F8
:103F20000C2B274B0CBF35213D2112228160C26032
:103F30009960DA60234B21491B78214ACBB10123D8
:103F40000B621362204B1D491B781D4A012B13D9AC
:103F5000042B1BD884234B6253621C4B01221A7022
:103F60007047174B392113228160C2609960DA6073
:103F7000E0E70B621362E5E780234B625362134B69
:103F800001221A7070470E4B0121ECE7082B06D86E
:103F900085234B6253620D4B01221A707047102B20
:103FA00094BF862387234B625362084B01221A7009
:103FB000704700BF004007402D88FF1F00B003403E
:103FC00000B00B401190FF1F2E88FF1F1290FF1FA3
:103FD000704700BF10B584B072B6174A70244120F4
:103FE0000F2180231470D0719171137013781B0608
:103FF000FCD5906862B6114B114C984238BF00EB6B
:10400000800001A938BF40000A22FEF7E1F901A9AA
:104010002046002311F8012B01333AB10A2B20F876
:10402000022FF7D11623237004B010BD5B00DBB262
:10403000237004B010BD00BF0000024080969800BD
:10404000BC88FF1F024B0146186800F00BB800BF88
:10405000088EFF1F024B0146186800F01FBC00BF0E
:10406000088EFF1F2DE9F04F01F10B06162E83B0CD
:10407000044624D8102900F2BA8000F0A3FA1026D2
:1040800018220220B54F3A44A2F1080153688B422E
:1040900000F0BA805A68D96822F003021A449D6879
:1040A000E9608D60516841F001012046516003F1E3
:1040B000080500F08DFA284603B0BDE8F08F36F011
:1040C000070600F19480B14200F2918000F07AFA84
:1040D000B6F5FC7FC0F09A81730A00F08F80042B44
:1040E00000F26F81B30903F1390003F1380CC3000A
:1040F0009A4F3B44A3F108055B689D4206D10CE052
:10410000002980F22781DB689D4206D05A6822F0A0
:104110000302911B0F29F3DD60463D69DFF840C2C1
:1041200065457CD06A6822F00302931B0F2B00F3D5
:104130007B81002BC7E904CC80F26C81B2F5007F53
:1041400080F01A81D308796801334FEA521E0122A8
:1041500002FA0EF20A4357F833E0C5F808E007EB1D
:10416000C3010839E9607A6047F83350CEF80C5043
:10417000831001219940914257D8114206D120F075
:1041800003004900114200F10400FAD007EBC00916
:104190004D468646D5F80C80454508D11DE1002BDB
:1041A00080F22481D8F80C80454500F01681D8F8BB
:1041B000042022F00302931B0F2BF0DD2046D8E9E8
:1041C000025408EB060146F00106C8F80460EC60F2
:1041D000A56043F00104C7E90411C1E902CC4C60B9
:1041E00048F8023000F0F4F908F1080502E00C2369
:1041F00023600025284603B0BDE8F08F4FF400731C
:1042000040204FF03F0C73E7D3689A4208BF02305A
:104210007FF440AF3D69DFF848C1654582D17A68D7
:104220008310012199409142A7D9BD686B6823F0A2
:1042300003094E4503D8A9EB06030F2B7ADCDFF800
:1042400024B1494BDBF800201B680132334405EBF5
:10425000090A00F0338103F580530F3323F47F689C
:1042600028F00F084146204600F00AFA411C024699
:1042700000F0F380824500F2EE803C4B1968414427
:104280001960084600F04E81DBF8001001930131FF
:104290001BBFA2EB0A010918CBF80020196012F02D
:1042A000070B00F01781CBF108010A44CBF58051D0
:1042B00090440831A1EB0801C1F30B0A5146204696
:1042C000009200F0DDF9421CDDE9002300F04F818F
:1042D000801A00EB0A081968BA6048F001005144DE
:1042E000BD425060196000F02981B9F10F0F40F212
:1042F00027816868A9F10C0C2CF0070C00F0010074
:1043000040EA0C0068604FF0050E05EB0C00BCF1B4
:104310000F0FC0E901EE00F2328150681546144BD0
:104320001A688A4238BF1960124B1A688A4238BF2D
:10433000196094E0AA1943F0010346F001066E608B
:104340002046BA60536000F043F90835284603B0B0
:10435000BDE8F08FD9681A44A1E600BFD488FF1FDA
:10436000DC88FF1FDC8CFF1F4490FF1F1490FF1F91
:104370003C90FF1F4090FF1FB2F5206F4FEA522381
:1043800063D3142B00F2B78003F15C01C9005B33E7
:1043900007EB010E7958AEF1080E8E4500F09180C2
:1043A0004B6823F00303934202D989688E45F7D105
:1043B000D1F80CE07A68C5E9021ECEF80850CD604D
:1043C000D6E6142B59D9542B00F29D80330B03F100
:1043D0006F0003F16E0CC3008AE60EF1010E1EF0B1
:1043E000030F05F108057FF4D5AE51E04244454680
:1043F0005368D8F80C1043F00103536055F8083F98
:104400002046D9608B6000F0E3F8F3E6F00806F18F
:10441000080237E62A442046536843F001035360FC
:10442000083500F0D5F8E5E6A919204646F0010662
:1044300043F001046E60C7E90411C1E902CC4C608D
:10444000AB5000F0C5F80835D4E6930903F1390103
:10445000C90038339CE7BD425FD0BD68686820F072
:1044600003084645A8EB060302D80F2B3FF762AFBF
:10447000204600F0ADF80025BCE603F15C0003F136
:104480005B0CC30034E659F808394B4540F0968080
:1044900010F0030F00F1FF30F5D17B6823EA010330
:1044A0007B60490099423FF6C0AE19B9BDE64900AC
:1044B0000EF1040E1942FAD0704667E603F11008B7
:1044C000D0E69A104FF001087B6808FA02F21A430E
:1044D0007A6070E702EB08014942C1F30B0A5146CA
:1044E0002046009200F0CCF8431CDDE900237FF465
:1044F000EFAEDA46EFE6542B25D8130B03F16F012C
:10450000C9006E3344E7B3F5AA7F25D8F30B03F156
:10451000780003F1770CC300EAE5294B18684044A2
:104520001860B1E6CAF30B0CBCF1000F7FF4ACAE1F
:10453000BD68C84448F001006860F0E61546EEE644
:104540000123536094E7B3F5AA7F23D8D30B03F17B
:104550007801C90077331BE740F25452934223D8C5
:10456000B30C03F17D0003F17C0CC300C0E5ABF19B
:10457000080BD844A8EB02084FF0000AABE605F19F
:1045800008012046009300F089F9BD68009B686827
:104590001968C4E640F254518B420BD8930C03F1D6
:1045A0007D01C9007C33F3E64FF47E737F204FF02A
:1045B0007E0C9DE54FF47E717E23E9E67B6870E713
:1045C0001490FF1F014800F097B800BF8891FF1FAB
:1045D000014800F093B800BF8891FF1F830730B5F2
:1045E00048D0541E002A3FD0CAB2034601E0013C25
:1045F0003AD303F8012B9D07F9D1032C2DD9CDB265
:1046000045EA05250F2C45EA054536D9A4F11002E7
:1046100022F00F0C03F1200EE6444FEA121C03F1C6
:10462000100242E9045542E9025510327245F8D1B0
:104630000CF1010214F00C0F03EB021204F00F0C4A
:1046400013D0ACF1040323F003030433134442F802
:10465000045B9342FBD10CF003042CB1C9B21C449F
:1046600003F8011B9C42FBD130BD64461346002C6D
:10467000F4D1F9E703461446BFE71A46A446E0E73B
:1046800038B5074D0022044608462A60FDF768FE4B
:10469000431C00D038BD2B68002BFBD0236038BDF5
:1046A0008091FF1F014B1868704700BF088EFF1FE5
:1046B00070B50D4E0D4D761BB61006D0002455F882
:1046C000043B01349847A642F9D1094E094D761BA7
:1046D00000F094FBB61006D0002455F8043B0134DA
:1046E0009847A642F9D170BD084E0000084E000060
:1046F000104E0000084E0000704700BF704700BF1A
:1047000090F800F06DE9024520F007016FF0000C11
:1047100010F0070491F820F040F049804FF00004B9
:104720006FF00700D1E9002391F840F000F1080094
:1047300082FA4CF2A4FA8CF283FA4CF3A2FA8CF3CC
:104740004BBBD1E9022382FA4CF200F10800A4FA33
:104750008CF283FA4CF3A2FA8CF3E3B9D1E9042387
:1047600082FA4CF200F10800A4FA8CF283FA4CF3BE
:10477000A2FA8CF37BB9D1E9062301F1200182FA78
:104780004CF200F10800A4FA8CF283FA4CF3A2FA7E
:104790008CF3002BC6D0002A04BF04301A4612BA8C
:1047A000B2FA82F2FDE8024500EBD2007047D1E98F
:1047B000002304F00305C4F100004FEAC50514F01E
:1047C000040F91F840F00CFA05F562EA05021CBFEF
:1047D00063EA050362464FF00004A9E7024B13B1F8
:1047E000024800F005B8704700000000A94A000028
:1047F000002301461A46184600F06AB9F8B5244F5E
:104800000C460646FFF7DEFEBB685D68C4F57E61B8
:104810000F3125F003054B1923F47F6323F00F03B9
:10482000A3F58054B4F5805F07DB00213046FFF725
:1048300027FFBB682B44984204D03046FFF7C8FEE0
:104840000020F8BD61423046FFF71AFF01300DD05D
:10485000104ABB682D1B45F001055D6013683046AA
:104860001B1B1360FFF7B4FE0120F8BD002130468A
:10487000FFF706FFBA68831A0F2BDEDD43F0010352
:104880005360054B03491B68C01A0860D5E700BF99
:10489000D488FF1F1490FF1FDC8CFF1F002961D0FC
:1048A000F8B50C460646FFF78DFE54F8042C7B4FF6
:1048B000A4F1080522F0010105EB010CB868DCF851
:1048C0000430604523F0030300F08B80D207CCF85E
:1048D000043032D454F8082CAD1A1144AA6807F1F8
:1048E000080082426AD00CEB0304D4F804E0EC68C0
:1048F000D4601EF0010FA26000F0978041F0010328
:104900006B60CCF80010B1F5007F35D27868CB0829
:104910000122490901338A40024357F833107A6073
:1049200007EBC302083AC5E9021247F83350CD60DD
:104930003046BDE8F840FFF74BBE0CEB030252686F
:10494000D00710D4194407F10800DCF8083083427E
:1049500073D0DCF80C20DA60936041F001036B60E7
:104960006950D0E7704741F00103B1F5007F44F88A
:10497000043CCCF80010C9D3B1F5206F4FEA5123A5
:1049800048D28B0903F1390003F13802C300F8184B
:10499000FB580838984259D05A6822F003028A42DC
:1049A00002D99B689842F7D1D868C5E90230856082
:1049B000DD603046BDE8F840FFF70ABE0CEB0302AD
:1049C0005268D20763D40B44DCE90212CA609160DA
:1049D00043F001026A603046EB50BDE8F840FFF753
:1049E000F7BD0B44D10707D454F8082CAD1A134473
:1049F000D5E90212CA60916043F001026A60284A58
:104A0000BD6012689A4293D8264B30461968FFF76A
:104A1000F5FE8DE7142B0AD9542B1FD80B0B03F18D
:104A20006F0003F16E02C300B1E719448DE703F193
:104A30005C0003F15B02C300A9E741F00103C7E991
:104A40000455C5E902006B60695071E779689210FE
:104A5000012404FA02F20A437A60A6E7B3F5AA7FBA
:104A600006D8CB0B03F1780003F17702C3008EE781
:104A700040F25452934206D88B0C03F17D0003F1AF
:104A80007C02C30083E74FF47E737E227FE741F010
:104A900001036B60CCF800104AE700BFD488FF1F09
:104AA000E08CFF1F4490FF1F38B5074D074C2C1BAF
:104AB000A41005D0013C55F8043D9847002CF9D1CD
:104AC000BDE8384000F0A4B900000000000000007C
:104AD0002DE9F047DFF874A00646DAF800009846A2
:104AE0000F469146FFF708FE194B1C6824B3656812
:104AF0001F2D24DC5EB96B1C0235DAF80000636000
:104B000044F82570FFF7FAFD0020BDE8F08704EBBC
:104B100085010123C1F88890D4F88821AB401A435D
:104B2000022EC4F88821C1F80881E4D1D4F88C2180
:104B30001A43C4F88C21DEE7064C1C60D7E7DAF88C
:104B40000000FFF7DBFD4FF0FF30DEE70C8EFF1FAC
:104B50008C91FF1F9091FF1F7701080F010100FF4B
:104B600077E2FE0F010300FF77E2FE0F010800FF6E
:104B700077E2FE0F010900FF77E2FE0F010400FF5C
:104B80006500000000000000690000000000000057
:104B90007700FC0F0101000077E2FE0F010000002A
:104BA0007703080F010000007704080F0200FC00E3
:104BB0007700080F0800000000000000040000005B
:104BC0007700080F080300000000FC02000000004E
:104BD0007700080F0804000000000001000000003A
:104BE0007700FC0F000000007700FD0F00000000C0
:104BF0000000FC0002000000750000000000FFFF44
:104C00000000000000000000B91F0000DD1F0000D0
:104C10006D20000069200000652000006120000078
:104C20005D200000811F00003D20000039200000B1
:104C30003120000029200000212000001120000068
:104C400001200000FD1F0000F51F0000ED1F000007
:104C5000611F0000691F0000711F0000791F000024
:104C6000C51F0000AD1F00004008FE4340A00440E7
:104C70004408FE4344A004400018FE4300C0044022
:104C80003000FE43309004403400FE433490044032
:104C90001C18FE431CC004401018FE4310C0044002
:104CA0000818FE4308C004400C18FE430CC0044022
:104CB0000C10FE430CB004401010FE4310B0044032
:104CC0001810FE4318B004401C10FE431CB00440F2
:104CD0001410FE4314B004400418FE4304C0044002
:104CE0000010FE4300B004400008FE4300A0044052
:104CF0000408FE4304A004400C08FE430CA004403A
:104D00000808FE4308A004401418FE4314C00440E1
:104D10001818FE4318C004400410FE4304B00440B9
:104D20000810FE4308B004401400FE4314900440F1
:104D30004C08FE434CA004400420FE4304D0044031
:104D40002410FE4324B004402010FE4320B0044051
:104D50002810FE4328B004402C10FE432CB0044021
:104D60000020FE4300D004404808FE4348A0044011
:104D70001000FE43109004400000000000000000FE
:104D80005D39000055390000513900004D390000EF
:104D90004939000045390000413900003D39000023
:104DA00000FFFFFF000100007488FF1F12000000D9
:104DB000000200003088FF1F4300000000030000D5
:104DC0008888FF1F00000000010309048C88FF1F72
:104DD0000000000002030904A488FF1F0000000077
:104DE00003030904BC88FF1F00000000000000004E
:104DF000000000000000000000151915F8B500BF04
:104E0000F8BC08BC9E467047DD4700003504000032
:044E1000F8B500BF32
:104E1400E00704EC00FB0F0000FBC013BFE607C073
:104E2400BFEC07C0BFEE07CFEB07ECF5EA07FCB217
:104E3400FF0E72FCB2FF0E76FCB2FF0E77FCB2FFDF
:104E44000E9EFDFCB2FF0E73624C69DD6D4C77DD86
:104E54001D4C72DD294C65DD324C75DD62FCA1FF11
:104E64000ED5EA07DFC8AFE60712ECEB070FFCB27A
:104E7400FF0E119BA793DFF6FE4C00EEE3FF118BB0
:104E8400FCA1FF0EA793DFF6EED6FF61FFFCF8FF4F
:104E94000E8F02084C0FDD0B624CFFDF11FCC408BF
:104EA4000FEFF5624CFFDF06FC04F00EEFF5C36173
:104EB400CFC262FCA1FF0EEEA7FFE5EA07EF03E510
:104EC400EA07FE0200EF9A5100FCA1FF0ED7FFFF94
:104ED400FFFFFFFFFFFFFFFFFFFFFF00084C000085
:104EE40000000000E803000000000000C52F0000DF
:104EF4002093FF1F280000001A000000400000005B
:104F04004000000001010000804D0000000000008E
:104F1400E803000000000000FFFFFFFF010A040097
:104F240009024300020100C0320904000001020228
:104F340001000524001001052401010104240206D6
:104F4400052406000107058203100040090401003E
:104F5400020A00000007050302400000070584025E
:104F6400400000001201100102000040C01683043A
:104F7400750201020301000004030904180354002C
:104F8400650065006E0073007900640075006900B7
:104F94006E006F00160355005300420020005300BA
:104FA40065007200690061006C0000000C030000E1
:104FB40000000000000000000000000000000000ED
:104FC400000000000000000000000000D488FF1F63
:104FD400D488FF1FDC88FF1FDC88FF1FE488FF1FC5
:104FE400E488FF1FEC88FF1FEC88FF1FF488FF1F75
:104FF400F488FF1FFC88FF1FFC88FF1F0489FF1F24
:105004000489FF1F0C89FF1F0C89FF1F1489FF1FD0
:105014001489FF1F1C89FF1F1C89FF1F2489FF1F80
:105024002489FF1F2C89FF1F2C89FF1F3489FF1F30
:105034003489FF1F3C89FF1F3C89FF1F4489FF1FE0
:105044004489FF1F4C89FF1F4C89FF1F5489FF1F90
:105054005489FF1F5C89FF1F5C89FF1F6489FF1F40
:105064006489FF1F6C89FF1F6C89FF1F7489FF1FF0
:105074007489FF1F7C89FF1F7C89FF1F8489FF1FA0
:105084008489FF1F8C89FF1F8C89FF1F9489FF1F50
:105094009489FF1F9C89FF1F9C89FF1FA489FF1F00
:1050A400A489FF1FAC89FF1FAC89FF1FB489FF1FB0
:1050B400B489FF1FBC89FF1FBC89FF1FC489FF1F60
:1050C400C489FF1FCC89FF1FCC89FF1FD489FF1F10
:1050D400D489FF1FDC89FF1FDC89FF1FE489FF1FC0
:1050E400E489FF1FEC89FF1FEC89FF1FF489FF1F70
:1050F400F489FF1FFC89FF1FFC89FF1F048AFF1F1F
:10510400048AFF1F0C8AFF1F0C8AFF1F148AFF1FCB
:10511400148AFF1F1C8AFF1F1C8AFF1F248AFF1F7B
:10512400248AFF1F2C8AFF1F2C8AFF1F348AFF1F2B
:10513400348AFF1F3C8AFF1F3C8AFF1F448AFF1FDB
:10514400448AFF1F4C8AFF1F4C8AFF1F548AFF1F8B
:10515400548AFF1F5C8AFF1F5C8AFF1F648AFF1F3B
:10516400648AFF1F6C8AFF1F6C8AFF1F748AFF1FEB
:10517400748AFF1F7C8AFF1F7C8AFF1F848AFF1F9B
:10518400848AFF1F8C8AFF1F8C8AFF1F948AFF1F4B
:10519400948AFF1F9C8AFF1F9C8AFF1FA48AFF1FFB
:1051A400A48AFF1FAC8AFF1FAC8AFF1FB48AFF1FAB
:1051B400B48AFF1FBC8AFF1FBC8AFF1FC48AFF1F5B
:1051C400C48AFF1FCC8AFF1FCC8AFF1FD48AFF1F0B
:1051D400D48AFF1FDC8AFF1FDC8AFF1FE48AFF1FBB
:1051E400E48AFF1FEC8AFF1FEC8AFF1FF48AFF1F6B
:1051F400F48AFF1FFC8AFF1FFC8AFF1F048BFF1F1A
:10520400048BFF1F0C8BFF1F0C8BFF1F148BFF1FC6
:10521400148BFF1F1C8BFF1F1C8BFF1F248BFF1F76
:10522400248BFF1F2C8BFF1F2C8BFF1F348BFF1F26
:10523400348BFF1F3C8BFF1F3C8BFF1F448BFF1FD6
:10524400448BFF1F4C8BFF1F4C8BFF1F548BFF1F86
:10525400548BFF1F5C8BFF1F5C8BFF1F648BFF1F36
:10526400648BFF1F6C8BFF1F6C8BFF1F748BFF1FE6
:10527400748BFF1F7C8BFF1F7C8BFF1F848BFF1F96
:10528400848BFF1F8C8BFF1F8C8BFF1F948BFF1F46
:10529400948BFF1F9C8BFF1F9C8BFF1FA48BFF1FF6
:1052A400A48BFF1FAC8BFF1FAC8BFF1FB48BFF1FA6
:1052B400B48BFF1FBC8BFF1FBC8BFF1FC48BFF1F56
:1052C400C48BFF1FCC8BFF1FCC8BFF1FD48BFF1F06
:1052D400D48BFF1FDC8BFF1FDC8BFF1FE48BFF1FB6
:1052E400E48BFF1FEC8BFF1FEC8BFF1FF48BFF1F66
:1052F400F48BFF1FFC8BFF1FFC8BFF1F048CFF1F15
:10530400048CFF1F0C8CFF1F0C8CFF1F148CFF1FC1
:10531400148CFF1F1C8CFF1F1C8CFF1F248CFF1F71
:10532400248CFF1F2C8CFF1F2C8CFF1F348CFF1F21
:10533400348CFF1F3C8CFF1F3C8CFF1F448CFF1FD1
:10534400448CFF1F4C8CFF1F4C8CFF1F548CFF1F81
:10535400548CFF1F5C8CFF1F5C8CFF1F648CFF1F31
:10536400648CFF1F6C8CFF1F6C8CFF1F748CFF1FE1
:10537400748CFF1F7C8CFF1F7C8CFF1F848CFF1F91
:10538400848CFF1F8C8CFF1F8C8CFF1F948CFF1F41
:10539400948CFF1F9C8CFF1F9C8CFF1FA48CFF1FF1
:1053A400A48CFF1FAC8CFF1FAC8CFF1FB48CFF1FA1
:1053B400B48CFF1FBC8CFF1FBC8CFF1FC48CFF1F51
:1053C400C48CFF1FCC8CFF1FCC8CFF1FFFFFFFFF83
:1053D4000000020000000000000000004890FF1FD1
:1053E400B090FF1F1891FF1F000000000000000094
:1053F40000000000000000000000000000000000A9
:105404000000000000000000000000000000000098
:105414000000000000000000000000000000000088
:105424000000000000000000000000000000000078
:105434000000000000000000000000000000000068
:105444000000000000000000000000000000000058
:105454000000000000000000000000000000000048
:105464000000000000000000000000000000000038
:1054740001000000000000000E33CDAB34126DE6D5
:10548400ECDE05000B00000000000000000000003E
:105494000000000000000000000000000000000008
:1054A40000000000000000000000000000000000F8
:1054B40000000000000000000000000000000000E8
:1054C40000000000000000000000000000000000D8
:1054D40000000000000000000000000000000000C8
:1054E40000000000000000000000000000000000B8
:1054F4000000000000000000E88CFF1F8491FF1FE3
:00000001FF
