:1000000000180020C1000000991700005D170000D3
:100010005D1700005D1700005D1700005D17000010
:100020005D1700005D1700005D17000099170000C4
:10003000991700005D1700009D300000A5300000FA
:1000400099170000991700009917000099170000F0
:1000500099170000991700009917000099170000E0
:1000600099170000991700009917000099170000D0
:10007000A9210000991700009917000099170000A6
:1000800099170000991700009917000099170000B0
:1000900099170000991700009917000099170000A0
:1000A0008924000099170000991700009917000093
:1000B0009917000099170000991700009917000080
:1000C000F8B501F06DFB484B484A1A60484B494A65
:1000D0001A60494B494A1A600823494A1178194263
:1000E00002D011780B4313702A22464B46481A70EF
:1000F000464BC11E00228B4203D303331A1A9208C7
:100100009200434903F028FB4248434BC11E0022A2
:10011000994203D803331A1A92089200002103F07F
:10012000D5FA3E4CC02220003D4903F015FB0326C2
:100130000022802017003B4993089B005B18FF2199
:100140003740FF00B9408C46654619680132A94323
:100150000500BD4029431960202AEBD1324B6A3299
:100160001C60324B1A70324B663A5A707C321A70ED
:100170009E3A99791142FCD0102299791142FCD112
:100180000C219A790A40082AFBD1053A1A713D32AE
:100190005A71203A99791142FCD040229979114242
:1001A000FCD0244A2449116020220C211A709A792B
:1001B0000A400C2AFBD1214B214A1A60214B224ACA
:1001C0001A600022214B1A60214B07321A60214B22
:1001D000214A1A6062B601F05BFB01F0E7FA03F016
:1001E00095FA01F0B2FAFEE734800440300004F0E2
:1001F00038800440823F00003C8004400100000F32
:1002000002D0074000E0074020FDFF1F18FFFF1F3E
:10021000E03A000018FFFF1F6002002000F9FF1FF6
:100220000000000000E400E008ED00E0005006409F
:100230000040064044800440000001100480044057
:10024000C000050514E000E07FBB000018E000E0FE
:1002500010E000E020ED00E000002020FFFFFFFFA5
:10026000FFFFFFFFFFFFFFFFFFFFFFFFFFFFFFFF9E
:10027000FFFFFFFFFFFFFFFFFFFFFFFFFFFFFFFF8E
:10028000FFFFFFFFFFFFFFFFFFFFFFFFFFFFFFFF7E
:10029000FFFFFFFFFFFFFFFFFFFFFFFFFFFFFFFF6E
:1002A000FFFFFFFFFFFFFFFFFFFFFFFFFFFFFFFF5E
:1002B000FFFFFFFFFFFFFFFFFFFFFFFFFFFFFFFF4E
:1002C000FFFFFFFFFFFFFFFFFFFFFFFFFFFFFFFF3E
:1002D000FFFFFFFFFFFFFFFFFFFFFFFFFFFFFFFF2E
:1002E000FFFFFFFFFFFFFFFFFFFFFFFFFFFFFFFF1E
:1002F000FFFFFFFFFFFFFFFFFFFFFFFFFFFFFFFF0E
:10030000FFFFFFFFFFFFFFFFFFFFFFFFFFFFFFFFFD
:10031000FFFFFFFFFFFFFFFFFFFFFFFFFFFFFFFFED
:10032000FFFFFFFFFFFFFFFFFFFFFFFFFFFFFFFFDD
:10033000FFFFFFFFFFFFFFFFFFFFFFFFFFFFFFFFCD
:10034000FFFFFFFFFFFFFFFFFFFFFFFFFFFFFFFFBD
:10035000FFFFFFFFFFFFFFFFFFFFFFFFFFFFFFFFAD
:10036000FFFFFFFFFFFFFFFFFFFFFFFFFFFFFFFF9D
:10037000FFFFFFFFFFFFFFFFFFFFFFFFFFFFFFFF8D
:10038000FFFFFFFFFFFFFFFFFFFFFFFFFFFFFFFF7D
:10039000FFFFFFFFFFFFFFFFFFFFFFFFFFFFFFFF6D
:1003A000FFFFFFFFFFFFFFFFFFFFFFFFFFFFFFFF5D
:1003B000FFFFFFFFFFFFFFFFFFFFFFFFFFFFFFFF4D
:1003C000FFFFFFFFFFFFFFFFFFFFFFFFFFFFFFFF3D
:1003D000FFFFFFFFFFFFFFFFFFFFFFFFFFFFFFFF2D
:1003E000FFFFFFFFFFFFFFFFFFFFFFFFFFFFFFFF1D
:1003F000FFFFFFFFFFFFFFFFFFFFFFFFFFFFFFFF0D
:10040000FFFFFFFFFFFFFFFFFFFFFFFFDEF9FFFF23
:1004100006480749091A8B10C90FC91810B54910A9
:1004200003D0044B002B00D0984710BD18FFFF1FCE
:1004300018FFFF1F00000000054B10B5002B03D074
:100440000449054800E000BFFFF7E2FF10BDC046C9
:100450000000000018FFFF1FE03A0000F0B50500A3
:10046000160000240D4F85B03B6801910393039B58
:100470000093019B311B181902F034FC2418A6428A
:1004800009D93B68009A0293029B9B1AAA6893427F
:10049000EFD301232B7305B0F0BDC04644FFFF1F0F
:1004A00010B502F099FD0020084B1B7883420CD058
:1004B000074B1B78DB0708D5064B074A1B681268F9
:1004C0000E309B1A98428041404210BDC800002067
:1004D000E800002044FFFF1FEC00002010B5036877
:1004E000C9B21B68984710BD10B50368C9B21B6834
:1004F000984710BD10B5064A01001378C318054887
:100500001370FFF7F1FFC823DB00013BFDD110BDE5
:1005100031FFFF1FECFDFF1F0023074A012808D011
:100520001378022804D0013B032802D010787047CA
:100530005B421370FAE7C04631FFFF1F030A0870E1
:10054000000C4B708870704710B502F093FCC82304
:10055000DB00013BFDD102F0AFFB002804DC0021F1
:100560000D2001F007FA10BD02F060FBF3E770B553
:1005700004000E000D200121C82501F0FBF9A61989
:10058000ED00B44206D1013DFDD100210D2001F066
:10059000F1F970BD207801F0C5FC2B00013BFDD1C5
:1005A00001F082FD0134ECE737B505210B48FFF778
:1005B000DEFF0B4C23680093009D01F061FD0028D5
:1005C00003DD01F071FDC0B23EBD2368054A019311
:1005D000019B5B1B9342F0D9EF20F5E72F38000019
:1005E00044FFFF1F1027000010B501210D2001F06E
:1005F000C1F9204C0521A01DFFF7B9FF01F054FD02
:10060000C0B2002801D0E02010BD200006210C302F
:10061000FFF7ADFF01F048FDC0B20028F3D1200084
:1006200006211330FFF7A3FF01F03EFDC0B2002802
:10063000E9D1200006211A30FFF799FF01F034FDBF
:10064000C0B20028DFD1200007212130FFF78FFF43
:1006500001F02AFDC0B20028D5D106210648FFF7D7
:1006600086FF01F021FDC0B20028CCD1FFF79CFF2E
:10067000CAE7C0462F3800000C380000F0B520490A
:1006800085B00222293101A803F066F86B460022EA
:10069000002400259A71200001A9FFF74FFF6B4647
:1006A000722209201A7201A96F3A684403F054F8C3
:1006B00080266B460521C8271E7302A8FFF757FF47
:1006C000FF0001F0DDFC002816D001F0EDFC0D4B21
:1006D0000100013E1800FFF701FF002EF1D10023B9
:1006E0008022A4185D4180231B03A342D3D1002D97
:1006F000D1D1280005B0F0BD3B00013BFDD1E0E7C2
:100700002F38000014FEFF1FF0B5354C8BB0236866
:100710000493049D02F0D0FA032827DD06AD0E22D3
:100720000021280002F0D2FF2E4F042229003800B9
:10073000FFF794FE2B786C78AA781B02E418EB780C
:1007400012029B189BB20133A4B29B02A402019334
:10075000019BA34213D802F0AFFA00283CDC0D2025
:10076000002101F007F900200BB0F0BD23681E4AFC
:100770000593059B5B1B9342CCD9EB20F4E720004B
:1007800003A9FFF7DBFE0A22002107A802F09EFF63
:10079000722311202B7002AB032203A9C01802F0B0
:1007A000DBFF8023052128002B71FFF7E0FE802668
:1007B00001F066FC00280AD001F076FC013E010041
:1007C0003800FFF78BFE002EF2D18034C0E7C8233B
:1007D000DB00013BFDD1EBE702F028FABBE7C046A6
:1007E00044FFFF1F14FEFF1F10270000F0B5324C1E
:1007F00089B023680293029D02F05EFA03281BDD94
:1008000004AE0E220021300002F060FF042231000D
:100810002A48FFF723FE337874781B02E418B37874
:10082000F5781B02ED18ADB2A4B20135A402AD02F9
:10083000A5420AD8002016E02368214A0393039BAF
:100840005B1B9342D8D9EB200DE0200001A9FFF7F4
:1008500075FE06211B48FFF78AFE01F025FCC0B299
:10086000002802D0E42009B0F0BD174F052239005E
:1008700070732C31300002F06FFF1520032201A9A4
:10088000684402F069FF39000522323106A802F0FF
:1008900063FF0D213000FFF76AFE01F005FCC0B2D6
:1008A0000028DFD1FFF780FE0028DCD1FFF74CFEE7
:1008B0008023DB00E418BBE744FFFF1F14FEFF1F8B
:1008C00010270000133800002F380000F0B5354C19
:1008D00089B023680293029D02F0EEF903281DDD22
:1008E00004AE0E220021300002F0F0FE042231009E
:1008F0002D48FFF7B3FD337874781B02E418B37802
:10090000F5781B02ED18ADB2A4B20135A402AD0218
:10091000A5420CD80023180009B0F0BD2368234A73
:100920000393039B5B1B9342D6D9EB23F3E7200091
:1009300001A9FFF703FE06211D48FFF718FE01F08D
:10094000B3FBC0B2002828D11A4F052239007073BA
:100950002C31300002F000FF1520032201A9684469
:1009600002F0FAFE39000522323106A802F0F4FE48
:100970000D213000FFF7FBFD01F096FBC0B200280F
:100980000DD1FFF711FE031E01D01B28C3D1FFF7C5
:10099000DBFD8023DB00E418BAE7E823BBE7E423B0
:1009A000B9E7C04644FFFF1F14FEFF1F10270000D9
:1009B0001A3800002F380000F0B5294F0621380002
:1009C00085B0FFF7D4FD01F06FFBC1B2E824002928
:1009D00010D1032203A802F079FE224B0D2118004A
:1009E00038300193FFF7C3FD01F05EFBC0B2002871
:1009F00003D0E424200005B0F0BDFFF7D5FD041EB0
:100A0000F8D101F051FB02ABC6B21E7101F04CFBF4
:100A100002ABC5B2062138005D71FFF7A8FD01F0F9
:100A200043FBC0B2E8340028E4D101980D214630E0
:100A3000FFF79DFD01F038FBC0B20028D9D1FFF7C8
:100A4000B3FD041ED6D101F02FFB0700300002F0E9
:100A500011FA280002F00EFAF8B202F00BFAC9E718
:100A6000213800002F380000F0B5AF4C0922A54412
:100A700000240BA821000A9402F028FEAB4E0222AB
:100A8000310005A8293102F067FEFF2204AB2100E6
:100A900092000FA89C710E9402F018FEA44C2368DB
:100AA0000693069D02F008F9012842DD8027002503
:100AB0000D2200210AA802F009FE02229D480AA97F
:100AC000FFF7CCFC04AB1B7E0121019304AB5B7EE2
:100AD0000D20029300F04EFF2368FF000893089B4F
:100AE0000393BD422ED330000521C8258026543003
:100AF000FFF73DFD0024ED007600282204AB9B1893
:100B0000185D01F00FFA2B00013BFDD1013401F01B
:100B1000CBFAB442F1D101F08FFA013DFDD101F0E1
:100B2000C3FAC0B200282AD0E1273800824B9D4486
:100B3000F0BD2368814A0793079B5B1B9342B1D9A1
:100B4000EB27F2E77A4B039A1B680993099B9B1AE0
:100B50007B4A934200D9E4E002F0AEF884B2002C64
:100B6000BFD06019B84201DD7C1BA4B20EAB59198D
:100B7000220070482D19FFF771FCADB2B1E76B4848
:100B80000521C82580265A30FFF7F1FCED00B6009C
:100B9000282204AB9B18185D01F0C4F92B00013B1F
:100BA000FDD1013401F080FAB442F1D101F044FAF0
:100BB000013DFDD101F078FAC0B2002801D0E22752
:100BC000B3E706215F48FFF7D2FC01F06DFAC0B22F
:100BD000002801D0E627A8E7019B05A91D02029B7A
:100BE000ED18ADB2AD022800FFF7A8FC4F4E05226C
:100BF00031000AA82C3102F0AFFD1D2004ABC01853
:100C0000032205A902F0A8FD3100052260310CA8DD
:100C100002F0A2FD0D210AA8FFF7A9FC01F044FA99
:100C2000C0B20028D6D1FFF7BFFC071E00D07CE77A
:100C300030000521C8275430FFF799FCFF00282217
:100C400004AB9B18185D01F06DF93B00013BFDD131
:100C500001F02AFAC02301349B009C42EFD101F03D
:100C6000EBF9013FFDD101F01FFAC0B2002800D01E
:100C70005AE730000521C8275A30FFF778FCFF00FB
:100C8000282204AB9B18185D01F04CF93B00013B96
:100C9000FDD101F009FA80230134DB009C42EFD141
:100CA00001F0CAF9013FFDD101F0FEF9C0B2002800
:100CB00000D084E706212348FFF759FC01F0F4F93E
:100CC000C0B2002800D085E780239B00E81805A962
:100CD000FFF734FC310005222C310AA802F03CFD5C
:100CE0001D2004ABC018032205A902F035FD310018
:100CF000052260310CA802F02FFD0D210AA8FFF794
:100D000036FC01F0D1F9C0B2002800D062E7FFF74D
:100D10004BFC071E00D008E701000D2000F02AFE62
:100D200003E7EC2701E7C046C4FBFFFF2F380000B4
:100D300044FFFF1F14FEFF1F3C04000010270000AB
:100D4000204E000028380000F0B58E4C0922A54442
:100D500000240BA821000A9402F0B8FC8A49022260
:100D6000293105A802F0F8FCFF2204AB2100920013
:100D70000FA89C710E9402F0A9FC844E3368069370
:100D8000069C01F099FF012856DD802700250D22E1
:100D900000210AA802F09AFC02227D480AA9FFF766
:100DA0005DFB04AB1B7E0121019304AB5B7E0D2038
:100DB000029300F0DFFD3368FF000893089B039364
:100DC000BD4242D3019B029A1B029B189BB29B021D
:100DD000180005A90193FFF7B1FB06216D48FFF745
:100DE000C6FB01F061F9C0B2E824002820D1664EAC
:100DF000052237002C3739000AA802F0ADFC1D236C
:100E0000350004A81B181800032205A9323502F08A
:100E1000A3FC052229000CA802F09EFC0D210AA8C3
:100E2000FFF7A5FB01F040F9C0B2002829D0E42467
:100E30002000594B9D44F0BD3368584A0793079BE7
:100E40001B1B93429DD9EB24F2E73368039A099365
:100E5000099B9B1A524A934200D943E101F02CFFAF
:100E600084B2002CACD06019B84201DD7C1BA4B266
:100E70000EAB5919220046482D19FFF7EFFAADB213
:100E80009EE7FFF791FB041E23D13F4F0521380059
:100E9000C8245430FFF76BFB0025E400282204AB84
:100EA0009B18585D01F03EF82300013BFDD101F095
:100EB000FBF8802301355B009D42EFD101F0BCF8C7
:100EC000013CFDD101F0F0F8C0B200282DD0E124A2
:100ED000AEE71B28ACD106213248FFF748FB01F0F2
:100EE000E3F8C0B20028A2D1052239000AA802F016
:100EF00033FC1D2304A81B181800032205A902F0C7
:100F00002BFC052229000CA802F026FC0D210AA8C2
:100F1000FFF72DFB01F0C8F8C0B2002800D086E72B
:100F2000FFF742FB041EB0D082E738000521C82439
:100F30005A30FFF71CFBE400282204AB9B18585DD5
:100F400000F0F0FF2300013BFDD101F0ADF880235C
:100F500001359B009D42EFD101F06EF8013CFDD1BF
:100F600001F0A2F8C0B2002801D0E22460E7062117
:100F70000D48FFF7FCFA01F097F8C0B2002815D031
:100F8000E62455E7C4FBFFFF2F38000044FFFF1F96
:100F900014FEFF1F1A3800003C0400001027000058
:100FA000204E0000133800002838000031000522D0
:100FB0002C310AA802F0D0FB1D2004ABC01803227C
:100FC00005A902F0C9FB3100052260310CA802F02E
:100FD000C3FB0D210AA8FFF7CAFA01F065F8C0B2F9
:100FE0000028CDD1FFF7E0FA041E00D020E7300042
:100FF0000521C824C0265430FFF7B9FAE400B60032
:10100000282204AB9B18585D00F08CFF2300013BA5
:10101000FDD1013501F048F8B542F1D101F00CF8ED
:10102000013CFDD101F040F8C0B2002800D04EE7ED
:101030002D480521C82480265A30FFF798FAE4008D
:10104000F600282204AB9B18585D00F06BFF2300CC
:10105000013BFDD1013501F027F8B542F1D100F097
:10106000EBFF013CFDD101F01FF8C0B2002800D019
:101070007BE706211D48FFF77AFA01F015F8C0B2A8
:10108000002800D07CE780239B009C46019805A99E
:101090006044FFF753FA390005222C310AA802F008
:1010A0005BFB1D2004ABC018032205A902F054FB12
:1010B0003900052260310CA802F04EFB0D210AA870
:1010C000FFF755FA00F0F0FFC0B2002800D057E754
:1010D000FFF76AFA041E00D0AAE601000D2000F016
:1010E00049FCA5E6EC24A3E62F38000028380000D0
:1010F00010B501210D2000F03DFC064805216630A9
:10110000FFF735FA00F0D0FFC0B2002800D0E02091
:1011100010BDC0462F38000013B5012002F016FAAA
:10112000040002F01DFA01A8001B16BDF0B505244D
:10113000012587B02200002104A802F0C7FA290087
:101140000D2000F017FCFA21FA204901C00000F040
:10115000F2FA08210290280000F0EDFA0021039035
:10116000200000F007FCA0239B00013BFDD100F014
:101170007DFD200000F076FC2900200000F0FAFB45
:10118000200000F06FFCE1216A4E4902300000F0BF
:10119000E3F964230027B360280000F063FCC52056
:1011A000FFF7A8F92800FFF7A5F9634B0320019387
:1011B0001F70FFF79FF99A20FFF79CF93800FFF79F
:1011C00099F91420FFF796F90220FFF7A5F9FFF728
:1011D00091F900F055FF002815DC0320FFF78AF98C
:1011E00000F062FF2200300004A900F05DFA04ABB9
:1011F0009B78062B36D0102B08D0EE20FFF77AF91B
:10120000002007B0F0BD00F04FFFE2E7029B1B019A
:1012100001D0013BFDD10021042000F0ABFB039B7A
:101220001B0101D0013BFDD12900042000F0A2FBED
:1012300000F026FF00280DDCFA27BF00013F002F39
:1012400000D177E700F01CFF002806DC5023013BAB
:10125000FDD1F3E700F028FFEAE700F025FFC0B278
:101260000228F3D10024052000F0FCFB9120FFF7B9
:1012700041F9012000F0F6FB019B3A201C70FFF7BA
:1012800039F94E20FFF736F96F20FFF733F9742054
:10129000FFF730F93A20FFF72DF95520FFF72AF92B
:1012A0007320FFF727F96520FFF724F96420FFF783
:1012B00021F93A20FFF71EF90320FFF72DF9FFF778
:1012C00019F9012000F0CEFB9320FFF713F901205C
:1012D00000F0C8FB194B185D0134FFF70BF9C32C64
:1012E000F8D1012000F0BEFB9320FFF703F90120A5
:1012F00000F0B8FB0024124BE05C0134FFF7FAF871
:10130000072CF8D1012000F0ADFB94213000FFF74D
:10131000EBF8052000F0A6FB00F0B2FE002805DC8B
:101320000D20002100F026FB01206AE700F0BCFE42
:10133000F2E7C046ECFDFF1F31FFFF1F27FDFF1F37
:1013400020FDFF1FF8B501210D2000F013FB012740
:1013500001F0B2FC002800D1F8BD01F067FC454B5C
:10136000C0B2187001280FD910285AD0202871D087
:10137000802872D0F02831D03F4B1B78002B03D14E
:10138000E020FFF7E1F8E3E72028E1D801F036FF9D
:101390001116323538E03D4043E046E0E0E0E0E061
:1013A00049E0E0E0E0E0E0E0E0E0E0E0E0E0E0E0D4
:1013B000620002213148FFF791F8C9E7FFF7ACFE60
:1013C0002F4D2880052001F055FD2C4C2988200048
:1013D000090AFFF783F820002978ECE7FFF79CFE65
:1013E000274D2880022001F045FD052001F042FD37
:1013F0003420E8E7FFF788F9AAE7FFF73FF9A7E706
:10140000FFF7F4F91F4B1870BBE7FFF72DFBF9E767
:10141000FFF79AFCF6E7FFF759FAF3E7FFF7CCFA84
:10142000F0E70023144D174C2E7823709E420AD10A
:10143000FFF77CFE2070002809D0FFF7D5F8207058
:10144000002802D12F7020789BE72E70FBE7E12364
:101450002370F8E7FFF74CFED4E700210D2000F0E1
:1014600089FAFA20400000F0FDFA074B1B68984704
:101470006EE7C04630FFFF1F34FFFF1F14FEFF1F43
:1014800032FFFF1F3CFFFF1F38FFFF1FE12170B538
:10149000244C4902200000F05FF86423FA26A36080
:1014A000214CF6002568FEF7FBFF002807D11F4AF4
:1014B000236812785B1B002A2ED0B3422FD901215A
:1014C0000D2000F079FA0121052000F075FA0121C4
:1014D000042000F071FA0121080000F06DFA0021EB
:1014E000080000F069FA0021052000F043FA00210D
:1014F000012000F03FFA0021080000F03BFA012132
:10150000042000F037FAFEF7CBFF0028FBD00121C2
:101510000D2000F02FFA70BD054A9342CFD801F09C
:101520005BFDC0E7ECFDFF1F44FFFF1FC80000206C
:10153000EE02000010B50368C9B21B68984710BDE1
:1015400010B50368C9B21B68984710BD10B5036891
:10155000C9B21B68984710BD084B10B50400480875
:10156000C01801F05FFE00F097FA054B1B78002BC6
:1015700002D1200001F09EFD10BDC046C0C62D0066
:1015800011FEFF1F10B5080000F0CCFC012010BDBB
:1015900010B5080000F0C6FC012010BD70B50800B1
:1015A0000D0002F0E2F804000100280000F038FD10
:1015B000200070BD10B514000800110000F030FDCF
:1015C000200010BD10B50800110000F08BFE10BD0A
:1015D00010B50800110000F071FE10BD10B500F04C
:1015E000CDFD10BD10B5080000F09AFC431E9841D7
:1015F000C0B210BD10B5080000F068FC431E984151
:10160000C0B210BD10B50800110000F0C5FB10BD40
:1016100010B5080000F014FC10BD10B5080000F073
:1016200099FB10BD10B500F021FB10BD10B51400E2
:10163000054B4808C01801F0F5FD00F02DFA200018
:1016400000F0B2FA10BDC046C0C62D0010B500F0C3
:101650006DFD10BD10B500F027FD10BD10B500F0F8
:101660000FFD10BD10B500F0E7FC10BD10B500F087
:10167000EFFC10BD73B504000A4D2B680093009E6B
:10168000236820005B69984700280ADA01F0A4FC6F
:101690002B68A2680193019B9B1B9342F0D301200E
:1016A000404276BD44FFFF1FF8B507000D0014004F
:1016B0000026002903D10C000BE0A8550136A642F4
:1016C00007D03800FFF7D6FF0028F6DA01233400F0
:1016D0003B732000F8BDFFFF70B50B4D2E68002E48
:1016E00000D10A4E30000A4901F00CFF094C3000CD
:1016F0004C43074901F020FE074B5843201801D501
:10170000064BC018286070BD40FFFF1F24D95B073F
:101710001DF30100A7410000ECF4FFFFFFFFFF7F76
:1017200010B5041E05D0FFF7D7FF210001F000FE21
:101730000C00200010BD10B50400884203DA081A1E
:10174000FFF7EEFF2418200010BD10B5FFF79EFE36
:10175000FFF7F8FD01F040FCFAE7FFFF70B58025C8
:101760008026ED02F6000B4C23682B4201D000F0DE
:101770008BFE2368334201D000F016FD23681B0561
:1017800001D500F009F82368DB04ECD500F004F87B
:10179000E9E7C0463480044010B5FFF7DFFFFFFFE4
:1017A0000022014B1A607047008104407047FFFF20
:1017B0000A49030010B50868002B0BD06A46084C94
:1017C000C3181219934206D301F09AFF0C23036049
:1017D0000120404210BD0B60FCE7C04600FEFF1F29
:1017E00000FEFFFFEFF31380002821D1EFF31083F9
:1017F000002B19D1EFF30582002A16D00F2A0BD93E
:101800001300103B0C499B089B005B1803210A4006
:101810008A401B68D340DBB2EFF31182002A02D06A
:10182000934200D913001800704780235B00F3E750
:1018300001204042F8E7C04600E400E0F8B50600A9
:101840000D00170000243900300001F071FDCAB20C
:1018500013003733DBB2092901D83032D3B222006A
:101860002B55B74202D806000134ECE700212B19B2
:1018700059702B00111BA14201DB2800F8BD19781B
:10188000285D187029550133013CF3E77047FFFFCD
:101890008022224BD20513B51A6080220020120646
:1018A0001A601F4B1F4918601F4B204A19602823DC
:1018B00013601F4A1F4C13601F4A13601F4A1360B6
:1018C0001F4A13601F4A1360092222601E4C2060C9
:1018D0001E4C21601E4C23601E4C23601E4C226057
:1018E0001E4C20601E4801601E490B601E490B60A3
:1018F0001E4B1A6001F0FEFBFFF7C8FF1C4C23686B
:101900000093009B132BFAD901F0CEF896235B00CD
:1019100022680192019A9A42FAD313BD00E100E0D5
:1019200004800340FFBF0000088003400C80034098
:1019300014800340008003401C8003402480034047
:101940002C800340348003400490034008900340FF
:101950000C900340149003400090034004A0034007
:1019600008A003400CA0034014A0034000A00340C3
:1019700044FFFF1F020010B51A280BD80C23534355
:101980000C481A58C018147D037A234205D0002948
:1019900001D0137110BD1372FCE74368002904D015
:1019A000032219680A431A60F4E702211A688A437D
:1019B000F9E7C04604390000030010B51A281BD807
:1019C0000C205843154A141882586368107D247AF5
:1019D000012901D0042910D120431075A222520000
:1019E0001A60253AFF3A042903D119680A431A609C
:1019F00002E019689143196010BDA0431075802260
:101A0000002908D0022902D10422FF32EFE7002288
:101A10000329ECD181225200E9E7C04604390000D5
:101A200072B60B4B19680B4B1A680B4B1B6862B6EE
:101A30005B0102D5322900D90132084B08485B1AF4
:101A40005843FA239B005343800DC0187047C0468B
:101A500018E000E044FFFF1F04ED00E07FBB000042
:101A60005555010070B50400FFF7DAFF0500002CA2
:101A700010D0FA26B600FFF7D3FF401BB04202D2C7
:101A800001F0AAFAF7E7013C002C03D0FA239B00EF
:101A9000ED18F0E770BDFFFF80232C4ADB001168D2
:101AA0000B43136000232A4A13702A4A13702A4AF0
:101AB00013702A4A13702A4A13702A4B1B78152B6D
:101AC0002FD025D8002B28D0032B2CD0264B1B78C9
:101AD000052B35D02AD8012B2DD0042B32D000284D
:101AE00000D10130214BC204D20E1A700022C0B2C4
:101AF00058709A702C32DA70FF231D490A689A4395
:101B0000BF3B134380220B601A4B52011A6070478F
:101B1000192BDBD1184B194A01E0194B194A1A60ED
:101B2000D4E7194BFAE7194B194AF8E7182BD6D125
:101B3000184B194A02E0194BD12292001A60CEE7E5
:101B4000174BF9E79122174BF7E7C0463480044062
:101B500090FFFF1F98FFFF1FE1FFFF1FE8FFFF1F20
:101B6000A0FFFF1F99FFFF1F10FEFF1F00A00640F0
:101B70000CE400E000E100E054D004401304000055
:101B800040A004401303000018C004400490044027
:101B90001302000050D004404404000044A004405C
:101BA0001CC0044008900440132130B5274B9A789C
:101BB0008A43103901400A43410701D510210A43E5
:101BC0009A700F220240042A03D199793C320A43C9
:101BD0009A7110215A798A43084200D00A435A71F7
:101BE00010242025020099792A40A143284200D0E0
:101BF00021439971C10506D5202459781D78C9B2B1
:101C00002C431C7059700021800511D5A0209978B3
:101C100001439970534253410D4A9B180D4A127863
:101C2000052A0FD007D8012A09D0042A0CD0012197
:101C3000094B197030BD182AF9D1084A00E0084A4A
:101C40001360F4E7074AFBE7074AF9E700A00640FC
:101C50004603000010FEFF1F48FFFF1F50D0044046
:101C600044A004401CC0044008900440274B10B519
:101C70001B685B0502D410BD01F0AEF9244B1B7844
:101C8000D9B2002BF8D18022224B52011A60224A8D
:101C9000224BD1701B78152B27D01DD8002B1FD0BD
:101CA000032B24D07F211E4B1B780B40052B29D002
:101CB0001FD8012B21D0042B26D01379D3790022F1
:101CC000184B1A70184B1A70184B1B689342D2D0DD
:101CD000174A12781A71CEE7192BE3D1154B00E0A1
:101CE000154B0421FF311960DCE7144BF9E7144B65
:101CF000F7E7182BE1D1134B00E0134B0421FF3120
:101D00001960DAE7114BF9E7114BF7E7348004402B
:101D1000A0FFFF1F80E100E000A0064099FFFF1F29
:101D200010FEFF1F90FFFF1F98FFFF1F4CFFFF1FBC
:101D300049FFFF1F54D0044040A0044018C0044095
:101D40000490044050D0044044A004401CC004400F
:101D50000890044070B504000B4A1378DDB2002BE4
:101D6000FBD120000121FFF727FE29002000FFF70B
:101D700001FE0C226243054B0549D0589B180860B0
:101D80001B7A04490B7070BDA0FFFF1F04390000CF
:101D90009CFFFF1F9AFFFF1F10B5002901D0802371
:101DA0001843214C237883421AD0204A12685205E6
:101DB00015D57F221340052B1BD012D8012B14D030
:101DC000042B18D06022002900D11C3A7F23034045
:101DD000052B1FD011D8012B16D0042B1FD020703B
:101DE00010BD182BEED1124B00E0124B00221A60EE
:101DF000E8E7114BFAE7114BF8E7182BEFD18023F6
:101E0000DB0013430A4A03E0C0239B001343094A43
:101E10001360E4E7C0239B001343074AF8E78023DD
:101E20009B001343054AF3E710FEFF1F3480044074
:101E300050D0044044A004401CC00440089004401A
:101E4000194A1378834212D01849096849050DD5FB
:101E5000152B14D00CD8002B0ED0032B13D0152823
:101E60001CD012D8002815D0032819D01070704744
:101E7000192BF4D10E4B03E00E490B60EFE70E4B2C
:101E800000211960EBE70D4BFAE71928EED1084B5A
:101E90000B4901E0074B0B491960E7E7064BFAE7EE
:101EA000064B0949F8E7C04699FFFF1F34800440FC
:101EB00054D0044040A0044018C0044004900440A2
:101EC000130400001303000013020000104B8022D3
:101ED0001968D2000B0070B51340114212D00D4C9E
:101EE0001A2811D80C2242430B4B0C4DD1589B1889
:101EF0001B7A216001212B70FFF75EFD23682A7891
:101F00001A720123180070BD00232360FAE7C0464F
:101F1000348004404CFFFF1F0439000049FFFF1FBD
:101F200000207047F0B5334B85B01B6801905B050E
:101F300031D5314B1B68002B02D0304A12781A7110
:101F40002F4B1B78002B0CD072B62E4A9379DBB244
:101F50000393202303990B430393039BDBB29371F9
:101F600062B6294E294F34783B6801349C429B412C
:101F70001C40274D2B78A3420FD06B461B793F2C7A
:101F800031D8244A13550122234BE4B21A701D4B59
:101F9000AB323470DA7005B0F0BDFFF723FC402897
:101FA0001CDC18490B795BB2002BE2DA2B783A681B
:101FB000D8B20133934209D23F2B09D8154AD25CDB
:101FC000D2B2D2B2DBB2CA712B70D2E70023F5E7EE
:101FD000124A3F38126812181278F1E7FF28C8DD5C
:101FE00000F0FAFFC5E721000C4A40391268521888
:101FF0001370C8E7348004409CFFFF1F9AFFFF1F47
:1020000048FFFF1F00A00640E1FFFF1F0CFEFF1F5F
:10201000E8FFFF1FA1FFFF1FA0FFFF1FE4FFFF1F3F
:1020200070B504004518AC4200D170BD2078FFF7B0
:1020300079FF0134F7E7FFFF10B5044B1B78002B45
:1020400000D110BD00F0C8FFF7E7C046A0FFFF1F9A
:10205000084B1978084BC8B21B78DAB2994205D3FD
:10206000064B1B68013B9B18181A7047013A101A5F
:10207000FBE7C046E1FFFF1FE8FFFF1F0CFEFF1F4D
:10208000064B074A19781278CBB2D0B2914201D3ED
:10209000181A7047034A12689B18F9E790FFFF1F50
:1020A00098FFFF1F08FEFF1F30B5184B184D1A7818
:1020B0002B78D4B2D9B29A4225D0164A4B1C12685A
:1020C0009A4215D93F2B15D81349C85CD9B229704B
:1020D0001249C0B20968002909D09C4210D3E31A02
:1020E0000F4A1268934202D80E4B1B780B7230BD18
:1020F0000023E9E70C483F39006841180878E5E714
:102100001219D31AECE701204042F0E790FFFF1FBD
:1021100098FFFF1F08FEFF1F50FFFF1F4CFFFF1F10
:1021200004FEFF1F49FFFF1F94FFFF1F0E4B19788E
:102130000E4B1A78D3B2914212D00D495A1C09683D
:10214000914205D93F2A05D80A4B985CC0B2704726
:102150000022F9E7084A3F3B1268D3181878F5E7E0
:1021600001204042F3E7C04690FFFF1F98FFFF1F8A
:1021700008FEFF1F50FFFF1F94FFFF1F064B074A7B
:102180001B78DBB21370064B1B68002B02D0054A8C
:1021900012781A727047C04698FFFF1F90FFFF1F0A
:1021A0004CFFFF1F49FFFF1F37B5354A13799B06C8
:1021B00013D5344D3448D1792B78006801338342EC
:1021C000804103403148C9B20078984205D03F2B86
:1021D00038D82F48C154DBB22B70D378DCB25BB255
:1021E000002B0CDA13795BB2002B08DA294B2A4852
:1021F0001D780178CBB28D422BD16C23D370402354
:102200001C421ED0117919421BD00021234B19709A
:10221000234B1B688B4202D0224909781972224B4A
:102220001B78002B0BD072B620219379DBB201937F
:10223000019B8B430193019BDBB2937162B62C230C
:10224000D37037BD1C001948403C0068001901706C
:10225000C1E7174D591C2D688D4209D93F2909D86E
:10226000144B5B5CDBB2DBB2C9B2D3710170C6E761
:102270000021F5E7104D3F3B2D68EB181B78F1E787
:1022800000A0064090FFFF1F08FEFF1F98FFFF1FE2
:1022900050FFFF1FE1FFFF1FE8FFFF1FA0FFFF1F11
:1022A0009CFFFF1F9AFFFF1F48FFFF1F94FFFF1FA8
:1022B0000CFEFF1FA1FFFF1FE4FFFF1F064B18606E
:1022C0004023002801D00B004033044A1A31136028
:1022D000034B19607047C04694FFFF1F08FEFF1FA5
:1022E00004FEFF1F044B18604023002801D00B00A0
:1022F0004033024A13607047E4FFFF1F0CFEFF1FCC
:102300007047FFFF0223F0B50A4C0B4E2578C82713
:102310002B43DB00F218506008480278002A00D1F5
:10232000403F09043943F15001235A406B40027089
:102330002370F0BD6C00002000F8FF1F6D0000202E
:10234000431E10B50020032B0ED872B6074A990021
:102350008858002807D044685B008C50044A0488E1
:10236000995A091B995262B610BDC0467C000020E4
:10237000CA000020431E0020032B06D872B6054A6F
:102380009B009B58002B01D162B670475B680130FF
:10239000F8E7C046A4000020F8B572B6042208256C
:1023A0000126154C154B2178294219D0D100CF5860
:1023B000002F0AD15A1808305060114A5A50114A59
:1023C0001378013B137062B6F8BD31001143C900A8
:1023D000CF58002F04D15A18083050600A4AEDE750
:1023E00004320134142ADED162B60022054B1A7081
:1023F00000F0F4FBE8E7C046C83A000000F8FF1F11
:1024000088004000D2000020C8004000421E10B5E5
:10241000032A2BD80223800003431748DB001B1834
:1024200072B6164CA05C032817D800F0F1FE2310FA
:1024300002130520A0540A000832C8205A601A0767
:1024400000D440380A88120402431A600DE00220CA
:102450000833EFE704200833ECE7094892001458EA
:10246000084B002C03D11150995062B610BD9858FA
:102470004160F9E70320DDE700F8FF1FC4000020FA
:10248000A4000020B4000020F0B585B00422C34BA6
:102490001B78DCB213421DD0C14B1B78002B16D029
:1024A000C04A1178CBB2002905D0013BDBB21370D2
:1024B000002B00D100BEBC4A1178CBB2002906D057
:1024C000013BDBB21370002B01D100F031FD04227F
:1024D000B24B1A700822082322401C4200D16CE241
:1024E000B24BB34C1E78F3B23509B608F600002D96
:1024F00000D0F8E1A619336871689B061B0F092B01
:1025000000D1C6E10AD8013B012B00D8A6E1012287
:10251000A84B1A700822A14B1A70B7E70D2BF6D101
:102520000A684868A44BA5491A6001935860A44BF7
:102530003360A44BA44E1D6001230B7091B2256142
:10254000A561B14247D8D023DB00994200D363E1B3
:1025500081235B00994200D1FEE00CD8802900D194
:10256000DDE0822900D1E0E00F22984B1A700122B1
:10257000904B1A70CBE7964B994200D1FCE0A02219
:10258000D20000231C009142EED1019AD5889D42D1
:1025900000D91D002F00402D00D940273900200010
:1025A000FFF7B0FEEE1BBD4201D13F2DDFD9350054
:1025B000E419402E00D9402520002900FFF7A2FE93
:1025C0006419721BAE4201D13F2ED0D97D4B1C60E5
:1025D000804B1A80CBE7804EB142C8D03BD88820D0
:1025E0000001814200D195E090231B019942BBD1AB
:1025F000042580266A4B120CD2B21A70EB00E25806
:10260000324204D0E3185868083800F0E7FA013580
:10261000142DF3D10027714B714E724D0093306829
:1026200000281ED1BB0003936F4BBA003060D0501E
:10263000286800281BD16D4B039A2860D0506C4B42
:102640007A00D052009B18780238032818D800F07E
:10265000DFFD14511451674B994200D1F2E0664AF4
:102660008FE74368029300F0B9FA0298D8E743680D
:10267000029300F0B3FA0298DBE70023009A13708C
:10268000009B01370133043600930435042FC6D173
:1026900000225A4B5A4F5B4D1A703B785A4A2B70A6
:1026A0000435AE180822134215D000F077FAF30073
:1026B000002823D0E21808305060544AE25000F05D
:1026C0006DFA01233343DB0000281DD0E2180830E7
:1026D00050603B4AE250022300223343DB00E250C9
:1026E00003233343DB00E250494B01379D42D4D1F1
:1026F000002350E00122009B1A70C1E73F4AE050DE
:10270000137801331370DAE73C4AE0501378013351
:102710001370E0E7224A3F4C1278227035E700231D
:102720003C4C2370637002332FE77F230340042B5C
:1027300000D919E70021374A9B00117051702349D5
:1027400014005B18022118780B00084200D11CE726
:10275000013B13700B0018E77F230340042B00D9C3
:1027600002E7120C00D0FFE60221184A9B009B18DA
:102770001A788A431A70BBE77F210140042900D9E7
:10278000F2E6130C00D0EFE68A001049521802213D
:102790001078014311701C00F7E6C0468020074006
:1027A000C8000020C9000020F00000209020074051
:1027B00000F8FF1F942007409C0000206D000020BF
:1027C000C80040007000002081060000C0200740C3
:1027D000020300006E00002021200000C400002041
:1027E0007C000020A40000208C000020B400002009
:1027F000CA0000202122000021230000D200002076
:10280000C83A0000C42007403CDFF8BF8800400001
:10281000D420074074000020864B120C80B25C6804
:10282000002C00D1A0E61988914209D15D8885422B
:1028300006D1090A032901D12378A6E61B89A4E65B
:102840000C33ECE780B2002800D051E77A4B120C31
:1028500019687A4BD2B21960794B8BE7794B7A4A77
:102860001888904212D19B88002B0BD1774AC85C04
:10287000D0540133072BFAD11368862B02D10F22D3
:10288000734B1A7000210800FFF73CFD714B336059
:102890003DE6714F3C68002C19D0704B1D880093A9
:1028A0002E00402D00D9402620003100FFF72AFDE0
:1028B000A4192B1C402D00D94023009AEB1A9BB27F
:1028C0001380002B02D13F2D00D81C003C60A022B9
:1028D0005C4BD2001988914200D018E600225A7051
:1028E0009A785F4B45E608220821A4196068013DEB
:1028F0000838EDB21A400B4235D000F06FF9594953
:10290000A8004258584B002A1CD056684650110067
:10291000585D08316160032805D800F079FC020D8C
:102920000F1103215955C821230700D440391388BA
:102930001B040B432360EDE50221F3E70521F1E7DA
:102940000421EFE7595D02290BD000D8E2E501220E
:10295000032906D008221440621E944102345C55BB
:10296000D8E55A55D6E52368190C0B1E018014D002
:102970003E4E42804260AA0097593D49002F13D134
:10298000905188503B4A6D00A95A5B18AB5200F039
:1029900005F900280BD00830606040222307DB17C0
:1029A0001340354A9B18C5E78E587060E9E7334AF3
:1029B0002060137801331370ACE50120044220D06D
:1029C00002232F492C4C0B702E4B2F4D1A702F4B7E
:1029D0001C605D609C602E4CDC600D241A619A6165
:1029E0002C4B1C70FF232C4C23702C4C23701C4C44
:1029F00022702B4A13709F222A4B1A70087005B060
:102A0000F0BD63B2002B05DA0D22224B1A70802331
:102A1000224A13700222144205D01F490B78DBB200
:102A20000B701E4B1A7010231C42E8D01B4A137007
:102A3000E5E7C046743A000044FFFF1FEC000020A9
:102A4000E80000209C00002021200000E000002081
:102A5000C9000020C8004000700000206E00002067
:102A600098200740A4000020C40000207C00002023
:102A70008C000020CA00002088004000D200002006
:102A8000942007406C000020ECFFFF1F00F8FF1FA0
:102A90002C000020C02007408820074080200740ED
:102AA0008C2007408420074010B500F06DFB002209
:102AB00010001A4BD100C850013259184860142A2E
:102AC000F8D180221649D2020C6822430A601549C7
:102AD0001A0AD2B20A7014491A0CD2B20A70134AF6
:102AE0001B0E1370FF23124A12491370124A1370FF
:102AF000124A137001220A701149087011490A70B4
:102B000011490A689A438F3B134380220B600F4B95
:102B100052041A6010220E4B1A7010BD00F8FF1FED
:102B2000348004409C200740B0200740B420074078
:102B3000802007409420074088200740102007404D
:102B4000002107408420074018E400E000E100E095
:102B50000821074010B500F009F910BD10B500F0CC
:102B60008DF810BD10B500F061F810BD10B500F083
:102B7000A3F810BD10B500F0ADF910BD10B500F010
:102B800083F910BD10B50800110000F009F910BD5F
:102B900010B5080000F06EF910BDFFFF70B572B6F9
:102BA0000C4D2C68200000F0B3FC03000B2802DD64
:102BB00062B6002070BD80221206C24094432C6091
:102BC00062B648205843044BC0180023036043609A
:102BD000F0E7C04624FEFF1FC0F9FF1FD8220F4BAD
:102BE00010B5C31A9200934209D20D4A1278002AF6
:102BF00006D00C4A1278002A02D0FFF7CDFB10BD98
:102C000072B64821180000F00DFB80231B06C3405C
:102C1000054C22681343236062B6F0E7C0F9FF1F3A
:102C2000D2000020C800002024FEFF1F70B5114C08
:102C30002368002B0CD020684388C218157A0288BC
:102C400001339A4213D8FFF7C9FF0023236005E040
:102C5000094B1B78002B03D101256D42280070BD64
:102C60000320FFF76DFB20600028E4D1F4E74380E8
:102C7000F4E7C046D4000020C800002010B50C4C7A
:102C80002368002B05D02368002B0DD10120404282
:102C900010BD084B1B78002BF8D00320FFF750FB2A
:102CA00020600028EFD1F1E75A889B18187AEFE7E7
:102CB000D4000020C800002010B5084B9C88084BA9
:102CC0001A68002A03D0138852889B1AE418002C33
:102CD00001D100F081F9200010BDC046CA000020DB
:102CE000D40000200023F7B50D0001900093002DC3
:102CF00001D10098FEBD1B4B1B78002BF9D01A4F59
:102D00003B68002B0BD10320FFF71AFB386000282B
:102D1000EFD00388002B02D1FFF760FFF3E73E6896
:102D200073883488E41AAC4200D92C003100083191
:102D30002200C918019800F00FFD019B32881B1971
:102D40000193009B2D1B1B19009373881B199BB2C9
:102D500073809A42CBD83000FFF740FF00233B60DE
:102D6000C5E7C046C8000020D400002010B50A4BBB
:102D70001B78002B0FD0094C2068002803D0FFF7E8
:102D80002DFF002323600320FFF7DAFA002802D08A
:102D9000FFF724FFF7E710BDC8000020D400002093
:102DA0000123F7B50C002D4D009001912B70002CE4
:102DB00002D101982C700CE0294E3368002B23D1EE
:102DC000284F294B1B78DAB2002B03D12A7001203F
:102DD0004042FEBD0420FFF7CDFA072807D80123A3
:102DE0002B70FFF7DBFE306000280DD12870013F0B
:102DF0001E4B002F02D01A78002A02D001221A702E
:102E0000E5E700F0E9F8DCE70022184B31681A70BA
:102E100040234A889B1AA34200D9230008000830A7
:102E20008018D2184A800022E41A934210D1009AE6
:102E3000D31800934B883F2B06D9402304200B80E6
:102E4000FFF7E4FA002333600522094B1A70AEE75E
:102E5000009FBF5C87540132E7E7C046D9000020DD
:102E6000DC00002009750000C8000020D800002008
:102E7000F000002007B56B46D87107330121180018
:102E8000FFF78EFF0EBDFFFF012370B50E4C0F4DF7
:102E900023702B68002B10D10D4B1B78002B02D117
:102EA0000020207070BD0420FFF764FA0728F7D8CF
:102EB000FFF774FE28600028F2D040202B685B8862
:102EC000C01A00232370EDE7D9000020DC000020A9
:102ED000C8000020F7B5124B1B78002B14D0012638
:102EE000104F114B3C68114D01931E70002C0CD0FB
:102EF00000262E706388210004202380FFF786FAC5
:102F00003E600023019A1370F7BDFFF747FE011ED4
:102F100004D004202C70FFF779FAF2E72E70F0E766
:102F2000C8000020DC000020D9000020F0000020B4
:102F300070B50E4B1B78DDB2002B09D10C4C21680B
:102F4000002906D04B8804200B80FFF75FFA25602C
:102F500070BDFFF723FE011E03D00420FFF756FAD1
:102F6000F6E70122034B1A70F2E7C046D9000020B1
:102F7000DC000020F0000020144970B50B68002B25
:102F80000CD0EFF30583002B08D1EFF3108272B65B
:102F90000868002803D1002A00D162B670BD0C4C2D
:102FA0002578002DF7D10123237043690B60002B96
:102FB00009D09D61002A00D162B60025836845775B
:102FC00098472570EAE703490B60F3E7F400002017
:102FD0000001002004010020F8B51B4D2A78002ACA
:102FE0001FD01A4E3478002C1BD1012333701A42A3
:102FF0000DD0FFF761FE002801D000F0C3F8144A9D
:103000002B781278002A02D0012293432B702B7860
:103010009B0714D4002333702B785B0701D5FFF78F
:10302000ABFFF8BD0B4BA200D7583B6838001B69BB
:103030009847002801D03B6998470134E4B2064B19
:103040001B78A342EED8E5E728FEFF1FF100002021
:10305000703A0000080100201401002010B5EFF3C1
:10306000108172B60B4B186800280FD042691A60A5
:1030700000239A4207D09361002900D162B64377BA
:1030800083689847EBE7044A1360F5E7002900D10D
:1030900062B610BDFC000020F800002010B5FFF75C
:1030A000DDFF10BD024A1368013313607047C0464C
:1030B00044FFFF1F0C4970B500220D000B4C237814
:1030C000934209D15A1C9B00E85002232270084AFF
:1030D00011780B43137070BD04310E1F36688642A1
:1030E000F9D00132D2B2EBE7080100201401002030
:1030F00028FEFF1F1B4B1C4A19781C4B082915D1B1
:103100000021116013221A60194B1A78194B002AFA
:1031100018D000221A60184B1A78184B012A13D8BD
:1031200080221A600122164B1A7070470A2901D1B9
:103130002E31E6E70C2903D1283111601222E2E793
:103140003C21FAE70122E5E7042A01D88422E8E7D6
:10315000082A01D88522E4E7102A01D88622E0E770
:103160008722DEE729FEFF1F08B003400CB00340B2
:103170001501002020B003402AFEFF1F24B00340A9
:10318000160100207047FFFF1FB572B67023412162
:10319000144A1370144B1970144B32391970802370
:1031A000137013785BB2002BFBDA114B186862B610
:1031B000104B984201D80A23584301AC0A2221003F
:1031C000FEF73CFB00220C49A05C130001320028F2
:1031D00004D05300C8520A2AF6D1130001335B0011
:1031E0000B701FBD000002400700024006000240B5
:1031F000080002407F969800B2FEFF1F02B471469D
:1032000049084900095649008E4402BC7047C0462F
:1032100002B4714649084900095C49008E4402BC69
:103220007047C046002243088B4274D303098B4287
:103230005FD3030A8B4244D3030B8B4228D3030C86
:103240008B420DD3FF22090212BA030C8B4202D328
:103250001212090265D0030B8B4219D300E0090A50
:10326000C30B8B4201D3CB03C01A5241830B8B4259
:1032700001D38B03C01A5241430B8B4201D34B0342
:10328000C01A5241030B8B4201D30B03C01A5241A7
:10329000C30A8B4201D3CB02C01A5241830A8B422C
:1032A00001D38B02C01A5241430A8B4201D34B0215
:1032B000C01A5241030A8B4201D30B02C01A524179
:1032C000CDD2C3098B4201D3CB01C01A524183092D
:1032D0008B4201D38B01C01A524143098B4201D367
:1032E0004B01C01A524103098B4201D30B01C01A92
:1032F0005241C3088B4201D3CB00C01A524183080C
:103300008B4201D38B00C01A524143088B4201D338
:103310004B00C01A5241411A00D201465241104698
:103320007047FFE701B5002000F0F0F802BDC0468D
:103330000029F7D076E7704703460B437FD400227D
:1033400043088B4274D303098B425FD3030A8B4239
:1033500044D3030B8B4228D3030C8B420DD3FF22A3
:10336000090212BA030C8B4202D31212090265D071
:10337000030B8B4219D300E0090AC30B8B4201D324
:10338000CB03C01A5241830B8B4201D38B03C01A6B
:103390005241430B8B4201D34B03C01A5241030BE2
:1033A0008B4201D30B03C01A5241C30A8B4201D393
:1033B000CB02C01A5241830A8B4201D38B02C01A3E
:1033C0005241430A8B4201D34B02C01A5241030AB5
:1033D0008B4201D30B02C01A5241CDD2C3098B429A
:1033E00001D3CB01C01A524183098B4201D38B0117
:1033F000C01A524143098B4201D34B01C01A5241BA
:1034000003098B4201D30B01C01A5241C3088B42FE
:1034100001D3CB00C01A524183088B4201D38B00E9
:10342000C01A524143088B4201D34B00C01A52418B
:10343000411A00D201465241104670475DE0CA0F62
:1034400000D04942031000D34042534000229C4622
:1034500003098B422DD3030A8B4212D3FC2289012C
:1034600012BA030A8B420CD3890192118B4208D302
:10347000890192118B4204D389013AD0921100E064
:103480008909C3098B4201D3CB01C01A5241830978
:103490008B4201D38B01C01A524143098B4201D3A5
:1034A0004B01C01A524103098B4201D30B01C01AD0
:1034B0005241C3088B4201D3CB00C01A524183084A
:1034C0008B4201D38B00C01A5241D9D243088B42A0
:1034D00001D34B00C01A5241411A00D20146634643
:1034E00052415B10104601D34042002B00D54942A7
:1034F000704763465B1000D3404201B5002000F0E6
:1035000005F802BD0029F8D016E770477047C0469D
:103510001C2101231B04984201D3000C10391B0A03
:10352000984201D3000A08391B09984201D30009C7
:10353000043902A2105C40187047C046040302021E
:1035400001010101000000000000000010B5034B64
:103550000100186800F030F810BDC04614FFFF1FCE
:1035600010B5034B0100186800F006F910BDC04605
:1035700014FFFF1F70B50F4E0D00316804000029C5
:1035800002D100F0ABF830602900200000F0A6F86E
:10359000431C0AD00323C51C9D43A84207D0291A07
:1035A000200000F09BF8013001D101256D42280078
:1035B00070BDC0461C010020F7B50322CB1C93430D
:1035C000083306001F000C2B34D20C27B94233D825
:1035D000300000F06BF8344D2B681C00002C30D10B
:1035E00039003000FFF7C6FF0400431C59D12C6896
:1035F0002500002D4CD1002C4DD023682900E31864
:103600003000019300F06AF8019B834243D12368A4
:103610000337FF1A03239F4308370C2F00D20C27D0
:1036200039003000FFF7A6FF013034D02368DB19E2
:10363000236013E0002BC9DA0C2300253360280037
:10364000FEBD2168C91B20D40B2917D9E2192760B8
:10365000A34211D12A6063681160536030002500D5
:1036600000F02CF807220B35231D9543EA1A9D42E2
:10367000E5D05B1BA350E2E75A60ECE76268A34227
:1036800001D12A60EAE75A60E8E723006468A5E709
:103690002C006D68ADE70C233000336000F00EF8AD
:1036A000CDE72760DAE7C0461801002010B50248D0
:1036B00000F050F810BDC0465C02002010B5024872
:1036C00000F049F810BDC0465C02002003008218DB
:1036D000934200D1704719700133F9E7002370B5A8
:1036E000064D040008002B60FEF762F8431C03D16E
:1036F0002B68002B00D0236070BDC046580200200C
:10370000014B18687047C04614FFFF1F70B50026B4
:103710000C4C0D4D641BA410A64209D1002600F0EC
:10372000D5F90A4C0A4D641BA410A64205D170BD00
:10373000B300EB5898470136EEE7B300EB589847D3
:103740000136F2E7D83A0000D83A0000DC3A00002F
:10375000D83A000070477047002310B59A4200D154
:1037600010BDCC5CC4540133F8E70023C25C0133C4
:10377000002AFBD1581E704770B50500002910D0F3
:103780000C1F2368002B00DAE4182800FFF78EFFD7
:103790001D4A1368002B05D1636014602800FFF7F1
:1037A0008DFF70BDA34208D9206821188B42F3D148
:1037B00019685B6809182160EEE71A005B68002B46
:1037C00001D0A342F9D911685018A0420BD120684A
:1037D0000918501811608342E0D118685B684118DD
:1037E00011605360DAE7A04202D90C232B60D5E7C1
:1037F000206821188B4203D119685B680918216081
:1038000063605460CAE7C046180100207701080FC2
:1038100001010077E2FE0F01030077E2FE0F0108CD
:103820000077E2FE0F01090077E2FE0F0104006558
:1038300000000000006900000000007700FC0F019C
:10384000010077E2FE0F0100007703080F0100007E
:103850007704080F0200FC000000007700080F0842
:10386000000000000004007700080F0803000000BB
:1038700000FC0200007700080F08040000000000B0
:103880000100007700FC0F00007700FD0F00000032
:1038900000FC000200750000000000FF00000000B6
:1038A0000000000091150000B51500006D16000025
:1038B000651600005D160000551600004D1600004C
:1038C000591500002D160000251600001B160000DB
:1038D0001116000005160000F5150000E5150000A2
:1038E000DD150000D1150000C515000035150000DC
:1038F000411500004D150000E90400009D15000071
:1039000085150000420000F840A0044001000000BE
:10391000420000F844A0044002000000C00000F88B
:1039200000C0044001000000000000F804900440C2
:1039300002000000000000F80890044004000000AD
:10394000C00000F81CC0044080000000C00000F867
:1039500010C0044010000000C00000F808C004407F
:1039600004000000C00000F80CC004400800000083
:10397000800000F80CB0044008000000800000F84F
:1039800010B0044010000000800000F818B004409F
:1039900040000000800000F81CB0044080000000DF
:1039A000800000F814B0044020000000C00000F8BF
:1039B00004C0044002000000800000F800B0044091
:1039C00001000000400000F800A0044001000000D9
:1039D000400000F804A0044002000000400000F88D
:1039E0000CA0044008000000400000F808A00440BB
:1039F00004000000C00000F814C0044020000000D3
:103A0000C00000F818C0044040000000800000F82A
:103A100004B0044002000000800000F808B0044038
:103A200004000000020100F850D004401000000023
:103A3000020100F854D0044020000000030100F807
:103A400078D00440400000000000000000000000AA
:103A5000912B0000852B00007D2B0000752B0000B2
:103A60006D2B0000652B00005D2B0000552B000026
:103A700000FFFFFF000100006EFEFF1F12000000AC
:103A8000000200002BFEFF1F4300000000030000A7
:103A900080FEFF1F000000000103090484FEFF1FD9
:103AA00000000000020309049CFEFF1F000000004C
:103AB00003030904B2FEFF1F000000000000000025
:103AC000000000000000000000151915F8B5C04600
:0C3AD000F8BC08BC9E467047390400009A
:043ADC00F8B5C04633
:103AE000E00704EC00FB0F00FBC013BFE607C0BFFC
:103AF000EC07C0BFEE07CFEB07ECF5EA07FCB2FF1F
:103B00000E72FCB2FF0E76FCB2FF0E77FCB2FF0E17
:103B10009EFDFCB2FF0E73624C69DD6D4C77DD1DBE
:103B20004C72DD294C65DD324C75DD62FCA1FF0E67
:103B3000D5EA07DFC8AFE60712ECEB070FFCB2FFD0
:103B40000E119BA793DFF6FE4C00EEE3FF118BFCFA
:103B5000A1FF0EA793DFF6EED6FF61FFFCF8FF0E84
:103B60008F02084C0FDD0B624CFFDF11FCC4080F05
:103B7000EFF5624CFFDF06FC04F00EEFF5C361CFFA
:103B8000C262FCA1FF0EEEA7FFE5EA07EF03E5EA3C
:103B900007FE0200EF9A5100FCA1FF0ED7FFFFFFC6
:103BA000FFFFFFFFFFFFFFFFFFFF0000A438000043
:103BB00000000000E80300000000000001230000F6
:103BC000600200201A0000004000000040000000D9
:103BD00001010000503A000000000000E80300006E
:103BE00000000000FFFFFFFF010A0409024300027A
:103BF0000100C03209040000010202010005240096
:103C00001001052401010104240206052406000117
:103C10000705820310004009040100020A000000A9
:103C2000070503024000000705840240000012015E
:103C3000100102000040C016830473020102030158
:103C40000403090418035400650065006E00730046
:103C500079006400750069006E006F00160355005E
:103C600053004200200053006500720069006100AB
:103C70006C000C03000000000000000000000000C9
:103C800000000000000000000000000020010020F3
:103C900088010020F001002000000000000000006A
:103CA0000000000000000000000000000000000014
:103CB0000000000000000000000000000000000004
:103CC00000000000000000000000000000000000F4
:083CD00000000000C8FEFF1F08
:00000001FF
