:1000000000200020F9000000492300000523000023
:100010000523000005230000052300000523000040
:1000200005230000052300000523000049230000EC
:100030004923000005230000913E0000953E00008A
:100040004923000049230000492300004923000000
:1000500049230000492300004923000049230000F0
:1000600049230000492300004923000049230000E0
:1000700049230000492300004923000049230000D0
:10008000D52D00004923000049230000492300002A
:1000900049230000492300004923000049230000B0
:1000A00049230000492300004923000049230000A0
:1000B0004923000049230000492300004923000090
:1000C0004923000049230000492300002D3100008E
:1000D0004923000049230000492300004923000070
:1000E0004923000049230000492300004923000060
:1000F0004923000049230000554B4CF2205210B513
:10010000DA814DF62812DA8100BF00BF02F020F933
:10011000504B514A9A63514ADA63514A136913F4B6
:10012000807303D153614FF4A85313614D4B9A78F8
:10013000110703D59A7842F008029A704A4B4B484F
:100140002A221A704A4BDA1C121AC11E22F003022C
:10015000994288BF0022474902F000F8464B4748C1
:10016000DA1C121AC11E22F00302994288BF002233
:10017000002104F027FA42494248F82201F0EEFF3C
:10018000414B424A802103F8011B9342FBD14FF0BF
:10019000E0233C4AC3F8082D3D4B8A221A70A3F590
:1001A000805324225A70A0221A709A799207FCD5A3
:1001B0009A79D406FCD4374B9A7902F00C02082ABB
:1001C000FAD103221A7140225A719A799006FCD50D
:1001D000304A93795906FCD51E4B2F4959640221A8
:1001E000996420211170917901F00C010C29FAD148
:1001F0002A4A5A604FF0E023294A5A6100229A6144
:1002000007221A61274AC3F8202D62B602F01AF9B4
:10021000134B5B69DA0705D5234802F007F9234B36
:10022000234ADA61234B1B785B0609D51F4C204B10
:10023000E2699A4204D11C4802F0F8F80023E36115
:1002400002F08CF804F028FA01F080FFFEE700BF0E
:100250000020054000800440823F04000100002B84
:1002600000D0034000D0074000E0074058E5FF1FE2
:1002700048ECFF1F144E000058F1FF1F48ECFF1F11
:100280000000000000E1FF1F00E400E02EE400E0B9
:10029000005006400040064000000301C010050069
:1002A000FF76010000002020E011896800E0034093
:1002B000A5C3945A00F00740FFFFFFFFFFFFFFFFB9
:1002C000FFFFFFFFFFFFFFFFFFFFFFFFFFFFFFFF3E
:1002D000FFFFFFFFFFFFFFFFFFFFFFFFFFFFFFFF2E
:1002E000FFFFFFFFFFFFFFFFFFFFFFFFFFFFFFFF1E
:1002F000FFFFFFFFFFFFFFFFFFFFFFFFFFFFFFFF0E
:10030000FFFFFFFFFFFFFFFFFFFFFFFFFFFFFFFFFD
:10031000FFFFFFFFFFFFFFFFFFFFFFFFFFFFFFFFED
:10032000FFFFFFFFFFFFFFFFFFFFFFFFFFFFFFFFDD
:10033000FFFFFFFFFFFFFFFFFFFFFFFFFFFFFFFFCD
:10034000FFFFFFFFFFFFFFFFFFFFFFFFFFFFFFFFBD
:10035000FFFFFFFFFFFFFFFFFFFFFFFFFFFFFFFFAD
:10036000FFFFFFFFFFFFFFFFFFFFFFFFFFFFFFFF9D
:10037000FFFFFFFFFFFFFFFFFFFFFFFFFFFFFFFF8D
:10038000FFFFFFFFFFFFFFFFFFFFFFFFFFFFFFFF7D
:10039000FFFFFFFFFFFFFFFFFFFFFFFFFFFFFFFF6D
:1003A000FFFFFFFFFFFFFFFFFFFFFFFFFFFFFFFF5D
:1003B000FFFFFFFFFFFFFFFFFFFFFFFFFFFFFFFF4D
:1003C000FFFFFFFFFFFFFFFFFFFFFFFFFFFFFFFF3D
:1003D000FFFFFFFFFFFFFFFFFFFFFFFFFFFFFFFF2D
:1003E000FFFFFFFFFFFFFFFFFFFFFFFFFFFFFFFF1D
:1003F000FFFFFFFFFFFFFFFFFFFFFFFFFFFFFFFF0D
:10040000FFFFFFFFFFFFFFFFFFFFFFFFDEF9FFFF23
:100410000548064B1B1AD90F01EBA301491002D066
:10042000034B03B11847704748ECFF1F48ECFF1F10
:100430000000000008B5054B1BB105490548AFF3A6
:100440000080BDE80840FFF7E3BF00BF00000000E8
:1004500048ECFF1F144E000070B51A4C0D2082B0FE
:10046000012102F039F8261D65204FF4486501E0AE
:1004700014F8010F02F054FB2B46013BFDD102F0B2
:1004800019FCB442F4D1013DFDD10F4C00210D20E7
:1004900002F022F823680093009E42F2107505E0F6
:1004A00023680193019B9B1BAB4208D802F0EEFB33
:1004B0000028F5DD02F0FEFBC0B202B070BDEF20F7
:1004C00002B070BD804B000074ECFF1F70B50121BD
:1004D0000D20644C02F000F80D20012101F0FCFF1A
:1004E000261D69204FF4486501E014F8010F02F061
:1004F00017FB2B46013BFDD102F0DCFBB442F4D1EB
:10050000013DFDD100210D2001F0E6FF02F0D2FBFC
:10051000C0B2002840F0A380534C0D20012101F00F
:10052000DBFF661D77204FF4486501E014F8010FEA
:1005300002F0F6FA2B46013BFDD102F0BBFBB442C0
:10054000F4D1013DFDD100210D2001F0C5FF02F0E5
:10055000B1FBC0B2002840F08280444C0D20012144
:1005600001F0BAFF661D77204FF4486501E014F8EA
:10057000010F02F0D5FA2B46013BFDD102F09AFBA8
:10058000B442F4D1013DFDD100210D2001F0A4FFC2
:1005900002F090FBC0B2002861D1354C0D20012142
:1005A00001F09AFF661D77204FF4486501E014F8CA
:1005B000010F02F0B5FA2B46013BFDD102F07AFBA8
:1005C000B442F4D1013DFDD100210D2001F084FFA2
:1005D00002F070FBC0B2002841D1264C0D20012151
:1005E00001F07AFFA61D77204FF4486501E014F86A
:1005F000010F02F095FA2B46013BFDD102F05AFBA8
:10060000B442F4D1013DFDD100210D2001F064FF81
:1006100002F050FBC0B210BB174C0D20012101F0BD
:100620005BFF661D77204FF4486501E014F8010F69
:1006300002F076FA2B46013BFDD102F03BFBA642CD
:10064000F4D1013DFDD100210D2001F045FF02F064
:1006500031FBC0B218B9BDE87040FFF7FDBEE02025
:1006600070BD00BF884B0000904B0000984B00000D
:10067000A04B0000A84B0000584B00002DE9F041B2
:1006800082B0002701AE4FF448644FF072083A0A76
:100690003B0C80250D2001218DF804508DF8008041
:1006A0008DF801708DF802208DF803306D4601F051
:1006B00013FF404601E015F8010F02F031FA23461E
:1006C000013BFDD102F0F6FAB542F4D12346013BDD
:1006D000FDD100210D2001F0FFFE802502E0234620
:1006E000013BFDD102F0D2FA0028F8D002F0E2FA84
:1006F000C0B203F0B1FA013DF4D18037B7F5002F55
:10070000C3D1284602B0BDE8F08100BF2DE9F04317
:100710004F4D89B02B680093009C42F2107605E0A3
:100720000193019B1B1BB34200F28D8003F094F9EF
:1007300003282B68F4DD00240393CDE90444039FD0
:10074000444E0694ADF81C4006E02B680293029BD1
:10075000B268DB1B934273D204ABC4F104011819D5
:1007600003F090F90444032CEFD99DF812009DF892
:1007700013309DF810109DF8112003EB002302EBBD
:1007800001229BB292B201339A424FEA82274FEA8A
:10079000832949D20DF115064FF000084FF4486443
:1007A00072213A0A3B0C80258DF810100D20012192
:1007B000CDF81480CDF818808DF81450ADF81C8059
:1007C0008DF811708DF812208DF8133001F084FE31
:1007D00004AD15F8010B02F0A3F92346013BFDD14E
:1007E00002F068FAB542F4D12346013BFDD1002165
:1007F0000D2001F071FE802502E02346013BFDD172
:1008000002F044FA0028F8D002F054FAC0B203F023
:1008100023FA013DF4D18037B945C1D803F01CF962
:10082000002805DD03F0DCF803F016F90028F9DCF8
:1008300000210D2001F050FE002009B0BDE8F0833A
:100840000123337391E7EB2009B0BDE8F08300BFCB
:1008500074ECFF1F50E6FF1F2DE9F04F624D89B089
:100860002B680093009C42F2107605E00193019BF7
:100870001B1BB34200F2AA8003F0EEF803282B689A
:10088000F4DD00240393CDE90444039E574F0694FE
:10089000ADF81C4007E02B680293029BBA689B1BD3
:1008A000934280F09D8004ABC4F10401181903F059
:1008B000E9F80444032CEED99DF812009DF813309A
:1008C0009DF810109DF8112003EB002302EB01228C
:1008D0009BB292B201339A424FEA82264FEA832AB0
:1008E0006FD2434B434D03F108080D20012101F065
:1008F000F3FD414FC6F3072BC6F3074977204FF4AA
:10090000486401E017F8010F02F00AF92346013BA1
:10091000FDD102F0CFF9AF42F4D1013CFDD100216D
:100920000D2001F0D9FD02F0C5F910F0FF0352D1FE
:100930002F4A059392E8030004908DF8141098E86C
:100940000300ADF81C3006908DF81C100D2001211D
:100950008DF816B08DF8179001F0BEFD04AC0DF1C6
:100960001D0B4FF4486914F8010B02F0D9F84B46FF
:10097000013BFDD102F09EF95C45F4D14B46013BB1
:10098000FDD100210D2001F0A7FD02F093F9C0B2C6
:1009900008BBFFF761FD0346A0B903F05DF9B9F1AB
:1009A0000109FCD101E003F01BF803F055F8002821
:1009B000F9DC00210D2006F5806601F08DFDB245C1
:1009C00093D80023184609B0BDE8F08FEB231846F2
:1009D00009B0BDE8F08FE423184609B0BDE8F08FF8
:1009E00001233B7368E700BF74ECFF1F50E6FF1F55
:1009F000B04B0000654B0000604B00002DE9F04F4C
:100A0000634D89B02B680093009C42F2107605E09C
:100A10000193019B1B1BB34200F2AB8003F01CF857
:100A200003282B68F4DD00240393CDE90444039EDE
:100A3000584F0694ADF81C4007E02B680293029BC8
:100A4000BA689B1B934280F0988004ABC4F1040108
:100A5000181903F017F80444032CEED99DF812007E
:100A60009DF813309DF810109DF8112003EB002322
:100A700002EB01229BB292B201339A424FEA8226E4
:100A80004FEA832A71D2444B444D03F108080D20EC
:100A9000012101F021FD424FC6F3072BC6F30749A0
:100AA00077204FF4486401E017F8010F02F038F89E
:100AB0002346013BFDD102F0FDF8AF42F4D1013CE9
:100AC000FDD100210D2001F007FD02F0F3F810F038
:100AD000FF0355D1304A059392E8030004908DF846
:100AE000141098E80300ADF81C3006908DF81C1027
:100AF0000D2001218DF816B08DF8179001F0ECFC57
:100B000004AC0DF11D0B4FF4486914F8010B02F011
:100B100007F84B46013BFDD102F0CCF8A345F4D1D8
:100B2000B9F10109FCD100210D2001F0D5FC02F042
:100B3000C1F8C0B240BBFFF78FFC08B11B2815D12C
:100B400003F08AF84FF44863013BFDD101E002F065
:100B500047FF02F081FF0028F9DC00210D2006F597
:100B6000806601F0B9FCB24591D8002009B0BDE81B
:100B7000F08FEB2009B0BDE8F08F01233B736DE7E8
:100B8000E82009B0BDE8F08FE42009B0BDE8F08F9F
:100B900074ECFF1F50E6FF1FB04B00006D4B0000D0
:100BA000684B00002DE9F041584F0D2082B0012123
:100BB00001F092FC7E1D3C4677204FF4486501E031
:100BC00014F8010F01F0ACFF2B46013BFDD102F000
:100BD00071F8B442F4D1013DFDD100210D2001F0A6
:100BE0007BFC02F067F810F0FF0340F08980484C6E
:100BF000ADF804300D2001218DF8063004F10C0809
:100C000001F06AFC4FF44865772001E014F8010F09
:100C100001F086FF2B46013BFDD102F04BF8444525
:100C2000F4D1013DFDD100210D2001F055FC02F071
:100C300041F8C0B200285ED1FFF70EFC0446002840
:100C40005AD102F037F85FFA80F88DF8048002F08C
:100C500031F80121C5B20D208DF805504FF44864DC
:100C600001F03AFC772001E017F8010F01F058FF7E
:100C70002346013BFDD102F01DF8B742F4D1013CFF
:100C8000FDD100210D2001F027FC02F013F8C0B2C5
:100C9000002835D11F4C0D20012101F01DFC04F16D
:100CA0000C0777204FF4486601E014F8010F01F0BB
:100CB00037FF3346013BFDD101F0FCFFA742F4D1E1
:100CC000013EFDD100210D2001F006FC01F0F2FFF4
:100CD000C0B280B9FFF7C0FB044668B901F0EAFF73
:100CE0000646404602F0B8FF284602F0B5FFF0B2D3
:100CF00002F0B2FF00E0E424204602B0BDE8F0813B
:100D0000E824204602B0BDE8F08100BF704B00002F
:100D1000C04B0000D04B00002DE9F04FA04CADF2CD
:100D2000444D00214FF47F7211A8CDE90C110E91B2
:100D30008DF83C10109103F045FC23680493049E49
:100D400042F2107506E023680593059B9B1BAB429E
:100D500000F2EE8102F080FE0128F4DD23680993A1
:100D60000025CDE90C55099E8E4F0E958DF83C500F
:100D700007E023680893089BBA689B1B934280F0A6
:100D8000E3810CABC5F10201581902F07BFE05446A
:100D9000012DEED99DF83030019301219DF83130BD
:100DA00002930D2001F098FB23680693069FDFF85D
:100DB000F481002544F620660EE023680793079B24
:100DC000DB1BB34200F2BA8102F046FE1FFA80F943
:100DD000B9F1000F40F0BB81B5F5806FEDD3724FD4
:100DE0000D20012101F078FB3C1D3D4677204FF49A
:100DF000486601E015F8010F01F092FE3346013B11
:100E0000FDD101F057FFA542F4D1013EFDD10021F3
:100E10000D2001F061FB0DF13F050DF23F194FF47C
:100E2000486815F8010F01F07BFE4346013BFDD1F8
:100E300001F040FF4D45F4D101F004FFB8F1010885
:100E4000FCD101F037FFC0B2002840F0A981DFF8E3
:100E50005CA10D20012101F03FFB0AF1040556467B
:100E600077204FF4486801E016F8010F01F058FEB2
:100E70004346013BFDD101F01DFFAE42F4D1B8F174
:100E80000108FCD100210D2001F026FB0DF23F26C8
:100E90004FF4486819F8010F01F042FE4346013B48
:100EA000FDD101F007FFB145F4D101F0CBFEB8F15F
:100EB0000108FCD101F0FEFEC0B2002840F07D81A7
:100EC000DFF8EC90CDF80C900D20012101F004FB2F
:100ED00009F1050877204FF4486601E019F8010F81
:100EE00001F01EFE3346013BFDD101F0E3FEC1459A
:100EF000F4D1013EFDD100210D2001F0EDFA01F009
:100F0000D9FE10F0FF0040F05181019A029B8DF84C
:100F1000350003EB02239BB29A008DF836209A0924
:100F20009B0201930CAB02939B46224B8DF837201A
:100F300093E8030040330C908DF8341093E80300DD
:100F40000E908DF83C100D2001210DF13D094FF45C
:100F5000486601F0C1FA1BF8010B01F0E1FD3346D0
:100F6000013BFDD101F0A6FECB45F4D1013EFDD100
:100F700000210D2001F0B0FA01F09CFEC0B2002863
:100F800040F01481FFF768FA0646002840F0D1804F
:100F90000D20012101F0A0FA4FF4486677200DE002
:100FA00074ECFF1F50E6FF1FE04B0000E84B000011
:100FB000784B0000B04B000017F8010F01F0B0FDB6
:100FC0003346013BFDD101F075FEA742F4D1013E4D
:100FD000FDD100210D2001F07FFA0DF23F270DF227
:100FE0003F364FF4486417F8010F01F099FD23468E
:100FF000013BFDD101F05EFEB742F4D101F022FECB
:10100000013CFDD101F056FEC0B2002840F0C8807E
:101010000D20012101F060FA4FF44864772001E0CF
:101020001AF8010F01F07CFD2346013BFDD101F0D0
:1010300041FEAA45F4D1013CFDD100210D2001F073
:101040004BFA0DF23F440DF23F364FF4486516F867
:10105000010F01F065FD2B46013BFDD101F02AFE99
:10106000A642F4D101F0EEFD013DFDD101F022FEDA
:10107000C0B2002840F0A1800D20012101F02CFA1F
:101080004FF44864039D772001E015F8010F01F04B
:1010900047FD2346013BFDD101F00CFE4545F4D14F
:1010A000013CFDD100210D2001F016FA01F002FEF5
:1010B00010F0FF007AD1424A8DF8350092E8030023
:1010C0004032019B8DF834100C9092E8030003F538
:1010D00000731A0A0E908DF83C101B0C01210D2094
:1010E0008DF836208DF8373001F0F6F9029D4FF477
:1010F000486415F8010B01F013FD2346013BFDD1B7
:1011000001F0D8FD4D45F4D1013CFDD100210D2069
:1011100001F0E2F901F0CEFDC0B2002846D1FFF7A0
:101120009BF9064628B901460D2001F0D5F900E0EB
:10113000EB2630460DF2444DBDE8F08FEC263046EC
:101140000DF2444DBDE8F08F01233B7322E615FA02
:1011500080F0B0F5806F1CDC1FFA80FB23680B93D6
:10116000DDF82CA0002608E023680A930A9BD8F833
:101170000820A3EB0A0393421AD2A81910ABA9EBDB
:101180000601184402F07EFC0644B145ECD85D46E9
:1011900010E6C5F580691FFA89F94FF4806BDDE729
:1011A000E12630460DF2444DBDE8F08FE626C0E75B
:1011B000012388F80C305D46FCE5E226B9E700BF64
:1011C000B04B00002DE9F04F994DADF24C4D002190
:1011D0004FF47F7213A8CDE90E1110918DF84410D1
:1011E000129103F0EFF92B680693069E42F21074F9
:1011F00006E02B680793079B9B1BA34200F2B68275
:1012000002F02AFC0128F4DD2B680B930024CDE9C1
:101210000E440B9E874F10948DF8444007E02B68D6
:101220000A930A9BBA689B1B934280F0AD820EAB77
:10123000C4F10201181902F025FC0444012CEED976
:101240009DF83830009301210D209DF83990DFF88A
:10125000E48101F041F92B680893089F002444F6CB
:1012600020660EE02B680993099BDB1BB34200F25A
:10127000848202F0F1FB1FFA80FABAF1000F40F00D
:101280008682B4F5806FEDD36B4C0D20012101F007
:1012900023F9661D77204FF4486501E014F8010F2B
:1012A00001F03EFC2B46013BFDD101F003FDB442B1
:1012B000F4D1013DFDD100210D2001F00DF901F027
:1012C000F9FC10F0FF0040F08C825C4D8DF83D0081
:1012D00095E80300009B0E9005F1080709EB032930
:1012E0008DF83C1097E803001FFA89F3C3F38712C7
:1012F0009E009B02F6B2019310900EAB8DF8441045
:101300000D2001218DF83E6000928DF83F20029360
:101310000DF145049A464FF4486801F0DDF81AF8DB
:10132000010B01F0FDFB4346013BFDD101F0C2FC86
:10133000A245F4D1B8F10108FCD100210D2001F043
:10134000CBF801F0B7FCC0B2002840F05282FFF7A2
:1013500083F8824600285DD01B2840F00982DFF820
:10136000E0B00D20012101F0B7F80BF1050A77205C
:101370004FF4486801E01BF8010F01F0D1FB434630
:10138000013BFDD101F096FCD345F4D1B8F1010841
:10139000FCD100210D2001F09FF801F08BFC10F032
:1013A000FF0040F026828DF83D0095E803000E9086
:1013B0008DF83C1097E80300009B10908DF84410C6
:1013C0000D2001218DF83E608DF83F300DF1380A77
:1013D0004FF4486801F080F81AF8010B01F0A0FB07
:1013E0004346013BFDD101F065FCA245F4D1B8F1C3
:1013F0000108FCD100210D2001F06EF801F05AFC2B
:10140000C0B2002840F0F581FFF726F88246002898
:1014100040F0AE810B4B03931F460D20012101F0DC
:101420005BF83B469A46043777204FF448680DE056
:1014300074ECFF1F50E6FF1F684B0000B04B00002C
:10144000604B0000E04B00001AF8010F01F068FB50
:101450004346013BFDD101F02DFCBA45F4D1B8F172
:101460000108FCD100210D2001F036F80DF1470BE9
:101470000DF247184FF4486A1BF8010F01F050FBBA
:101480005346013BFDD101F015FCC345F4D101F0F9
:10149000D9FBBAF1010AFCD101F00CFCC0B2002862
:1014A00040F0AA81DFF814B2CDF810B00D20012170
:1014B00001F012F80BF1040977204FF4486A01E0BB
:1014C0001BF8010F01F02CFB5346013BFDD101F04D
:1014D000F1FBCB45F4D1BAF1010AFCD100210D207A
:1014E00000F0FAFF0DF2472B4FF4486A18F8010F8D
:1014F00001F016FB5346013BFDD101F0DBFBD84563
:10150000F4D101F09FFBBAF1010AFCD101F0D2FB4A
:10151000C0B2002840F07681DFF8A481CDF81480B5
:101520000D20012100F0D8FF08F1050B77204FF4C2
:10153000486A01E018F8010F01F0F2FA5346013B46
:10154000FDD101F0B7FBC345F4D1BAF1010AFCD1DA
:1015500000210D2000F0C0FF01F0ACFB10F0FF00F7
:1015600040F04D818DF83D0095E80300DFF854B15F
:101570000E908DF83C109BE80300009B10908DF8B6
:1015800044100D2001218DF83E608DF83F300DF1A3
:10159000380A4FF4486600F09FFF1AF8010B01F07B
:1015A000BFFA3346013BFDD101F084FBA245F4D1E3
:1015B000013EFDD100210D2000F08EFF01F07AFBED
:1015C000C0B2002840F01B81FEF746FF824600288B
:1015D00040F0CE800D20012100F07EFF4FF44866E0
:1015E000DDF80CA0772001E01AF8010F01F098FA5D
:1015F0003346013BFDD101F05DFBBA45F4D1013E1C
:10160000FDD100210D2000F067FF0DF2472A0DF2F9
:1016100047374FF448661AF8010F01F081FA334654
:10162000013BFDD101F046FBBA45F4D101F00AFBC4
:10163000013EFDD101F03EFBC0B2002840F0DC804D
:101640000D20012100F048FF4FF44866049F7720E9
:1016500001E017F8010F01F063FA3346013BFDD1B9
:1016600001F028FB4F45F4D1013EFDD100210D20B2
:1016700000F032FF0DF247460DF2473A4FF448674B
:101680001AF8010F01F04CFA3B46013BFDD101F085
:1016900011FBB245F4D101F0D5FA013FFDD101F0C3
:1016A00009FBC0B2002840F0AD800D20012100F000
:1016B00013FF4FF44866059F772007E0E84B0000D2
:1016C000784B0000F04B000017F8010F01F028FAEA
:1016D0003346013BFDD101F0EDFA4745F4D1013E1F
:1016E000FDD100210D2000F0F7FE01F0E3FA10F02B
:1016F000FF0040F084808DF83D0095E80300019BD9
:101700008DF83C100E909BE8030003F500731A0A55
:1017100010908DF844101B0C01210D208DF83E20F7
:101720008DF83F3000F0D8FE029E4FF4486516F861
:10173000010B01F0F5F92B46013BFDD101F0BAFA9E
:10174000A642F4D1013DFDD100210D2000F0C4FEE0
:1017500001F0B0FAC0B2002851D1FEF77DFE8246FA
:1017600030B901460D2000F0B7FE01E04FF0EB0A62
:1017700050460DF24C4DBDE8F08F4FF0EC0A50464C
:101780000DF24C4DBDE8F08F01233B7358E514FA80
:1017900080F0B0F5806F1CDC83B201932B680D9351
:1017A0000D9E4FF0000B07E02A680C920C9AD8F8B7
:1017B0000810921B8A4217D204EB0B0012ABAAEB63
:1017C0000B01184402F05EF98344DA45ECD8019C21
:1017D00045E5C4F5806A4FF480631FFA8AFA0193E5
:1017E000DCE74FF0E80AC3E70123019C88F80C30DE
:1017F00035E54FF0E40ABBE74FF0E10AB8E74FF0F8
:10180000E60AB5E74FF0E20AB2E700BF2DE9F04380
:10181000574F584D83B04FF0000901210D20CDF8EE
:1018200000908DF8049000F057FE4FF4FA514FF4F9
:10183000FA6000F059FC08218046012000F054FCB9
:1018400049460646052000F047FE4FF4A063013BE1
:10185000FDD101F02FF8052000F0A0FE01210520A8
:1018600000F03AFE052000F099FE4FF4E1313846D1
:1018700000F086FB6423BB60012000F08FFE2B7814
:10188000C5203B3B4FF448642B7001F049F92346D7
:10189000013BFDD12B78012001332B7001F040F981
:1018A0002346013BFDD10320287001F039F923467E
:1018B000013BFDD12B789A20663B2B7001F030F96B
:1018C0002346013BFDD1484601F02AF92346013B5E
:1018D000FDD12B78142014332B7001F021F923460D
:1018E000013BFDD12B785842C0B2C31A2B7001F0D6
:1018F00017F9013CFDD101E001F0DCF901F0C6F976
:101900000028F9DC2B78032003444FF448642B7043
:1019100001F006F92346013BFDD101F0CBF9052288
:101920006946384600F0C4FB9DF80230062B32D0E1
:10193000102B40F0F8805FEA481802D0B8F1010897
:10194000FCD10021042000F0C7FD760101D0013E4A
:10195000FDD10121042000F0BFFD01E001F0AAF952
:1019600001F094F90028F9DC40F2E734A02609E000
:1019700024E6FF1F61ECFF1F3346013BFDD1013C14
:101980003FF449AF01F082F90028F5DD01F092F94A
:10199000C0B20228F0D1052000F000FE2B78912083
:1019A0006F3B4FF448662B7001F0BAF83346013BA9
:1019B000FDD13A24012000F0F1FD20462C7001F009
:1019C000AFF83346013BFDD12B784E2003442B70FA
:1019D00001F0A6F83346013BFDD12B786F2003447C
:1019E0002B7001F09DF83346013BFDD12B7874201C
:1019F00003442B7001F094F83346013BFDD12B7862
:101A0000204623442B7001F08BF83346013BFDD177
:101A10002B78552003442B7001F082F83346013BAC
:101A2000FDD12B78732003442B7001F079F83346F5
:101A3000013BFDD12B78652003442B7001F070F839
:101A40003346013BFDD12B78642003442B7001F019
:101A500067F83346013BFDD12B78204623442B7099
:101A600001F05EF83346013BFDD128780138C0B261
:101A700043002B7001F054F83346013BFDD10120A7
:101A800000F08CFD2B7893206D3B2B7001F048F813
:101A90003346013BFDD10120284C00F07FFD04F1CD
:101AA000C3072B7814F8010F03442B7001F038F8AA
:101AB0003346013BFDD1BC42F3D1012000F06EFD65
:101AC0002B7893206D3B2B7001F02AF8013EFDD15D
:101AD00001201B4C00F062FDE71D4FF448662B7897
:101AE00014F8010F03442B7001F01AF83346013B40
:101AF000FDD1A742F3D1012000F050FD942001F068
:101B00000FF8052000F04AFD01E001F0D3F801F0E4
:101B1000BDF80028F9DC0D20002100F0DDFC0120DB
:101B200003B0BDE8F0832B78EE20123B2B7000F061
:101B3000F7FF013CFDD10020F2E700BF5FE5FF1F8A
:101B400057E5FF1F2DE9F043012183B00D2000F080
:101B5000C3FCB74DB74EB84F01F07EFF002800F030
:101B60009D8001F03DFFC0B20128287010D91028D7
:101B700000F09780202853D0802800F04681F0287C
:101B800000F030813B78002B00F05E812028E3D804
:101B90002028E1D801A353F820F000BFDD1D00008C
:101BA000B11D0000AB1D0000A51D00007B1D000045
:101BB000591B0000511D0000271D0000FD1C0000E6
:101BC000591B0000D31C0000591B0000591B0000CA
:101BD000591B0000591B0000591B0000A31C0000EA
:101BE000591B0000591B0000591B0000591B000025
:101BF000591B0000591B0000591B0000591B000015
:101C0000591B0000591B0000591B0000591B000004
:101C1000591B0000591B0000591B0000211C00002B
:101C200001210D20854C00F057FC0D20012100F012
:101C300053FC04F1040975204FF4486801E014F8DE
:101C4000010F00F06DFF4346013BFDD101F032F87A
:101C50004C45F4D1B8F10108FCD100210D2000F071
:101C60003BFC01F027F810F0FF0018BFE0203070B7
:101C700001F0F2FF4FF44863013BFDD101E001F0B8
:101C8000AFFE01F0E9FE0028F9DC00210D2000F094
:101C900023FC01F0E1FE00287FF463AF03B0BDE850
:101CA000F0833C7800203070002C00F0BA8001F006
:101CB000D3FF4FF44863013BFDD101E001F090FEFA
:101CC00001F0CAFE0028F9DC00210D2000F004FC20
:101CD000DFE7FEF767FF307001F0BEFF4FF44863A7
:101CE000013BFDD101E001F07BFE01F0B5FE0028D3
:101CF000F9DC00210D2000F0EFFBCAE7FEF77EFEC5
:101D0000307001F0A9FF4FF44863013BFDD101E0C1
:101D100001F066FE01F0A0FE0028F9DC00210D2094
:101D200000F0DAFBB5E7FFF74DFA307001F094FFF1
:101D30004FF44863013BFDD101E001F051FE01F099
:101D40008BFE0028F9DC00210D2000F0C5FBA0E788
:101D5000FEF7E2FF307001F07FFF4FF44863013B74
:101D6000FDD101E001F03CFE01F076FE0028F9DC37
:101D700000210D2000F0B0FB8BE7FEF76DFD307009
:101D800001F06AFF4FF44863013BFDD101E001F02F
:101D900027FE01F061FE0028F9DC00210D2000F093
:101DA0009BFB76E7FEF76AFCD6E6FEF7AFFCD3E6D0
:101DB000012002F03BF9224C804602F03FF901ABD2
:101DC000A3EB08032380052001F046FF2088000ACA
:101DD00001F042FF207801F03FFFBDE6022001F054
:101DE0003BFFB9E6012002F021F9154C804602F0D4
:101DF00025F901ABA3EB08030220238001F02CFF9F
:101E0000052001F029FF3020DEE700210D2000F041
:101E100063FB4FF4FA7000F0C1FB0A4B1B68984754
:101E20009AE6FFF7F3FC307008BBE12030703EE724
:101E300060ECFF1F6CECFF1F64ECFF1FF84B000011
:101E400062ECFF1F68ECFF1FE02001F005FF4FF47C
:101E50004863013BFDD101E001F0C2FD01F0FCFD52
:101E60000028F9DC00210D2000F036FB11E7FEF719
:101E70002DFB307010B901233B7018E73C7016E75A
:101E80002DE9F843314F324D324CDFF8CC903846D3
:101E90004FF4E13100F074F86423BB602E682F4FDB
:101EA00040F2EE2801F05AFF2378002B40D03B7817
:101EB000DA073DD52B68D9F800209B1A0E2B37D9AD
:101EC00001210D2000F02EFB0121052000F02AFB4E
:101ED0000121042000F026FB0121084600F022FB2E
:101EE0000021084600F01EFB0021052000F0F4FA56
:101EF0000021012000F0F0FA0021084600F0ECFA81
:101F00000121042000F0E8FA01F028FF2378002BDB
:101F1000FAD03B78DB07F7D52B68D9F800209B1A5D
:101F20000E2BF1D9BDE8F84301210D2000F0D4BA01
:101F30002B6822789B1B2AB1B3F5FA6FC0D801F049
:101F40000DFFAFE74345FAD9BAE700BF24E6FF1F0C
:101F500074ECFF1FF8EDFF1F20EEFF1F1CEEFF1FAC
:101F60000368C9B21B6818470368C9B21B681847E1
:101F70000368C9B21B6818470368C9B21B681847D1
:101F80004B0803F1376303F5D83310B50446B3FBB0
:101F9000F1F000F0C5FB044B1B7803B110BD2046E7
:101FA000BDE8104001F07EBF4DE6FF1F08B50846B2
:101FB00000F0B6FD012008BD08B5084600F0B0FDF0
:101FC000012008BD38B508460D4602F099FB0446CD
:101FD0000146284600F0AEFD204638BD10B5084643
:101FE0001446114600F0A6FD204610BD08461146D5
:101FF00000F0CEBF0846114600F0AEBF00F0C6BEEE
:1020000008B5084600F062FD003818BF012008BD81
:1020100008B5084600F038FD003818BF012008BD9B
:102020000846114600F0C8BC084600F003BD00BFDA
:10203000084600F0A5BC00BF00F03CBC10B54B0842
:1020400003F13763144603F5D833B3FBF1F000F026
:1020500067FB2046BDE8104000F0CEBB00F070BE2C
:1020600000F028BE00F012BE00F0ECBD00F0F6BD9E
:1020700070B50E4D82B02B680093009E044608E0B8
:1020800001F06CFE2B680193019BA2689B1B93429D
:1020900007D2236820465B6998470028F0DB02B02E
:1020A00070BD4FF0FF3002B070BD00BF74ECFF1F79
:1020B000F8B50D4691B116469AB10746002404E0E2
:1020C0000134A64205F8010B06D03846FFF7D0FFD1
:1020D0000028F5DA01233B732046F8BD0C46204664
:1020E000F8BD1446F8E700BF884200DB704770B4C3
:1020F000114C2268091AEAB1104B114E114D83FBA5
:10210000023C9444D317C3EB2C4306FB132244F246
:10211000A71C05FB03F30CFB0233002B02DA03F1CF
:102120000043013BB3FBF1F201FB12322360104488
:1021300070BC7047044BF5E770ECFF1F5F0B4E83DC
:102140001DF30100ECF4FFFF42CE0C1F08B5FFF7B2
:1021500097FEFFF7F7FC01F001FEFAE701B441EA50
:10216000000313F003036FD1403A41D351F8043B0D
:1021700040F8043B51F8043B40F8043B51F8043B61
:1021800040F8043B51F8043B40F8043B51F8043B51
:1021900040F8043B51F8043B40F8043B51F8043B41
:1021A00040F8043B51F8043B40F8043B51F8043B31
:1021B00040F8043B51F8043B40F8043B51F8043B21
:1021C00040F8043B51F8043B40F8043B51F8043B11
:1021D00040F8043B51F8043B40F8043B51F8043B01
:1021E00040F8043B51F8043B40F8043B403ABDD270
:1021F000303211D351F8043B40F8043B51F8043B12
:1022000040F8043B51F8043B40F8043B51F8043BD0
:1022100040F8043B103AEDD20C3205D351F8043BA0
:1022200040F8043B043AF9D204320AD0D2071CBF6A
:1022300011F8013B00F8013B03D30B7803704B7896
:10224000437001BC704700BF0C2A4AD310F003034F
:1022500011D0C3F10403D21ADB071CBF11F8013BF4
:1022600000F8013B07D311F8013B00F8013B11F8DE
:10227000013B00F8013B11F003033FF475AF30B4AC
:10228000043AC91AC3F1040C51F8044B022B19D0BB
:10229000032B0BD0240A51F8043B1D0644EA050425
:1022A00040F8044B1C46043AF4D216E0240E51F8D0
:1022B000043B1D0244EA050440F8044B1C46043A62
:1022C000F4D20AE0240C51F8043B1D0444EA05044E
:1022D00040F8044B1C46043AF4D20432B1EB0C0132
:1022E00030BC043AA0D3013A11F8013B00F8013B9D
:1022F000F9D20B7803704B7843708B78837001BCF4
:10230000704700BF08B50F4C636B58030DD4636B67
:1023100059050FD4636B1A0511D4636BDB04F3D535
:1023200000F012F8636B5803F1D500F0FFFE636B09
:102330005905EFD500F04EFD636B1A05EDD500F0A1
:1023400003F8EAE70080044008B5FFF7DBFF00BFB1
:10235000014B10221A80704700200540704700BFD3
:10236000094A08B50346106833B169460344A1F52C
:1023700080618B4201D2136008BD02F087F90C2303
:1023800003604FF0FF3008BD38E6FF1FEFF3138303
:10239000CBB9EFF31080A0B9EFF3058343B94FF445
:1023A0008070EFF311835BB1984228BF18467047E5
:1023B0000F2BF6D9054AD05CEFF31183002BF3D134
:1023C0007047184670474FF0FF307047F0E300E069
:1023D00001F1FF3C70B56546002401E07046013410
:1023E000B0FBF2FE02FB1E03092B03F130068ABF8D
:1023F0003733F3B2DBB2904205F8013FEED2631CF3
:102400000022CA54C8187CB162461CF8015F10F85B
:1024100001ED8CF800E0A1EB0C030232013B521AF3
:1024200023449A420570EFDB084670BD034B00223F
:1024300010215A615A6018605961704700D00340FA
:10244000704700BFF0B54FF0E0204FF480744FF4B8
:102450000077C0F80441C0F804714FF48067C0F8F9
:1024600004711A4B1A494FF40067C0F8047128220E
:10247000092400264BF6FF754FF48057C0F804710D
:1024800083B05E609D60DA605A61DA615A62DA6236
:102490005A63DA635A641C604E608D60CA604A6198
:1024A0000C6001F027FDFFF7CBFF0A4C2368009377
:1024B000009B132BFAD901F0F3F923680193019BD8
:1024C000B3F5967FF9D303B0F0BD00BF00800340A1
:1024D0000090034074ECFF1F212816D810B4104B55
:1024E00053F8302092F880422CB1012371B982F860
:1024F000003110BC704703EBC0035B681A6849B138
:1025000042F0030210BC1A607047704782F88030B6
:1025100010BC704722F0020210BC1A60704700BF66
:10252000684C0000212820D81B4A02EBC003012977
:102530005B680FD004291DD052F83000002280F8CB
:10254000802299B1022922D003290DD14FF4817242
:102550001A60704752F830004FF4A27280F880126F
:102560001A601A6822F020021A6070474FF48072D5
:102570001A60704752F830104FF4A272012081F8AF
:1025800080021A601A6842F020021A60704740F216
:1025900003121A60704700BF684C00002DE9F84331
:1025A000044672B6204F4FF0E02293693D68D2F89E
:1025B000042D62B6520102D5322B88BF01350CB909
:1025C000BDE8F883DFF86490DFF86480A9EB0303CB
:1025D000A8FB03234FF47A7202FB05F505EB931574
:1025E0004FF0E02672B6B1693A68D6F804CD62B60B
:1025F000A9EB0103A8FB03031CF0806FC5EB931349
:102600004FF47A7002D0322988BF013200FB0233C6
:10261000B3F57A7F04D3013CD2D005F57A75E1E7B2
:1026200001F09CFBDEE700BF74ECFF1FFF760100AA
:10263000ABAAAAAA2DE9F84F314B1B6807460BB18C
:1026400001221A70DFF8BC90DFF8BC8099F80040D6
:10265000D8F800302D4D01349C422B782AD303F05A
:10266000FF0A002B3ED15446294EDFF8A8B005E002
:1026700033791B0623D42B78A3420AD1FFF786FEB9
:102680004028F5DDFF28F6DD01F068FB2B78A3423A
:10269000F4D03F2C29D9204B403C1B68FFB21F557A
:1026A0001E4A1B4B01211170BC2289F800A0DA7070
:1026B000BDE8F88F9C425FFA84FAD5D0E9E72B7821
:1026C000D8F800105A1C8A42DBB203D23F2A10D835
:1026D000D1B201E000210A461BF80230DBB2F371EF
:1026E0002970C8E74FF0000A54460A4BFFB21F5545
:1026F000D6E7D1B2084A3F3B1268D35CDBB2EEE7C3
:10270000C8ECFF1F10EDFF1F48E6FF1F18EDFF1F6D
:1027100000A00640D0ECFF1F14EDFF1FCCECFF1F04
:10272000294A2A49536B70B443F48063284D53639C
:1027300000232B70274E0B70274C284923703278CA
:102740000B7027490B7092B3152A03D1254B40F229
:1027500013329A61244B1B78012B30D0052B03D107
:10276000204B4FF45172DA612028204B204C38BFA7
:102770002020C0F3443C83F800C0C0F3471C00F0A5
:102780001F0083F801C00422987202209A70D87446
:1027900088205A754FF0E021187440223C20D870F0
:1027A00022744FF4803370BCC1F800317047114B74
:1027B00040F213321A640C4B1B78012BCED10D4B17
:1027C0004FF451725A64CFE700800440C4ECFF1FFD
:1027D000BCECFF1FC5ECFF1F10EDFF1F18EDFF1F26
:1027E000CCECFF1F00C004404CE6FF1F00A00640D9
:1027F00000E400E000A00440294B29499B7800F048
:10280000030203F0EC031343420700F00F0248BF3A
:1028100043F01003042A8B7003D18B7943F04003FB
:102820008B711F4B5A79C30602F0EF021C4B48BF55
:1028300042F010025A719A79810602F0EF0211D526
:1028400042F0100281059A710FD59A78154942F02D
:10285000A0029A700978144B03EBC10340F2463290
:102860005B6814E09A71820505D4104B104A196810
:10287000914211D070479A780A4942F0A0029A70AA
:102880000978094B03EBC10340F247325B68074903
:1028900007481A600860704700221A60704700BF3E
:1028A00000A006404CE6FF1F684C0000C8ECFF1F6C
:1028B000D400D442284B5B6B5B054CD510B5274C3C
:1028C000237823B101F04AFA2378002BFAD1244A65
:1028D000244B4FF0E0204FF480340021C0F88041B9
:1028E000D1701B7863B3152B1BD01F4B1B7803F0E3
:1028F0007F03012B1FD0052B0ED01C4B184A1C4CFC
:102900001C48196892F804C0D27900232370037020
:1029100009B101230B7010BD174B40F20312DA61AD
:10292000EBE7154B40F203129A610F4B1B7803F053
:102930007F03012BDFD1114B40F203125A64DCE715
:102940000E4B40F203121A64074B1B7803F07F030F
:10295000012BD0D1EFE7704700800440CCECFF1F83
:1029600000A00640C5ECFF1F4CE6FF1F78ECFF1FE0
:10297000BCECFF1FC4ECFF1F00C0044000A00440DB
:102980000A4A38B50546137803F0FF04002BFAD144
:1029900001212846FFF7C6FD21462846FFF79CFD8A
:1029A000034A044B52F835201A6038BDCCECFF1FA7
:1029B000684C0000C8ECFF1F09B140F08000194AC4
:1029C0001378834217D010B4174C646B64050FD58D
:1029D00003F07F03012B21D0052B14D0002900F038
:1029E0007F0314BF60214421012B10D0052B03D09D
:1029F000107010BC704770470C4B41F44071D961A6
:102A0000107010BC7047094B0024DC61E6E7084BEE
:102A100041F440715964107010BC7047044B00249D
:102A20005C64DBE74CE6FF1F0080044000C004400C
:102A300000A00440104A137883420AD00F49496B22
:102A4000490505D5ABB1152B09D068B1152801D0C2
:102A5000107070470A4B40F213319961F8E7084B48
:102A6000002199610028F1D1064B40F2133119641D
:102A7000EEE704490B64E8E7C5ECFF1F0080044063
:102A800000C0044000A004400D4B5B6B13F4806356
:102A900013D0212803D90B4B0020186070470A4B34
:102AA00010B5084C53F8303023600121FFF73AFD90
:102AB000236800221A70012010BD1846704700BF1D
:102AC0000080044078ECFF1F684C0000104B5B6BEB
:102AD00013F4806312D012280BD0142810D10D4BA0
:102AE00040F202325A610C4A537B01200343537374
:102AF00070470A4B40F20232DA60F4E7184670473A
:102B0000054A537B03F0FE0300205373704700BF58
:102B10000080044000C0044000A0064000A0044023
:102B2000034B5B6B5B0501D5FFF784BD704700BFAE
:102B3000008004402DE9F84F394B5B6B5A053CD5BA
:102B4000384B1B680BB101221A704718B84231D2BA
:102B5000354EDFF8D880364CDFF8D89000F1010A06
:102B600013E003F0FF0B53B34FF0000B5D46324A06
:102B70001AF8013C5355524630490123BA420B70B2
:102B80000AF1010A86F800B014D23578D8F800307E
:102B90000135AB422378E4D9AB425FFA85FB0FD015
:102BA0003F2DE4D9264B1AF8012C1B68403D5A559D
:102BB0005246E1E71F4BBC22DA70BDE8F88F5D4654
:102BC0006FF0430389F8033006E099F804301B06E0
:102BD0000BD42378AB42E3D1FFF7D8FB4028F4DDD8
:102BE000FF28F6DD01F0BAF8F3E72378D8F80010F3
:102BF0005A1C9142DBB203D93F2A0AD8D1B201E074
:102C000000210A460C4B9B5CDBB289F8073021702F
:102C1000DFE7D1B20A4A3F3B1268D35CDBB2F4E78C
:102C200000800440C8ECFF1F10EDFF1F48E6FF1FA7
:102C300018EDFF1F00A00640D0ECFF1FCCECFF1FDB
:102C400014EDFF1F10B5044C237823B101F086F872
:102C50002378002BFAD110BDCCECFF1F084A094B9A
:102C600011781A789142C8B2D3B202D2013B181A35
:102C70007047054A1268013A1344181A704700BF9A
:102C800010EDFF1F18EDFF1F48E6FF1F064A074B18
:102C900011781A789142D0B23CBF054A1268CBB283
:102CA00038BF9B18181A7047BCECFF1FC4ECFF1FFD
:102CB00044E6FF1F1B4B1C491A780B789A422ED012
:102CC00010B55FFA82FE194AD8B21268431C9A42C4
:102CD00019D93F2B1BD85FFA83FC1548C05CC0B2E2
:102CE00081F800C01349096861B19E453CBF724438
:102CF000D31A114A126828BFAEEB03039A4201D3DC
:102D000000230B7010BD4FF0000C6346E5E70B4C41
:102D10003F382468205C5FFA83FCC0B2E0E74FF0E4
:102D2000FF307047BCECFF1FC4ECFF1F44E6FF1FE1
:102D30007CECFF1F78ECFF1F40E6FF1FC0ECFF1F7D
:102D40000D4A0E4B11781B789942DAB211D00C491A
:102D50000968531C994207D93F2B06D9094B3F3AC2
:102D60001B68985CC0B270470023074AD05CC0B2B1
:102D700070474FF0FF307047BCECFF1FC4ECFF1FE3
:102D800044E6FF1FC0ECFF1F7CECFF1F0C4B5B6B8E
:102D90005B0514D50B4B0C48DA78402102F0CB02CE
:102DA000DA705974DA78094942F03402DA70084A64
:102DB00003781268DBB20B700AB1002313707047FE
:102DC0000080044000A00640C4ECFF1FBCECFF1FC5
:102DD00078ECFF1F2DE9F041504C237913F0300FB0
:102DE00047D072B6A37D03F0FF01002B58D062B626
:102DF000DFF82C814B4898F800304B4A057816686C
:102E00004A4F5FFA83FC4A4BEDB2D3F800E008E08A
:102E10001DB14FF0000C07F80C304A1E12F0FF01F4
:102E200012D0E3790CF101029642DBB2F0D995425F
:102E3000ACF13F00F1D03F2A6DD994464A1E12F002
:102E4000FF010EF80030ECD15FFA8CF388F8003007
:102E5000384B196869B1AC453CBF721B02EB0C03DF
:102E6000354A126828BFACEB05039A429CBF012388
:102E70000B702A48C3781E06DDB216D46A060DD53B
:102E8000264B1B795B0609D52C4B2D491B6800226C
:102E90000A7003B11A70214B3C22DA70BDE8F08150
:102EA0004023E279637462B6E3E703791C06E5D553
:102EB000244B254ADFF894E01C7816689EF8003011
:102EC000234A244FD2F800C0E4B2DBB207E0037912
:102ED0000023FA5CD2B2C271027D072A11D8A34244
:102EE00003F101010ED08E42F1D93F290279A3F1FD
:102EF0003F0301D80B46ECE71CF803200B46D2B287
:102F0000E9E7DCB2054B8EF800401A79110644BFA0
:102F10007C22DA70B2E794467DE700BF00A006404D
:102F2000BCECFF1FC4ECFF1F44E6FF1F7CECFF1F3F
:102F3000C0ECFF1F78ECFF1F3CE6FF1FC8ECFF1F33
:102F4000CCECFF1F10EDFF1F48E6FF1F18EDFF1F21
:102F500014EDFF1FD0ECFF1F094B10B4186060B1D7
:102F600001F14004074B084801F11A021A60074BAF
:102F70000460283110BC196070474024F2E700BF9C
:102F8000C0ECFF1F40E6FF1F44E6FF1F3CE6FF1FAB
:102F9000054B186018B1054B403119607047034B61
:102FA00040211960704700BF14EDFF1F48E6FF1F66
:102FB000704700BF431E032B17D872B60C4951F857
:102FC000230080B110B40B4CB0F800C034F81320CB
:102FD000A2EB0C02D0F804C041F823C024F813205F
:102FE00062B610BC704762B670470020704700BFE1
:102FF000ACEDFF1FFCEDFF1F013803280BD872B6A4
:10300000074B53F8203043B100205B680130002BA0
:10301000FBD162B67047002070471846F9E700BF41
:10302000D4EDFF1F10B472B6194A1A4C042312F8DB
:10303000011B090743F0010C05D554F8331061B1A9
:1030400054F83C10B9B10433142BF0D162B6124BD2
:1030500000221A7010BC00F09BBC0F4904EBC302A5
:10306000083050600A780D4844F83300013A0A707D
:1030700062B610BC7047084A094904EBCC0308301B
:103080005860137844F83C10013B137062B6F0E7C7
:10309000F84D000000E0FF1F04EEFF1F8800400015
:1030A000C8004000421E032A0ED81C4B400140F0CD
:1030B000100010B4034472B6194CA05C03281CD84D
:1030C000DFE800F01315031870470520A05413F033
:1030D000080F088814BFC8228822083142EA00423B
:1030E00059601A6062B610BC70470320EEE70833DF
:1030F0000220EBE708330420E8E70A4B53F82200EC
:1031000038B1094B53F82200416043F8221062B6EF
:10311000E9E743F82210044BF7E700BF00E0FF1F88
:10312000F4EDFF1FD4EDFF1FE4EDFF1F2DE9F04F7D
:10313000DFF8CCA2DFF8CCB285B03DE0B24D9E08FE
:1031400005EBC607013A796813F00803D4B2A1F180
:10315000080040F0B88055F836204FEA124C120CA7
:1031600021F808CC00F0A78021F8063C41F8043C87
:10317000A64B53F82420002A00F00182A44B53F8F8
:103180002420506043F82400A24B33F814209444C8
:1031900023F814C000F0DCFB002800F0E98117F0F0
:1031A000080F9D4B00F1080018BF5B46786045F89A
:1031B000363008238AF880309AF880305907DCB21C
:1031C0001BD5964B1B78ABB195490A7802F0FF03EB
:1031D0002AB1013BDBB20B70002B00F04683914912
:1031E0000A7802F0FF032AB1013BDBB20B70002B1F
:1031F00000F0EB8104238AF8803014F0080200F01C
:10320000CC819AF89020D3B2120997D1DFF8F891C7
:103210009B0809EBC30459F833006468C0F38300CA
:1032200009287CD00FD80138012808D87E4A158893
:1032300042F22100854200F0FB8149F833B00123BE
:103240008AF89430B5E70D28F9D1D4E90007774D15
:1032500049F833B0744E764CC9F8102083B240F26E
:10326000816CC9F818202A6063454FF00102C6E955
:103270000007227000F2FF80B3F5D06F80F0CB82A0
:10328000B3F5817F00F0268240F2DE8040F2023208
:1032900093427BD107F07F07042F00F20881020CD4
:1032A00040F00581634911F8273043F0020301F82B
:1032B0002730134670E017F0080F574B18BF5B46D6
:1032C00045F8363075E700F063FB5B495B4A51F81F
:1032D0002430002B00F05781586841F82400115D1C
:1032E00003F108007860032905D8DFE801F0120F28
:1032F0001502042111551A8817F0080F14BFC823AE
:10330000882343EA024345F8363052E7022111553B
:10331000F1E703211155EEE705211155EBE7434D88
:103320002A683AB34649424C0F88464894F800E070
:103330000678402F3B4628BF4023BEF1000F8EF099
:10334000010E84F800E046F0020486F001060670E3
:1033500009EBC400426014BFC820882040EA034043
:103360001A44FB1A9BB249F834000B80002B00F082
:1033700036812A602C4B1A88B2F5A06F7FF45FAFBC
:103380009A788AF8982000225A7058E7B3F5A06F0F
:1033900040F08D8000221346B6F806C029489445B7
:1033A00028BF944667460278402F28BF402742F046
:1033B000020E3E0409EBCE0846F0C806C8F80430F9
:1033C00049F83E6000263B442670BCEB070782F0BC
:1033D0000106067040F01181BCF13F0F4FF001056E
:1033E00009D946F00206027009EBC6022570536047
:1033F000882349F8363001238AF894301FE700BF4C
:1034000000200740C800400000E0FF1FACEDFF1F98
:10341000BCEDFF1FFCEDFF1F88004000F8EDFF1F13
:10342000F9EDFF1F24EEFF1FCCEDFF1FA0EDFF1FE6
:103430009DEDFF1FC0200740D4EDFF1FF4EDFF1FDF
:103440009EEDFF1F9CEDFF1F802B00F08B81822BD8
:103450002DD107F07F07042F29D8A74A0023138016
:10346000A64B13F827309F0740F1FC81012313700E
:10347000A14B022290E742F2210C6345BBD01DD93B
:1034800042F2212293420DD1BFB2002F82D19C4B38
:103490001A689C4B1A609C4BC0F3074000221870BE
:1034A000134679E742F2213293423FF473AF0F2380
:1034B0008AF8C03001238AF89430C0E6B3F5086F6B
:1034C00000F04A81B3F5106FF1D1904BC0F3074083
:1034D0000425187059F835301A0606D40135142D14
:1034E0000CD059F835301A06F8D509EBC50301356B
:1034F0005868083800F04CFA142DF2D1844A854BF4
:103500000292854A0192854E854ADFF8188203941B
:10351000009200251C4656F8047B2FB138467F6880
:1035200000F036FA002FF9D1009BD8F8007043F86C
:10353000045B46F8045C00932FB138467F6800F0C6
:1035400027FA002FF9D1029B48F8045B43F8045B8B
:103550000293019B23F8025B01932378023B032B28
:1035600000F20981DFE813F03F0104013F0104018B
:103570006D4A45F8360013780133137019E643F8A5
:103580002400674BFEE5115D022926D07FF611AEBF
:1035900003291DD1012313550BE6E0076ED4210644
:1035A00021D4A20708D5614B93F888200221D2B21A
:1035B00083F8882083F88010E30603D55B4B102244
:1035C00083F8802005B0BDE8F08F00F0A3FB11E682
:1035D00017F0080F14BF032302231355E9E53F2F0B
:1035E00098BF0022C5E6514B80220D2183F8C01000
:1035F00083F88020A207DFD5D5E746F002060270E7
:10360000402F09EBC6003A4628BF40224360100411
:10361000134440F088000121BA1A49F8360021709D
:1036200055D02B60424B1A8001238AF8943006E66D
:1036300092885AB93F4AE51D14F8011B02F8011F90
:10364000AC42F9D13C4A1268862A3CD03B4C3C48FB
:1036500025780278002D85F00105257042F00204DE
:1036600082F00102027009EBC4024FF000005060CA
:1036700014BFC822882249F83420DEE52B4B30489D
:103680003049314C022583F8945002702F480C6069
:103690002F4D48608C600D24CD60FF200A618A6147
:1036A00083F8C04001219F2483F8880083F88000BC
:1036B00083F8982083F88C0083F8844083F8941072
:1036C00005B0BDE8F08F234A0F201070BEE73F2FF2
:1036D000A7D890E607F07F07042F3FF6E8AE000C6E
:1036E0007FF4E5AE054A12F8273023F0020302F812
:1036F0002730002213464FE6A4EDFF1FC0200740ED
:1037000074ECFF1F20EEFF1F1CEEFF1FF8EDFF1FE4
:10371000E4EDFF1FF4EDFF1FFCEDFF1FACEDFF1FFD
:10372000BCEDFF1FD4EDFF1F04EEFF1F002007407C
:103730009EEDFF1F13EEFF1F14EEFF1F9DEDFF1FF9
:103740009CEDFF1F00E0FF1F880040001CEDFF1FE5
:103750005CEDFF1FF9EDFF1F484B49491B780B70CB
:103760000B4619E6464A00231380454B022213E616
:103770004FF001032370434BB34204F101047FF483
:10378000CAAE414E039CDFF80481414F00233370E1
:10379000042518F8013B3F4AAB541B0725D445F0DC
:1037A000020145F0030204350023142D49F831309D
:1037B00049F83230EDD1384F25783A7842F002009E
:1037C00009EBC00C85F00106CCF80430002D4DD17A
:1037D000882382F0010226703A7049F830300123C4
:1037E0008AF894302BE52570C5E700F0B1F8002881
:1037F00032D009EBC5030830586049F8357000F045
:10380000A7F808B345F0010309EBC3020830506084
:1038100049F833B0C3E7214A5368002B3FF447AE61
:10382000000CBFB204E013690C32002B3FF43FAE32
:1038300011888142F7D15188B942F4D1000A032896
:103840000CBF1A781289A7E533780133337045F03D
:10385000010349F83300A2E7337849F83500013312
:103860003370CCE7064B022296E500BE2670C823D3
:1038700082F001063E7049F83030BCE5F8EDFF1FDC
:10388000A4EDFF1FBCEDFF1F04EEFF1FF84D00006D
:1038900088004000C02007409CEDFF1FA44D0000A1
:1038A00070B500F08BFB00231A4A194642F833101A
:1038B00002EBC3000133142B4160F7D1164C174BB8
:1038C000606B174D40F480206063C2F3072483F8D7
:1038D0009C40144CFF204FF0010CC2F30746120E1F
:1038E00083F8B0604FF0E02E83F8B42083F88000B6
:1038F00083F88800187483F894C0217083F884C01A
:10390000702385F8233008221023CEF80421237277
:1039100070BD00BF00E0FF1F008004400020074092
:1039200000E400E00021074000F0F6B800F07CB8A9
:1039300000F056B800F090B800F0C0B900F09AB9A5
:103940000846114600F004B9084600F085B900BFEA
:1039500072B60D490B68B3FA83F00B2810DC4FF0F8
:103960000042C24023EA02030B6062B6074A00EB42
:10397000C000C10002EBC0000023535043607047F9
:1039800062B60020704700BF60E6FF1FF8E1FF1F2E
:103990000E4BC31AB3F5587F10D20D4A127872B984
:1039A00072B60C4A0C49A2FB032308684FF0004290
:1039B0001B0922FA03F303430B6062B67047074A00
:1039C0001278002AECD0FFF72DBB00BFF8E1FF1FF3
:1039D00004EEFF1F398EE33860E6FF1FF8EDFF1F8E
:1039E00038B50F4C206878B143880288C11801337C
:1039F0009A420D7A02D94380284638BDFFF7C8FFA6
:103A000000232360284638BD064B1B782BB10320CA
:103A1000FFF7D0FA20600028E6D14FF0FF35EBE742
:103A200008EEFF1FF8EDFF1F10B5094C206818B114
:103A300043881844007A10BD064B1B782BB1032035
:103A4000FFF7B8FA20600028F2D14FF0FF3010BD28
:103A500008EEFF1FF8EDFF1F084B094A1B6810B561
:103A600094881BB11A885B88D31A1C440CB1204679
:103A700010BD00F073F9204610BD00BF08EEFF1F17
:103A8000FCEDFF1F2DE9F84F0D4600293ED04FF009
:103A90000008DFF87C901F4E0746C24699F80030B8
:103AA000E3B1346814B322886388A2EB030BAB45FF
:103AB00028BFAB4604F1080138465A461944FEF7C0
:103AC0004DFB638822885B449BB29A4263805F44CB
:103AD000D844A5EB0B0511D9002DDFD14046BDE838
:103AE000F88F0288002ADFD1FFF752FF0320FFF78B
:103AF00061FA044630600028F3D1EFE72046FFF773
:103B000047FFC6F800A0002DC8D1E7E70846E6E762
:103B1000F8EDFF1F08EEFF1F0B4B1B789BB110B594
:103B20000A4C206848B1FFF733FF002303202360CD
:103B3000FFF740FA30B1FFF72BFF0320FFF73AFA07
:103B40000028F8D110BD7047F8EDFF1F08EEFF1FE9
:103B50002DE9F04FDFF8EC9083B0012289F80020C6
:103B6000019179B3384FDFF8E480019D384EDFF8DA
:103B7000E4A083463968A1B3B1F802E0CEF1400C6D
:103B8000AC4528BFAC460EEB0C040022A4B2327048
:103B9000A5EB0C054C8001F10802BCF1000F0AD026
:103BA0000EF1FF3E7244DC441BF8014B02F8014F5A
:103BB000DC45F9D14C883F2C0BD805228AF800202F
:103BC000002DD7D10198002389F8003003B0BDE85B
:103BD000F08F40220A800420FFF764FA00223A6046
:103BE000EBE798F800202AB34AF2F92408E0013CF8
:103BF00019D03278BAB900F0B1F898F80020CAB1FB
:103C00000420FFF7F9F90728F1D84FF0010389F8EC
:103C10000030FFF79DFE014638600028ACD1013C22
:103C200089F80000E5D101234FF0FF30337003B075
:103C3000BDE8F08F00234FF0FF3089F8003003B06B
:103C4000BDE8F08F0DEEFF1F10EEFF1FF8EDFF1F18
:103C50000CEEFF1F24EEFF1F00B583B003460121C9
:103C60000DF107008DF80730FFF772FF03B05DF824
:103C700004FB00BF38B50E4D0E4C2868012323709D
:103C800028B140880023C0F14000237038BD0A4BA2
:103C90001B7813B90020207038BD0420FFF7ACF961
:103CA0000728F7D8FFF754FE28600028E9D1F1E78C
:103CB00010EEFF1F0DEEFF1FF8EDFF1FF8B5114BC3
:103CC0001B788BB1104E114D346801272F7064B1F1
:103CD0000F4B00271F706388238021460420FFF7C5
:103CE000E1F9376000232B70F8BDFFF731FE084B78
:103CF000014620B104201C70FFF7D4F9F2E71F70D1
:103D0000F0E700BFF8EDFF1F10EEFF1F0DEEFF1FE5
:103D100024EEFF1F38B50E4B1B7853B90D4C2168AC
:103D200041B103F0FF054B880B800420FFF7BAF97F
:103D3000256038BDFFF70CFE014620B1BDE83840D4
:103D40000420FFF7AFB9044B01221A7038BD00BF41
:103D50000DEEFF1F10EEFF1F24EEFF1F2DE9F843AD
:103D6000324E337863B1324F3A784AB90122D907DB
:103D70003A7043D49A0726D400225B073A7001D4E4
:103D8000BDE8F8832B4B1A68002AF9D0EFF30582BF
:103D9000002AF5D1EFF3108572B6186800283AD0E2
:103DA000254C2178002936D142691A6001232370FD
:103DB000002A37D0916105B962B60025836845773E
:103DC00098472570DCE7DFF8748098F80020002A17
:103DD000D2D00025DFF868902B4659F8234023689D
:103DE00020461B690135984708B12369984798F820
:103DF0000020EBB29A42F0D83378BDE7FFF72CFEF3
:103E000068B9104B1B780BB93378B3E7337803F0FC
:103E1000FE033370AEE7002DB2D162B6B0E700F01A
:103E2000CBF8EEE7084B1A60C5E700BF64E6FF1F5A
:103E300025EEFF1F28EEFF1F34EEFF1F48EEFF1F89
:103E40003CEEFF1FA04D000038EEFF1F70B5EFF3F2
:103E5000108272B60C4C206880B10C4E002543696C
:103E6000236073B19D6102B962B683684577984754
:103E7000EFF3108272B620680028F0D102B962B662
:103E800070BD3360EFE700BF30EEFF1F2CEEFF1F69
:103E9000FFF7DCBF024A136801331360704700BFAD
:103EA00074ECFF1F70B4104E104D3478D4B1621E04
:103EB000D2B2291D2B4601EB820101E08B4205D0D5
:103EC00053F8042B8242F9D170BC7047631CDBB2FB
:103ED000074A3370137845F8240043F00203137047
:103EE00070BC70470123F3E748EEFF1F3CEEFF1F55
:103EF00064E6FF1F2A4B2B4A6020E121187059709D
:103F00001378082B32D00A2B1AD00C2B264B0CBF5F
:103F100035213D2112229960DA60244B1B78C3B110
:103F2000214B01221A62224B1B78012B17D9042B3B
:103F300022D81D4B84225A621E4B01221A707047F0
:103F4000194B392113229960DA60184B1B78002B2A
:103F5000E6D1154A1362164B1B78012BE7D8124B9A
:103F600080225A62134B01221A7070470E4B0121B6
:103F700013229960DA60D0E7082B06D80A4B852215
:103F80005A620C4B01221A707047102B064B94BFDB
:103F9000862287225A62074B01221A70704700BF9F
:103FA0000040074065E6FF1F00B0034049EEFF1FD9
:103FB00066E6FF1F4AEEFF1F704700BF10B584B0D2
:103FC00072B6174A702441200F2180231470D071DB
:103FD0009171137013781B06FCD5906862B6114B73
:103FE000114C984238BF00EB800001A938BF400057
:103FF0000A22FEF7EDF901A92046002311F8012B52
:1040000001333AB10A2B20F8022FF7D1162323707F
:1040100004B010BD5B00DBB2237004B010BD00BF64
:104020000000024080969800F4E6FF1F024B014614
:10403000186800F00BB800BF40ECFF1F024B0146B0
:10404000186800F02BBC00BF40ECFF1F2DE9F04FBB
:1040500001F10B06162E83B0044624D8102900F275
:10406000BA8000F0A3FA102618220220B54F3A4475
:10407000A2F1080153688B4200F0BA805A68D968EF
:1040800022F003021A449D68E9608D60516841F096
:1040900001012046516003F1080500F08DFA284621
:1040A00003B0BDE8F08F36F0070600F19480B1420E
:1040B00000F2918000F07AFAB6F5FC7FC0F09A81A8
:1040C000730A00F08F80042B00F26F81B30903F1B3
:1040D000390003F1380CC3009A4F3B44A3F10805A3
:1040E0005B689D4206D10CE0002980F22781DB68E5
:1040F0009D4206D05A6822F00302911B0F29F3DD7E
:1041000060463D69DFF840C265457CD06A6822F0B0
:104110000302931B0F2B00F37B81002BC7E904CC18
:1041200080F26C81B2F5007F80F01A81D308796843
:1041300001334FEA521E012202FA0EF20A4357F8E7
:1041400033E0C5F808E007EBC3010839E9607A609D
:1041500047F83350CEF80C5083100121994091421A
:1041600057D8114206D120F003004900114200F156
:104170000400FAD007EBC0094D468646D5F80C80FE
:10418000454508D11DE1002B80F22481D8F80C8030
:10419000454500F01681D8F8042022F00302931B55
:1041A0000F2BF0DD2046D8E9025408EB060146F05B
:1041B0000106C8F80460EC60A56043F00104C7E99B
:1041C0000411C1E902CC4C6048F8023000F0F4F967
:1041D00008F1080502E00C2323600025284603B0FF
:1041E000BDE8F08F4FF4007340204FF03F0C73E7B1
:1041F000D3689A4208BF02307FF440AF3D69DFF8D0
:1042000048C1654582D17A68831001219940914265
:10421000A7D9BD686B6823F003094E4503D8A9EB05
:1042200006030F2B7ADCDFF824B1494BDBF80020C2
:104230001B680132334405EB090A00F0338103F5B2
:1042400080530F3323F47F6828F00F08414620463F
:1042500000F00AFA411C024600F0F380824500F2A9
:10426000EE803C4B196841441960084600F04E81CD
:10427000DBF80010019301311BBFA2EB0A01091802
:10428000CBF80020196012F0070B00F01781CBF17A
:1042900008010A44CBF5805190440831A1EB080194
:1042A000C1F30B0A51462046009200F0DDF9421C92
:1042B000DDE9002300F04F81801A00EB0A0819683D
:1042C000BA6048F001005144BD425060196000F0EE
:1042D0002981B9F10F0F40F227816868A9F10C0C10
:1042E0002CF0070C00F0010040EA0C0068604FF071
:1042F000050E05EB0C00BCF10F0FC0E901EE00F25A
:10430000328150681546144B1A688A4238BF1960CA
:10431000124B1A688A4238BF196094E0AA1943F018
:10432000010346F001066E602046BA60536000F05B
:1043300043F90835284603B0BDE8F08FD9681A4420
:10434000A1E600BF0CE7FF1F14E7FF1F14EBFF1FE0
:104350007CEEFF1F4CEEFF1F74EEFF1F78EEFF1F79
:10436000B2F5206F4FEA522363D3142B00F2B780CB
:1043700003F15C01C9005B3307EB010E7958AEF124
:10438000080E8E4500F091804B6823F003039342A2
:1043900002D989688E45F7D1D1F80CE07A68C5E971
:1043A000021ECEF80850CD60D6E6142B59D9542BF6
:1043B00000F29D80330B03F16F0003F16E0CC3001C
:1043C0008AE60EF1010E1EF0030F05F108057FF4D9
:1043D000D5AE51E0424445465368D8F80C1043F03E
:1043E0000103536055F8083F2046D9608B6000F008
:1043F000E3F8F3E6F00806F1080237E62A4420461F
:10440000536843F001035360083500F0D5F8E5E642
:10441000A919204646F0010643F001046E60C7E981
:104420000411C1E902CC4C60AB5000F0C5F808356E
:10443000D4E6930903F13901C90038339CE7BD4242
:104440005FD0BD68686820F003084645A8EB060306
:1044500002D80F2B3FF762AF204600F0ADF80025E1
:10446000BCE603F15C0003F15B0CC30034E659F8D1
:1044700008394B4540F0968010F0030F00F1FF30F3
:10448000F5D17B6823EA01037B60490099423FF63E
:10449000C0AE19B9BDE649000EF1040E1942FAD0BA
:1044A000704667E603F11008D0E69A104FF0010855
:1044B0007B6808FA02F21A437A6070E702EB08019F
:1044C0004942C1F30B0A51462046009200F0CCF855
:1044D000431CDDE900237FF4EFAEDA46EFE6542B10
:1044E00025D8130B03F16F01C9006E3344E7B3F510
:1044F000AA7F25D8F30B03F1780003F1770CC300F2
:10450000EAE5294B186840441860B1E6CAF30B0C81
:10451000BCF1000F7FF4ACAEBD68C84448F00100A8
:104520006860F0E61546EEE60123536094E7B3F5C4
:10453000AA7F23D8D30B03F17801C90077331BE797
:1045400040F25452934223D8B30C03F17D0003F19F
:104550007C0CC300C0E5ABF1080BD844A8EB020803
:104560004FF0000AABE605F108012046009300F089
:1045700095F9BD68009B68681968C4E640F254511B
:104580008B420BD8930C03F17D01C9007C33F3E619
:104590004FF47E737F204FF07E0C9DE54FF47E71CB
:1045A0007E23E9E67B6870E74CEEFF1F014800F0D0
:1045B00097B800BFC0EFFF1F014800F093B800BFDD
:1045C000C0EFFF1F830730B548D0541E002A3FD0EC
:1045D000CAB2034601E0013C3AD303F8012B9D0720
:1045E000F9D1032C2DD9CDB245EA05250F2C45EA8A
:1045F000054536D9A4F1100222F00F0C03F1200E6C
:10460000E6444FEA121C03F1100242E9045542E964
:10461000025510327245F8D10CF1010214F00C0F62
:1046200003EB021204F00F0C13D0ACF1040323F0DF
:1046300003030433134442F8045B9342FBD10CF0B0
:1046400003042CB1C9B21C4403F8011B9C42FBD1EA
:1046500030BD64461346002CF4D1F9E703461446F6
:10466000BFE71A46A446E0E738B5074D00220446E6
:1046700008462A60FDF774FE431C00D038BD2B6845
:10468000002BFBD0236038BDB8EFFF1F014B18682B
:10469000704700BF40ECFF1F70B50D4E0D4D761BEF
:1046A000B61006D0002455F8043B01349847A642C2
:1046B000F9D1094E094D761B00F0A0FBB61006D0CB
:1046C000002455F8043B01349847A642F9D170BD47
:1046D000084E0000084E0000104E0000084E00007A
:1046E000704700BF704700BFFFFFFFFFFFFFFFFFE6
:1046F000FFFFFFFFFFFFFFFFFFFFFFFFFFFFFFFFCA
:1047000090F800F06DE9024520F007016FF0000C11
:1047100010F0070491F820F040F049804FF00004B9
:104720006FF00700D1E9002391F840F000F1080094
:1047300082FA4CF2A4FA8CF283FA4CF3A2FA8CF3CC
:104740004BBBD1E9022382FA4CF200F10800A4FA33
:104750008CF283FA4CF3A2FA8CF3E3B9D1E9042387
:1047600082FA4CF200F10800A4FA8CF283FA4CF3BE
:10477000A2FA8CF37BB9D1E9062301F1200182FA78
:104780004CF200F10800A4FA8CF283FA4CF3A2FA7E
:104790008CF3002BC6D0002A04BF04301A4612BA8C
:1047A000B2FA82F2FDE8024500EBD2007047D1E98F
:1047B000002304F00305C4F100004FEAC50514F01E
:1047C000040F91F840F00CFA05F562EA05021CBFEF
:1047D00063EA050362464FF00004A9E7024B13B1F8
:1047E000024800F005B8704700000000A94A000028
:1047F000002301461A46184600F06AB9F8B5244F5E
:104800000C460646FFF7D2FEBB685D68C4F57E61C4
:104810000F3125F003054B1923F47F6323F00F03B9
:10482000A3F58054B4F5805F07DB00213046FFF725
:104830001BFFBB682B44984204D03046FFF7BCFEF8
:104840000020F8BD61423046FFF70EFF01300DD069
:10485000104ABB682D1B45F001055D6013683046AA
:104860001B1B1360FFF7A8FE0120F8BD0021304696
:10487000FFF7FAFEBA68831A0F2BDEDD43F001035F
:104880005360054B03491B68C01A0860D5E700BF99
:104890000CE7FF1F4CEEFF1F14EBFF1F002961D038
:1048A000F8B50C460646FFF781FE54F8042C7B4F02
:1048B000A4F1080522F0010105EB010CB868DCF851
:1048C0000430604523F0030300F08B80D207CCF85E
:1048D000043032D454F8082CAD1A1144AA6807F1F8
:1048E000080082426AD00CEB0304D4F804E0EC68C0
:1048F000D4601EF0010FA26000F0978041F0010328
:104900006B60CCF80010B1F5007F35D27868CB0829
:104910000122490901338A40024357F833107A6073
:1049200007EBC302083AC5E9021247F83350CD60DD
:104930003046BDE8F840FFF73FBE0CEB030252687B
:10494000D00710D4194407F10800DCF8083083427E
:1049500073D0DCF80C20DA60936041F001036B60E7
:104960006950D0E7704741F00103B1F5007F44F88A
:10497000043CCCF80010C9D3B1F5206F4FEA5123A5
:1049800048D28B0903F1390003F13802C300F8184B
:10499000FB580838984259D05A6822F003028A42DC
:1049A00002D99B689842F7D1D868C5E90230856082
:1049B000DD603046BDE8F840FFF7FEBD0CEB0302BA
:1049C0005268D20763D40B44DCE90212CA609160DA
:1049D00043F001026A603046EB50BDE8F840FFF753
:1049E000EBBD0B44D10707D454F8082CAD1A13447F
:1049F000D5E90212CA60916043F001026A60284A58
:104A0000BD6012689A4293D8264B30461968FFF76A
:104A1000F5FE8DE7142B0AD9542B1FD80B0B03F18D
:104A20006F0003F16E02C300B1E719448DE703F193
:104A30005C0003F15B02C300A9E741F00103C7E991
:104A40000455C5E902006B60695071E779689210FE
:104A5000012404FA02F20A437A60A6E7B3F5AA7FBA
:104A600006D8CB0B03F1780003F17702C3008EE781
:104A700040F25452934206D88B0C03F17D0003F1AF
:104A80007C02C30083E74FF47E737E227FE741F010
:104A900001036B60CCF800104AE700BF0CE7FF1F72
:104AA00018EBFF1F7CEEFF1F38B5074D074C2C1B82
:104AB000A41005D0013C55F8043D9847002CF9D1CD
:104AC000BDE8384000F0A4B900000000000000007C
:104AD0002DE9F047DFF874A00646DAF800009846A2
:104AE0000F469146FFF7FCFD194B1C6824B365681F
:104AF0001F2D24DC5EB96B1C0235DAF80000636000
:104B000044F82570FFF7EEFD0020BDE8F08704EBC8
:104B100085010123C1F88890D4F88821AB401A435D
:104B2000022EC4F88821C1F80881E4D1D4F88C2180
:104B30001A43C4F88C21DEE7064C1C60D7E7DAF88C
:104B40000000FFF7CFFD4FF0FF30DEE744ECFF1F22
:104B5000C4EFFF1FC8EFFF1F7701080F010100FF1F
:104B600077E2FE0F010300FF77E2FE0F010800FF6E
:104B700077E2FE0F010900FF77E2FE0F010400FF5C
:104B80006500000000000000690000000000000057
:104B90007700FC0F0101000077E2FE0F010000002A
:104BA0007703080F010000007704080F0200FC00E3
:104BB0007700080F0800000000000000040000005B
:104BC0007700080F080300000000FC02000000004E
:104BD0007700080F0804000000000001000000003A
:104BE0007700FC0F000000007700FD0F00000000C0
:104BF0000000FC0002000000750000000000FFFF44
:104C00000000000000000000B91F0000DD1F0000D0
:104C10006D20000069200000652000006120000078
:104C20005D200000811F00003D20000039200000B1
:104C30003120000029200000212000001120000068
:104C400001200000FD1F0000F51F0000ED1F000007
:104C5000611F0000691F0000711F0000791F000024
:104C6000C51F0000AD1F00004008FE4340A00440E7
:104C70004408FE4344A004400018FE4300C0044022
:104C80003000FE43309004403400FE433490044032
:104C90001C18FE431CC004401018FE4310C0044002
:104CA0000818FE4308C004400C18FE430CC0044022
:104CB0000C10FE430CB004401010FE4310B0044032
:104CC0001810FE4318B004401C10FE431CB00440F2
:104CD0001410FE4314B004400418FE4304C0044002
:104CE0000010FE4300B004400008FE4300A0044052
:104CF0000408FE4304A004400C08FE430CA004403A
:104D00000808FE4308A004401418FE4314C00440E1
:104D10001818FE4318C004400410FE4304B00440B9
:104D20000810FE4308B004401400FE4314900440F1
:104D30004C08FE434CA004400420FE4304D0044031
:104D40002410FE4324B004402010FE4320B0044051
:104D50002810FE4328B004402C10FE432CB0044021
:104D60000020FE4300D004404808FE4348A0044011
:104D70001000FE43109004400000000000000000FE
:104D800049390000413900003D390000393900003F
:104D900035390000313900002D3900002939000073
:104DA00000FFFFFF00010000ACE6FF1F1200000043
:104DB0000002000068E6FF1F43000000000300003F
:104DC000C0E6FF1F0000000001030904C4E6FF1F46
:104DD0000000000002030904DCE6FF1F00000000E1
:104DE00003030904F4E6FF1F0000000000000000B8
:104DF000000000000000000000151915F8B500BF04
:104E0000F8BC08BC9E467047DD4700003504000032
:044E1000F8B500BF32
:104E1400E00704EC00FB0F0000FBC013BFE607C073
:104E2400BFEC07C0BFEE07CFEB07ECF5EA07FCB217
:104E3400FF0E72FCB2FF0E76FCB2FF0E77FCB2FFDF
:104E44000E9EFDFCB2FF0E73624C69DD6D4C77DD86
:104E54001D4C72DD294C65DD324C75DD62FCA1FF11
:104E64000ED5EA07DFC8AFE60712ECEB070FFCB27A
:104E7400FF0E119BA793DFF6FE4C00EEE3FF118BB0
:104E8400FCA1FF0EA793DFF6EED6FF61FFFCF8FF4F
:104E94000E8F02084C0FDD0B624CFFDF11FCC408BF
:104EA4000FEFF5624CFFDF06FC04F00EEFF5C36173
:104EB400CFC262FCA1FF0EEEA7FFE5EA07EF03E510
:104EC400EA07FE0200EF9A5100FCA1FF0ED7FFFF94
:104ED400FFFFFFFFFFFFFFFFFFFFFF00084C000085
:104EE40000000000E803000000000000B12F0000F3
:104EF40058F1FF1F280000001A00000040000000C5
:104F04004000000001010000804D0000000000008E
:104F1400E803000000000000FFFFFFFF010A040097
:104F240009024300020100C0320904000001020228
:104F340001000524001001052401010104240206D6
:104F4400052406000107058203100040090401003E
:104F5400020A00000007050302400000070584025E
:104F6400400000001201100102000040C01683043A
:104F7400740201020301000004030904180354002D
:104F8400650065006E0073007900640075006900B7
:104F94006E006F00160355005300420020005300BA
:104FA40065007200690061006C0000000C030000E1
:104FB40000000000000000000000000000000000ED
:104FC4000000000000000000000000000CE7FF1FCC
:104FD4000CE7FF1F14E7FF1F14E7FF1F1CE7FF1F69
:104FE4001CE7FF1F24E7FF1F24E7FF1F2CE7FF1F19
:104FF4002CE7FF1F34E7FF1F34E7FF1F3CE7FF1FC9
:105004003CE7FF1F44E7FF1F44E7FF1F4CE7FF1F78
:105014004CE7FF1F54E7FF1F54E7FF1F5CE7FF1F28
:105024005CE7FF1F64E7FF1F64E7FF1F6CE7FF1FD8
:105034006CE7FF1F74E7FF1F74E7FF1F7CE7FF1F88
:105044007CE7FF1F84E7FF1F84E7FF1F8CE7FF1F38
:105054008CE7FF1F94E7FF1F94E7FF1F9CE7FF1FE8
:105064009CE7FF1FA4E7FF1FA4E7FF1FACE7FF1F98
:10507400ACE7FF1FB4E7FF1FB4E7FF1FBCE7FF1F48
:10508400BCE7FF1FC4E7FF1FC4E7FF1FCCE7FF1FF8
:10509400CCE7FF1FD4E7FF1FD4E7FF1FDCE7FF1FA8
:1050A400DCE7FF1FE4E7FF1FE4E7FF1FECE7FF1F58
:1050B400ECE7FF1FF4E7FF1FF4E7FF1FFCE7FF1F08
:1050C400FCE7FF1F04E8FF1F04E8FF1F0CE8FF1FB5
:1050D4000CE8FF1F14E8FF1F14E8FF1F1CE8FF1F64
:1050E4001CE8FF1F24E8FF1F24E8FF1F2CE8FF1F14
:1050F4002CE8FF1F34E8FF1F34E8FF1F3CE8FF1FC4
:105104003CE8FF1F44E8FF1F44E8FF1F4CE8FF1F73
:105114004CE8FF1F54E8FF1F54E8FF1F5CE8FF1F23
:105124005CE8FF1F64E8FF1F64E8FF1F6CE8FF1FD3
:105134006CE8FF1F74E8FF1F74E8FF1F7CE8FF1F83
:105144007CE8FF1F84E8FF1F84E8FF1F8CE8FF1F33
:105154008CE8FF1F94E8FF1F94E8FF1F9CE8FF1FE3
:105164009CE8FF1FA4E8FF1FA4E8FF1FACE8FF1F93
:10517400ACE8FF1FB4E8FF1FB4E8FF1FBCE8FF1F43
:10518400BCE8FF1FC4E8FF1FC4E8FF1FCCE8FF1FF3
:10519400CCE8FF1FD4E8FF1FD4E8FF1FDCE8FF1FA3
:1051A400DCE8FF1FE4E8FF1FE4E8FF1FECE8FF1F53
:1051B400ECE8FF1FF4E8FF1FF4E8FF1FFCE8FF1F03
:1051C400FCE8FF1F04E9FF1F04E9FF1F0CE9FF1FB0
:1051D4000CE9FF1F14E9FF1F14E9FF1F1CE9FF1F5F
:1051E4001CE9FF1F24E9FF1F24E9FF1F2CE9FF1F0F
:1051F4002CE9FF1F34E9FF1F34E9FF1F3CE9FF1FBF
:105204003CE9FF1F44E9FF1F44E9FF1F4CE9FF1F6E
:105214004CE9FF1F54E9FF1F54E9FF1F5CE9FF1F1E
:105224005CE9FF1F64E9FF1F64E9FF1F6CE9FF1FCE
:105234006CE9FF1F74E9FF1F74E9FF1F7CE9FF1F7E
:105244007CE9FF1F84E9FF1F84E9FF1F8CE9FF1F2E
:105254008CE9FF1F94E9FF1F94E9FF1F9CE9FF1FDE
:105264009CE9FF1FA4E9FF1FA4E9FF1FACE9FF1F8E
:10527400ACE9FF1FB4E9FF1FB4E9FF1FBCE9FF1F3E
:10528400BCE9FF1FC4E9FF1FC4E9FF1FCCE9FF1FEE
:10529400CCE9FF1FD4E9FF1FD4E9FF1FDCE9FF1F9E
:1052A400DCE9FF1FE4E9FF1FE4E9FF1FECE9FF1F4E
:1052B400ECE9FF1FF4E9FF1FF4E9FF1FFCE9FF1FFE
:1052C400FCE9FF1F04EAFF1F04EAFF1F0CEAFF1FAB
:1052D4000CEAFF1F14EAFF1F14EAFF1F1CEAFF1F5A
:1052E4001CEAFF1F24EAFF1F24EAFF1F2CEAFF1F0A
:1052F4002CEAFF1F34EAFF1F34EAFF1F3CEAFF1FBA
:105304003CEAFF1F44EAFF1F44EAFF1F4CEAFF1F69
:105314004CEAFF1F54EAFF1F54EAFF1F5CEAFF1F19
:105324005CEAFF1F64EAFF1F64EAFF1F6CEAFF1FC9
:105334006CEAFF1F74EAFF1F74EAFF1F7CEAFF1F79
:105344007CEAFF1F84EAFF1F84EAFF1F8CEAFF1F29
:105354008CEAFF1F94EAFF1F94EAFF1F9CEAFF1FD9
:105364009CEAFF1FA4EAFF1FA4EAFF1FACEAFF1F89
:10537400ACEAFF1FB4EAFF1FB4EAFF1FBCEAFF1F39
:10538400BCEAFF1FC4EAFF1FC4EAFF1FCCEAFF1FE9
:10539400CCEAFF1FD4EAFF1FD4EAFF1FDCEAFF1F99
:1053A400DCEAFF1FE4EAFF1FE4EAFF1FECEAFF1F49
:1053B400ECEAFF1FF4EAFF1FF4EAFF1FFCEAFF1FF9
:1053C400FCEAFF1F04EBFF1F04EBFF1FFFFFFFFFBF
:1053D40000000200000000000000000080EEFF1F3B
:1053E400E8EEFF1F50EFFF1F000000000000000068
:1053F40000000000000000000000000000000000A9
:105404000000000000000000000000000000000098
:105414000000000000000000000000000000000088
:105424000000000000000000000000000000000078
:105434000000000000000000000000000000000068
:105444000000000000000000000000000000000058
:105454000000000000000000000000000000000048
:105464000000000000000000000000000000000038
:1054740001000000000000000E33CDAB34126DE6D5
:10548400ECDE05000B00000000000000000000003E
:105494000000000000000000000000000000000008
:1054A40000000000000000000000000000000000F8
:1054B40000000000000000000000000000000000E8
:1054C40000000000000000000000000000000000D8
:1054D40000000000000000000000000000000000C8
:1054E40000000000000000000000000000000000B8
:1054F400000000000000000020EBFF1FBCEFFF1FB6
:00000001FF
