:10000000F8FF022099010000512300000D23000099
:100010000D2300000D2300000D2300000D23000020
:100020000D2300000D2300000D23000051230000CC
:10003000512300000D230000753F0000793F0000B0
:1000400051230000512300005123000051230000E0
:1000500051230000512300005123000051230000D0
:1000600051230000512300005123000051230000C0
:1000700051230000512300005123000051230000B0
:1000800051230000512300005123000051230000A0
:100090005123000051230000512300005123000090
:1000A0005123000051230000512300005123000080
:1000B000512300005123000051230000A52E000011
:1000C0005123000051230000512300005123000060
:1000D0005123000051230000512300005123000050
:1000E0005123000051230000512300005123000040
:1000F0005123000051230000512300005123000030
:10010000512300005123000051230000512300001F
:1001100051230000FD310000512300005123000055
:1001200051230000512300005123000051230000FF
:1001300051230000512300005123000051230000EF
:1001400051230000512300005123000051230000DF
:1001500051230000512300005123000051230000CF
:1001600051230000512300005123000051230000BF
:1001700051230000512300005123000051230000AF
:10018000512300005123000051230000512300009F
:1001900051230000512300005A4B4CF2205210B55D
:1001A000DA814DF62812DA8100BF00BF02F0D4F8E0
:1001B000554B4FF030621A63544A9A63544ADA63DB
:1001C0004FF0E0234FF47002C3F8882D514A1369B1
:1001D00013F4807303D153614FF4A85313614E4B52
:1001E0009A78110703D59A7842F008029A704B4B1F
:1001F0004B482A221A704B4BDA1C121AC11E22F0ED
:100200000302994288BF0022474901F0ABFF474BE8
:100210004748DA1C121AC11E22F00302994288BF15
:100220000022002104F042FA424943484FF4CC72C4
:1002300001F098FF414B424A802103F8011B934291
:10024000FBD14FF0E0233C4AC3F8082D3D4B8A22F6
:100250001A70A3F5805324225A70A0221A709A793A
:100260009207FCD59A79D406FCD4374B9A7902F0E0
:100270000C02082AFAD103221A7146225A719A797D
:100280009006FCD5304A93795906FCD51E4B4FF0A9
:10029000827159640921996420211170917901F0CA
:1002A0000C010C29FAD1294A5A604FF0E023284A60
:1002B0005A6100229A6107221A61264AC3F8202D4A
:1002C00062B602F0C7F8134B5B69DA0705D522481E
:1002D00002F0B4F8214B224ADA61224B1B785B060C
:1002E00009D51E4C1E4BE2699A4204D11A4802F00D
:1002F000A5F80023E36102F035F804F041FA01F0BB
:1003000029FFFEE70020054000800440823F0400F2
:100310000100002B00D0034000D0074000E0074060
:10032000F806FF1FE80DFF1F045000000413FF1F15
:10033000E80DFF1F000000000002FF1F00E400E0C6
:1003400056E400E00050064000400640C0100500A2
:10035000BFD40100000020205010896800E0034055
:10036000A5C3945A00F00740FFFFFFFFFFFFFFFF08
:10037000FFFFFFFFFFFFFFFFFFFFFFFFFFFFFFFF8D
:10038000FFFFFFFFFFFFFFFFFFFFFFFFFFFFFFFF7D
:10039000FFFFFFFFFFFFFFFFFFFFFFFFFFFFFFFF6D
:1003A000FFFFFFFFFFFFFFFFFFFFFFFFFFFFFFFF5D
:1003B000FFFFFFFFFFFFFFFFFFFFFFFFFFFFFFFF4D
:1003C000FFFFFFFFFFFFFFFFFFFFFFFFFFFFFFFF3D
:1003D000FFFFFFFFFFFFFFFFFFFFFFFFFFFFFFFF2D
:1003E000FFFFFFFFFFFFFFFFFFFFFFFFFFFFFFFF1D
:1003F000FFFFFFFFFFFFFFFFFFFFFFFFFFFFFFFF0D
:10040000FFFFFFFFFFFFFFFFFFFFFFFFDEF9FFFF23
:100410000548064B1B1AD90F01EBA301491002D066
:10042000034B03B118477047E80DFF1FE80DFF1F8E
:100430000000000008B5054B1BB105490548AFF3A6
:100440000080BDE80840FFF7E3BF00BF00000000E8
:10045000E80DFF1F0450000070B51A4C0D2082B04B
:10046000012102F059F8261D65204FF47A6501E05C
:1004700014F8010F02F0BCFB2B46013BFDD102F04A
:1004800081FCB442F4D1013DFDD10F4C00210D207F
:1004900002F042F823680093009E42F2107505E0D6
:1004A00023680193019B9B1BAB4208D802F056FCCA
:1004B0000028F5DD02F066FCC0B202B070BDEF208E
:1004C00002B070BD804C0000140EFF1F70B50121FA
:1004D0000D20644C02F020F80D20012102F01CF8E0
:1004E000261D69204FF47A6501E014F8010F02F02F
:1004F0007FFB2B46013BFDD102F044FCB442F4D11A
:10050000013DFDD100210D2002F006F802F03AFC79
:10051000C0B2002840F0A380534C0D20012101F00F
:10052000FBFF661D77204FF47A6501E014F8010F98
:1005300002F05EFB2B46013BFDD102F023FCB442EE
:10054000F4D1013DFDD100210D2001F0E5FF02F0C5
:1005500019FCC0B2002840F08280444C0D200121DB
:1005600001F0DAFF661D77204FF47A6501E014F898
:10057000010F02F03DFB2B46013BFDD102F002FCD6
:10058000B442F4D1013DFDD100210D2001F0C4FFA2
:1005900002F0F8FBC0B2002861D1354C0D200121DA
:1005A00001F0BAFF661D77204FF47A6501E014F878
:1005B000010F02F01DFB2B46013BFDD102F0E2FBD7
:1005C000B442F4D1013DFDD100210D2001F0A4FF82
:1005D00002F0D8FBC0B2002841D1264C0D200121E9
:1005E00001F09AFFA61D77204FF47A6501E014F818
:1005F000010F02F0FDFA2B46013BFDD102F0C2FBD8
:10060000B442F4D1013DFDD100210D2001F084FF61
:1006100002F0B8FBC0B210BB174C0D20012101F055
:100620007BFF661D77204FF47A6501E014F8010F17
:1006300002F0DEFA2B46013BFDD102F0A3FBA642FD
:10064000F4D1013DFDD100210D2001F065FF02F044
:1006500099FBC0B218B9BDE87040FFF7FDBEE020BD
:1006600070BD00BF884C0000904C0000984C00000A
:10067000A04C0000A84C0000584C00002DE9F041AF
:1006800082B0002701AE4FF47A644FF072083A0A44
:100690003B0C80250D2001218DF804508DF8008041
:1006A0008DF801708DF802208DF803306D4601F051
:1006B00033FF404601E015F8010F02F099FA234696
:1006C000013BFDD102F05EFBB542F4D12346013B74
:1006D000FDD100210D2001F01FFF802502E02346FF
:1006E000013BFDD102F03AFB0028F8D002F04AFBB2
:1006F000C0B203F023FB013DF4D18037B7F5002FE2
:10070000C3D1284602B0BDE8F08100BF2DE9F04317
:100710004F4D89B02B680093009C42F2107605E0A3
:100720000193019B1B1BB34200F28D8003F006FA7C
:1007300003282B68F4DD00240393CDE90444039FD0
:10074000444E0694ADF81C4006E02B680293029BD1
:10075000B268DB1B934273D204ABC4F104011819D5
:1007600003F002FA0444032CEFD99DF812009DF81F
:1007700013309DF810109DF8112003EB002302EBBD
:1007800001229BB292B201339A424FEA82274FEA8A
:10079000832949D20DF115064FF000084FF47A6411
:1007A00072213A0A3B0C80258DF810100D20012192
:1007B000CDF81480CDF818808DF81450ADF81C8059
:1007C0008DF811708DF812208DF8133001F0A4FE11
:1007D00004AD15F8010B02F00BFA2346013BFDD1E5
:1007E00002F0D0FAB542F4D12346013BFDD10021FD
:1007F0000D2001F091FE802502E02346013BFDD152
:1008000002F0ACFA0028F8D002F0BCFAC0B203F053
:1008100095FA013DF4D18037B945C1D803F08EF97E
:10082000002805DD03F04EF903F088F90028F9DC13
:1008300000210D2001F070FE002009B0BDE8F0831A
:100840000123337391E7EB2009B0BDE8F08300BFCB
:10085000140EFF1FF007FF1F2DE9F04F624D89B006
:100860002B680093009C42F2107605E00193019BF7
:100870001B1BB34200F2AA8003F060F903282B6827
:10088000F4DD00240393CDE90444039E574F0694FE
:10089000ADF81C4007E02B680293029BBA689B1BD3
:1008A000934280F09D8004ABC4F10401181903F059
:1008B0005BF90444032CEED99DF812009DF8133027
:1008C0009DF810109DF8112003EB002302EB01228C
:1008D0009BB292B201339A424FEA82264FEA832AB0
:1008E0006FD2434B434D03F108080D20012101F065
:1008F00013FE414FC6F3072BC6F3074977204FF489
:100900007A6401E017F8010F02F072F92346013B07
:10091000FDD102F037FAAF42F4D1013CFDD1002104
:100920000D2001F0F9FD02F02DFA10F0FF0352D175
:100930002F4A059392E8030004908DF8141098E86C
:100940000300ADF81C3006908DF81C100D2001211D
:100950008DF816B08DF8179001F0DEFD04AC0DF1A6
:100960001D0B4FF47A6914F8010B02F041F94B4664
:10097000013BFDD102F006FA5C45F4D14B46013B48
:10098000FDD100210D2001F0C7FD02F0FBF9C0B23E
:1009900008BBFFF761FD0346A0B903F0CFF9B9F139
:1009A0000109FCD101E003F08DF803F0C7F800283D
:1009B000F9DC00210D2006F5806601F0ADFDB245A1
:1009C00093D80023184609B0BDE8F08FEB231846F2
:1009D00009B0BDE8F08FE423184609B0BDE8F08FF8
:1009E00001233B7368E700BF140EFF1FF007FF1FD2
:1009F000B04C0000654C0000604C00002DE9F04F49
:100A0000634D89B02B680093009C42F2107605E09C
:100A10000193019B1B1BB34200F2AB8003F08EF8E5
:100A200003282B68F4DD00240393CDE90444039EDE
:100A3000584F0694ADF81C4007E02B680293029BC8
:100A4000BA689B1B934280F0988004ABC4F1040108
:100A5000181903F089F80444032CEED99DF812000C
:100A60009DF813309DF810109DF8112003EB002322
:100A700002EB01229BB292B201339A424FEA8226E4
:100A80004FEA832A71D2444B444D03F108080D20EC
:100A9000012101F041FD424FC6F3072BC6F3074980
:100AA00077204FF47A6401E017F8010F02F0A0F804
:100AB0002346013BFDD102F065F9AF42F4D1013C80
:100AC000FDD100210D2001F027FD02F05BF910F0AF
:100AD000FF0355D1304A059392E8030004908DF846
:100AE000141098E80300ADF81C3006908DF81C1027
:100AF0000D2001218DF816B08DF8179001F00CFD36
:100B000004AC0DF11D0B4FF47A6914F8010B02F0DF
:100B10006FF84B46013BFDD102F034F9A345F4D107
:100B2000B9F10109FCD100210D2001F0F5FC02F022
:100B300029F9C0B240BBFFF78FFC08B11B2815D1C3
:100B400003F0FCF84FF47A63013BFDD101E002F0C1
:100B5000B9FF02F0F3FF0028F9DC00210D2006F5B3
:100B6000806601F0D9FCB24591D8002009B0BDE8FB
:100B7000F08FEB2009B0BDE8F08F01233B736DE7E8
:100B8000E82009B0BDE8F08FE42009B0BDE8F08F9F
:100B9000140EFF1FF007FF1FB04C00006D4C00004B
:100BA000684C00002DE9F041584F0D2082B0012122
:100BB00001F0B2FC7E1D3C4677204FF47A6501E0DF
:100BC00014F8010F02F014F82B46013BFDD102F09E
:100BD000D9F8B442F4D1013DFDD100210D2001F03E
:100BE0009BFC02F0CFF810F0FF0340F08980484CE6
:100BF000ADF804300D2001218DF8063004F10C0809
:100C000001F08AFC4FF47A65772001E014F8010FB7
:100C100001F0EEFF2B46013BFDD102F0B3F8444555
:100C2000F4D1013DFDD100210D2001F075FC02F051
:100C3000A9F8C0B200285ED1FFF70EFC04460028D8
:100C40005AD102F09FF85FFA80F88DF8048002F024
:100C500099F80121C5B20D208DF805504FF47A6442
:100C600001F05AFC772001E017F8010F01F0C0FFF6
:100C70002346013BFDD102F085F8B742F4D1013C97
:100C8000FDD100210D2001F047FC02F07BF8C0B23D
:100C9000002835D11F4C0D20012101F03DFC04F14D
:100CA0000C0777204FF47A6601E014F8010F01F089
:100CB0009FFF3346013BFDD102F064F8A742F4D117
:100CC000013EFDD100210D2001F026FC02F05AF872
:100CD000C0B280B9FFF7C0FB044668B902F052F811
:100CE0000646404603F02AF8284603F027F8F0B2FB
:100CF00003F024F800E0E424204602B0BDE8F081CF
:100D0000E824204602B0BDE8F08100BF704C00002E
:100D1000C04C0000D04C00002DE9F04FA04CADF2CB
:100D2000444D00214FF47F7211A8CDE90C110E91B2
:100D30008DF83C10109103F0B9FC23680493049ED5
:100D400042F2107506E023680593059B9B1BAB429E
:100D500000F2EE8102F0F2FE0128F4DD236809932F
:100D60000025CDE90C55099E8E4F0E958DF83C500F
:100D700007E023680893089BBA689B1B934280F0A6
:100D8000E3810CABC5F10201581902F0EDFE0544F8
:100D9000012DEED99DF83030019301219DF83130BD
:100DA00002930D2001F0B8FB23680693069FDFF83D
:100DB000F481002544F620660EE023680793079B24
:100DC000DB1BB34200F2BA8102F0B8FE1FFA80F9D1
:100DD000B9F1000F40F0BB81B5F5806FEDD3724FD4
:100DE0000D20012101F098FB3C1D3D4677204FF47A
:100DF0007A6601E015F8010F01F0FAFE3346013B77
:100E0000FDD101F0BFFFA542F4D1013EFDD100218B
:100E10000D2001F081FB0DF13F050DF23F194FF45C
:100E20007A6815F8010F01F0E3FE4346013BFDD15E
:100E300001F0A8FF4D45F4D101F06CFFB8F10108B5
:100E4000FCD101F09FFFC0B2002840F0A981DFF87B
:100E500064A10D20012101F05FFB0AF10405564653
:100E600077204FF47A6801E016F8010F01F0C0FE18
:100E70004346013BFDD101F085FFAE42F4D1B8F10C
:100E80000108FCD100210D2001F046FB0DF23F26A8
:100E90004FF47A6819F8010F01F0AAFE4346013BAE
:100EA000FDD101F06FFFB145F4D101F033FFB8F18E
:100EB0000108FCD101F066FFC0B2002840F07D813E
:100EC0003A4B03931E460D20012101F025FB06F14C
:100ED0000508B14677204FF47A6601E019F8010F52
:100EE00001F086FE3346013BFDD101F04BFFC145C9
:100EF000F4D1013EFDD100210D2001F00DFB01F0E8
:100F000041FF10F0FF0040F05181019A029B8DF8E3
:100F1000350003EB02239BB29A008DF836209A0924
:100F20009B0201930CAB02939B46214B8DF837201B
:100F300093E8030040330C908DF8341093E80300DD
:100F40000E908DF83C100D2001210DF13D094FF45C
:100F50007A6601F0E1FA1BF8010B01F049FE334615
:100F6000013BFDD101F00EFFCB45F4D1013EFDD197
:100F700000210D2001F0D0FA01F004FFC0B20028DA
:100F800040F01481FFF768FA0646002840F0D1804F
:100F90000D20012101F0C0FA4FF47A6677200DE0B0
:100FA000140EFF1FF007FF1FE04C0000784C0000FC
:100FB000B04C0000E84C000017F8010F01F018FEDB
:100FC0003346013BFDD101F0DDFEA742F4D1013EE5
:100FD000FDD100210D2001F09FFA0DF23F270DF207
:100FE0003F364FF47A6417F8010F01F001FE2346F3
:100FF000013BFDD101F0C6FEB742F4D101F08AFEFB
:10100000013CFDD101F0BEFEC0B2002840F0C88016
:101010000D20012101F080FA4FF47A64772001E07D
:101020001AF8010F01F0E4FD2346013BFDD101F068
:10103000A9FEAA45F4D1013CFDD100210D2001F00B
:101040006BFA0DF23F440DF23F364FF47A6516F815
:10105000010F01F0CDFD2B46013BFDD101F092FEC9
:10106000A642F4D101F056FE013DFDD101F08AFE09
:10107000C0B2002840F0A1800D20012101F04CFAFF
:101080004FF47A64039D772001E015F8010F01F019
:10109000AFFD2346013BFDD101F074FE4545F4D17F
:1010A000013CFDD100210D2001F036FA01F06AFE6D
:1010B00010F0FF007AD1424A8DF8350092E8030023
:1010C0004032019B8DF834100C9092E8030003F538
:1010D00000731A0A0E908DF83C101B0C01210D2094
:1010E0008DF836208DF8373001F016FA029D4FF456
:1010F0007A6415F8010B01F07BFD2346013BFDD11D
:1011000001F040FE4D45F4D1013CFDD100210D2000
:1011100001F002FA01F036FEC0B2002846D1FFF716
:101120009BF9064628B901460D2001F0F5F900E0CB
:10113000EB2630460DF2444DBDE8F08FEC263046EC
:101140000DF2444DBDE8F08F01233B7322E615FA02
:1011500080F0B0F5806F1CDC1FFA80FB23680B93D6
:10116000DDF82CA0002608E023680A930A9BD8F833
:101170000820A3EB0A0393421AD2A81910ABA9EBDB
:101180000601184402F0F0FC0644B145ECD85D4677
:1011900010E6C5F580691FFA89F94FF4806BDDE729
:1011A000E12630460DF2444DBDE8F08FE626C0E75B
:1011B000012388F80C305D46FCE5E226B9E700BF64
:1011C000B04C00002DE9F04F994DADF24C4D00218F
:1011D0004FF47F7213A8CDE90E1110918DF84410D1
:1011E000129103F063FA2B680693069E42F2107484
:1011F00006E02B680793079B9B1BA34200F2B68275
:1012000002F09CFC0128F4DD2B680B930024CDE94F
:101210000E440B9E874F10948DF8444007E02B68D6
:101220000A930A9BBA689B1B934280F0AD820EAB77
:10123000C4F10201181902F097FC0444012CEED904
:101240009DF83830009301210D209DF83990DFF88A
:10125000E48101F061F92B680893089F002444F6AB
:1012600020660EE02B680993099BDB1BB34200F25A
:10127000848202F063FC1FFA80FABAF1000F40F09A
:101280008682B4F5806FEDD36B4C0D20012101F007
:1012900043F9661D77204FF47A6501E014F8010FD9
:1012A00001F0A6FC2B46013BFDD101F06BFDB442E1
:1012B000F4D1013DFDD100210D2001F02DF901F007
:1012C00061FD10F0FF0040F08C825C4D8DF83D0018
:1012D00095E80300009B0E9005F1080709EB032930
:1012E0008DF83C1097E803001FFA89F3C3F38712C7
:1012F0009E009B02F6B2019310900EAB8DF8441045
:101300000D2001218DF83E6000928DF83F20029360
:101310000DF145049A464FF47A6801F0FDF81AF889
:10132000010B01F065FC4346013BFDD101F02AFDB4
:10133000A245F4D1B8F10108FCD100210D2001F043
:10134000EBF801F01FFDC0B2002840F05282FFF719
:1013500083F8824600285DD01B2840F00982DFF820
:10136000E4B00D20012101F0D7F80BF1050A772038
:101370004FF47A6801E01BF8010F01F039FC434695
:10138000013BFDD101F0FEFCD345F4D1B8F10108D9
:10139000FCD100210D2001F0BFF801F0F3FC10F0AA
:1013A000FF0040F026828DF83D0095E803000E9086
:1013B0008DF83C1097E80300009B10908DF84410C6
:1013C0000D2001218DF83E608DF83F300DF1380A77
:1013D0004FF47A6801F0A0F81AF8010B01F008FC4C
:1013E0004346013BFDD101F0CDFCA245F4D1B8F15B
:1013F0000108FCD100210D2001F08EF801F0C2FCA3
:10140000C0B2002840F0F581FFF726F88246002898
:1014100040F0AE810A4B03931F460D20012101F0DD
:101420007BF83B469A46043777204FF47A680DE004
:10143000140EFF1FF007FF1F684C0000B04C0000A7
:10144000E04C0000604C00001AF8010F01F0D0FBE6
:101450004346013BFDD101F095FCBA45F4D1B8F10A
:101460000108FCD100210D2001F056F80DF1470BC9
:101470000DF247184FF47A6A1BF8010F01F0B8FB20
:101480005346013BFDD101F07DFCC345F4D101F091
:1014900041FCBAF1010AFCD101F074FCC0B2002891
:1014A00040F0AA81854B04930D20012101F034F80E
:1014B000824B772003F104099B464FF47A6A01E0DE
:1014C0001BF8010F01F094FB5346013BFDD101F0E5
:1014D00059FCCB45F4D1BAF1010AFCD100210D2011
:1014E00001F01AF80DF2472B4FF47A6A18F8010F41
:1014F00001F07EFB5346013BFDD101F043FCD84592
:10150000F4D101F007FCBAF1010AFCD101F03AFC78
:10151000C0B2002840F07681694B05930D2001216F
:1015200000F0FAFF664B772003F1050B98464FF465
:101530007A6A01E018F8010F01F05AFB5346013BAB
:10154000FDD101F01FFCC345F4D1BAF1010AFCD171
:1015500000210D2000F0E0FF01F014FC10F0FF006E
:1015600040F04D818DF83D0095E80300DFF854B15F
:101570000E908DF83C109BE80300009B10908DF8B6
:1015800044100D2001218DF83E608DF83F300DF1A3
:10159000380A4FF47A6600F0BFFF1AF8010B01F029
:1015A00027FB3346013BFDD101F0ECFBA245F4D112
:1015B000013EFDD100210D2000F0AEFF01F0E2FB65
:1015C000C0B2002840F01B81FEF746FF824600288B
:1015D00040F0CE800D20012100F09EFF4FF47A668E
:1015E000DDF80CA0772001E01AF8010F01F000FBF4
:1015F0003346013BFDD101F0C5FBBA45F4D1013EB4
:10160000FDD100210D2000F087FF0DF2472A0DF2D9
:1016100047374FF47A661AF8010F01F0E9FA3346BA
:10162000013BFDD101F0AEFBBA45F4D101F072FBF4
:10163000013EFDD101F0A6FBC0B2002840F0DC80E5
:101640000D20012100F068FF4FF47A66049F772097
:1016500001E017F8010F01F0CBFA3346013BFDD151
:1016600001F090FB4F45F4D1013EFDD100210D204A
:1016700000F052FF0DF247460DF2473A4FF47A67F9
:101680001AF8010F01F0B4FA3B46013BFDD101F01D
:1016900079FBB245F4D101F03DFB013FFDD101F0F2
:1016A00071FBC0B2002840F0AD800D20012100F098
:1016B00033FF4FF47A66059F772007E0E84C00007F
:1016C000784C0000F04C000017F8010F01F090FA80
:1016D0003346013BFDD101F055FB4745F4D1013EB6
:1016E000FDD100210D2000F017FF01F04BFB10F0A1
:1016F000FF0040F084808DF83D0095E80300019BD9
:101700008DF83C100E909BE8030003F500731A0A55
:1017100010908DF844101B0C01210D208DF83E20F7
:101720008DF83F3000F0F8FE029E4FF47A6516F80F
:10173000010B01F05DFA2B46013BFDD101F022FBCC
:10174000A642F4D1013DFDD100210D2000F0E4FEC0
:1017500001F018FBC0B2002851D1FEF77DFE824691
:1017600030B901460D2000F0D7FE01E04FF0EB0A42
:1017700050460DF24C4DBDE8F08F4FF0EC0A50464C
:101780000DF24C4DBDE8F08F01233B7358E514FA80
:1017900080F0B0F5806F1CDC83B201932B680D9351
:1017A0000D9E4FF0000B07E02A680C920C9AD8F8B7
:1017B0000810921B8A4217D204EB0B0012ABAAEB63
:1017C0000B01184402F0D0F98344DA45ECD8019CAF
:1017D00045E5C4F5806A4FF480631FFA8AFA0193E5
:1017E000DCE74FF0E80AC3E70123019C88F80C30DE
:1017F00035E54FF0E40ABBE74FF0E10AB8E74FF0F8
:10180000E60AB5E74FF0E20AB2E700BF2DE9F04380
:10181000594F5A4D83B04FF0000901210D20CDF8EA
:1018200000908DF8049000F077FE4FF4FA514FF4D9
:10183000FA6000F05DFC08210646012000F058FC2B
:1018400049460446052000F067FE4FF4C863013B9B
:10185000FDD101F067F8052000F0C4FE012105204C
:1018600000F05AFE052000F0BDFE4FF4E13138468D
:1018700000F08AFB6423BB60012000F0B3FE2B78EC
:10188000C5203B3B4FF47A682B7001F0B1F9434619
:10189000013BFDD12B78012001332B7001F0A8F919
:1018A0004346013BFDD10320287001F0A1F94346D6
:1018B000013BFDD12B789A20663B2B7001F098F903
:1018C0004346013BFDD1484601F092F94346013BB6
:1018D000FDD12B78142014332B7001F089F9434685
:1018E000013BFDD12B785842C0B2C31A2B7001F0D6
:1018F0007FF9B8F10108FCD101E001F043FA01F0F1
:101900002DFA0028F9DC2B78032003444FF47A6881
:101910002B7001F06DF94346013BFDD101F032FA25
:1019200005226946384600F0C7FB9DF80230062BB9
:1019300035D0102B40F0FB8006EB8606F60001D078
:10194000013EFDD10021042004EB840400F0E4FDFD
:10195000E40001D0013CFDD10121042000F0DCFDB8
:1019600001E001F00FFA01F0F9F90028F9DC40F28A
:10197000E734C8260AE000BFC407FF1F010EFF1F9F
:101980003346013BFDD1013C3FF445AF01F0E6F9A0
:101990000028F5DD01F0F6F9C0B20228F0D10520EB
:1019A00000F020FE2B7891206F3B4FF47A662B706D
:1019B00001F01EF93346013BFDD13A24012000F02D
:1019C00011FE20462C7001F013F93346013BFDD186
:1019D0002B784E2003442B7001F00AF93346013B6B
:1019E000FDD12B786F2003442B7001F001F93346B1
:1019F000013BFDD12B78742003442B7001F0F8F8E3
:101A00003346013BFDD12B78204623442B7001F057
:101A1000EFF83346013BFDD12B78552003442B7062
:101A200001F0E6F83346013BFDD12B7873200344E7
:101A30002B7001F0DDF83346013BFDD12B7865209A
:101A400003442B7001F0D4F83346013BFDD12B78D1
:101A5000642003442B7001F0CBF83346013BFDD1E9
:101A60002B78204623442B7001F0C2F83346013B0B
:101A7000FDD128780138C0B243002B7001F0B8F8CE
:101A80003346013BFDD1012000F0ACFD2B789320C3
:101A90006D3B2B7001F0ACF83346013BFDD10120CA
:101AA000284C00F09FFD04F1C3072B7814F8010FB8
:101AB00003442B7001F09CF83346013BFDD1BC423E
:101AC000F3D1012000F08EFD2B7893206D3B2B701D
:101AD00001F08EF8013EFDD101201B4C00F082FD8B
:101AE000E71D4FF47A662B7814F8010F03442B702E
:101AF00001F07EF83346013BFDD1A742F3D101202E
:101B000000F070FD942001F073F8052000F06AFDEC
:101B100001E001F037F901F021F90028F9DC0D208E
:101B2000002100F0F9FC012003B0BDE8F0832B7820
:101B3000EE20123B2B7001F05BF8B8F10108FCD1EC
:101B40000020F1E7FF06FF1FF706FF1F2DE9F04316
:101B5000012183B00D2000F0DFFCB74DB74EB84F28
:101B600001F0ECFF002800F09D8001F0ABFFC0B257
:101B70000128287010D9102800F09780202853D011
:101B8000802800F04681F02800F030813B78002B5F
:101B900000F05E812028E3D82028E1D801A353F883
:101BA00020F000BFE51D0000B91D0000B31D0000BE
:101BB000AD1D0000831D0000611B0000591D0000C9
:101BC0002F1D0000051D0000611B0000DB1C000034
:101BD000611B0000611B0000611B0000611B000015
:101BE000611B0000AB1C0000611B0000611B0000BA
:101BF000611B0000611B0000611B0000611B0000F5
:101C0000611B0000611B0000611B0000611B0000E4
:101C1000611B0000611B0000611B0000611B0000D4
:101C2000611B0000291C000001210D20854C00F0E3
:101C300073FC0D20012100F06FFC04F104097520F4
:101C40004FF47A6801E014F8010F00F0D1FF434629
:101C5000013BFDD101F096F84C45F4D1B8F10108F3
:101C6000FCD100210D2000F057FC01F08BF810F0A2
:101C7000FF0018BFE020307002F060F84FF47A6384
:101C8000013BFDD101E001F01DFF01F057FF0028ED
:101C9000F9DC00210D2000F03FFC01F04FFF00288F
:101CA0007FF463AF03B0BDE8F0833C780020307070
:101CB000002C00F0BA8002F041F84FF47A63013B47
:101CC000FDD101E001F0FEFE01F038FF0028F9DC53
:101CD00000210D2000F020FCDFE7FEF763FF3070ED
:101CE00002F02CF84FF47A63013BFDD101E001F0E2
:101CF000E9FE01F023FF0028F9DC00210D2000F0AF
:101D00000BFCCAE7FEF77AFE307002F017F84FF4CA
:101D10007A63013BFDD101E001F0D4FE01F00EFF3A
:101D20000028F9DC00210D2000F0F6FBB5E7FFF7F5
:101D300049FA307002F002F84FF47A63013BFDD1AA
:101D400001E001F0BFFE01F0F9FE0028F9DC0021FE
:101D50000D2000F0E1FBA0E7FEF7DEFF307001F0A0
:101D6000EDFF4FF47A63013BFDD101E001F0AAFEE3
:101D700001F0E4FE0028F9DC00210D2000F0CCFB8E
:101D80008BE7FEF769FD307001F0D8FF4FF47A63FE
:101D9000013BFDD101E001F095FE01F0CFFE0028EE
:101DA000F9DC00210D2000F0B7FB76E7FEF766FCBA
:101DB000D6E6FEF7ABFCD3E6012002F0ABF9224CED
:101DC000804602F0AFF901ABA3EB080323800520A6
:101DD00001F0B4FF2088000A01F0B0FF207801F084
:101DE000ADFFBDE6022001F0A9FFB9E6012002F037
:101DF00091F9154C804602F095F901ABA3EB08036D
:101E00000220238001F09AFF052001F097FF352082
:101E1000DEE700210D2000F07FFB4FF4FA7000F0A8
:101E2000E1FB0A4B1B6898479AE6FFF7EFFC30701E
:101E300008BBE12030703EE7000EFF1F0C0EFF1FB5
:101E4000040EFF1FF84C0000020EFF1F080EFF1FBC
:101E5000E02001F073FF4FF47A63013BFDD101E014
:101E600001F030FE01F06AFE0028F9DC00210D20AF
:101E700000F052FB11E7FEF729FB307010B9012387
:101E80003B7018E73C7016E72DE9F843314F324DAF
:101E9000324CDFF8D09038464FF4E13100F074F85E
:101EA0006423BB602E682E4F40F2EE2801F0C8FF7D
:101EB0002378002B40D03B78DA073DD52B68D9F842
:101EC00000209B1A0E2B37D901210D2000F04EFB6C
:101ED0000121052000F04AFB0121042000F046FB0F
:101EE0000121084600F042FB0021084600F03EFBBD
:101EF0000021052000F010FB0021012000F00CFB68
:101F00000021084600F008FB0121042000F004FB3A
:101F100001F096FF2378002BFAD03B78DB07F7D54A
:101F20002B68D9F800209B1A0E2BF1D9BDE8F84395
:101F300001210D2000F0F0BA2B6822789B1B2AB1FA
:101F4000B3F5FA6FC0D801F07BFFAFE74345FAD98C
:101F5000BAE700BFC407FF1F140EFF1F980FFF1F33
:101F6000BC0FFF1FC00FFF1F0368C9B21B681847D3
:101F70000368C9B21B6818470368C9B21B681847D1
:101F80000368C9B21B681847084B10B503EB51032F
:101F90000446B3FBF1F000F0E7FB054B1B7803B1FF
:101FA00010BD2046BDE8104001F0EEBF001C4E0EF3
:101FB000ED07FF1F08B5084600F01AFE012008BD16
:101FC00008B5084600F014FE012008BD38B50846E3
:101FD0000D4602F015FC04460146284600F012FEAC
:101FE000204638BD10B508461446114600F00AFEDA
:101FF000204610BD0846114601F032B80846114689
:1020000001F012B800F02ABF08B5084600F0C6FD7E
:10201000003818BF012008BD08B5084600F09CFD37
:10202000003818BF012008BD0846114600F012BD57
:10203000084600F059BD00BF084600F0EFBC00BFE5
:1020400000F070BC10B50648144600EB5100B0FB20
:10205000F1F000F089FB2046BDE8104000F004BC20
:10206000001C4E0E00F0D4BE00F08CBE00F076BE18
:1020700000F050BE00F05ABE70B50E4D82B02B6815
:102080000093009E044608E001F0DAFE2B680193FD
:10209000019BA2689B1B934207D2236820465B6981
:1020A00098470028F0DB02B070BD4FF0FF3002B05F
:1020B00070BD00BF140EFF1FF8B50D4691B1164656
:1020C0009AB10746002404E00134A64205F8013B1A
:1020D00006D03846FFF7D0FF031EF5DA01233B7325
:1020E0002046F8BD0C462046F8BD1446F8E700BF70
:1020F000884200DB704770B4114C2268091AEAB1BB
:10210000104B114E114D83FB023C9444D317C3EB8B
:102110002C4306FB132244F2A71C05FB03F30CFB24
:102120000233002B02DA03F10043013BB3FBF1F26F
:1021300001FB12322360104470BC7047044BF5E77A
:10214000100EFF1F5F0B4E831DF30100ECF4FFFF29
:1021500042CE0C1F08B5FFF797FEFFF7F7FC01F022
:102160006FFEFAE701B441EA000313F003036FD1F5
:10217000403A41D351F8043B40F8043B51F8043B4A
:1021800040F8043B51F8043B40F8043B51F8043B51
:1021900040F8043B51F8043B40F8043B51F8043B41
:1021A00040F8043B51F8043B40F8043B51F8043B31
:1021B00040F8043B51F8043B40F8043B51F8043B21
:1021C00040F8043B51F8043B40F8043B51F8043B11
:1021D00040F8043B51F8043B40F8043B51F8043B01
:1021E00040F8043B51F8043B40F8043B51F8043BF1
:1021F00040F8043B403ABDD2303211D351F8043B91
:1022000040F8043B51F8043B40F8043B51F8043BD0
:1022100040F8043B51F8043B40F8043B103AEDD23F
:102220000C3205D351F8043B40F8043B043AF9D290
:1022300004320AD0D2071CBF11F8013B00F8013B61
:1022400003D30B7803704B78437001BC704700BF19
:102250000C2A4AD310F0030311D0C3F10403D21A9D
:10226000DB071CBF11F8013B00F8013B07D311F855
:10227000013B00F8013B11F8013B00F8013B11F074
:1022800003033FF475AF30B4043AC91AC3F1040C28
:1022900051F8044B022B19D0032B0BD0240A51F810
:1022A000043B1D0644EA050440F8044B1C46043A6E
:1022B000F4D216E0240E51F8043B1D0244EA050452
:1022C00040F8044B1C46043AF4D20AE0240C51F8BE
:1022D000043B1D0444EA050440F8044B1C46043A40
:1022E000F4D20432B1EB0C0130BC043AA0D3013A71
:1022F00011F8013B00F8013BF9D20B7803704B78E1
:1023000043708B78837001BC704700BF08B50F4CD9
:10231000636B58030DD4636B59050FD4636B1A05B7
:1023200011D4636BDB04F3D500F012F8636B580330
:10233000F1D500F063FF636B5905EFD500F0B2FDF6
:10234000636B1A05EDD500F003F8EAE7008004405E
:1023500008B5FFF7DBFF00BF014B10221A80704762
:1023600000200540704700BF0B490A6848B108B516
:10237000EC461318ACF50050834204D20B601046B3
:1023800008BD1046704702F0F5F90C234FF0FF32FC
:102390000360104608BD00BFD807FF1FEFF313838B
:1023A000CBB9EFF31080A0B9EFF3058343B94FF435
:1023B0008070EFF311835BB1984228BF18467047D5
:1023C0000F2BF6D9054AD05CEFF31183002BF3D124
:1023D0007047184670474FF0FF307047F0E300E059
:1023E00001F1FF3C70B56546002401E07046013400
:1023F000B0FBF2FE02FB1E03092B03F130068ABF7D
:102400003733F3B2DBB2904205F8013FEED2631CE2
:102410000022CA54C8187CB162461CF8015F10F84B
:1024200001ED8CF800E0A1EB0C030232013B521AE3
:1024300023449A420570EFDB084670BD034B00222F
:1024400010215A615A6018605961704700D00340EA
:10245000704700BF4FF0E02CF0B54FF0006ECCF8A5
:1024600004E14FF0805ECCF804E14FF0005ECCF860
:1024700004E1244A24492548254C4FF0804ECCF8ED
:1024800004E1282300274EF6FF7609254FF0004E81
:10249000CCF804E183B04F608E60CB604B61CB61C0
:1024A0004B62CB624B63CB634B64D3605361D361AC
:1024B0005362D3625363D36353640D606760A66055
:1024C000E3606361256047608660C36043610560C7
:1024D00057609660D3605361156001F07DFDFFF792
:1024E000B7FF0C4C23680093009B132BFAD901F023
:1024F0003FFA23680193019BB3F5967FF9D303B0AC
:10250000F0BD00BF00900B400080034000800B40F6
:1025100000900340140EFF1F3F2818D810B4124B30
:1025200053F8302092F8804234B1012381B982F807
:1025300000315DF8044B704703EBC0035B681A6819
:1025400059B142F003025DF8044B1A6070477047BE
:1025500082F880305DF8044B704722F002025DF88B
:10256000044B1A60704700BF684D00003F2820D818
:102570001B4A02EBC00301295B680FD004291DD060
:1025800052F83000002280F8802299B1022922D02E
:1025900003290DD14FF481721A60704752F8300050
:1025A0004FF4A27280F880121A601A6822F020029A
:1025B0001A6070474FF480721A60704752F83010FA
:1025C0004FF4A272012081F880021A601A6842F06A
:1025D00020021A60704740F203121A60704700BF71
:1025E000684D00002DE9F843044672B6204F4FF0C5
:1025F000E02293693D68D2F8042D62B6520102D5FB
:10260000322B88BF01350CB9BDE8F883DFF8649040
:10261000DFF86480A9EB0303A8FB03234FF47A726D
:1026200002FB05F505EB93154FF0E02672B6B16994
:102630003A68D6F804CD62B6A9EB0103A8FB030300
:102640001CF0806FC5EB93134FF47A7002D03229DF
:1026500088BF013200FB0233B3F57A7F04D3013C1B
:10266000D2D005F57A75E1E701F0EAFBDEE700BFBD
:10267000140EFF1FBFD40100898888882DE9F84F08
:10268000314B1B6807460BB101221A70DFF8D0905E
:10269000DFF8D08099F80040D8F800302B4D013495
:1026A0009C422B782AD303F0FF0A002B3ED15446DC
:1026B000274EDFF8A8B005E033791B0623D42B782A
:1026C000A3420AD1FFF76AFE4028F5DDFF28F6DDB8
:1026D00001F0B6FB2B78A342F4D03F2C29D91D4B37
:1026E000403C1B68FFB21F551B4A194B012111705A
:1026F000BC2289F800A0DA70BDE8F88F9C425FFA2E
:1027000084FAD5D0E9E72B78D8F800105A1C8A4211
:10271000DBB203D23F2A10D8D1B201E000210A4631
:102720001BF80230DBB2F3712970C8E74FF0000AE2
:1027300054460A4BFFB21F55D6E7D1B2054A3F3B7C
:102740001268D35CDBB2EEE7680EFF1FB80EFF1F06
:1027500000A00640B40EFF1F6C0EFF1F700EFF1F7F
:10276000B00EFF1FE807FF1F324A3349536B70B4A6
:1027700043F48063314D5363314E324C3278002341
:102780002B700B70304923700B703049152A0B7079
:102790002ED01B2A48D0002A41D02D4B1B78052B68
:1027A0002ED01A2B36D0012B2FD02028294B2A4C83
:1027B00038BF2020C0F3443C83F800C0C0F3471C5E
:1027C00000F01F0083F801C00422987202209A7062
:1027D000D87488205A754FF0E021187440223C20AC
:1027E000D870E2774FF0004370BCC1F800317047F9
:1027F0001A4B40F213329A61154B1B78052BD0D13E
:10280000164B4FF45172DA61CFE7154B4FF451720A
:102810005A64CAE7134B4FF451729A63C5E7104BE1
:1028200040F213321A64B8E70E4B40F21332DA6307
:10283000B3E700BF00800440640EFF1F5C0EFF1F63
:10284000650EFF1FB00EFF1FB80EFF1F6C0EFF1F9F
:10285000EC07FF1F00A0064000E400E000C00440B9
:1028600000A0044000900440294B9B7800F0030234
:1028700003F0EC031343410700F00F02244948BF63
:1028800043F01003042A8B7003D18B7943F040038B
:102890008B711F4B5B79C20603F0EF031C4A48BFE4
:1028A00043F0100353719379194A03F0EF0310F0CA
:1028B000200C18BF43F010039371C30506D553785D
:1028C0001178DBB241F020011170537010F40070E8
:1028D00017D00F490F488B780F4A43F0A0038B7035
:1028E00003780E4902EBC30240F24633506840F2CF
:1028F0004732BCF1000F08BF1346094A03600A6063
:102900007047064B064A1968914208BF1860704725
:1029100000A00640EC07FF1F684D0000680EFF1F77
:10292000D400D442324B5B6B5B0531D510B5314CD2
:10293000237823B101F084FA2378002BFAD12E4AB0
:102940002E4B4FF0E0204FF000440021C0F88041B2
:10295000D1701B78152B3CD01B2B1FD04BB3284BB1
:102960001B7803F07F03052B3DD01A2B2CD0012BB5
:102970000FD0244B204A244C2448196892F804C0F4
:10298000D27900232370037009B101230B7010BDAD
:1029900070471F4B40F203125A64EAE71D4B40F2A6
:1029A0000312DA63164B1B7803F07F03052BDCD18F
:1029B00019E0174B40F203121A64114B1B7803F015
:1029C0007F03052BD1D10EE0124B40F203129A6324
:1029D000CFE7114B40F203129A61094B1B7803F0C9
:1029E0007F03052BC1D10C4B40F20312DA61C0E723
:1029F000008004406C0EFF1F00A00640650EFF1F04
:102A0000EC07FF1F180EFF1F5C0EFF1F640EFF1F59
:102A100000A004400090044000C004400A4A38B5B9
:102A20000546137803F0FF04002BFAD10121284654
:102A3000FFF79CFD21462846FFF76EFD034A044B35
:102A400052F835201A6038BD6C0EFF1F684D00002B
:102A5000680EFF1F09B140F080001E4A13788342C0
:102A60001CD010B41C4C646B640513D503F07F03B9
:102A7000052B2BD01A2B25D0012B1FD0002900F0BD
:102A80007F0314BF60214421052B12D01A2B0BD0D9
:102A9000012B04D010705DF8044B704770470F4B4A
:102AA00041F440715964F5E70D4B41F4407199636D
:102AB000F0E70C4B41F44071D961EBE7074B002480
:102AC0005C64DBE7064B00249C63D7E7054B0024DE
:102AD000DC61D3E7EC07FF1F0080044000A0044046
:102AE0000090044000C00440164A137883420ED080
:102AF0001549496B490509D5152B1FD01B2B19D03A
:102B0000ABB115280ED01B2807D008B11070704744
:102B10000E4B40F213311964F8E70D4B40F21331BC
:102B2000D963F3E70B4B40F213319961EEE70749A4
:102B30000B64E6E7064B0021D963E2E7054B002171
:102B40009961DEE7650EFF1F0080044000A004408D
:102B50000090044000C004400D4B5B6B13F4806395
:102B600013D03F2803D90B4B0020186070470A4B45
:102B700010B5084C53F8303023600121FFF7F6FC04
:102B8000236800221A70012010BD1846704700BF4C
:102B900000800440180EFF1F684D0000104B5B6B57
:102BA00013F4806312D012280BD0142810D10D4BCF
:102BB00040F202325A610C4A537B012003435373A3
:102BC00070470A4B40F20232DA60F4E71846704769
:102BD000054A537B03F0FE0300205373704700BF88
:102BE0000080044000C0044000A0064000A0044053
:102BF000034B5B6B5B0501D5FFF740BD704700BF22
:102C0000008004402DE9F84F394B5B6B5A053CD5E9
:102C1000384B1B680BB101221A704718B84231D2E9
:102C2000354EDFF8EC80354CDFF8E09000F1010A1A
:102C300013E003F0FF0B53B34FF0000B5D46304A37
:102C40001AF8013C535552462E490123BA420B70E3
:102C50000AF1010A86F800B014D23578D8F80030AD
:102C60000135AB422378E4D9AB425FFA85FB0FD044
:102C70003F2DE4D9244B1AF8012C1B68403D5A55CE
:102C80005246E1E7214BBC22DA70BDE8F88F5D4681
:102C90006FF0430389F8033006E099F804301B060F
:102CA0000BD42378AB42E3D1FFF778FB4028F4DD67
:102CB000FF28F6DD01F0C4F8F3E72378D8F8001018
:102CC0005A1C9142DBB203D93F2A0AD8D1B201E0A3
:102CD00000210A460A4B9B5CDBB289F80730217061
:102CE000DFE7D1B2084A3F3B1268D35CDBB2F4E7BE
:102CF00000800440680EFF1FB00EFF1FB80EFF1FBC
:102D0000700EFF1F6C0EFF1FB40EFF1F00A00640C9
:102D1000E807FF1F10B5044C237823B101F090F8A9
:102D20002378002BFAD110BD6C0EFF1F084A094B07
:102D300011781A789142C8B2D3B202D2013B181A64
:102D40007047054A1268013A1344181A704700BFC9
:102D5000B00EFF1FB80EFF1FE807FF1F064A074B04
:102D600011781A789142D0B23CBF054A1268CBB2B2
:102D700038BF9B18181A70475C0EFF1F640EFF1FA8
:102D8000E407FF1F1B4B1C491A780B789A422ED080
:102D900010B55FFA82FE194AD8B21268431C9A42F3
:102DA00019D93F2B1BD85FFA83FC1548C05CC0B211
:102DB00081F800C01349096861B19E453CBF724467
:102DC000D31A114A126828BFAEEB03039A4201D30B
:102DD00000230B7010BD4FF0000C6346E5E70B4C71
:102DE0003F382468205C5FFA83FCC0B2E0E74FF014
:102DF000FF3070475C0EFF1F640EFF1FE407FF1FCC
:102E00001C0EFF1F180EFF1FE007FF1F600EFF1FA5
:102E10000D4A0E4B11781B789942DAB211D00C4949
:102E20000968531C994207D93F2B06D9094B3F3AF1
:102E30001B68985CC0B270470023074AD05CC0B2E0
:102E400070474FF0FF3070475C0EFF1F640EFF1F8E
:102E5000E407FF1F600EFF1F1C0EFF1F0C4B5B6B78
:102E60005B0514D50B4B0C48DA78402102F0CB02FD
:102E7000DA705974DA78094942F03402DA70084A93
:102E800003781268DBB20B700AB10023137070472D
:102E90000080044000A00640640EFF1F5C0EFF1F70
:102EA000180EFF1F2DE9F041504C237913F0300F1D
:102EB00047D072B6A37D03F0FF01002B58D062B655
:102EC000DFF85C814A4898F800304A4A057816686D
:102ED000494F5FFA83FC494BEDB2D3F800E008E0BC
:102EE0001DB14FF0000C07F80C304A1E12F0FF0124
:102EF00012D0E3790CF101029642DBB2F0D995428F
:102F0000ACF13F00F1D03F2A6DD994464A1E12F031
:102F1000FF010EF80030ECD15FFA8CF388F8003036
:102F2000374B196869B1AC453CBF721B02EB0C030F
:102F3000344A126828BFACEB05039A429CBF0123B8
:102F40000B702A48C3781E06DDB216D46A060DD56A
:102F5000264B1B795B0609D52B4B2C491B6800229D
:102F60000A7003B11A70214B3C22DA70BDE8F0817F
:102F70004023E279637462B6E3E703791C06E5D582
:102F8000234B244ADFF89CE01C7816689EF800303A
:102F9000214A224FD2F800C0E4B2DBB207E0037945
:102FA0000023FA5CD2B2C271027D072A11D8A34273
:102FB00003F101010ED08E42F1D93F290279A3F12C
:102FC0003F0301D80B46ECE71CF803200B46D2B2B6
:102FD000E9E7DCB2054B8EF800401A79110644BFD0
:102FE0007C22DA70B2E794467DE700BF00A006407D
:102FF000640EFF1FE407FF1F1C0EFF1F600EFF1F64
:10300000180EFF1FDC07FF1F680EFF1F6C0EFF1F4F
:10301000B00EFF1FE807FF1FB40EFF1F700EFF1F4B
:103020005C0EFF1FB80EFF1F094B10B4186068B18B
:1030300001F14004074B084801F11A021A60074BDE
:10304000046028315DF8044B196070474024F1E7B3
:10305000600EFF1FE007FF1FE407FF1FDC07FF1FD5
:10306000054B186018B1054B403119607047034B90
:1030700040211960704700BFB40EFF1FE807FF1F13
:10308000704700BF431E032B16D872B60B4951F888
:10309000230078B130B40A4CB0F800C034F81320E3
:1030A000456841F82350A2EB0C0224F8132062B6C5
:1030B00030BC704762B67047002070474C0FFF1F4E
:1030C0009C0FFF1F013803280BD872B6074B53F82B
:1030D000203043B100205B680130002BFBD162B689
:1030E0007047002070471846F9E700BF740FFF1FB4
:1030F00010B472B61A4A1B4C042312F8011B0907BC
:1031000043F0010C05D554F8331069B154F83C1064
:10311000C9B10433142BF0D162B6134B00221A70DC
:103120005DF8044B00F0A6BC0F4904EBC302083065
:1031300050600A780D4844F83300013A0A7062B6CC
:103140005DF8044B7047084A094904EBCC0308308A
:103150005860137844F83C10013B137062B6EFE7F7
:10316000E84F00000000FF1FA40FFF1F8800400071
:10317000C8004000421E032A0ED81C4B400140F0FC
:10318000100010B4034472B6194CA05C03281DD87B
:10319000DFE800F01416031970470520A05413F05F
:1031A000080F088814BFC8228822083142EA00426A
:1031B00059601A6062B65DF8044B70470320EDE772
:1031C00008330220EAE708330420E7E7094B53F805
:1031D000220038B1084B53F82200416043F8221016
:1031E00062B6E8E743F82210034BF7E70000FF1F41
:1031F000940FFF1F740FFF1F840FFF1F2DE9F04F67
:10320000DFF80CA3DFF80CB385B03DE0B04D9E08AD
:1032100005EBC607013A796813F00803D4B2A1F1AF
:10322000080040F0B88055F836204FEA124C120CD6
:1032300021F808CC00F0A78021F8063C41F8043CB6
:10324000A44B53F82420002A00F00182A24B53F82B
:103250002420506043F82400A04B33F814209444F9
:1032600023F814C000F0E6FB002800F0E98117F015
:10327000080F9B4B00F1080018BF5B46786045F8CB
:10328000363008238AF880309AF880305907DCB24B
:103290001BD5944B1B78ABB193490A7802F0FF031E
:1032A0002AB1013BDBB20B70002B00F046838F4943
:1032B0000A7802F0FF032AB1013BDBB20B70002B4E
:1032C00000F0EB8104238AF8803014F0080200F04B
:1032D000CC819AF89020D3B2120997D1DFF8F091FF
:1032E0009B0809EBC30459F833006468C0F38300FA
:1032F00009287CD00FD80138012808D87C4A1588C5
:1033000042F22100854200F0FB8149F833B00123ED
:103310008AF89430B5E70D28F9D1D4E90007754D46
:1033200049F833B0724E744CC9F8102083B240F2A1
:10333000816CC9F818202A6063454FF00102C6E984
:103340000007227000F2FF80B3F5D06F80F0CB82CF
:10335000B3F5817F00F0268240F2DE8040F2023237
:1033600093427BD107F07F07042F00F20881020C03
:1033700040F00581614911F8273043F0020301F85C
:103380002730134670E017F0080F554B18BF5B4607
:1033900045F8363075E700F06DFB5949594A51F848
:1033A0002430002B00F05781586841F82400115D4B
:1033B00003F108007860032905D8DFE801F0120F57
:1033C0001502042111551A8817F0080F14BFC823DD
:1033D000882343EA024345F8363052E7022111556B
:1033E000F1E703211155EEE705211155EBE7414DBA
:1033F0002A683AB34449404C0F88444894F800E0A6
:103400000678402F3B4628BF4023BEF1000F8EF0C8
:10341000010E84F800E046F0020486F00106067012
:1034200009EBC400426014BFC820882040EA034072
:103430001A44FB1A9BB249F834000B80002B00F0B1
:1034400036812A602A4B1A88B2F5A06F7FF45FAFED
:103450009A788AF8982000225A7058E7B3F5A06F3E
:1034600040F08D8000221346B6F806C027489445E8
:1034700028BF944667460278402F28BF402742F075
:10348000020E3E0409EBCE0846F0C806C8F8043028
:1034900049F83E6000263B442670BCEB070782F0EB
:1034A0000106067040F01181BCF13F0F4FF001059D
:1034B00009D946F00206027009EBC6022570536076
:1034C000882349F8363001238AF894301FE700BF7B
:1034D0000000FF1F4C0FFF1F5C0FFF1F9C0FFF1F03
:1034E00088004000980FFF1F990FFF1FC40FFF1F98
:1034F0006C0FFF1F400FFF1F3D0FFF1FC020074035
:10350000740FFF1F940FFF1F3E0FFF1F3C0FFF1F85
:1035100000200740C8004000802B00F08B81822BE8
:103520002DD107F07F07042F29D8A74A0023138045
:10353000A64B13F827309F0740F1FC81012313703D
:10354000A14B022290E742F2210C6345BBD01DD96A
:1035500042F2212293420DD1BFB2002F82D19C4B67
:103560001A689C4B1A609C4BC0F3074000221870ED
:10357000134679E742F2213293423FF473AF0F23AF
:103580008AF8C03001238AF89430C0E6B3F5086F9A
:1035900000F04A81B3F5106FF1D1904BC0F30740B2
:1035A0000425187059F835301A0606D40135142D43
:1035B0000CD059F835301A06F8D509EBC50301359A
:1035C0005868083800F056FA142DF2D1844A854B19
:1035D0000292854A0192854E854ADFF8488203941B
:1035E000009200251C4656F8047B2FB138467F68B0
:1035F00000F040FA002FF9D1009BD8F8007043F892
:10360000045B46F8045C00932FB138467F6800F0F5
:1036100031FA002FF9D1029B48F8045B43F8045BB0
:103620000293019B23F8025B01932378023B032B57
:1036300000F20981DFE813F03F0104013F010401BA
:103640006C4A45F8360013780133137019E643F8D5
:103650002400674BFEE5115D022926D07FF611AEEE
:1036600003291DD1012313550BE6E0076ED4210673
:1036700021D4A20708D5604B93F888200221D2B24A
:1036800083F8882083F88010E30603D55A4B102274
:1036900083F8802005B0BDE8F08F00F0ADFB11E6A7
:1036A00017F0080F14BF032302231355E9E53F2F3A
:1036B00098BF0022C5E6504B80220D2183F8C01030
:1036C00083F88020A207DFD5D5E746F00206027016
:1036D000402F09EBC6003A4628BF40224360100441
:1036E000134440F088000121BA1A49F836002170CD
:1036F00055D02B60414B1A8001238AF8943006E69E
:1037000092885AB93E4AE51D14F8011B02F8011FC0
:10371000AC42F9D13B4A1268862A3CD03A4C3B482D
:1037200025780278002D85F00105257042F002040D
:1037300082F00102027009EBC4024FF000005060F9
:1037400014BFC822882249F83420DEE52A4B2F48CE
:103750002F49304C022583F8945002702E480C609B
:103760002E4D48608C600D24CD60FF200A618A6177
:1037700083F8C04001219F2483F8880083F88000EB
:1037800083F8982083F88C0083F8844083F89410A1
:1037900005B0BDE8F08F224A0F201070BEE73F2F22
:1037A000A7D890E607F07F07042F3FF6E8AE000C9D
:1037B0007FF4E5AE054A12F8273023F0020302F841
:1037C0002730002213464FE6440FFF1FC02007405A
:1037D000140EFF1FC00FFF1FBC0FFF1F980FFF1F0E
:1037E000840FFF1F940FFF1F9C0FFF1F4C0FFF1F25
:1037F0005C0FFF1FA40FFF1F002007403E0FFF1F9D
:10380000B30FFF1FB40FFF1F3D0FFF1F3C0FFF1F24
:103810000000FF1F88004000BC0EFF1FFC0EFF1FB2
:10382000990FFF1F740FFF1F484B49491B780B70FE
:103830000B4619E6464A00231380454B022213E645
:103840004FF001032370434BB34204F101047FF4B2
:10385000CAAE414E039CDFF81481404F0023337001
:10386000042518F8013B3E4AAB541B0725D445F00C
:10387000020145F0030204350023142D49F83130CC
:1038800049F83230EDD1374F25783A7842F00200CE
:1038900009EBC00C85F00106CCF80430002D4DD1A9
:1038A000882382F0010226703A7049F830300123F3
:1038B0008AF894302BE52570C5E700F0BBF80028A6
:1038C00032D009EBC5030830586049F8357000F074
:1038D000B1F808B345F0010309EBC30208305060AA
:1038E00049F833B0C3E7204A5368002B3FF447AE92
:1038F000000CBFB204E013690C32002B3FF43FAE62
:1039000011888142F7D15188B942F4D1000A0328C5
:103910000CBF1A781289A7E533780133337045F06C
:10392000010349F83300A2E7337849F83500013341
:103930003370CCE7064B022296E500BE2670C82302
:1039400082F001063E7049F83030BCE5980FFF1F49
:10395000440FFF1F5C0FFF1FA40FFF1F88004000D4
:10396000C02007403C0FFF1F944F0000E84F0000AD
:1039700010B500F097FB00231E4A194642F8331099
:1039800002EBC3000133142B4160F7D11A481B4CE2
:10399000436B43F480234363D4F80008184B40F092
:1039A0004070C4F80008C2F3072CC2F30744120E9B
:1039B00083F89CC083F8B04083F8B420114AFF20FC
:1039C0004FF0010C83F8800083F88800187483F8A6
:1039D00094C011700C4983F884C0702081F83500C0
:1039E0004FF0E0214FF400101023C1F804011372CE
:1039F00010BD00BF0000FF1F0080044000D0004049
:103A0000002007400021074000E400E000F0F6B885
:103A100000F07CB800F056B800F090B800F0C0B9E3
:103A200000F09AB90846114600F004B9084600F0C3
:103A300085B900BF72B60D490B68B3FA83F00B2845
:103A400010DC4FF00042C24023EA02030B6062B672
:103A5000074A00EBC000C10002EBC0000023535036
:103A60004360704762B60020704700BF0008FF1F28
:103A70009803FF1F0E4BC31AB3F5587F10D20D4A9F
:103A8000127872B972B60C4A0C49A2FB032308687B
:103A90004FF000421B0922FA03F303430B6062B6A6
:103AA0007047074A1278002AECD0FFF721BB00BF0D
:103AB0009803FF1FA40FFF1F398EE3380008FF1F74
:103AC000980FFF1F38B50F4C206878B143880288E3
:103AD000C11801339A420D7A02D94380284638BD75
:103AE000FFF7C8FF00232360284638BD064B1B782C
:103AF0002BB10320FFF7C6FA20600028E6D14FF073
:103B0000FF35EBE7A80FFF1F980FFF1F10B5094CFB
:103B1000206818B143881844007A10BD064B1B7802
:103B20002BB10320FFF7AEFA20600028F2D14FF04E
:103B3000FF3010BDA80FFF1F980FFF1F084B094A49
:103B40001B6810B594881BB11A885B88D31A1C4473
:103B50000CB1204610BD00F073F9204610BD00BF27
:103B6000A80FFF1F9C0FFF1F2DE9F84F0D460029DE
:103B70003ED04FF00008DFF880901E4E0746C24648
:103B800099F80030E3B1346814B322886388A2EB5B
:103B9000030BAB4528BFAB4604F1080138465A4633
:103BA0001944FEF7DFFA638822885B449BB29A428D
:103BB00063805F44D844A5EB0B0511D9002DDFD1FC
:103BC0004046BDE8F88F0288002ADFD1FFF752FF98
:103BD0000320FFF757FA044630600028F3D1EFE7DF
:103BE0002046FFF747FFC6F800A0002DC8D1E7E741
:103BF0000846E6E7A80FFF1F980FFF1F0B4B1B7827
:103C00009BB110B50A4C206848B1FFF733FF002381
:103C100003202360FFF736FA30B1FFF72BFF0320B4
:103C2000FFF730FA0028F8D110BD7047980FFF1F3A
:103C3000A80FFF1F2DE9F04FDFF8F49083B00122A9
:103C400089F80020019179B3374FDFF8E880019DB2
:103C5000364EDFF8E4A083463868A8B3B0F802E037
:103C6000CEF1400CAC4528BFAC460EEB0C04002254
:103C7000A4B23270A5EB0C05448000F10802BCF13F
:103C8000000F0AD00EF1FF3E7244DC441BF8014BDA
:103C900002F8014FDC45F9D144883F2C0BD80522AE
:103CA0008AF80020002DD7D10198002389F8003030
:103CB00003B0BDE8F08F4022028001460420FFF7E8
:103CC00059FA00223A60EAE798F8002022B34DF250
:103CD000E90408E0013C18D03278B2B900F0B0F83D
:103CE00098F80020C2B10420FFF7ECF90728F1D8BA
:103CF0004FF0010389F80030FFF79CFE3860002880
:103D0000ACD1013C89F80000E6D101234FF0FF302F
:103D1000337003B0BDE8F08F00234FF0FF3089F817
:103D2000003003B0BDE8F08FB00FFF1FAC0FFF1FD6
:103D3000AD0FFF1F980FFF1FC40FFF1F00B583B00B
:103D4000034601210DF107008DF80730FFF772FFE0
:103D500003B05DF804FB00BF38B50E4D0E4C28686B
:103D60000123237028B140880023C0F14000237054
:103D700038BD0A4B1B7813B90020207038BD0420D1
:103D8000FFF7A0F90728F7D8FFF754FE28600028AE
:103D9000E9D1F1E7B00FFF1FAD0FFF1F980FFF1F15
:103DA000F8B5114B1B788BB1104E114D34680127BB
:103DB0002F7064B10F4B00271F706388238021464A
:103DC0000420FFF7D7F9376000232B70F8BDFFF709
:103DD00031FE084B014620B104201C70FFF7CAF9E0
:103DE000F2E71F70F0E700BF980FFF1FB00FFF1F33
:103DF000AD0FFF1FC40FFF1F38B50E4B1B7853B913
:103E00000D4C216841B103F0FF054B880B80042065
:103E1000FFF7B0F9256038BDFFF70CFE014620B171
:103E2000BDE838400420FFF7A5B9044B01221A7001
:103E300038BD00BFAD0FFF1FB00FFF1FC40FFF1F26
:103E40002DE9F843324E337863B1324F3A784AB9AC
:103E50000122D9073A7043D49A0726D400225B077F
:103E60003A7001D4BDE8F8832B4B1A68002AF9D0C8
:103E7000EFF30582002AF5D1EFF3108572B61868CA
:103E800000283AD0254C2178002936D142691A60A1
:103E900001232370002A37D0916105B962B600254D
:103EA0008368457798472570DCE7DFF87C8098F8D1
:103EB0000020002AD2D00025DFF870902B4659F858
:103EC0002340236820461B690135984708B12369C0
:103ED000984798F80020EBB29A42F0D83378BDE7C3
:103EE000FFF72CFE68B90E4B1B780BB93378B3E79C
:103EF000337803F0FE033370AEE7002DB2D162B623
:103F0000B0E700F0CDF8EEE7064B1A60C5E700BF5A
:103F10000408FF1FC50FFF1FC80FFF1FD40FFF1F8F
:103F2000904F0000D80FFF1FF40FFF1FDC0FFF1F83
:103F300070B5EFF3108272B60C4C206880B10C4E55
:103F400000254369236073B19D6102B962B683683D
:103F500045779847EFF3108272B620680028F0D1B9
:103F600002B962B670BD3360EFE700BFD00FFF1F2C
:103F7000CC0FFF1FFFF7DCBF024A13680133136049
:103F8000704700BF140EFF1F70B4104E104D3478F0
:103F9000D4B1621ED2B2291D2B4601EB820101E091
:103FA0008B4205D053F8042B8242F9D170BC704784
:103FB000631CDBB2074A3370137845F8240043F0E2
:103FC0000203137070BC70470123F3E7F40FFF1F67
:103FD000DC0FFF1F0408FF1F2A4B2B4A6020E12142
:103FE0001870597013782948082B34D00A2B20D028
:103FF0000C2B274B0CBF35215D2112228160C26042
:104000009960DA60234B21491B78214ACBB1012307
:104010000B621362204B1D491B781D4A012B13D9DB
:10402000042B1BD884234B6253621C4B01221A7051
:104030007047174B392113228160C2609960DA60A2
:10404000E0E70B621362E5E780234B625362134B98
:1040500001221A7070470E4B2121ECE7082B06D87D
:1040600085234B6253620D4B01221A707047102B4F
:1040700094BF862387234B625362084B01221A7038
:10408000704700BF004007400508FF1F00B0034015
:1040900000B00B40F50FFF1F0608FF1FF60FFF1FB4
:1040A000704700BF10B584B072B6164A1649516009
:1040B000702080231070137013781B06FCD5D06815
:1040C00062B6124B124C984238BF00EB800001A937
:1040D00038BF40000A22FEF783F901A920460023D9
:1040E00011F8012B01333AB10A2B20F8022FF7D136
:1040F0001623237004B010BD5B00DBB2237004B044
:1041000010BD00BF000002400000074180969800EB
:104110009408FF1F024B0146186800F00BB800BF5F
:10412000E00DFF1F024B0146186800F037BC00BFCE
:10413000E00DFF1F2DE9F04F01F10B06162E83B0A5
:10414000044624D8102900F2BA8000F0A3FA102601
:1041500018220220B54F3A44A2F1080153688B425D
:1041600000F0BA805A68D96822F003021A449D68A8
:10417000E9608D60516841F001012046516003F112
:10418000080500F08DFA284603B0BDE8F08F36F040
:10419000070600F19480B14200F2918000F07AFAB3
:1041A000B6F5FC7FC0F09A81730A00F08F80042B73
:1041B00000F26F81B30903F1390003F1380CC30039
:1041C0009A4F3B44A3F108055B689D4206D10CE081
:1041D000002980F22781DB689D4206D05A6822F0D0
:1041E0000302911B0F29F3DD60463D69DFF850C2E1
:1041F00065457CD06A6822F00302931B0F2B00F305
:104200007B81002BC7E904CC80F26C81B2F5007F82
:1042100080F01A81D308796801334FEA521E0122D7
:1042200002FA0EF20A4357F833E0C5F808E007EB4C
:10423000C3010839E9607A6047F83350CEF80C5072
:10424000831001219940914257D8114206D120F0A4
:1042500003004900114200F10400FAD007EBC00945
:104260004D468646D5F80C80454508D11DE1002B0A
:1042700080F22481D8F80C80454500F01681D8F8EA
:10428000042022F00302931B0F2BF0DD2046D8E917
:10429000025408EB060146F00106C8F80460EC6021
:1042A000A56043F00104C7E90411C1E902CC4C60E8
:1042B00048F8023000F0F4F908F1080502E00C2398
:1042C00023600025284603B0BDE8F08F4FF400734B
:1042D00040204FF03F0C73E7D3689A4208BF02308A
:1042E0007FF440AF3D69DFF858C1654582D17A68F7
:1042F0008310012199409142A7D9BD686B6823F0D2
:1043000003094E4503D8A9EB06030F2B7ADCDFF82F
:1043100034B1474BDBF800201B680132334405EB16
:10432000090A00F0338103F580530F3323F47F68CB
:1043300028F00F084146204600F00AFA411C0246C8
:1043400000F0F380824500F2EE803A4B1968414458
:104350001960084600F04E81DBF80010019301312E
:104360001BBFA2EB0A010918CBF80020196012F05C
:10437000070B00F01781CBF108010A44CBF58051FF
:1043800090440831A1EB0801C1F30B0A51462046C5
:10439000009200F0DDF9421CDDE9002300F04F81BE
:1043A000801A00EB0A081968BA6048F0010051440D
:1043B000BD425060196000F02981B9F10F0F40F241
:1043C00027816868A9F10C0C2CF0070C00F00100A3
:1043D00040EA0C0068604FF0050E05EB0C00BCF1E4
:1043E0000F0FC0E901EE00F2328150681546124B02
:1043F0001A688A4238BF1960104B1A688A4238BF5F
:10440000196094E0AA1943F0010346F001066E60BA
:104410002046BA60536000F043F90835284603B0DF
:10442000BDE8F08FD9681A44A1E600BFAC08FF1FB1
:104430002810FF1FF80FFF1F2010FF1F2410FF1F61
:10444000B408FF1FB40CFF1FB2F5206F4FEA5223D0
:1044500063D3142B00F2B78003F15C01C9005B3316
:1044600007EB010E7958AEF1080E8E4500F09180F1
:104470004B6823F00303934202D989688E45F7D134
:10448000D1F80CE07A68C5E9021ECEF80850CD607C
:10449000D6E6142B59D9542B00F29D80330B03F12F
:1044A0006F0003F16E0CC3008AE60EF1010E1EF0E0
:1044B000030F05F108057FF4D5AE51E042444546AF
:1044C0005368D8F80C1043F00103536055F8083FC7
:1044D0002046D9608B6000F0E3F8F3E6F00806F1BF
:1044E000080237E62A442046536843F0010353602C
:1044F000083500F0D5F8E5E6A919204646F0010692
:1045000043F001046E60C7E90411C1E902CC4C60BC
:10451000AB5000F0C5F80835D4E6930903F1390132
:10452000C90038339CE7BD425FD0BD68686820F0A1
:1045300003084645A8EB060302D80F2B3FF762AFEE
:10454000204600F0ADF80025BCE603F15C0003F165
:104550005B0CC30034E659F808394B4540F09680AF
:1045600010F0030F00F1FF30F5D17B6823EA01035F
:104570007B60490099423FF6C0AE19B9BDE64900DB
:104580000EF1040E1942FAD0704667E603F11008E6
:10459000D0E69A104FF001087B6808FA02F21A433D
:1045A0007A6070E702EB08014942C1F30B0A5146F9
:1045B0002046009200F0CCF8431CDDE900237FF494
:1045C000EFAEDA46EFE6542B25D8130B03F16F015B
:1045D000C9006E3344E7B3F5AA7F25D8F30B03F186
:1045E000780003F1770CC300EAE5294B18684044D2
:1045F0001860B1E6CAF30B0CBCF1000F7FF4ACAE4F
:10460000BD68C84448F001006860F0E61546EEE673
:104610000123536094E7B3F5AA7F23D8D30B03F1AA
:104620007801C90077331BE740F25452934223D8F4
:10463000B30C03F17D0003F17C0CC300C0E5ABF1CA
:10464000080BD844A8EB02084FF0000AABE605F1CE
:1046500008012046009300F0A1F9BD68009B68683E
:104660001968C4E640F254518B420BD8930C03F105
:104670007D01C9007C33F3E64FF47E737F204FF059
:104680007E0C9DE54FF47E717E23E9E67B6870E742
:10469000F80FFF1F014800F097B800BF6C11FF1F13
:1046A000014800F093B800BF6C11FF1F830730B5BD
:1046B00048D0541E002A3FD0CAB2034601E0013C54
:1046C0003AD303F8012B9D07F9D1032C2DD9CDB294
:1046D00045EA05250F2C45EA054536D9A4F1100217
:1046E00022F00F0C03F1200EE6444FEA121C03F1F6
:1046F000100242E9045542E9025510327245F8D1E0
:104700000CF1010214F00C0F03EB021204F00F0C79
:1047100013D0ACF1040323F003030433134442F831
:10472000045B9342FBD10CF003042CB1C9B21C44CE
:1047300003F8011B9C42FBD130BD64461346002C9C
:10474000F4D1F9E703461446BFE71A46A446E0E76A
:1047500038B5074D0022044608462A60FDF704FEDE
:10476000431C00D038BD2B68002BFBD0236038BD24
:104770006411FF1F014B1868704700BFE00DFF1F59
:1047800070B50D4E0D4D761BB61006D0002455F8B1
:10479000043B01349847A642F9D1094E094D761BD6
:1047A00000F024FCB61006D0002455F8043B013478
:1047B0009847A642F9D170BDF84F0000F84F0000AD
:1047C00000500000F84F0000704700BF704700BF66
:1047D000FFFFFFFFFFFFFFFFFFFFFFFFFFFFFFFFE9
:1047E000FFFFFFFFFFFFFFFFFFFFFFFFFFFFFFFFD9
:1047F000FFFFFFFFFFFFFFFFFFFFFFFFFFFFFFFFC9
:1048000090F800F06DE9024520F007016FF0000C10
:1048100010F0070491F820F040F049804FF00004B8
:104820006FF00700D1E9002391F840F000F1080093
:1048300082FA4CF2A4FA8CF283FA4CF3A2FA8CF3CB
:104840004BBBD1E9022382FA4CF200F10800A4FA32
:104850008CF283FA4CF3A2FA8CF3E3B9D1E9042386
:1048600082FA4CF200F10800A4FA8CF283FA4CF3BD
:10487000A2FA8CF37BB9D1E9062301F1200182FA77
:104880004CF200F10800A4FA8CF283FA4CF3A2FA7D
:104890008CF3002BC6D0002A04BF04301A4612BA8B
:1048A000B2FA82F2FDE8024500EBD2007047D1E98E
:1048B000002304F00305C4F100004FEAC50514F01D
:1048C000040F91F840F00CFA05F562EA05021CBFEE
:1048D00063EA050362464FF00004A9E7024B13B1F7
:1048E000024800F005B8704700000000A94B000026
:1048F000002301461A46184600F06AB9F8B5244F5D
:104900000C460646FFF7C6FEBB685D68C4F57E61CF
:104910000F3125F003054B1923F47F6323F00F03B8
:10492000A3F58054B4F5805F07DB00213046FFF724
:104930000FFFBB682B44984204D03046FFF7B0FE0F
:104940000020F8BD61423046FFF702FF01300DD074
:10495000104ABB682D1B45F001055D6013683046A9
:104960001B1B1360FFF79CFE0120F8BD00213046A1
:10497000FFF7EEFEBA68831A0F2BDEDD43F001036A
:104980005360054B03491B68C01A0860D5E700BF98
:10499000AC08FF1FF80FFF1FB40CFF1F002961D0E8
:1049A000F8B50C460646FFF775FE54F8042C7B4F0D
:1049B000A4F1080522F0010105EB010CB868DCF850
:1049C0000430604523F0030300F08B80D207CCF85D
:1049D000043032D454F8082CAD1A1144AA6807F1F7
:1049E000080082426AD00CEB0304D4F804E0EC68BF
:1049F000D4601EF0010FA26000F0978041F0010327
:104A00006B60CCF80010B1F5007F35D27868CB0828
:104A10000122490901338A40024357F833107A6072
:104A200007EBC302083AC5E9021247F83350CD60DC
:104A30003046BDE8F840FFF733BE0CEB0302526886
:104A4000D00710D4194407F10800DCF8083083427D
:104A500073D0DCF80C20DA60936041F001036B60E6
:104A60006950D0E7704741F00103B1F5007F44F889
:104A7000043CCCF80010C9D3B1F5206F4FEA5123A4
:104A800048D28B0903F1390003F13802C300F8184A
:104A9000FB580838984259D05A6822F003028A42DB
:104AA00002D99B689842F7D1D868C5E90230856081
:104AB000DD603046BDE8F840FFF7F2BD0CEB0302C5
:104AC0005268D20763D40B44DCE90212CA609160D9
:104AD00043F001026A603046EB50BDE8F840FFF752
:104AE000DFBD0B44D10707D454F8082CAD1A13448A
:104AF000D5E90212CA60916043F001026A60284A57
:104B0000BD6012689A4293D8264B30461968FFF769
:104B1000F5FE8DE7142B0AD9542B1FD80B0B03F18C
:104B20006F0003F16E02C300B1E719448DE703F192
:104B30005C0003F15B02C300A9E741F00103C7E990
:104B40000455C5E902006B60695071E779689210FD
:104B5000012404FA02F20A437A60A6E7B3F5AA7FB9
:104B600006D8CB0B03F1780003F17702C3008EE780
:104B700040F25452934206D88B0C03F17D0003F1AE
:104B80007C02C30083E74FF47E737E227FE741F00F
:104B900001036B60CCF800104AE700BFAC08FF1FB0
:104BA000B80CFF1F2810FF1F38B5074D074C2C1BF2
:104BB000A41005D0013C55F8043D9847002CF9D1CC
:104BC000BDE8384000F01CBA000000000000000002
:104BD0002DE9F047DFF87CA00646DAF80000984699
:104BE0000F469146FFF7F0FD184B1C6824B365682B
:104BF0001F2D24DC5EB96B1C0235DAF800006360FF
:104C000044F82570FFF7E2FD0020BDE8F08704EBD3
:104C100085010123C1F88890D4F88821AB401A435C
:104C2000022EC4F88821C1F80881E4D1D4F88C217F
:104C30001A43C4F88C21DEE7054C1C60D7E7DAF88C
:104C40000000FFF7C3FD4FF0FF30DEE77011FF1FDC
:104C50007411FF1FE40DFF1F7701080F010100FF12
:104C600077E2FE0F010300FF77E2FE0F010800FF6D
:104C700077E2FE0F010900FF77E2FE0F010400FF5B
:104C80006500000000000000690000000000000056
:104C90007700FC0F0101000077E2FE0F0100000029
:104CA0007703080F010000007704080F0200FC00E2
:104CB0007700080F0800000000000000040000005A
:104CC0007700080F080300000000FC02000000004D
:104CD0007700080F08040000000000010000000039
:104CE0007700FC0F000000007700FD0F00000000BF
:104CF0000000FC0002000000750000000000FFFF43
:104D00000000000000000000C11F0000E51F0000BF
:104D100075200000712000006D2000006920000057
:104D200065200000891F0000452000004120000090
:104D30003920000031200000292000001920000047
:104D40000920000005200000FD1F0000F51F0000E5
:104D5000691F0000711F0000791F0000811F000003
:104D6000CD1F0000B51F00004008FE4340A00440D6
:104D70004408FE4344A004400018FE4300C0044021
:104D80003000FE43309004403400FE433490044031
:104D90001C18FE431CC004401018FE4310C0044001
:104DA0000818FE4308C004400C18FE430CC0044021
:104DB0000C10FE430CB004401010FE4310B0044031
:104DC0001810FE4318B004401C10FE431CB00440F1
:104DD0001410FE4314B004400418FE4304C0044001
:104DE0000010FE4300B004400008FE4300A0044051
:104DF0000408FE4304A004400C08FE430CA0044039
:104E00000808FE4308A004401418FE4314C00440E0
:104E10001818FE4318C004400410FE4304B00440B8
:104E20000810FE4308B004406820FE4368D00440E8
:104E30001400FE43149004403800FE4338900440B0
:104E40003C00FE433C9004404000FE434090044040
:104E50004808FE4348A004404C08FE434CA00440D0
:104E60002808FE4328A004402C08FE432CA0044040
:104E70006020FE4360D004406420FE4364D00440C0
:104E80002010FE4320B004402410FE4324B0044010
:104E90002810FE4328B004402C10FE432CB00440E0
:104EA0004400FE43449004407000FE437090044070
:104EB0007400FE43749004406800FE436890044010
:104EC0005008FE4350A004405808FE4358A0044038
:104ED0005C08FE435CA004405408FE4354A0044018
:104EE0002018FE4320C004402418FE4324C0044080
:104EF0001008FE4310A004401408FE4314A0044010
:104F00003818FE4338C004403418FE4334C004400F
:104F10003018FE4330C004403C18FE433CC00440FF
:104F20002C18FE432CC004402820FE4328D0044007
:104F30002C20FE432CD004400020FE4300D004402F
:104F40000420FE4304D004400820FE4308D004405F
:104F50000C20FE430CD004401020FE4310D004402F
:104F60001420FE4314D004400000000000000000A4
:104F70002D3A0000253A0000213A00001D3A0000B9
:104F8000193A0000153A0000113A00000D3A0000ED
:104F900000FFFFFF000100004C08FF1F120000008F
:104FA000000200000808FF1F43000000000300008B
:104FB0006008FF1F00000000010309046408FF1FD0
:104FC00000000000020309047C08FF1F000000002D
:104FD000030309049408FF1F000000000000000004
:104FE000000000000000000000151915F8B500BF12
:104FF000F8BC08BC9E467047DD4800003504000040
:04500000F8B500BF40
:10500400E00704EC00FB0F0000FBC013BFE607C081
:10501400BFEC07C0BFEE07CFEB07ECF5EA07FCB225
:10502400FF0E72FCB2FF0E76FCB2FF0E77FCB2FFED
:105034000E9EFDFCB2FF0E73624C69DD6D4C77DD94
:105044001D4C72DD294C65DD324C75DD62FCA1FF1F
:105054000ED5EA07DFC8AFE60712ECEB070FFCB288
:10506400FF0E119BA793DFF6FE4C00EEE3FF118BBE
:10507400FCA1FF0EA793DFF6EED6FF61FFFCF8FF5D
:105084000E8F02084C0FDD0B624CFFDF11FCC408CD
:105094000FEFF5624CFFDF06FC04F00EEFF5C36181
:1050A400CFC262FCA1FF0EEEA7FFE5EA07EF03E51E
:1050B400EA07FE0200EF9A5100FCA1FF0ED7FFFFA2
:1050C400FFFFFFFFFFFFFFFFFFFFFF00084D000092
:1050D40000000000E8030000000000008130000030
:1050E4000413FF1F280000001A0000004000000005
:1050F4004000000001010000704F000000000000AB
:10510400E803000000000000FFFFFFFF010A0400A5
:1051140009024300020100C0320904000001020236
:1051240001000524001001052401010104240206E4
:10513400052406000107058203100040090401004C
:10514400020A00000007050302400000070584026C
:10515400400000001201100102000040C016830448
:105164007602010203010000040309041803540039
:10517400650065006E0073007900640075006900C5
:105184006E006F00160355005300420020005300C8
:1051940065007200690061006C0000000C030000EF
:1051A40000000000000000000000000000000000FB
:1051B400000000000000000000000000AC08FF1F19
:1051C400AC08FF1FB408FF1FB408FF1FBC08FF1F73
:1051D400BC08FF1FC408FF1FC408FF1FCC08FF1F23
:1051E400CC08FF1FD408FF1FD408FF1FDC08FF1FD3
:1051F400DC08FF1FE408FF1FE408FF1FEC08FF1F83
:10520400EC08FF1FF408FF1FF408FF1FFC08FF1F32
:10521400FC08FF1F0409FF1F0409FF1F0C09FF1FDF
:105224000C09FF1F1409FF1F1409FF1F1C09FF1F8E
:105234001C09FF1F2409FF1F2409FF1F2C09FF1F3E
:105244002C09FF1F3409FF1F3409FF1F3C09FF1FEE
:105254003C09FF1F4409FF1F4409FF1F4C09FF1F9E
:105264004C09FF1F5409FF1F5409FF1F5C09FF1F4E
:105274005C09FF1F6409FF1F6409FF1F6C09FF1FFE
:105284006C09FF1F7409FF1F7409FF1F7C09FF1FAE
:105294007C09FF1F8409FF1F8409FF1F8C09FF1F5E
:1052A4008C09FF1F9409FF1F9409FF1F9C09FF1F0E
:1052B4009C09FF1FA409FF1FA409FF1FAC09FF1FBE
:1052C400AC09FF1FB409FF1FB409FF1FBC09FF1F6E
:1052D400BC09FF1FC409FF1FC409FF1FCC09FF1F1E
:1052E400CC09FF1FD409FF1FD409FF1FDC09FF1FCE
:1052F400DC09FF1FE409FF1FE409FF1FEC09FF1F7E
:10530400EC09FF1FF409FF1FF409FF1FFC09FF1F2D
:10531400FC09FF1F040AFF1F040AFF1F0C0AFF1FDA
:105324000C0AFF1F140AFF1F140AFF1F1C0AFF1F89
:105334001C0AFF1F240AFF1F240AFF1F2C0AFF1F39
:105344002C0AFF1F340AFF1F340AFF1F3C0AFF1FE9
:105354003C0AFF1F440AFF1F440AFF1F4C0AFF1F99
:105364004C0AFF1F540AFF1F540AFF1F5C0AFF1F49
:105374005C0AFF1F640AFF1F640AFF1F6C0AFF1FF9
:105384006C0AFF1F740AFF1F740AFF1F7C0AFF1FA9
:105394007C0AFF1F840AFF1F840AFF1F8C0AFF1F59
:1053A4008C0AFF1F940AFF1F940AFF1F9C0AFF1F09
:1053B4009C0AFF1FA40AFF1FA40AFF1FAC0AFF1FB9
:1053C400AC0AFF1FB40AFF1FB40AFF1FBC0AFF1F69
:1053D400BC0AFF1FC40AFF1FC40AFF1FCC0AFF1F19
:1053E400CC0AFF1FD40AFF1FD40AFF1FDC0AFF1FC9
:1053F400DC0AFF1FE40AFF1FE40AFF1FEC0AFF1F79
:10540400EC0AFF1FF40AFF1FF40AFF1FFC0AFF1F28
:10541400FC0AFF1F040BFF1F040BFF1F0C0BFF1FD5
:105424000C0BFF1F140BFF1F140BFF1F1C0BFF1F84
:105434001C0BFF1F240BFF1F240BFF1F2C0BFF1F34
:105444002C0BFF1F340BFF1F340BFF1F3C0BFF1FE4
:105454003C0BFF1F440BFF1F440BFF1F4C0BFF1F94
:105464004C0BFF1F540BFF1F540BFF1F5C0BFF1F44
:105474005C0BFF1F640BFF1F640BFF1F6C0BFF1FF4
:105484006C0BFF1F740BFF1F740BFF1F7C0BFF1FA4
:105494007C0BFF1F840BFF1F840BFF1F8C0BFF1F54
:1054A4008C0BFF1F940BFF1F940BFF1F9C0BFF1F04
:1054B4009C0BFF1FA40BFF1FA40BFF1FAC0BFF1FB4
:1054C400AC0BFF1FB40BFF1FB40BFF1FBC0BFF1F64
:1054D400BC0BFF1FC40BFF1FC40BFF1FCC0BFF1F14
:1054E400CC0BFF1FD40BFF1FD40BFF1FDC0BFF1FC4
:1054F400DC0BFF1FE40BFF1FE40BFF1FEC0BFF1F74
:10550400EC0BFF1FF40BFF1FF40BFF1FFC0BFF1F23
:10551400FC0BFF1F040CFF1F040CFF1F0C0CFF1FD0
:105524000C0CFF1F140CFF1F140CFF1F1C0CFF1F7F
:105534001C0CFF1F240CFF1F240CFF1F2C0CFF1F2F
:105544002C0CFF1F340CFF1F340CFF1F3C0CFF1FDF
:105554003C0CFF1F440CFF1F440CFF1F4C0CFF1F8F
:105564004C0CFF1F540CFF1F540CFF1F5C0CFF1F3F
:105574005C0CFF1F640CFF1F640CFF1F6C0CFF1FEF
:105584006C0CFF1F740CFF1F740CFF1F7C0CFF1F9F
:105594007C0CFF1F840CFF1F840CFF1F8C0CFF1F4F
:1055A4008C0CFF1F940CFF1F940CFF1F9C0CFF1FFF
:1055B4009C0CFF1FA40CFF1FA40CFF1FFFFFFFFF89
:1055C4000000020000000000000000002C10FF1F7B
:1055D4009410FF1FFC10FF1F0000000000000000DB
:1055E40000000000000000000000000000000000B7
:1055F40000000000000000000000000000000000A7
:105604000000000000000000000000000000000096
:105614000000000000000000000000000000000086
:105624000000000000000000000000000000000076
:105634000000000000000000000000000000000066
:105644000000000000000000000000000000000056
:105654000000000000000000000000000000000046
:1056640001000000000000000E33CDAB34126DE6E3
:10567400ECDE05000B00000000000000000000004C
:105684000000000000000000000000000000000016
:105694000000000000000000000000000000000006
:1056A40000000000000000000000000000000000F6
:1056B40000000000000000000000000000000000E6
:1056C40000000000000000000000000000000000D6
:1056D40000000000000000000000000000000000C6
:1056E4000000000000000000C00CFF1F6811FF1F35
:00000001FF
