:100000000C945D000C9485000C9485000C94850084
:100010000C9485000C9485000C9485000C9485004C
:100020000C9485000C9485000C9485000C9485003C
:100030000C9485000C9485000C9485000C9485002C
:100040000C9414030C9485000C94E2020C94BC02F2
:100050000C9485000C9485000C9485000C9485000C
:100060000C9485000C9485000000000024002700FB
:100070002A0000000000250028002B0004040404CE
:100080000404040402020202020203030303030342
:10009000010204081020408001020408102001021F
:1000A00004081020000000080002010000030407FB
:1000B00000000000000000005F0511241FBECFEF0C
:1000C000D8E0DEBFCDBF11E0A0E0B1E0E6E3FDE0A7
:1000D00002C005900D92A034B107D9F721E0A0E449
:1000E000B1E001C01D92A83EB207E1F710E0CDE5F6
:1000F000D0E004C02197FE010E949306CC35D107C1
:10010000C9F70E945E030C9499060C940000EBE47E
:10011000F1E0A089B18982E08C93A485B5851C9219
:10012000A685B78580E18C93108EA489B58986E079
:100130008C93A289B3898C9180618C93A289B389B5
:100140008C9188608C93A289B3898C9180688C9300
:100150000288F389E02D80818F7D80830895AF929E
:10016000BF92CF92DF92EF92FF920F931F93CF93A4
:10017000DF936C017B018B01040F151FEB015E0106
:10018000AE18BF08C017D10759F06991D601ED919B
:10019000FC910190F081E02DC6010995892B79F73A
:1001A000C501DF91CF911F910F91FF90EF90DF90EC
:1001B000CF90BF90AF900895FC01538D448D252FB3
:1001C00030E0842F90E0821B930B541710F0CF96F1
:1001D000089501970895FC01918D828D981761F023
:1001E000A28DAE0FBF2FB11D5D968C91928D9F5F3A
:1001F0009F73928F90E008958FEF9FEF0895FC0119
:10020000918D828D981731F0828DE80FF11D858DCB
:1002100090E008958FEF9FEF0895FC01918D228D5E
:10022000892F90E0805C9F4F821B91098F739927E3
:1002300008958BE491E00E940D0121E0892B09F4DF
:1002400020E0822F089580E090E0892B29F00E9421
:10025000190181110C9400000895FC01A48DA80FD0
:10026000B92FB11DA35ABF4F2C91848D90E00196F8
:100270008F739927848FA689B7892C93A089B18918
:100280008C91837080648C93938D848D981306C0B9
:100290000288F389E02D80818F7D80830895EF921D
:1002A000FF920F931F93CF93DF93EC0181E0888F30
:1002B0009B8D8C8D98131AC0E889F989808185FF00
:1002C00015C09FB7F894EE89FF896083E889F989A2
:1002D00080818370806480839FBF81E090E0DF91A4
:1002E000CF911F910F91FF90EF900895F62E0B8DF7
:1002F00010E00F5F1F4F0F731127E02E8C8D8E11B2
:100300000CC00FB607FCFACFE889F989808185FF18
:10031000F5CFCE010E942D01F1CFEB8DEC0FFD2F1B
:10032000F11DE35AFF4FF0829FB7F8940B8FEA89D3
:10033000FB8980818062CFCFCF93DF93EC01888DE2
:100340008823B9F0AA89BB89E889F9898C9185FD50
:1003500003C0808186FD0DC00FB607FCF7CF8C91DE
:1003600085FFF2CF808185FFEDCFCE010E942D0168
:10037000E9CFDF91CF9108958BE491E00E949C0139
:10038000EBE4F1E0A289B3898C918F7E8C93A289F2
:10039000B3898C91877F8C93A289B3898C918F7755
:1003A0008C93A289B3898C918F7D8C93828D818F60
:1003B000089590E0FC01EC55FF4F2491FC01E057BB
:1003C000FF4F3491FC01E458FF4FE491EE23C9F054
:1003D000222339F0233001F1A8F4213019F1223021
:1003E00029F1F0E0EE0FFF1FEE58FF4FA591B491F9
:1003F0008FB7F894EC91611126C030953E233C9361
:100400008FBF08952730A9F02830C9F0243049F76C
:10041000809180008F7D03C0809180008F778093D2
:100420008000DFCF84B58F7784BDDBCF84B58F7D2F
:10043000FBCF8091B0008F778093B000D2CF8091B6
:10044000B0008F7DF9CF3E2BDACFCF93DF9390E0D2
:10045000FC01E057FF4F249184589F4FFC01849189
:100460008823D1F090E0880F991FFC01E859FF4FD5
:10047000A591B491FC01EE58FF4FC591D491611143
:100480000EC09FB7F8948C91E22FE0958E238C9349
:100490002881E223E8839FBFDF91CF9108958FB732
:1004A000F894EC91E22BEC938FBFF6CF3FB7F89422
:1004B0008091410190914201A0914301B09144018A
:1004C00026B5A89B05C02F3F19F00196A11DB11DAF
:1004D0003FBFBA2FA92F982F8827BC01CD01620FEB
:1004E000711D811D911D42E0660F771F881F991FA6
:1004F0004A95D1F708958F929F92AF92BF92CF9273
:10050000DF92EF92FF924B015C010E9456026B0159
:100510007C010E9456026C197D098E099F09683E74
:10052000734081059105A8F321E0821A9108A10882
:10053000B10888EEC80E83E0D81EE11CF11C8114BE
:100540009104A104B10429F7FF90EF90DF90CF90C0
:10055000BF90AF909F908F90089590914A01980F0F
:1005600090934A01682F8BE491E00E944F018BE841
:1005700091E00197F1F708951F920F920FB60F9235
:1005800011242F933F934F935F936F937F938F9398
:100590009F93AF93BF93EF93FF938BE491E00E94FF
:1005A0002D01FF91EF91BF91AF919F918F917F911D
:1005B0006F915F914F913F912F910F900FBE0F90D0
:1005C0001F9018951F920F920FB60F9211242F9320
:1005D0008F939F93EF93FF93E0915B01F0915C0108
:1005E0008081E0916101F091620182FD1BC09081E8
:1005F000809164018F5F8F7320916501821741F0B4
:10060000E0916401F0E0E55BFE4F958F809364011B
:10061000FF91EF919F918F912F910F900FBE0F90AF
:100620001F9018958081F4CF1F920F920FB60F92F2
:1006300011242F933F938F939F93AF93BF938091F8
:10064000450190914601A0914701B0914801309138
:10065000400123E0230F2D3758F50196A11DB11D50
:10066000209340018093450190934601A093470158
:10067000B09348018091410190914201A0914301C2
:10068000B09144010196A11DB11D80934101909349
:100690004201A0934301B0934401BF91AF919F9158
:1006A0008F913F912F910F900FBE0F901F90189533
:1006B00026E8230F0296A11DB11DD2CFCF93DF9361
:1006C00000D000D000D01F92CDB7DEB7789484B5AB
:1006D000826084BD84B5816084BD85B5826085BD3E
:1006E00085B5816085BD80916E00816080936E00CC
:1006F00010928100809181008260809381008091BE
:10070000810081608093810080918000816080936E
:1007100080008091B10084608093B1008091B0002E
:1007200081608093B00080917A00846080937A0029
:1007300080917A00826080937A0080917A00816053
:1007400080937A0080917A00806880937A0010927A
:10075000C1000E94870061E08DE00E94250261E0F7
:1007600082E00E94250261E084E00E94250261E0AF
:1007700081E00E94250260E080E00E94250260E0A6
:1007800082E00E94D90160E081E00E94D90160E02E
:1007900080E00E94D90161E084E00E94D901CE018D
:1007A00001969F838E8344E6442E512C612C712C3C
:1007B0001E0196E0290E311CEE81FF8125E0119289
:1007C0002A95E9F70E94D80520E737E140E050E09C
:1007D0000E9430066B017C01E0EDCE0EE7E0DE1EEC
:1007E000E11CF11C0E94D80527E030E040E050E019
:1007F0000E9430064B015C01FFEF8F1A9F0AAF0A7F
:10080000BF0A60E082E00E94D9018BE990E0019785
:10081000F1F70E94BC0165E070E080E090E00E948A
:100820007B0261E082E00E94D90165E070E080E037
:1008300090E00E947B020E94870040924F015092FC
:100840005001609251017092520161E070E080E0CD
:1008500090E00E947B0285EC0E94AD0281E00E9444
:10086000AD0210924A0183E00E94AD028AE90E9423
:10087000AD0280E00E94AD0284E10E94AD02809151
:100880004A01819580934A010E94AD028BE491E078
:100890000E940D01181619062CF48BE491E00E94B9
:1008A000EB00F4CF83E00E94AD028BE491E00E9464
:1008B000EB008E010F5F1F4F2FB7F8948091450119
:1008C00090914601A0914701B09148012FBF8093BC
:1008D000530190935401A0935501B09356018BE4BA
:1008E00091E00E94EB0097FFE2C02FB7F89480914F
:1008F000450190914601A0914701B09148012FBF59
:1009000040915301509154016091550170915601ED
:10091000841B950BA60BB70B40914F0150915001D2
:10092000609151017091520184179507A607B7078E
:10093000B0F28B81863009F454C08031A1F08EEE84
:100940000E94AD0201E010914901612F8DE00E94EB
:10095000D90110271093490164EF71E080E090E025
:100960000E947B02F0CF22E0C216D10440F0C60103
:10097000880F991F880F991F05970197F1F75C98C9
:1009800082E08816910440F0C401880F991F880FF7
:10099000991F05970197F1F75C9A8BE491E00E940B
:1009A0000D01181619062CF48BE491E00E94EB005F
:1009B000F4CF08EE13E00150110909F4FDCE8BE4E9
:1009C00091E00E940D01181619062CF08FE090E0BE
:1009D0000197F1F7F0CF8BE491E00E94EB008230B9
:1009E000A9F765E070E080E090E00E947B0281E979
:1009F0000E94AD0261E070E080E090E00E947B0226
:100A000010924A018AE30E94AD028EE40E94AD0278
:100A10008FE60E94AD0284E70E94AD028AE30E9445
:100A2000AD0285E50E94AD0283E70E94AD0285E636
:100A30000E94AD0284E60E94AD028AE30E94AD02EC
:100A400080914A01815080934A010E94AD0261E089
:100A500070E080E090E00E947B0283E90E94AD029A
:100A600061E070E080E090E00E947B0206E111E02E
:100A70008FE3E82E81E0F82EE016F10631F0F80160
:100A800081918F010E94AD02F7CF61E070E080E0BC
:100A900090E00E947B0264E98BE491E00E944F01A8
:100AA00060E081E00E9425020E94BC014BCFF8016A
:100AB00081938F012E163F0609F0FECE3ACFEBE46C
:100AC000F1E01382128288EE93E0A0E0B0E084832C
:100AD0009583A683B78388E091E09183808385EC3A
:100AE00090E09587848784EC90E09787868780ECF8
:100AF00090E0918B808B81EC90E0938B828B82ECE9
:100B000090E0958B848B86EC90E0978B868B118E92
:100B1000128E138E148E08958F929F92AF92BF9271
:100B2000CF92DF92EF92FF92CF93DF93EC01688137
:100B300079818A819B81611571058105910521F477
:100B400064E279ED8BE597E02DE133EF41E050E091
:100B50000E94300649015A019B01AC01A7EAB1E4A9
:100B60000E944F066B017C01ACEEB4EFA50194012D
:100B70000E945D06C60ED71EE81EF91EF7FE06C0CF
:100B800081E0C81AD108E10880E8F80AC882D98251
:100B9000EA82FB82C701B6019F77DF91CF91FF9078
:100BA000EF90DF90CF90BF90AF909F908F9008957F
:100BB0008F929F92AF92BF92CF92DF92EF92FF926D
:100BC00060910001709101018091020190910301F7
:100BD000611571058105910521F464E279ED8BE5DC
:100BE00097E02DE133EF41E050E00E9430064901EB
:100BF0005A019B01AC01A7EAB1E40E944F066B01C8
:100C00007C01ACEEB4EFA50194010E945D06C60E16
:100C1000D71EE81EF91EF7FE06C081E0C81AD108EB
:100C2000E10880E8F80AC0920001D0920101E09248
:100C30000201F0920301C701B6019F77FF90EF9088
:100C4000DF90CF90BF90AF909F908F90089560936A
:100C500000017093010180930201909303010895B4
:100C6000052E97FB1EF400940E94470657FD07D0FF
:100C70000E94620607FC03D04EF40C944706509580
:100C80004095309521953F4F4F4F5F4F0895909578
:100C90008095709561957F4F8F4F9F4F08950E946B
:100CA0008406A59F900DB49F900DA49F800D911D6B
:100CB00011240895B7FF0C944F060E944F06821B23
:100CC000930B0895A1E21A2EAA1BBB1BFD010DC0B8
:100CD000AA1FBB1FEE1FFF1FA217B307E407F507EC
:100CE00020F0A21BB30BE40BF50B661F771F881FC8
:100CF000991F1A9469F760957095809590959B015E
:100D0000AC01BD01CF010895A29FB001B39FC00106
:100D1000A39F700D811D1124911DB29F700D811D27
:100D20001124911D0895EE0FFF1F0590F491E02D01
:060D30000994F894FFCFC6
:100D360001000000000000004F01AF00DC009C0134
:100D46000D01EB00FF00E007264100340000001112
:100D560089FCA1FF0EA515440000DFF3EF04550042
:100D660000008EFD815C0F9EFD71009000EFE0009B
:107800000C94343C0C94513C0C94513C0C94513CE1
:107810000C94513C0C94513C0C94513C0C94513CB4
:107820000C94513C0C94513C0C94513C0C94513CA4
:107830000C94513C0C94513C0C94513C0C94513C94
:107840000C94513C0C94513C0C94513C0C94513C84
:107850000C94513C0C94513C0C94513C0C94513C74
:107860000C94513C0C94513C11241FBECFEFD8E036
:10787000DEBFCDBF11E0A0E0B1E0ECE9FFE702C060
:1078800005900D92A230B107D9F712E0A2E0B1E065
:1078900001C01D92AD30B107E1F70E942D3D0C945F
:1078A000CC3F0C94003C982F959595959595959582
:1078B000905D8F708A307CF0282F295A8091C0000B
:1078C00085FFFCCF9093C6008091C00085FFFCCF60
:1078D0002093C6000895282F205DF0CF982F809127
:1078E000C00085FFFCCF9093C6000895EF92FF92F1
:1078F0000F931F93EE24FF2487018091C00087FD22
:1079000017C00894E11CF11C011D111D81E4E8164B
:1079100082E4F8068FE0080780E0180770F3E09132
:107920000401F091050109958091C00087FFE9CF1E
:107930008091C6001F910F91FF90EF9008950E94D3
:10794000763C982F8091C00085FFFCCF9093C600B5
:1079500091362CF490330CF09053892F089597555D
:10796000892F08951F930E949F3C182F0E949F3CCF
:107970001295107F810F1F9108951F93182F882350
:1079800021F00E94763C1150E1F71F9108951F935A
:10799000182F0E94763C803249F0809103018F5F5E
:1079A000809303018530C1F01F9108958091C0003C
:1079B00085FFFCCF84E18093C6008091C00085FFE5
:1079C000FCCF1093C6008091C00085FFFCCF80E102
:1079D0008093C6001F910895E0910401F091050184
:1079E00009951F9108950E94763C803241F0809164
:1079F00003018F5F80930301853081F008958091AA
:107A0000C00085FFFCCF84E18093C6008091C00058
:107A100085FFFCCF80E18093C6000895E0910401CA
:107A2000F09105010995089540E951E08823A1F0FE
:107A30002D9A28EE33E0FA013197F1F721503040CA
:107A4000D1F72D9828EE33E0FA013197F1F7215064
:107A50003040D1F7815061F708953F924F925F9285
:107A60006F927F928F929F92AF92BF92CF92DF924E
:107A7000EF92FF920F931F93CF93DF93000080E16B
:107A80008093C4001092C50088E18093C10086E015
:107A90008093C2005098589A259A81E00E94143D24
:107AA00024E1F22E9EE1E92E85E9D82E0FE0C02ECA
:107AB00010E1B12EAA24A394B1E49B2EA6E58A2E50
:107AC000F2E57F2EE0E26E2E79E4572E63E5462E36
:107AD00050E5352E0E94763C8033B1F18133B9F107
:107AE000803409F46FC0813409F476C0823409F41B
:107AF00085C0853409F488C0803531F1823521F1A3
:107B0000813511F1853509F485C0863509F48DC0BC
:107B1000843609F496C0843709F403C1853709F423
:107B200072C1863709F466C0809103018F5F80932C
:107B30000301853079F6E0910401F0910501099582
:107B40000E94763C803351F60E94F33CC3CF0E94E2
:107B5000763C803249F78091C00085FFFCCFF092DF
:107B6000C6008091C00085FFFCCF9092C600809136
:107B7000C00085FFFCCF8092C6008091C00085FFC9
:107B8000FCCF7092C6008091C00085FFFCCF609250
:107B9000C6008091C00085FFFCCF5092C600809146
:107BA000C00085FFFCCF4092C6008091C00085FFD9
:107BB000FCCF3092C6008091C00085FFFCCFB09210
:107BC000C60088CF0E94763C863808F4BDCF0E945C
:107BD000763C0E94F33C7ECF0E94763C803809F4CC
:107BE0009CC0813809F40BC1823809F43CC1883942
:107BF00009F48FC080E00E94C73C6CCF84E10E94F2
:107C0000BD3C0E94F33C66CF85E00E94BD3C0E94D3
:107C1000F33C60CF0E94763C809306010E94763C44
:107C2000809307010E94F33C55CF0E94763C80333D
:107C300009F41DC183E00E94BD3C80E00E94C73C66
:107C400049CF0E94763C809309020E94763C809343
:107C5000080280910C028E7F80930C020E94763C79
:107C6000853409F415C18091080290910902892B8D
:107C700089F000E010E00E94763CF801E85FFE4FDA
:107C800080830F5F1F4F80910802909109020817AF
:107C9000190788F30E94763C803209F045CF809125
:107CA0000C0280FF01C16091060170910701660F0F
:107CB000771F7093070160930601A0910802B091AD
:107CC00009021097C9F0E8E0F1E09B01AD014E0F09
:107CD0005F1FF999FECF32BD21BD819180BDFA9A17
:107CE000F99A2F5F3F4FE417F50799F76A0F7B1F4B
:107CF00070930701609306018091C00085FFFCCF5F
:107D0000F092C6008091C00085FFFCCFB092C60003
:107D1000E1CE83E00E94C73CDDCE82E00E94C73CFA
:107D2000D9CE0E94763C809309020E94763C8093D3
:107D300008028091060190910701880F991F909386
:107D40000701809306010E94763C853409F4A6C0A1
:107D500080910C028E7F80930C020E94763C8032D0
:107D600009F0B8CE8091C00085FFFCCFF092C6002C
:107D7000609108027091090261157105B9F140E046
:107D800050E080910C02A82FA170B82FB27011C0E2
:107D9000BB2309F45CC0E0910601F0910701319624
:107DA000F0930701E09306014F5F5F4F46175707B7
:107DB000E8F4AA2369F3F999FECF209106013091E6
:107DC000070132BD21BDF89A90B58091C00085FFB2
:107DD000FCCF9093C6002F5F3F4F30930701209355
:107DE00006014F5F5F4F4617570718F38091C00099
:107DF00085FDE5CE8091C00085FFF8CFE0CE81E023
:107E00000E94C73C67CE0E94763C803209F08CCE3F
:107E10008091C00085FFFCCFF092C6008091C00029
:107E200085FFFCCFE092C6008091C00085FFFCCFAB
:107E3000D092C6008091C00085FFFCCFC092C600E2
:107E40008091C00085FFFCCFB092C60043CEE09188
:107E50000601F091070194918091C00085FFFCCF4D
:107E60009093C6009CCF80E10E94C73C33CE0E9415
:107E7000763C0E94763C182F0E94763C112309F430
:107E800083C0113009F484C08FE00E94C73C22CE29
:107E900080910C02816080930C02E5CE80910C02EF
:107EA000816080930C0259CF809107018823880F4D
:107EB000880B8A2180930B02809106019091070123
:107EC000880F991F90930701809306018091080203
:107ED00080FF09C080910802909109020196909359
:107EE000090280930802F894F999FECF1127E091D6
:107EF0000601F0910701C8E0D1E08091080290915D
:107F00000902103091F40091570001700130D9F34B
:107F100003E000935700E89500915700017001308D
:107F2000D9F301E100935700E89509901990009169
:107F3000570001700130D9F301E000935700E89534
:107F40001395103498F011270091570001700130FB
:107F5000D9F305E000935700E895009157000170B0
:107F60000130D9F301E100935700E895329602976A
:107F700009F0C7CF103011F00296E5CF112480919F
:107F8000C00085FFB9CEBCCE8EE10E94C73CA2CD19
:0C7F900085E90E94C73C9ECDF894FFCF0D
:027F9C00800063
:040000030000780081
:00000001FF
